:020000040800F2
:10000000187F00205D02000871660008D94C0008C6
:10001000D1630008D3120008CD780008000000006A
:100020000000000000000000000000009D0100082A
:10003000CF1D000800000000F9010008A96F0008AA
:1000400077020008770200087702000877020008AC
:10005000770200087702000877020008770200089C
:10006000770200087702000877020008F5190008F7
:10007000011A00080D1A0008191A00087702000872
:10008000251A0008770200087702000877020008A6
:10009000FD120008770200087702000877020008C6
:1000A000770200087702000877020008770200084C
:1000B0008170000877020008B1700008770200081C
:1000C000770200087702000877020008770200082C
:1000D0007702000875760008E17600083977000895
:1000E000770200087702000877020008770200080C
:1000F000770200087702000877020008311A00082A
:1001000077020008770200087702000877020008EB
:10011000557400086174000877020008770200082F
:1001200077020008770200083D1A000877020008ED
:1001300077020008770200087702000877020008BB
:100140005D130008770200087702000877020008B4
:100150007702000877020008491A000877020008B1
:10016000770200087702000877020008770200088B
:1001700077020008770200087702000800000000FC
:100180007702000877020008DFF80CD000F0C0FB0F
:10019000004800470DAB0008187F00202C4B196861
:1001A0000868B0E8F04F80F30988BFF36F8F4FF015
:1001B000000080F3118870470000000008480068C4
:1001C000006880F308884FF0000080F3148862B65E
:1001D00061B6BFF34F8FBFF36F8F00DF00BF00BF6B
:1001E00008ED00E0DFF80C00016841F470010160E7
:1001F000704700BF88ED00E0EFF30980BFF36F8F19
:10020000134B1A681EF0100F08BF20ED108A20E96A
:10021000F04F106009B44FF0500080F31188BFF325
:100220004F8FBFF36F8F0DF009FC4FF0000080F38C
:10023000118809BC19680868B0E8F04F1EF0100F6B
:1002400008BFB0EC108A80F30988BFF36F8F704746
:1002500010270020EFF30580704700000648804714
:1002600006480047FEE7FEE7FEE7FEE7FEE7FEE79B
:10027000FEE7FEE7FEE7FEE771700008890100086F
:100280009FED1A1AF5EE000A40EE010ABDEEE00AF3
:10029000F5EEC00A10EE100AF1EE10FA38BF401E5B
:1002A00000EE100A1349F7EE001AB8EEC00A30EE5D
:1002B000C00ADFED0F0A20EE200AFCEEC00A10EEA5
:1002C000900AC0F3080000EE900A01EB8000F8EEFF
:1002D000600A90ED011A70EE600A90ED000A71EE6E
:1002E000E01A21EE800A00EE810A704783F9223E6F
:1002F0000000004418040108DFED190AB5EEC00A39
:1003000060EE200ABDEEE01A11EE100AF1EE10FACE
:1003100038BF401E00EE100A1349F7EE001AB8EE7F
:10032000C00A30EEC00ADFED0F0A60EE200ABCEE14
:10033000E00A10EE100AC0F3080000EE100A01EB0C
:100340008000B8EE400A90ED011A70EEC00A90ED00
:10035000000A71EEE01A21EE800A00EE810A704771
:1003600083F9223E00000044180401082DE9F05FE3
:100370000546002092469B46884606468146402414
:100380001BE0284641464746224600F00AFA5346FB
:100390005A46C01A914110D311461846224600F021
:1003A000F1F92D1A67EB01084F4622460120002182
:1003B00000F0E8F917EB00094E41201EA4F10104FA
:1003C000DFDC484631462A464346BDE8F09F40EA16
:1003D00001039B0703D009E008C9121F08C0042AC3
:1003E000FAD203E011F8013B00F8013B521EF9D2AA
:1003F0007047D2B201E000F8012B491EFBD27047D2
:100400000022F6E710B513460A4604461946FFF7E0
:10041000F0FF204610BD2DE9FE4F804681EA030023
:10042000C00F0C46009021F0004123F00045B8EBCE
:100430000200A94105D24046214690461C460B4683
:10044000024623F00040104347D0270DC7F30A00AF
:10045000C3F30A510290401A019040286BDAC3F3AB
:10046000130040F4801B0098924620B10023D2EB89
:10047000030A63EB0B0B01985946C0F1400250464A
:1004800000F080F906460D4650465946019A00F0A4
:1004900098F910EB08006141002487EA115284EAC0
:1004A000E7731A4340D0009A62B3019A012A4FEAD7
:1004B000075215DC001B61EB02014FF0004202EA1B
:1004C0000752CDE90042001C41F5801132462B460F
:1004D00000F0CFF903B0BDE8F08F40462146F9E7C0
:1004E000001B61EB0201001C41F5801300185B4109
:1004F0002018A2F5001747EB030140EAD570B619A2
:100500006D4111E06D084FEA360645EAC0754FEAC5
:100510000752001B61EB0201001C41F580114908E4
:100520004FEA30000019514132462B4603B0BDE876
:10053000F04F00F08FB90098012240000023D0EB6B
:10054000020263EBE073009821464FEAE074B8EBD7
:10055000000061EB0401E9E783F000435BE781F011
:10056000004158E72DE9FE4F81EA030404F00044FE
:1005700021F0004100944FF0000B23F0004350EABB
:1005800001045ED052EA03045BD0C3F30A54C1F302
:100590000A552C44A4F2F3340194A0FB0254C1F395
:1005A000130141F48011C3F3130343F4801301FBDF
:1005B000024400FB034E840A970A44EA815447EA46
:1005C0008357A4FB076802958D0A05FB07854FEA50
:1005D000932C04FB0C542705029D4FEA065847EA6A
:1005E0001637B5EB08056EEB070C870E920E47EA3F
:1005F000811742EA8312A7FB0201B6EB0B0164EB01
:1006000000042B0D43EA0C335E1844EB1C50DA4611
:100610005146E7FB0201C5F313044FEA0B3343EAEB
:1006200014534FEA0432019C43EA0603A4F10C047C
:100630000294009CCDE900B400F01BF903B0BDE8C2
:10064000F08F00200146F9E72DE9F04D81EA03041F
:1006500004F0004B21F0004514464FF0000A23F04F
:10066000004150EA050220D054EA01021DD0C5F332
:100670000A570246C5F31303C1F31300C1F30A5628
:1006800040F4801543F48013A7EB0608101BD646F0
:1006900008F2FD3873EB050002D308F1010801E010
:1006A00092185B41B8F1000F03DA00200146BDE863
:1006B000F08D00204FF48011064684460EE0171B93
:1006C00073EB050705D3121B63EB050306434CEAE6
:1006D000010C49084FEA300092185B4150EA0107CB
:1006E000EDD152EA030012D082EA040083EA050148
:1006F000084305D0101BAB4106D20122002306E0BF
:1007000000224FF0004302E06FF0010253101AEB99
:1007100006004CEB085110EB0A0041EB0B01BDE861
:10072000F04D00F097B800F0004230F000400AD0E1
:10073000C10D01F56071C0F3160042EA0151C20813
:1007400040071143704700200146704701F0004305
:1007500030B421F0004150EA010206D00A0DA2F5A2
:100760006072C1F31301002A02DC30BC0020704724
:10077000440F44EAC104C100E01830BC00EBC25091
:1007800000F031B8202A04DB203A00FA02F1002000
:1007900070479140C2F1200320FA03F319439040BF
:1007A0007047202A04DB203A21FA02F0002170472A
:1007B00021FA02F3D040C2F12002914008431946C9
:1007C0007047202A06DBCB17203A41FA02F043EAB1
:1007D000E07306E041FA02F3D040C2F120029140FA
:1007E0000843194670470029A8BF7047401C4900BC
:1007F00008BF20F00100704710B4B0FA80FC00FA86
:100800000CF050EA010404BF10BC704749B1CCF1B0
:10081000200421FA04F411FA0CF118BF012121433C
:100820000843A3EB0C01CB1D4FEA00614FEA1020F7
:1008300042BF002010BC704700EBC3501044002999
:10084000A4BF10BC7047401C490008BF20F0010045
:1008500010BC704710B5141E73F1000408DA401C78
:1008600041F1000192185B411A4301D120F00100CF
:1008700010BD2DE9F04D92469B4611B1B1FA81F2BF
:1008800002E0B0FA80F220329046FFF77BFF044688
:100890000F4640EA0A0041EA0B0153465A46084314
:1008A00013D0114653EA010019D0C8F14002504656
:1008B000FFF777FF05460E46504659464246FFF77A
:1008C00061FF084305D0012004E020463946BDE819
:1008D000F08D0020054346EAE0762C4337430A9822
:1008E0006305E40AA0EB08000022FD0A44EA47542D
:1008F0000A3002D500200146E9E7010510196941D7
:10090000DDE9084500196941BDE8F04DA2E70000A6
:10091000064C074D06E0E06840F0010394E807004C
:1009200098471034AC42F6D3FFF732FC440D01086F
:10093000640D01082DE9F04D00231A461B1A8A4167
:1009400003DB00200146BDE8F08DC1F30A52C1F37C
:10095000130141F480154FF0000BD10702D10018AC
:100960006D41521E0027044640F2FF11384601EB4C
:10097000620A3E468046024600204FF48011FFF78F
:1009800010FFC2197141BB1846EB0100B4EB030C18
:1009900075EB000C04D3E41A65EB000517460E4610
:1009A000241908F101006D4180463428E3DDF9196E
:1009B00046EB0600091BA84103D24FF0FF32134655
:1009C00001E0002213461BEB070046EB0A51BDE88D
:1009D000F04DFFF73FBF70B58C1810F8015B15F0B4
:1009E000070301D110F8013B2A1106D110F8012BA1
:1009F00003E010F8016B01F8016B5B1EF9D12B07C6
:100A000005D40023521E0DD401F8013BFAE710F87B
:100A1000013BCB1A921C03E013F8015B01F8015B68
:100A2000521EF9D5A142D8D3002070BD464910B559
:100A30004A6822F440324A604A6843681A434A606E
:100A400001684A6822F480724A6001684A68036952
:100A500042EA03224A6001684A6822F040724A6012
:100A600001684A6883681A434A6001688A6822F408
:100A700000628A6001688A68C3681A438A60816A72
:100A80006FF07062D14201688A6822F070628A60F9
:100A900001688A680CD0836A1A438A6001688A6890
:100AA00022F040528A6001688A68C36A1A4301E0F2
:100AB00022F040528A6001688A6822F002028A604D
:100AC00001688A68037E42EA43028A6090F8201037
:100AD000002901684A680FD042F400624A60016848
:100AE0004A6822F460424A6001684A68174C436AC7
:100AF00004EB43331A4301E022F400624A600168C8
:100B0000CA6A22F47002CA620168CA6A838B104CF6
:100B100004EB03531A43CA6201688A6822F4007224
:100B20008A6001688A6890F8303042EA43228A601D
:100B300001688A6822F480628A6001688A68406974
:100B400042EA8020886010BD0023014000E0FFFFE2
:100B50000000F0FF114890ED0B0AD0ED0A0A30EECC
:100B6000600ABDEEC00A10EE100A00B200F5257151
:100B7000B1F5A56F06D9002802DD4FF4257001E01C
:100B800000DA074800EE100A044800F17400B8EEDD
:100B9000C00A006880ED080A70470000D8030020F2
:100BA0006CFDFFFF10B5002406F006F878B1094986
:100BB000C87F10B1012807D009E091F8220008B1E0
:100BC000012404E0002402E006F0BAFF04462046B7
:100BD00010BD00001800002010B501F097FA05F0D4
:100BE000DBFF012010BD000008480068417D00299E
:100BF0000BD1C08A410508D4010506D4C00404D431
:100C000003490020C8730349087070474C04002052
:100C100018000020C803002010B5044CA07E002856
:100C200003D1FFF7BFFF84F8210010BD180000209A
:100C30002DE9F04116462DED0C8B0F468046B3F999
:100C40000030DDE9151000EE103ADDE91352B8EE80
:100C5000C01AFE4CDDF848C084ED0E1ABCF9003015
:100C600000EE103AB8EEC00A84ED0F0AB5F9003074
:100C7000032593FBF5F31BB203EB430300EE103A9D
:100C8000B8EEC00A84ED100AB2F9002000EE102A76
:100C9000B8EEC00A84ED110AB1F9001000EE901A06
:100CA000F8EEE01AC4ED121AB0F9000020EE210AA5
:100CB00000EE900AF8EEE00AC4ED130A20EE200AD6
:100CC000B5EEC00AF1EE10FA7DD0E14D297B9FED23
:100CD000E18AFDEEC10AB0EE480A10EE900A00B2B9
:100CE00009F0E6FE84ED0E0AD4ED0F0A297BB0EE82
:100CF000480AFDEEE00A10EE900A00B209F0D8FEB4
:100D000084ED0F0AD4ED100A297BB0EE480AFDEEFF
:100D1000E00A10EE900A00B209F0CAFE94ED0E1A35
:100D2000DFEDCD0A21EE201A20EE200A84ED0E1A06
:100D300094ED0F1A21EE201A84ED0F1A84ED100A9B
:100D4000D4ED110A297BB0EE000AFDEEE00A10EEA8
:100D5000900A00B209F0C0FE84ED110AD4ED120A27
:100D6000297BB0EE000AFDEEE00A10EE900A00B218
:100D700009F0B2FE84ED120AD4ED130A297BB0EE1D
:100D8000000AFDEEE00A10EE900A00B209F0A4FE9F
:100D900084ED130AB0EE401A94ED110A60EE000AD9
:100DA00094ED120A40EE000A41EE010AB0EE600A2C
:100DB00009F030FD84ED070AD4ED110A20EE805AC7
:100DC00084ED115A00E077E1D4ED120AB0EE008A0A
:100DD00060EE803AC4ED123AD4ED130A60EE802A38
:100DE000C4ED132A94ED040AD4ED060AD4ED031AD7
:100DF00094ED051A20EE202A01EEC12A22EE084ABF
:100E000021EE802A84ED084A01EE202A62EE084A8B
:100E100021EEA12AC4ED094A00EE402A01EE412A42
:100E200000EEA02A84ED0A2A23EE823A02EEE43A8A
:100E300062EE842A45EE422A25EE242A84ED0B3AFE
:100E400003EEC42AC4ED0C2A84ED0D2A94ED144A55
:100E5000D4ED013A03EE234A84ED144AD4ED155A39
:100E600042EEA35AC4ED155A94ED165A02EE235AD7
:100E700084ED165AD4ED0E3AD4ED004A44EE833A8E
:100E800033EE843A84ED0E3AD4ED0F3A44EEA23AB2
:100E900073EEA53AC4ED0F3AD4ED102A61EEA35AD1
:100EA00044EE822A20EE432A61EE834A01EE632A51
:100EB00072EE852AB0EE615AC4ED102A41EE224A44
:100EC000C4ED171A84ED180A00EEE22A84ED191A0F
:100ED000C4ED1A0A94ED024A40EEE34A40EE625A2B
:100EE00002EE045AB0EE402A04EE842A84ED035A3E
:100EF00084ED042A61EEA21A40EE835AF0EE414AD4
:100F000040EE231A25EE050A45EE844A02EE020A57
:100F100041EE431AC4ED054A04EEA40A41EE840AE8
:100F2000C4ED060A00EEA00A09F074FC84ED070A7D
:100F3000D4ED030A20EE80BA84ED03BAD4ED040A9E
:100F400020EE809A84ED049AD4ED050A60EE809A32
:100F5000C4ED059AD4ED060A60EE808A2BEE0B0AEA
:100F6000C4ED068A09EE490A09EEE90A08EEA80A64
:100F700010EE100AFFF7D7FB29EE880A6BEE080A7D
:100F800041EC1A0B20EE280A00EE890A10EE100A36
:100F9000FFF7C9FB41EC100BB0EE4A1AF0EE6A1AEB
:100FA00007F04EF99FED2D9B51EC100B53EC192BD4
:100FB000FFF7D8FAFFF7CAFB94ED040AD4ED060A4E
:100FC00094ED051A20EE080A08EE900A20EE200A99
:100FD000D4ED030A60EE880A00EEC10A10EE100A92
:100FE000FFF7A1FB41EC100B06F00EFE9FED1D1B61
:100FF00051EC100B53EC112BFFF7B4FAFFF7A6FBE3
:1010000094ED03DAD4ED04AA94ED05AA2DEE0D0AB1
:10101000D4ED06BA0BEE100A0AEEAA0A0AEE4A0A44
:101020000BEEEB0A10EE100AFFF77DFB2AEE8A0AA0
:1010300041EC1C0B0DEE2B0A20EE080A10EE100AF4
:10104000FFF771FB41EC100B10E0000000070020DF
:10105000282D00200000FA44728A8E3C00000060B7
:1010600066A64C400000006066A64CC0B0EE4C1A6C
:10107000F0EE6C1A07F0E4F853EC192B51EC100B5E
:10108000FFF770FAFFF762FBDFED0E0A9FED0E0A25
:1010900001EE100A78EEA01A61EE801AC7ED001A70
:1010A0007BEE201A71EE200A61EE801A20EE800A93
:1010B000C8ED001A86ED000A0020BDEC0C8BBDE8DF
:1010C000F081000000003443440BB6412DE9F047A5
:1010D000804691460F46122004F050FE044613202D
:1010E00004F04CFE44EA0026142004F047FE0446B7
:1010F000152004F043FE44EA0025162004F03EFECD
:101100000446172004F03AFEA8F8006044EA0020E4
:101110003D80A9F80000BDE8F0872DE9FE4F154697
:10112000DDE90C9A0E4607460C221C46694610461D
:1011300004F04AFEBDF80080BDF802C0BDF80430DE
:10114000BDF80620BDF80810BDF80A00A4F800801C
:10115000A9F800C0AAF800303A8031802880BDE8A4
:10116000FE8F000038B5194807F0F8FD07F06AFA5D
:10117000164807F02BFA044607F064FA24BB012056
:101180008DF800000146114A684607F075FE07F029
:1011900059FA0E4805F002FE00208DF800000B4AB7
:1011A0000121684607F068FE07F04CFA074805F091
:1011B000CBFD02208DF80000044A0121684607F0AB
:1011C0005BFE044607F03EFA204638BD282D00207D
:1011D000094810B5407E01280CD108480068806A93
:1011E00010F1814F06D902F095FA054908600549CA
:1011F0000120087010BD0000180000204C040020E1
:10120000800000206D00002007489FED060A074A75
:10121000816B81ED800A406B0021007B22F8101069
:101220007047000000000000B0260020BC00002035
:101230000D4A1168B1F84F30B1F86C105B1A0B49C8
:10124000142B896A09DC92F82020012A05D09FED31
:10125000080A00BF81ED000A7047404200EE100A04
:10126000B8EEC00AF6E70000DC060020B026002039
:101270000000000010B50E4C0022DFED0E0A206ABF
:101280001146B0F9020000EE100AA06AB8EEC00ADA
:1012900005F012FAA06A084A80ED800A616ABDEE84
:1012A000C00A097B10EE100A22F8110010BD0000E0
:1012B000B026002000000000BC00002010B5002077
:1012C00001F042F80020FFF7B3FFBDE81040FFF740
:1012D000D1BFFEE700B58BB0684600F05FF8694605
:1012E000054801F0CDFB0221034801F053FB024801
:1012F00001F0DEFE0BB000BD8C360020014801F08D
:10130000BABC00008C3600200A460146014800F0B5
:101310007FB800008C36002070B50C46054604F0FE
:10132000CBFC0348214682692846BDE8704010473F
:101330002C05002000B58BB0684600F02FF86946F8
:10134000054801F09DFB0221034801F023FB024800
:1013500001F0AEFE0BB000BDB4360020014801F034
:101360008ABC0000B43600200A460146014800F05D
:101370004FB80000B436002070B50C46054606F0A4
:101380003DFA2146284604F0C5FC034821468269FF
:101390002846BDE8704010472C0500200021016060
:1013A00041608160C160016101224161C0E90612B2
:1013B000C0E908217047000010B5124A0168914247
:1013C0000DD1114B00211C46A3F11C0201F0DFFBE3
:1013D0000D4821461C380068FFF79EFF10BD0B4AE0
:1013E0009142FBD1084B002124331C46A3F11C027F
:1013F00001F0CDFB0448214608300068FFF7BCFF30
:1014000010BD00000064004054330020006800401C
:1014100038B50B46164C0168A14201D1154904E0CC
:10142000154CA14222D1134920310B6000238B605F
:10143000CB6008230B6113881B0A0B7613784B765D
:1014400053881B0A8B769378CB7693881B0A0B778D
:1014500013794B77D3881B0A8B779279CA776B46BF
:1014600001F1180201F0A8FA002800D0012038BDCF
:101470000064004080330020006800401CB500225A
:1014800000920192027B6B462DF81210017831B167
:10149000012903D180681946FFF766FF1CBD8068EB
:1014A0001946FFF731FF1CBD70B50B46302822D11D
:1014B000124D18886E4240BA00B2DFED0F0AB3EE4B
:1014C0000E0A2A46314609F0BBF90D4CFBEE040A20
:1014D0002A4684ED000A5888B3EE040A40BA00B2E6
:1014E000314609F0ADF984ED010A9888054940BA02
:1014F00020810020088170BD000000000083FFFFF4
:101500001C2D00202C05002070B5294C2DED028BE0
:10151000A07A9FED288A012804D1207A012842D19F
:10152000207F88BB244DDFED250AB5F9120040422B
:1015300000EE100AB8EEC00A03F0B0FBE079F0EE5E
:10154000400A012802D0022806D023E0F5EEC00AA6
:10155000F1EE10FA05DC1DE0F5EEC00AF1EE10FA2E
:1015600018D2F5EEC00AF1EE10FA01DCF1EE600AD5
:101570009FED131A80EE810A10EE100AB0F17E5F23
:1015800003DDB7EE000A07E00DE0B5EEC00AF1EEAC
:1015900010FA01D2B0EE480A95F82E00012802D0C8
:1015A000E87B012801D1B0EE480ABDEC028B70BD8A
:1015B0001800002000000000FC04002000F8FF4597
:1015C00000A0AA440421014802F0A8BFFC36002074
:1015D00010B505F03BF81348C07A08B900F066FE74
:1015E00000F07AFE06F098FAB5EEC00AF1EE10FAB5
:1015F00002DD06F091FA03E006F08EFAB1EE400A41
:101600000948B1EE041A8068D0ED2F0A70EE810A05
:10161000B4EEE00AF1EE10FA01D2012010BD022072
:1016200010BD000018000020D01D00202B492C4ABE
:101630009FED2C1AB1F86A1000EE101AB8EE400AAD
:1016400010EE101A914201DDB0EE410A10EE101AB0
:10165000C0EE010A244B994201DA60EEA00A10EEB6
:10166000101A9FED220A914201DA20EE800AB0F9A9
:101670000020002A00DC5242B0F90210002900DCF0
:1016800049420A44B0F90410002900DC49420A44E6
:10169000B0F90610002900DC4942114400EE901A0E
:1016A000F8EEE00A80EE201AF4EEC00AF1EE10FA2D
:1016B00012DB002130F9112000EE102AB8EEC00A2A
:1016C00020EE010ABDEEC00A10EE102A20F811200B
:1016D000491CC9B20429EDD3704700001C06002044
:1016E00000007042000070420000C8410000FA464D
:1016F0000D489FED0C0A80ED010A80ED020A80ED95
:10170000000A80ED190A0948816881ED000A8169A3
:1017100081ED000A816A81ED000A806B80ED000A8C
:1017200000F006B80000000068010020F01800205A
:1017300010B505F041F80C4800F01AF80B4890F885
:10174000200010B1012804D006E00748FFF76EFF23
:1017500002E0054803F078FCBDE81040024A4FF46F
:101760000071012005F0C0BA60010020DC060020F5
:1017700070B506462DED028B84B053485349544C46
:10178000C07991ED020AF6EE008AB7EE008A6D4646
:10179000012802D0022836D06BE0B5EEC00AF1EE87
:1017A00010FA66D0FFF7B0FEF0EE480AA06840EEEF
:1017B000680A90ED800A20EE800A8DED000AFFF79E
:1017C000A3FEF0EE480AA06940EE680A90ED800A98
:1017D00020EE800A8DED010AFFF796FEA06A30EE3A
:1017E000080AD0ED800A20EE200A8DED020AFFF7EC
:1017F0008BFEA06B30EE080AD0ED800A20EE200AA6
:101800008DED030A43E0B5EEC00AF1EE10FA30D0D8
:10181000FFF77AFEF0EE480AA06A40EE680A90ED03
:10182000800A20EE800A8DED020AFFF76DFEF0EED1
:10183000480AA06B40EE680A90ED800A20EE800A0C
:101840008DED030AFFF760FEA06830EE080AD0EDC8
:10185000800A20EE200A8DED000AFFF755FEA069F0
:1018600030EE080AD0ED800A20EE200A8DED010A44
:101870000DE0002004EB0011896891ED800A05EB72
:101880008001401CC0B281ED000A0428F2D300217F
:101890004FEA010204EB0110807B48B126F81120C9
:1018A000491CC9B20429F5D304B0BDEC028B70BD4C
:1018B00005EB810090ED000ABDEEC00A10EE100AA3
:1018C00026F81100ECE70000180000206801002055
:1018D000F018002010B5044601704078884203D00B
:1018E00061700020207102E02079012804D0204698
:1018F00000F016F8207110BD2046BDE8104000F041
:1019000001B8000000780121044A022803D0012810
:1019100000D191707047D17070470000180000200E
:1019200010B50446022020712078022805D0012835
:1019300006D001202071C0B210BD05F0C7F8F9E74C
:1019400003F051FCF6E70000064900208870C870DB
:101950004872087288728874C8744874C8730249DF
:1019600088817047180000200804002010B503F09B
:10197000C5FA03F00BFB03F0C7FA03F00DFB0448B4
:101980008168884703488168BDE810400847000027
:10199000DC0600200006002010B50C4C94F8220054
:1019A000002812D00A480068407D00280DD0207C15
:1019B00000280AD1A07B002807D1A26B032104F1E3
:1019C0000C009047002084F8220010BD1800002071
:1019D0004C040020064800684078022805D00328FF
:1019E00003D0052801D00020704702207047000076
:1019F00000060020014801F04FBC000040390020E3
:101A0000014801F049BC0000803B0020014801F082
:101A100043BC0000E0380020014801F03DBC00005C
:101A2000203B0020014801F037BC0000C03A0020F4
:101A3000014801F031BC0000A0390020014801F04C
:101A40002BBC0000003A0020014801F025BC00003A
:101A5000603A00202DE9F04F85680024099E802D12
:101A600018D0894DC563894D456490F83450012DD7
:101A700015D0012580F8345090F83550012D10D044
:101A8000002180F834100224002180F83410204610
:101A9000BDE8F08F4FF4807141650120F8E7022026
:101AA000F6E7022580F835500025456505682F6862
:101AB00047F480272F6005682B6103685E608368A8
:101AC000402B03682AD099600168CA60714D704E3E
:101AD000704FDFF8BC81DFF8B891DFF8B8A1DFF80C
:101AE000B4B1EA14DFF8A8E1016818363037930280
:101AF000A9F148090AF1600A0BF1180BAEF1300E9A
:101B00004FF0006C41452DD9A94205D0494503D07D
:101B1000514501D0B14205D1202220E09A600268EF
:101B2000D160D3E759451AD0714518D0594D783551
:101B3000A94214D0564D3035A94210D0B9420BD02D
:101B4000534A183A914207D0524A9032914203D0F8
:101B50004F4A4832914201D11A4600E062464C4950
:101B60004C392EE0DFF82C8108F1A80841452AD92C
:101B7000A94205D0494503D0514501D0B14201D118
:101B800020221CE059451AD0714518D0414D7835B6
:101B9000A94214D03E4D3035A94210D0B9420BD0E5
:101BA0003B4A183A914207D03A4A9032914203D0C8
:101BB000374A4832914201D11A4600E06246344920
:101BC00050390A605AE0DFF8CC8008F148084145F6
:101BD0002AD9A94205D0494503D0514501D0B14287
:101BE00001D120221CE059451AD0714518D0294D49
:101BF0007835A94214D0264D3035A94210D0B942CB
:101C00000BD0234A183A914207D0224A903291428F
:101C100003D01F4A4832914201D11A4600E0624681
:101C20001C491039CA6029E0A94205D0494503D0B2
:101C3000514501D0B14201D120221CE059451AD0B2
:101C4000714518D0134D7835A94214D0104D303558
:101C5000A94210D0B9420BD00D4A183A914207D090
:101C60000C4A9032914203D0094A4832914201D144
:101C70001A4600E06246074910398A6001680A681E
:101C800042F001020A60FFE6859400089D94000876
:101C9000586402401060024001681823CAB2103A2A
:101CA000B2FBF3F2054B6FF30901032A9B5CC3659A
:101CB00000D9091D8165084670470000100401081D
:101CC00010B5014600208B698A6A4FF0C07453B189
:101CD000B3F5005F15D072B1012A0CD0022A0AD0E8
:101CE000032A09D104E01AB1012A06D0022A03D13D
:101CF000C96AC90100D5012010BDC96AA142FAD044
:101D000010BD002AF7D0012AF2D0022AF3D0032A0C
:101D1000F3D010BD70B590F834500024012D0CD0D4
:101D2000012580F8345090F835600025012E06D04A
:101D300080F834500224204670BD022070BD022677
:101D400080F83560456505682E6826F480262E608B
:101D500005686B608368402B036808D09960016850
:101D6000CA600068016841F001010160E3E79A6020
:101D70000268D160F5E710B505F0BEFCFFF7AAFADE
:101D8000FFF7D8FA04F03EFD05F00EFD05F0E0FC8B
:101D9000BDE8104005F07ABC01680A68D20604D597
:101DA000C968C90601D50BF01FBC704770EE601AF8
:101DB000F5EEC01AF1EE10FA01DC70EEC01AF4EE86
:101DC000C11AF1EE10FA01D2B0EE600A7047704706
:101DD000F0B5404890F847100A2945D20122A0F8F2
:101DE0009C200222A0F89E200322A0F8A02004221A
:101DF000A0F8A2200522A0F8A42040F20117062294
:101E0000A0F8A6207E1C0722A0F8A820751C6C1C38
:101E1000A0F8AA70A0F8AC60631CA0F8AE50A0F8BF
:101E2000B0405A1CA0F8B230A0F8B42001290CD060
:101E300002290DD003290ED004290FD0052910D076
:101E4000062901D1A0F8B620F0BDA0F8B670F0BD0B
:101E5000A0F8B660F0BDA0F8B650F0BDA0F8B6404E
:101E6000F0BDA0F8B630F0BD6522A0F89C20662237
:101E7000A0F89E206722A0F8A0206822A0F8A22047
:101E80006922A0F8A42040F265176A22A0F8A620D3
:101E90007E1C6B22A0F8A820751C6C1CA0F8AA70F0
:101EA000A0F8AC60631CA0F8AE50A0F8B0405A1C7B
:101EB000A0F8B230A0F8B4206529C6D06629C7D0F2
:101EC0006729C8D06829C9D06929CAD06A29B9D078
:101ED000F0BD00001C0600200848417A084801298E
:101EE00007D0032907D0022902D100BF80F82510AE
:101EF00070470021FAE70121F8E7000008040020FC
:101F00001800002072B6FEE710B500F0FFF800F0F0
:101F100003F8012010BD00000448C17C21B1012953
:101F200001D10021C17470470121FBE71800002096
:101F300004480068017BC01C11B9007A002800D059
:101F400001207047000600208279C1798A4202D0C0
:101F5000002202608171704710B5002000F004F883
:101F6000BDE8104000F030B830B515490C460A689D
:101F7000A46893790A6992791E3A1E3BD0B103EBAB
:101F800083031D010A2395FBF3F502EB82022D1A50
:101F9000120100EE105A92FBF3F2B8EEC00A801A5A
:101FA00084ED000A00EE100AB8EEC00A886980EDE0
:101FB000000A30BD9FED030A84ED000AF6E7000039
:101FC000B02600200000000010B5204C00222DEDAE
:101FD000028B114620689FED1E8AB0F90200F0EED8
:101FE000480A00EE100AA068B8EEC00A04F064FBCC
:101FF000A0680022F0EE480A80ED800A20691146B0
:10200000B0F9020000EE100AA069B8EEC00A04F0B0
:1020100053FBA06980ED800AA16891ED800A616898
:10202000BDEEC00A0B7B0B4910EE102A21F81320DD
:1020300090ED800A6269BDEEC00A127B10EE100AB4
:1020400021F81200BDEC028B10BD0000B02600206C
:1020500000000000BC00002010B50446017040786C
:10206000884203D061700020207202E0207A0128AB
:1020700005D0204600F022F82072012804D1204625
:10208000BDE8104000F002B810BD0000007807283D
:102090000CD00121084A012809D0062806D00328BF
:1020A00004D0042805D0022800D1D1737047917460
:1020B00070475174704700001800002010B50446A6
:1020C000022020722078012207280AD003280DD090
:1020D00004280ED006280FD0012810D0022811D0D5
:1020E00001E000F013F82272207A10BD04F096FD92
:1020F0000AE004F09CFD07E0FFF706FF04E003F0B0
:10210000B1FD01E0FEF768FD2072EDE70248002115
:1021100081744174704700001800002070B519499F
:10212000194C2DED028B0868097E90F82900E1B961
:10213000D8B1FFF7FDFEC0B105F01CFD9FED138A7D
:10214000134D18B185ED008A85ED018AFFF742FC39
:1021500018B185ED008A85ED018A0220A077BDECDB
:10216000028BBDE8704000F015B8A07F022801D1B5
:1021700000F082F80020A077BDEC028BBDE8704033
:1021800000F016B800060020180000200000000033
:102190000C01002010B505F08DFCBDE8104004F0E6
:1021A000EDBA10B505F09AFCBDE8104004F0FABA9B
:1021B00010B505F089FCBDE8104004F0E9BA10B58F
:1021C00000F08AF8BDE8104000F05EB82DE9F0415B
:1021D0002548264C007E012809D005F089FCB5EE83
:1021E000C00AF1EE10FA0CDD05F082FC0DE0FFF7FD
:1021F000E6FF01F08FFAA06001F08CFAE060BDE824
:10220000F08105F075FCB1EE400A10EE100A184F8F
:102210000125184EB84215DA04F006FBB5EEC00AE7
:10222000F1EE10FA02DD04F0FFFA03E004F0FCFA2C
:10223000B1EE400A10EE100AB84203DA00F01CF8C2
:10224000F57503E0FFF7BBFFFFF7ABFF01F062FAA4
:10225000E060A168401A40F2DC518842CFD900F01A
:102260000BF8F575CBE700004C0400200C010020B2
:10227000000048421800002010B500F02DF8BDE81D
:10228000104000F013B8000006489FED050A806971
:1022900080ED400A9FED040A80ED600A704700005F
:1022A00000F07F45D01D00200068D6450848006832
:1022B00090ED010A0748816981ED400A00690088B4
:1022C00000EE100AB8EE400A81ED600A7047000087
:1022D000D4040020D01D002010B5064802F072FE84
:1022E0000548006890ED000A0248806880ED400AC9
:1022F00010BD0000D01D0020D404002010B558B13E
:10230000084C491E0BD310F8013B5340DBB234F8A4
:10231000133083EA1222F4E74FF6FF7010BD104627
:1023200010BD00008801010810B5064C04E000BF94
:1023300010F8013B5340E25C491E89B2F8D21046C6
:1023400010BD00008800010811499FED120ADFED61
:10235000120A9FED121A8A6AF6EE001AA0B1B1EEC7
:10236000082A00BF82ED042A886AC0ED051A886A2F
:1023700080ED060A886AC0ED0C0A886A80ED0D1AA5
:10238000886A80ED0F0A7047B0EE082AEAE700007D
:10239000B02600200000000000409C4500401C4684
:1023A00003480068D0F8030000EE100A70470000F0
:1023B000000600201248DFED110AC178B0EE600A75
:1023C000012906D10F49B1F9021000EE101AB8EE3A
:1023D000C00A8178012903D10B49096891ED070AE8
:1023E000807C012801D1B0EE600AB5EEC00AF1EEA2
:1023F00010FA01D1B0EE600A704700000000000042
:1024000018000020080400204C0400200348006845
:10241000D0F8070000EE100A704700000006002008
:102420000F48DFED0E0AC178B0EE600A012906D12F
:102430000C49B1F9001000EE101AB8EEC00A80780D
:10244000012803D10848006890ED060AB5EEC00ADD
:10245000F1EE10FA01D1B0EE600A70470000000002
:1024600018000020080400204C04002010B504F0DF
:10247000EDF8FFF701FF012010BD0000094A137EAF
:102480004268012B127B0AD0806890ED800ABDEE75
:10249000C00A10EE100A00BF21F812007047002099
:1024A000FAE700004C04002070B50546846819481E
:1024B0001949D0ED010A30EE200A10EE100A84ED21
:1024C000400A884202DD9FED150A06E010EE100A70
:1024D0001349884201DA9FED130A134884ED400A3C
:1024E00001220068B0F9321000EE101A04F5A07154
:1024F000F8EEC00A90ED010A04F5807004F0DCF8F3
:1025000084ED800A2846BDE8704002491031FFF78B
:10251000B5BF00000C01002000C08F4500C08F45F2
:1025200000C05A4500C05A45D404002070B5B5EE2D
:10253000C00A1D4DF1EE10FA8468064602D194EDF2
:10254000400A08E02868D0ED010A30EEC00A03F026
:1025500073FB84ED400A10EE100A1449884202DD34
:102560009FED130A06E010EE100A1249884201DAC4
:102570009FED110A012284ED400A2868B0F932105B
:1025800000EE101A04F5A071F8EEC00A90ED010AF1
:1025900004F5807004F090F884ED800A3046BDE8C0
:1025A00070400649FFF76ABFD404002000C08F4581
:1025B00000C08F4500C05A4500C05A451C0100208C
:1025C00070B5B5EEC00A0568F1EE10FA84680646EB
:1025D00002D194ED600A0AE0288800EE900AF8EE35
:1025E000600A30EEC00A03F027FB84ED600A10EEAB
:1025F000100A1E49884202DD9FED1D0A06E010EE1A
:10260000100A1C49884201DA9FED1B0A1B4910EE93
:10261000100A84ED600A884202DD9FED190A06E087
:10262000B5EEC00AF1EE10FA01D29FED160A164877
:1026300084ED600A0122006804F5E071B0F932000F
:1026400000EE100A2888F8EEC00A00EE100A04F521
:10265000C070B8EE400A04F02FF884ED800A3046CE
:10266000BDE870400949FFF709BF00000080E3455D
:102670000080E34500C0B74500C0B74500F8FF45FE
:1026800000F8FF4500000000D40400201C010020D9
:1026900070B5054684680E48012204F5A071D0ED9E
:1026A000000A0C4830EE200A84ED400A0068D0EDA4
:1026B000060A90ED000A04F5807003F0FDFF84ED3A
:1026C000800A2846BDE8704001491031FFF7D6BEA8
:1026D0000C010020D404002070B5B5EEC00A194DDD
:1026E000F1EE10FA8468064617D01748006890F893
:1026F000301091B990F8311079B990F8370060B97D
:10270000DFED120AC4ED440A2868D0ED000A30EE6D
:10271000C00A03F091FA84ED400A2868012204F50A
:10272000A071D0ED060A90ED000A04F5807003F068
:10273000C3FF84ED800A3046BDE870400449FFF7CE
:102740009DBE0000D40400204C040020CDCCCC3F22
:102750001C01002070B50546846800680B49012201
:102760000088096800EE100A04F5C070D1ED060A71
:10277000B8EE400A04F5E07103F09EFF84ED800A94
:102780002846BDE870400249FFF778BED404002017
:102790001C01002078B50024009490F83C20012A08
:1027A00019D0012280F83C200A6807230568092A0D
:1027B00013D9EE680A3A02EB420293409E43EE6060
:1027C0000B788A680A3B03EB43039A400368DD6891
:1027D0002A43DA6010E0022078BD2E6902EB420243
:1027E00093409E432E610B788A6803EB43039A4023
:1027F00003681D692A431A614A681F23072A13D2F6
:1028000005686E6B521E02EB820293409E436E631C
:102810000B790A885B1E92B203EB83039A4003682C
:102820005D6B2A435A6327E005680D2A12D22E6B8E
:10283000D21F02EB820293409E432E630B790A88DB
:10284000DB1F92B203EB83039A4003681D6B2A439C
:102850001A6311E0EE6A0D3A02EB820293409E4346
:10286000EE620B790A880D3B92B203EB83039A4028
:102870000368DD6A2A43DA62164B0568144A9D42F2
:1028800006D10D68122D03D1556845F480055560B9
:1028900005689D4218D10B68102B01D0112B13D164
:1028A000536843F400035360096810290CD10A49A6
:1028B0000A4A0968B1FBF2F101EB8101490000E02D
:1028C000491E00910029FBD180F83C40002078BDD2
:1028D00000230140002001400C27002040420F004F
:1028E00070B504004FF0000503D0206C002610B135
:1028F00007E0012070BD204600F01CF8666484F8F3
:102900003C60206CC00610D4206C20F4885040F04D
:10291000020020642046FEF789F86664206C20F0EF
:10292000020040F00100206400E0012584F83C60D2
:10293000284670BD10B586B0044614216846FDF7E0
:102940005FFD1149206888421CD1104800210268AF
:1029500042F480720260006800F4807005900B48B9
:102960001438026842F004020260006800F00400BB
:102970000590012000900320CDE90101694604483B
:1029800000F0C4FD06B010BD0020014044380240F4
:102990000008024090F82020012A07D0022A05D022
:1029A000416A41F480214162012070470068426918
:1029B0000A43426100207047F0B590F82050046847
:1029C000A468012D05D0022D03D0416A41F4802175
:1029D00053E014F0406F01D1E5004BD5C4F301641E
:1029E000022C03D9416A41F4000146E00125A540CB
:1029F0001D608D684FF4C0739DB1CE6835434E683D
:102A000045EAC605066803EB0417F5514FF4C27595
:102A1000076805EB04150E697E51097D012905D073
:102A200009E00E88CD6845EA4655EBE701684E5946
:102A300046F480764E511179D2F805504FF4C6769F
:102A400041EA0525016806EB04168D511178D2F88C
:102A500001204FF4C47541EA0221026805EB041518
:102A60005151006803EB0411425842F001024250F8
:102A70000020F0BD416A41F4001141620120F0BD27
:102A800010B590F82020012A07D0022A05D0416A0B
:102A900041F480214162012010BD3B48D0F8002262
:102AA00042F00102C0F80022D0F8002222F47C5249
:102AB000C0F80022D0F800224B6A42EA0322C0F894
:102AC00000220A7D02F01F0301229A40D0F81C3236
:102AD0009343C0F81C32CB69B3B9D0F80C3293439E
:102AE000C0F80C328C894B6864F31F434C6900EBCF
:102AF000C404C4F840320C890B6864F31F434C696A
:102B000000EBC404C4F84432CB69012B16D1D0F8D1
:102B10000C321343C0F80C320C884B6864F31F432B
:102B20004C6900EBC404C4F840320C89CB6864F3F0
:102B30001F434C6900EBC404C4F844328B69002B7A
:102B4000D0F804320ED01343C0F804320B69002BC6
:102B5000D0F8143208D01343C0F81432096A01299E
:102B600004D008E09343EFE79343F5E7D0F81C1255
:102B70001143C0F81C12D0F8001221F00101C0F876
:102B80000012002010BD000000640040704730B506
:102B900090F82040012C05D0022C03D0416A41F46A
:102BA00080215DE00468002955D02469A40754D031
:102BB0004FF4D874056804EB01142D5915F0040581
:102BC000956005682D594ED0ED08556005682C5963
:102BD00004F00204D4604FF4DA74056804EB0114C5
:102BE0002D5905F00F05156105682D59C5F3072509
:102BF000956105682C59240C54614FF4DC7204680B
:102C000002EB0112A4581C700468A458240A5C70DA
:102C10000468A458240C9C700468A258120EDA7040
:102C20004FF4DE72046802EB0112A4581C710468B0
:102C3000A458240A5C710468A458240C9C7104688C
:102C4000A258120EDA71006881B1016941F02001C9
:102C50000161002030BDE468A8E7416A41F4001139
:102C60004162012030BD6D0D1560AFE7C16841F0D4
:102C70002001C160EDE72DE9F05F05460068002402
:102C80004669D0F804908768D0F80CB0D0F810A04E
:102C9000D0F81880F10748D0F90714D001218160DD
:102CA000B80703D5284600F030FA0CE0780702D5C3
:102CB0004FF4006407E0380702D54FF4805402E077
:102CC000284600F021FAF80516D529684FF48070DF
:102CD0008860B80503D5284600F019FA0CE078059D
:102CE00002D544F4005407E0380502D544F480448A
:102CF00002E0284600F00AFAF80316D529684FF4D6
:102D000080308860B80303D5284600F002FA0CE052
:102D1000780302D544F4004407E0380302D544F4B4
:102D2000803402E0284600F0F3F9300707D55FEA67
:102D3000CB6004D52968102044F40074C860700783
:102D40004FF0080707D55FEA0B7004D52868C76005
:102D5000284600F099F9B00706D52868C0688007B2
:102D600002D0284600F092F9700607D55FEACA60E3
:102D700004D52968102044F480640861B00607D5A2
:102D80005FEA0A7004D528680761284600F08CF9CC
:102D9000F00606D528680069800702D0284600F0B2
:102DA00084F9B00308D55FEAC96005D52968102009
:102DB0004860284600F07AF9F00307D55FEA097009
:102DC00004D528684760284600F0A4F9300446D5A9
:102DD0005FEA497040D5F00504D55FEAC87001D0BC
:102DE00044F00104B00504D55FEA887001D544F0D1
:102DF0000204700504D55FEA487001D544F004046C
:102E0000300529D518F0700F26D008F07000402842
:102E100015D006DC102809D020280AD0302816D179
:102E20000AE050280ED0602811D10EE044F00804CA
:102E30000DE044F010040AE044F0200407E044F000
:102E4000400404E044F0800401E044F48074286805
:102E5000816921F070018161296804204860002C9B
:102E600005D0686A204368622846FFF78FFEBDE8F8
:102E7000F09F70B5040003D094F8200010B104E076
:102E8000012070BD204600F081F82068016821F023
:102E90000201016000F03EFC0546052604E000F05A
:102EA00039FC401B0A2811D8206840688007F6D4F6
:102EB0002068016841F00101016000F02BFC05462B
:102EC0000BE000F027FC401B0A2806D9606A40F49A
:102ED0000030606284F82060D2E720684068C00754
:102EE000EFD0207E0128206801683DD021F08001CC
:102EF0000160607E01282068016838D021F040011F
:102F00000160A07E01282068016833D021F02001F3
:102F10000160E07E0128206801682ED041F0100198
:102F20000160207F01282068016829D021F0080174
:102F30000160607F01282068016824D021F004012D
:102F40000160D4E902010843D4E9041211430843A3
:102F50006168491E08432168C86100206062012041
:102F600084F82000002070BD41F08001C0E741F0EE
:102F70004001C5E741F02001CAE721F01001CFE789
:102F800041F00801D4E741F00401D9E7F0B587B07A
:102F9000044614216846FDF733FA364B3648DFF80D
:102FA000D0E01968D4F800C0334A03250226092767
:102FB00010300024491CF44522D11960012907D1A1
:102FC000016841F000710160006800F00070059038
:102FD000106840F0080010601068CDE9005600F05D
:102FE0000800CDE9047069462448CDE9024500F0A7
:102FF0008DFA00220521142000F04CFC142032E050
:10300000DFF87CE0F44530D1D0F800C04CF0806CA3
:10301000C0F800C0D0F800C001290CF0806CCDF8D9
:1030200014C0196007D1016841F0007101600068A7
:1030300000F000700590106840F002001060106809
:1030400002AB00F0020005906020CDE9000683E8A5
:10305000B00069460B4800F059FA002205214020D3
:1030600000F018FC402000F007FC07B0F0BD0000A5
:10307000006400400827002030380240000C024065
:10308000006800400004024070470000044A0168E4
:10309000914202D0034A914201D1FEF78DB97047A7
:1030A00000640040006800407047704770470000AF
:1030B00070B5044690F82000012804D0606A40F4FE
:1030C0000020606218E0022084F820002068016877
:1030D00021F00101016000F01DFB05460EE000BF7C
:1030E00000F018FB401B0A2808D9606A40F4003041
:1030F0006062052084F82000012070BD20684068CF
:10310000C007EDD1606270BD70477047704770476F
:1031100070477047704770B54379012B1CD001266A
:1031200046710223037105682B6802F0100440F613
:10313000FE72A2409343D1E900210A43A2401A4300
:103140002A6001680A68C023A3409A430A60067196
:1031500000214171084670BD022070BD70B50400A9
:1031600003D02079002510B105E0012070BD657104
:10317000204600F007F8022020712561012020710F
:10318000002070BD10B586B0044614216846FDF7D6
:1031900037F91149206888421CD110480021026883
:1031A00042F000520260006800F0005005900B48A9
:1031B0001038026842F001020260006800F001006D
:1031C0000590102000900320CDE9010169460448D4
:1031D00000F09CF906B010BD007400404038024079
:1031E000000002402DE9F0410446876D00F092FA9C
:1031F000064694F835000025022806D08020606538
:1032000084F834500120BDE8F0812068016821F085
:10321000160101602068416921F080014161206C44
:1032200008B9A06C20B12068016821F00801016094
:103230002068016821F0010101600BE000F06AFAEA
:10324000801B052806D92020606504F8345F032020
:103250006070D8E720680068C007EFD194F85C1070
:103260003F208840B86004F8345F0120607000207F
:10327000C9E790F83510022903D08021416501206B
:103280007047052180F835100068016821F00101C0
:1032900001600020704700002DE9F84304464FF01C
:1032A0000009CDF8009063484FF41651A56D0068F1
:1032B000B0FBF1F72E6894F85C10082000FA01F1D9
:1032C00031420FD021680A6852070BD50A6822F0F4
:1032D00004020A6094F85C108840A860606D40F0B9
:1032E0000100606594F85C104FF0010808FA01F0E5
:1032F000304208D021684969090604D5A860606D8C
:1033000040F00200606594F85C1004208840304270
:1033100008D021680968890704D5A860606D40F06D
:103320000400606594F85C1010208840304218D08A
:1033300021680968090714D5A86020680168490355
:1033400004D50068000308D5A16C07E00168C90531
:1033500003D4016821F008010160216C09B1204605
:10336000884794F85C1020208840304231D0216892
:103370000968C9062DD5A86094F83500052820688D
:10338000016806D0490347D5006800031DD4616C6D
:103390001CE021F0160101602068416921F08001E4
:1033A0004161206C08B9A06C20B12068016821F04F
:1033B0000801016094F85C103F208840A86084F800
:1033C000349084F83580216D1FE0E16B09B120460F
:1033D0008847606D00282BD0606DC00714D0052091
:1033E00084F835002068016821F00101016000982F
:1033F000401C0090B84203D820680068C007F6D18E
:1034000084F8349084F83580E16C002910D001B044
:103410002046BDE8F04308470168C905D5D40168D6
:1034200021F01001016084F8349084F83580CCE7F5
:10343000BDE8F8830C2700202DE9F041044600F098
:1034400069F906465CB1002584F83450022084F8FE
:1034500035002068016821F0010101600DE00120C4
:10346000BDE8F08100F056F9801B052805D9202021
:103470006065032084F83500F2E720680068C00723
:10348000F0D12268116820480140D4E901031843B3
:10349000D4E903363343184363691843A3691843D7
:1034A000E3691843236A18430843616A042903D176
:1034B000D4E90B1319430843106020684069666A19
:1034C00020F0070130460E43012704280CD1A06AE2
:1034D0000643E06A40B12046FEF7F2FB20B14020EF
:1034E000606584F83570BAE7206846612046FEF7CB
:1034F000D3FB94F85C203F2191408160656584F89E
:1035000035700020ACE700003F8010F02DE9F84F47
:10351000DFF8B8A1002201250AF1040B03264FF0C1
:103520000F090BF1040E00BF0B6805FA02F42340EB
:10353000A3426FD10F7907F00307012F01D0022FAB
:1035400016D187684FEA420806FA08FC27EA0C07FA
:10355000D1F80CC00CFA08FC4CEA070CC0F808C003
:103560004768A7430C79C4F3001494403C4344607B
:103570000C79E443A4070AD0C4684FEA420C06FA67
:103580000CF7BC438F6807FA0CF72743C7600C7928
:1035900004F00304022C12D1D40800EB840CDCF8F4
:1035A00020405707FF0E09FA07F824EA0804D1F86B
:1035B000108008FA07F848EA0408CCF8208004686C
:1035C0004FEA420C06FA0CF7BC430F7907F00307E9
:1035D00007FA0CF7274307604C68E40070D53C4CB1
:1035E000276847F480472760246822F0030704F423
:1035F00080440094374C07EB040CDCF8084897072C
:103600004FEA177809FA08F7BC43334FB84202D1A2
:10361000002724E054E0314FB84201D101271EE0D9
:103620002F4FB84201D1022719E02E4FB84201D1E5
:10363000032714E02C4FB84201D104270FE02B4F91
:10364000B84201D105270AE0294FB84201D1062727
:1036500005E0284FB84201D1072700E0082707FA04
:1036600008F72743CCF80878DAF800405746D1F835
:1036700004C09C435FEACC3C00D51C433C60DBF8B3
:1036800000405F46D1F804C09C435FEA8C3C00D503
:103690001C433C60DEF800407746D1F804C09C43F0
:1036A0005FEACC2C00D51C433C60084F0C373C68CB
:1036B000D1F804C09C435FEA8C2C00D51C433C60CD
:1036C000521C102AFFF430AFBDE8F88F003C0140D7
:1036D0004438024000300140000002400004024033
:1036E00000080240000C024000100240001402409A
:1036F00000180240001C0240426921EA02030A400D
:1037000043EA0241816170470AB18161704709044F
:10371000FBE7000001488068704700007827002020
:1037200070B5040011D021684CF6CC4008602168C7
:1037300045F255500860D4E9000141602168A06855
:103740008860FFF7E7FF05460DE0012070BD00BF70
:10375000FFF7E0FF401B302805D92068C0688007CC
:1037600001D0032070BD2068C0688007F0D12168B7
:103770004AF6AA200860002070BD00684AF6AA2117
:1037800001600020704700000248816802781144FF
:1037900081607047782700200B4810B5016841F41C
:1037A00000710160016841F480610160016841F4C9
:1037B00080710160032000F08DF8002000F006F811
:1037C00000F03EF8002010BD003C024010B501465C
:1037D00088B000221C2000F05DF81C2000F04CF89E
:1037E00014480024016841F001010160006805A946
:1037F00000F001000690684600F018F900F036F974
:103800000D494000B0FBF1F10C484FF08042491ED9
:10381000026040F2E732C0E90324C0E9011400F07D
:10382000A1FB10B1012008B010BD044800F0F4FB6A
:10383000F9E700004038024040420F00E03B002022
:103840000C4882B0016841F480410160006800F4D6
:10385000804000900748001F016841F080510160DE
:103860000068002200F0805000900F21901E02B0EE
:1038700000F010B844380240002809DB00F01F02B5
:10388000012191404009800000F1E020C0F80011C2
:1038900070470000F0B40E4B1B680C46C3F30223C4
:1038A000C3F10705042D00D90425191D072901D2EC
:1038B000002300E0DB1E012606FA05F1491E214027
:1038C00099409E40761E16403143F0BC04F078B912
:1038D0000CED00E0064900F0070208684FF6FF0310
:1038E000184040EA0220034A104308607047000075
:1038F0000CED00E00000FA052DE9F0470E4605004A
:1039000065D0DFF81481D8F80000F7B200F00700A6
:10391000B04207D288F80070D8F8000000F0070025
:10392000B04254D128683D4C810712D5400703D5D9
:10393000206840F4E05020602878000703D5206814
:1039400040F4604020602068A96820F0F00008433F
:1039500020602878C0072DD03049686808390128D0
:1039600012D0022813D0032811D009688907002932
:103970002DDA216821F0030101432160FFF7CAFE1F
:10398000814641F2883A0EE009688903EFE7096849
:103990008901ECE7FFF7BEFEA0EB0901514502D912
:1039A0000320BDE8F0872068696800F00C00B0EBE8
:1039B000810FEFD1D8F80010404601F00701B14265
:1039C00007D90770006800F00700B04201D001205D
:1039D000E7E72878400705D52068E96820F4E0503B
:1039E000084320602878000706D52068296920F45C
:1039F000604040EAC100206000F058F82168084AA1
:103A0000C1F30311515CC8400649086006480068CC
:103A1000FFF7DCFE0020C4E7003C0240083802400B
:103A2000F80301080C2700207C2700200F220260E9
:103A30000C4A136803F003034360136803F0F003B8
:103A40008360136803F4E053C36012684FF4E053DB
:103A500003EAD20202610448006800F0070008602F
:103A60007047000008380240003C02400448054905
:103A700000680968044AC1F38221515CC84070475C
:103A80000C270020083802400804010804480549B2
:103A900000680968044AC1F34231515CC84070476C
:103AA0000C2700200838024008040108154810B50A
:103AB000006810F00C02144813D01449042A0FD0E7
:103AC000082A0ED10F4C241F2268236802F03F02FF
:103AD0005B0207D52068C0F38810A0FB010106E057
:103AE000084610BD2168C1F38811A1FB0001002325
:103AF000FCF73CFC2168C1F30141491C4900B0FBC3
:103B0000F1F010BD083802400024F40040787D0137
:103B10002DE9F84F04006ED02078DFF84C93C007F1
:103B2000A9F104054AD009F104000168C1F381013B
:103B3000012908D00068C0F3810002280AD1D9F811
:103B40000000400206D52868800337D56068002849
:103B5000E1D033E06068B0F5803F10D0B0F5A02F21
:103B6000286810D020F480302860286820F4802055
:103B700028606068A8B1FFF7CDFD06460DE0286813
:103B800040F48030F4E740F480202860F7E700BF7D
:103B9000FFF7C0FD801B642873D828688003F7D521
:103BA0000CE0FFF7B7FD064605E000BFFFF7B2FDEA
:103BB000801B6428F0D828688003F7D42078DFF8C9
:103BC000AC8280074FF0000A3ED5A748001D01686F
:103BD00011F00C0F08D00068C0F3810002280BD14F
:103BE000D9F80000400207D42868800716D5E0689D
:103BF000012800D112E033E1E068B8B10120C8F833
:103C00000000FFF787FD064605E000BFFFF782FDD5
:103C1000801B0228C0D828688007F7D5286821694A
:103C200020F0F80040EAC10028600DE0C8F800A0CC
:103C3000FFF770FD064604E0FFF76CFD801B0228CD
:103C40001FD828688007F7D42078000722D5864F30
:103C500087486169703771B101210160FFF75AFD32
:103C6000064604E0FFF756FD801B022809D8386895
:103C70008007F7D50EE0C0F800A0FFF74BFD064621
:103C800005E082E0FFF746FD801B02287DD83868FA
:103C90008007F7D42078400768D5DFF8CCB100273B
:103CA0000BF13C0BDBF80000C0000BD4DBF800107C
:103CB00041F08051CBF80010DBF80000012700F044
:103CC000805000906B4E3068C00510D4306840F4CE
:103CD00080703060FFF71EFD009005E0FFF71AFDD1
:103CE0000099401A022850D83068C005F6D55E4EBB
:103CF000A0686C3601280FD00528306810D020F05D
:103D000001003060306820F004003060A068B8B175
:103D1000FFF700FD00900FE0306840F00100F4E78D
:103D200040F004003060F7E7FFF7F4FC0099411A17
:103D300041F28830814266D830688007F4D50EE0C1
:103D4000FFF7E8FC009007E0FFF7E4FC0099411A58
:103D500041F28830814256D830688007F4D42FB1C0
:103D6000DBF8001021F08051CBF80010A069C8B337
:103D70003D49091D0968C1F3810102294AD0022881
:103D8000504607D0C8F8600000E03CE0FFF7C2FCF6
:103D900004463BE04746C8F86000FFF7BBFC064618
:103DA00005E000BFFFF7B6FC801B02282BD828686F
:103DB0008001F7D4D4E907010843A16A2E4A4908D3
:103DC00002EB0141626A41EA8211084394F82C1027
:103DD00040EA0161C9F8001001203866FFF79AFC3B
:103DE000044606E03EE000BFFFF794FC001B0228FB
:103DF00009D828688001F7D534E000BFFFF78AFCB6
:103E0000001B022802D90320BDE8F88F2868800132
:103E1000F4D427E00128F7D0D9F80000E26900F4D3
:103E2000800191421CD1226A00F03F01914217D1DA
:103E300047F6C071626A0140B1EB821F10D1A26ADD
:103E40004FF0FF3300F4403103EB5202B1EB024F6D
:103E500006D194F82C1000F07060B0EB016F01D027
:103E60000120D1E70020CFE704380240000047429C
:103E7000800E4742007000400000FFFF704770470F
:103E800010B590F83C20012A22D0012280F83C2075
:103E9000CA688C6822F4407222434C6822F4806223
:103EA00022430C6822F4006222430C6922F48052FF
:103EB00022434C6922F400522243C969002322F4B0
:103EC00080420A4301684A6480F83C30002010BDFB
:103ED000022010BD70B590F83C20012A32D0012498
:103EE00080F83C40022280F83D2003685A689D68B3
:103EF00022F070060A6832435A60134B02689A42F5
:103F000014D0B2F1804F11D0104B9A420ED0104B0A
:103F10009A420BD00F4B9A4208D00F4B9A4205D0D1
:103F20000E4B9A4202D00E4B9A4204D1496825F0BA
:103F300080031943916080F83D40002180F83C10D7
:103F4000084670BD022070BD000001400004004022
:103F500000080040000C0040000401400040014007
:103F60000018004010B5040003D094F83D0010B1D3
:103F700007E0012010BD002084F83C00204600F03E
:103F80001FF8022084F83D00211D206803F0D8F8B6
:103F9000012084F8460084F83E0084F83F0084F84D
:103FA000400084F8410084F8420084F8430084F81B
:103FB000440084F8450084F83D00002010BD000056
:103FC00008B500681149884209D11148016841F0DB
:103FD00001010160006800F00100009008BD0D497A
:103FE0008842FBD10A48001F016841F004010160CA
:103FF0000068002200F00400009005211E20FFF759
:1040000049FCBDE808401E20FFF736BC0000014017
:10401000443802400008004090F83D10012901D0CA
:1040200001207047022180F83D100168CA6842F003
:104030000102CA6000681149884214D0B0F1804F73
:1040400011D00F4988420ED00E4988420BD00E493C
:10405000884208D00D49884205D00D49884202D0D7
:104060000C49884204D1816801F00701062903D078
:10407000016841F00101016000207047000001402B
:104080000004004000080040000C00400004014013
:10409000004001400018004070B5044690F83C0014
:1040A000012817D0012584F83C50022084F83D00F7
:1040B0002068826822F0770222F47F4282600868DA
:1040C000502830D00DDC20284DD005DC98B31028C6
:1040D0003BD148E0022070BD302844D0402834D184
:1040E00039E0602828D0702806D0B0F5805F2CD049
:1040F000B0F5005F29D10AE0CB68D1E90121206841
:1041000003F08FF82068816841F0770109E0CB68FF
:10411000D1E90121206803F084F82068816841F426
:104120008041816011E0CA684968206803F04EF957
:104130005021206807E016E0CA684968206803F04B
:1041400056F96021206803F076F884F83D5000208D
:1041500084F83C0070BDCA684968206803F036F9ED
:1041600040212068EFE7226801461046EBE77047E0
:1041700070B50446006801694FF00005C94389071E
:1041800015D4C168C943890711D4E91E0161012012
:104190002077206880698007204602D0FFF7E7FF7C
:1041A00004E000F0C3F8204600F052F925772068BB
:1041B0000169C943490717D4C168C943490713D4E2
:1041C0006FF004010161022020772068806910F4FB
:1041D000407F204602D0FFF7CAFF04E000F0A6F8B7
:1041E000204600F035F9257720680169C9430907A1
:1041F00016D4C168C943090712D46FF008010161E0
:10420000042020772068C0698007204602D0FFF78D
:10421000AEFF04E000F08AF8204600F019F9257797
:1042200020680169C943C90617D4C168C943C906D2
:1042300013D46FF010010161082020772068C06955
:1042400010F4407F204602D0FFF791FF04E000F019
:104250006DF8204600F0FCF8257720680169C94315
:10426000C90708D1C168C943C90704D1891E0161C2
:10427000204600F091F920680169C943090609D474
:10428000C168C943090605D46FF080010161204669
:10429000FFF7F4FD20680169C943490609D4C168E4
:1042A000C943490605D46FF040010161204600F082
:1042B0007AF920680169C94389060BD4C168C943EA
:1042C000890607D46FF0200101612046BDE87040E7
:1042D000FFF7D5BD70BD000010B586B004461421AF
:1042E0006846FCF78DF80E492068884216D10D48C3
:1042F0000021026842F010020260006800F0100025
:1043000005904FF4206000900220CDE901010120CA
:10431000CDE9031069460448FFF7F8F806B010BD70
:10432000000001403038024000100240704770B574
:10433000044690F83C000D4601280AD0012084F87C
:104340003C0042B1042A18D0082A2AD00C2A4DD1A8
:1043500039E0022070BD206802F076FF2068816994
:1043600041F0080181612068816921F004018161C7
:10437000206881692A69114311E0206802F094FFE6
:104380002068816941F4006181612068816921F4BC
:1043900080618161206881692A6941EA0221816125
:1043A00024E0206802F0B6FF2068C16941F00801EE
:1043B000C1612068C16921F00401C1612068C1693F
:1043C0002A69114311E0206802F0D8FF2068C16912
:1043D00041F40061C1612068C16921F48061C1615B
:1043E0002068C1692A6941EA0221C161002084F87C
:1043F0003C0070BD10B5040003D094F83D0010B12E
:1044000007E0012010BD002084F83C00204600F0A9
:104410001EF8022084F83D00211D206802F090FE65
:10442000012084F8460084F83E0084F83F0084F8B8
:10443000400084F8410084F8420084F8430084F886
:10444000440084F8450084F83D00002010BD70470A
:104450007047000010B50446022249B104290ED06D
:10446000082913D094F84100012816D0012010BD6E
:1044700094F83E000128F9D184F83E200FE094F82A
:104480003F000128F2D184F83F2008E094F8400072
:104490000128EBD184F8402001E084F8412001227A
:1044A000206802F0B1FE16492068164A884201D001
:1044B000904203D1436C43F4004343642068884234
:1044C00013D0B0F1804F10D00F4988420DD00F4962
:1044D00088420AD00E49884207D0904205D00D4943
:1044E000884202D00C49884204D1816801F007015A
:1044F000062903D0016841F001010160002010BDD0
:104500000000014000040140000400400008004099
:10451000000C0040004001400018004030B5044647
:104520000D460068002202F06FFE194B41F2111196
:1045300020688A10984202D0164B984209D1036A2B
:104540000B4206D1036A134203D1436C23F40043A8
:1045500043642068036A0B4206D1016A114203D109
:10456000016821F00101016001203DB1042D08D056
:10457000082D09D084F84100002030BD84F83E00A9
:10458000FAE784F83F00F7E784F84000F4E700001A
:1045900000000140000401400068B0F1804F01D1EB
:1045A000FFF7F2B87047704770477047F8B5026878
:1045B00004461068D168536910F00F0F4FF00005E2
:1045C00053D003F0010601F4907737435FD0C20760
:1045D00005D0CA0503D5226C42F0010222644207CD
:1045E00005D5DA0703D0226C42F00202226482076A
:1045F00005D5DA0703D0226C42F0040222640207D8
:1046000007D501F02002324303D0226C42F00802A9
:104610002264226C002A34D0800604D5880602D594
:10462000204602F049FF20684069216CC0F38010E9
:10463000090700D430B3204602F026FF2068416904
:1046400049061BD5416921F040014161A06BA8B129
:1046500059490165A06BFEF70CFE002811D0A06B34
:10466000016D01B0BDE8F040084783060FD58B0609
:104670000DD52046BDE8F84002F01EBF2046FFF7EA
:1046800094FFF8BD2046FFF790FF2564F8BD266B28
:104690002023012E53D1C60651D5CE064FD5106822
:1046A00050680090506940062BD5A16B086840689F
:1046B0000004000CEAD0A68D8642E7D9E085C869DF
:1046C000B0F5807F18D0D06820F48070D06020686A
:1046D000416921F0010141612068416921F04001F7
:1046E000416184F83E3025632068C16821F01001E3
:1046F000C160A06BFEF776FDA08DE18D401A81B2FE
:1047000019E0A08DE18D401A81B2E08D0028BDD066
:104710000029BBD0D06820F49070D0602068426936
:1047200022F00102426184F83E3025632068C268AD
:1047300022F01002C2602046FFF736FFF8BD0506E2
:104740002BD50D0629D594F83D002128F6D1A06877
:10475000B0F5805F01D12069B0B1206A411C2162AF
:10476000216800784860E08C401E0004000CE08462
:10477000E4D12068C16821F08001C1602068C1686F
:1047800041F04001C160F8BD206A0088C0F3080014
:104790005060206A801C2062E5E74006F3D5480699
:1047A000F1D5D168204621F04001D16084F83D3038
:1047B00000F03DFAF8BD00007974000870B50400FF
:1047C00004D094F83D00002510B106E0012070BD32
:1047D00084F83C50204600F023F8242084F83D0063
:1047E0002068C16821F40051C160204602F0BCFE7F
:1047F0002068016921F4904101612068416921F03C
:104800002A0141612068C16841F40051C1602564FA
:10481000202084F83D0084F83E00002070BD000098
:104820002DE9F04F87B0044614216846FBF7E8FDF8
:10483000F048DFF8BC8310380222D4F800C0ED4BFA
:104840000321DFF8B4E3002597060615C44540D1DF
:10485000D3F800C04CF4002CC3F800C01B6803F46C
:1048600000230593036843F001030360006800F030
:10487000010005900120CDE90201CDE900120820D8
:10488000049069467046FEF741FEDFF87483DB4909
:104890004046C8F80010C0E90175C0E90356C8F8E1
:1048A0001450C8F81850C8F81C50C8F82050C8F860
:1048B0002450FEF7C1FD08B1FDF724FBC4F8388091
:1048C000002205213420C8F83840FEF7E3FF3420E9
:1048D0007AE0DFF830834FF480794FF0400BC44525
:1048E00078D1D3F800C000254CF4801CC3F800C078
:1048F0001B6803F480130593036843F0040303600B
:10490000036803F004030593036843F0080303609E
:104910000068884600F0080005904FF48050CDE90B
:1049200000020120CDE90201082004909246694668
:10493000B548FEF7EBFD0420CDE9000A0120CDE9E2
:104940000208082004906946B048FEF7DFFDDFF852
:10495000B082AA4908F1600830394046C8F8001012
:10496000C0E90175C0E90356BA464FF44037C8F8AC
:104970002070C8F81450C8E90659C8F82450FEF74A
:104980005BFD08B1FDF7BEFA9D4D9C48C4F8388028
:10499000C0357830C8F8384085E8010C0020C5E9FA
:1049A00003066861A861C5E9070768622846FEF743
:1049B00043FD08B1FDF7A6FA656300220521352005
:1049C000AC63FEF767FF3520FEF756FF07B0BDE882
:1049D000F08FFFE7DFF838824FF0070AC4455AD15D
:1049E000844BA8461B1DD3F800C04CF0100CC3F834
:1049F00000C01B6803F010030593036843F0010334
:104A000003600068CDE9025100F0010005904FF409
:104A1000C060CDE90002CDF810A069467046FEF7EF
:104A200075FDDFF8F4A17B495046CAF80010C0E9D3
:104A30000175C0E90356CAF81450C0E906594FF48D
:104A40000039CAE90895FEF7F7FC08B1FDF75AFAF4
:104A5000714D7048C4F838A060357830CAF83840D5
:104A600085E88108C5E90386C5F81480C5F8188073
:104A7000C5E907892846C5F82480FEF7DDFC08B1A2
:104A8000FDF740FA6563002205212520AC63FEF79F
:104A900001FF252098E7DFF88481C44543D1D3F88E
:104AA00000C04CF4003CC3F800C01B6803F40033A2
:104AB0000593036843F0010303600068CDE90251E8
:104AC00000F0010005900C20CDE90002CDF810A007
:104AD00069467046FEF71AFDDFF83C81474908F148
:104AE000C00848314046C8F80010C0E90175C0E967
:104AF0000356C8F814504FF44031C8F81850C8E9AC
:104B00000791C8F82450FEF797FC08B1FDF7FAF9B1
:104B1000C4F83880002205212620C8F83840FEF766
:104B2000B9FE262050E7DFF8F880C4457FF44EAF89
:104B3000D3F800C04CF4802CC3F800C01B6803F409
:104B400080230593036843F0020303600068CDE906
:104B5000025100F0020005904FF44060CDE90002E0
:104B6000CDF810A069462F48FEF7D0FCDFF8B880DA
:104B700022494046BA46C0E90356C8F814501831D5
:104B8000C8F8185088E8020C4FF40037C8E90757F6
:104B9000C8F82450FEF750FC08B1FDF7B3F9C4F88B
:104BA0003480C8F83840DFF88080144908F1600884
:104BB00018394046C8F80010C0E901A5C0E90356FD
:104BC000C8F82070C8F81450C8E90659C8F824502D
:104BD000FEF732FC08B1FDF795F9C4F838800022E1
:104BE00005212720C8F83840FEF754FE2720EBE6C1
:104BF000004C00404038024000000240406002404B
:104C0000E03800200050004000080240000C024044
:104C10000010014040640240003A0020004400407F
:104C20000048004000040240203B002070477047CD
:104C300030B589B0002402940090CDE903430B788D
:104C40008DF818304B788DF819308B788DF81A3034
:104C5000CB788DF81B300B798DF81C304B798DF8A3
:104C60001D308B798DF81E30C9798DF81F1006A97B
:104C7000012A09D0022A05D10A4608AB694605482F
:104C8000FDF79AFE09B030BD0A4608AB69460248F6
:104C9000F6E70000B43600208C360020B5EEC00ADE
:104CA000F1EE10FA02DDB0EE401A01E0B1EE401A6A
:104CB000F6EE001A60EEA11AB4EEE11AF1EE10FA67
:104CC00006DDB5EEC00AF1EE10FA02DB30EE600A46
:104CD000704730EE200A704702F082FF70B50D4C2D
:104CE0000025C4F8B4520C48016821F0404101602D
:104CF000016841F080410160C4F8BC52022004F513
:104D00002D7404F0B3FB01202060022004F0AEFB00
:104D1000256070BD008040420004024070B50D4C1B
:104D20000025C4F8B4520C48016821F040410160EC
:104D3000016841F0804101600126C4F8BC62022094
:104D400004F52D7404F092FB2660022004F08EFB23
:104D5000256070BD00804042000402402DE9F0470C
:104D6000814616480024016821F040410160016835
:104D70000160134E254627464FF00108C6F8B4726D
:104D8000022004F073FBC6F8B4826006040ED6F865
:104D90003C0208B1641CE4B2012004F067FB6D1C06
:104DA000EDB2082DEAD3B9F1000F04D0FFF796FF5A
:104DB0002046BDE8F087FFF7B1FFF9E700040240A5
:104DC000008040422DE9F04106461448016821F078
:104DD00040410160016841F080410160104C0027B2
:104DE000C4F8B4723D464FF00108F009C4F8BC02A3
:104DF0007006060E022004F039FBC4F8B4820220CB
:104E000004F034FBC4F8B472022004F02FFB6D1CD4
:104E1000EDB2082DE9D3BDE8F081000000040240A6
:104E20000080404270B50D48016821F040410160AA
:104E3000016841F080410160094C0120C4F8BC02C6
:104E4000C4F8B402042004F52D7404F00FFB00250F
:104E5000A560042004F00AFB256070BD0004024038
:104E6000008040420E4810B5016821F040410160C9
:104E7000016841F0804101600A4C0020C4F8B4028E
:104E8000C4F8BC02042004F52D7404F0EFFA0120EC
:104E90002060A060BDE81040042004F0E7BA0000E4
:104EA000000402400080404270B5124800240168AE
:104EB00021F040410160016801600F4D0126C5F8F5
:104EC000BC62304604F0D2FAC5F8B462012004F0A6
:104ED000CDFA07E0641CE4B2FA2C03D9FFF7C2FF55
:104EE000012070BDD5F83C020028F3D1C5F8B4020A
:104EF00070BD00000004024000804042014881680B
:104F000008470000D404002010B51C4C1C48A16BBD
:104F100088471B48A16B103088471948A16B203087
:104F200088471748A16B303088471548A16B40303F
:104F300088471348A16B503088471148A16B6030F7
:104F400088470F48A16B70308847A16B0D48884790
:104F50000C48A16B10308847A16B0B4888470A4862
:104F6000A16B103088470848A16B2030884706485D
:104F7000A16BBDE810403030084700004805002014
:104F8000F0180020D01D0020B026002001488168C4
:104F9000084700004C0400200148816808470000D1
:104FA00000060020B5EEC00AF1EE10FA06D0F5EECC
:104FB000C00AF1EE10FA01D1F0EE400AB0EE600A3C
:104FC0007047000010B50246006841F2CC2100880D
:104FD000884202D200F6335002E0A0F59050CC385F
:104FE00003B240F6FC741449A3F601039068A3428F
:104FF00008D89FED120A80ED600A906880ED200AC3
:10500000022007E09FED0E0A80ED600A906880EDB7
:10501000200A0120C871487F00280BD09068DFED7E
:10502000090A90ED200A30EE200A00F005FE906893
:1050300080ED200A10BD000018000020004033441D
:105040000060964500C07F44B0F90020002A00DCD3
:105050005242B0F90210002900DC49420A44B0F97A
:105060000410002900DC49420A44B0F90610002966
:1050700000DC4942114400EE101A114AB8EEC00A91
:1050800010EE101A914204DD9FED0E1AC1EE000AD7
:1050900001E0F7EE000A002130F9112000EE102A9D
:1050A000B8EEC00A20EE200ABDEEC00A10EE102AAB
:1050B00020F81120491CC9B20429EDD37047000023
:1050C00000401C4600401C46294810B5417A022980
:1050D00011D0B0F90A0010F5967F0CDABFF34F8FAC
:1050E00024480168244A01F4E06111430160BFF3E0
:1050F0004F8F00BFFDE700F03BF900F0BDFA00F074
:105100007FF900F0D7F800F077F800F08FFB00F09F
:10511000D3F900F00DFB00F007FC00F0DBFB00F022
:10512000FBF916480068C08A010504D5C10402D500
:10513000134A05211170410707D4C10705D10107A2
:1051400003D4800701D400F019FC00F04DFB00F0FF
:1051500031FA00F067FAFBF75FFDFCF739F801F070
:1051600049FE01F023FABDE81040FBF73DBD000009
:10517000080400200CED00E00400FA054C040020B7
:10518000C803002070B515460E460446C171FCF7F1
:10519000DBFE00206A1CAEB1012E21D1617903290A
:1051A0001FD02068401C2060A84219DB012121711A
:1051B0006171904214DB02212171617198420FDB11
:1051C00003200BE0617961B12168491C2160A9428B
:1051D00006DB042323716371914201DB207160714E
:1051E00070BD206070BD10B5FCF7AEFB00F0BEF9DD
:1051F00001F046FD012010BD2DE9F041294E4FF48C
:10520000FA773B4630680522C08AC10B2648FFF773
:10521000B9FF2548254C683890F86C00042827D23F
:10522000DFE800F0260226353168214D11F8390FEC
:10523000401C0870C00707D0FEF76CFA6860306841
:1052400090F83900C00702D1FEF764FAA860D5E9EA
:105250000101814201D0081A00E0401AB84209D287
:1052600012480121A26B0C309047FEF753FAE86018
:10527000BDE8F081A07C0128FAD1FEF74BFAE9687D
:10528000401AB0F5C87FF3D90020A074F0E7607A27
:105290000128EDD1E07E10B10020E076E8E70120A2
:1052A000FBE700004C040020182C00201800002010
:1052B0005400002070B5274DA86890ED420AB5EE65
:1052C000C00AF1EE10FA01DCB1EE400A234C10EEF8
:1052D000101A214A00262068914204DA90F837100B
:1052E00009B180F83760C08A4FF4FA73C0F34031D7
:1052F00005221B48FFF746FF1948583890F85C0014
:1053000002281FD2DFE800F01E01206880F830601C
:1053100080F8316090F83710A9B1002180F837107B
:105320001048006890ED000A79B1DFED0F0A30EE09
:10533000600A00F081FCA86880ED400A9FED0B0A2E
:1053400080ED440A70BD0121E8E7A86880ED400ABD
:1053500070BD0000D01D0020000020424C04002041
:10536000082C0020D404002000F07F456666663FCC
:1053700010B5224CA4F174032068807DC00703D0CF
:1053800093ED000A012102E093ED010A00211B4880
:10539000543801F065FD2068807D800703D593EDCA
:1053A000000A012102E093ED010A00211348503860
:1053B00001F056FD2068807D400703D593ED000A7B
:1053C000012102E093ED010A00210C484C3801F064
:1053D00047FD2068807D000703D593ED000A012179
:1053E00002E093ED010A00210448483801F038FD3D
:1053F00002F038FBBDE81040FBF7ACBB4C040020CA
:1054000070B5264DA86890ED420AB5EEC00AF1EEDF
:1054100010FA01DCB1EE400A224C10EE101A204ABC
:1054200000262068914204DA90F8311009B180F822
:105430003160807D4FF4FA73C0F3C01105221A4821
:10544000FFF7A0FE1848283890F82C0002281ED23A
:10545000DFE800F01D01206880F8306090F831101E
:10546000B1B1002100F8311F86711048006890ED3D
:10547000000A79B1DFED0E0A30EE600A00F0DCFBC5
:10548000A86880ED400A9FED0B0A80ED440A70BDCC
:105490000121E7E7A86880ED400A70BDD01D00201B
:1054A000000020424C040020D82B0020D40400200F
:1054B00000E0FF441F856B3F10B5144C4FF4FA73A6
:1054C00005222068C08AC0F340211148FFF75AFE28
:1054D0000F48383890F83C100E48032909D2DFE80D
:1054E00001F002090F00807A002802D1216881F8BA
:1054F000330010BD216811F8330F401C087010BD37
:10550000426B0321BDE81040401D10474C040020B1
:10551000E82B002018000020104810B500684FF458
:10552000FA730522C08AC0F380210D48FFF72AFED6
:105530000B48403890F8440002280DD2DFE800F014
:105540000C01084C2078002806D107480221826B04
:105550000C3090470420207010BD00004C04002047
:10556000F02B0020C8030020180000200F4910B5C0
:105570000A680020D0810A6810820A6850820A688E
:1055800010750A6850750A68D0820A6850810A68E6
:105590009081002202F12C030C68521CD2B2E0541C
:1055A000122AF7D3024981F82A0010BD4C040020CA
:1055B00018000020184810B50068E6230522017D78
:1055C0001648FFF7DFFD15481549803890F884200C
:1055D00001F10C00042A10D2DFE802F00F020F13D1
:1055E0008A7C012A07D0CA7C42B18A7F012A04D072
:1055F0008A6B03210DE00020887410BD0120C8745F
:1056000010BD0A7C002AFBD18A7F012AF8D08A6B60
:105610000421BDE8104010474C040020302C00202D
:1056200018000020104810B500684FF4FA730522E6
:10563000417D0E48FFF7A6FD0C48883890F88C0095
:1056400002280FD2DFE800F00E010948094C0021C2
:1056500081742178002905D10221826B0C3090479A
:105660000120207010BD00004C040020382C0020C8
:1056700018000020C803002070B5264CA06890EDEB
:10568000420AB5EEC00AF1EE10FA01DCB1EE400AB2
:10569000224E10EE101A204A00253068914204DA9A
:1056A00090F8301009B180F83050807D4FF4FA73D3
:1056B000C0F3801105221A48FFF764FD184820380E
:1056C00090F8240002281DD2DFE800F01C013068A9
:1056D00090F83010B9B1002100F8301F4570C57145
:1056E0001048006890ED000A79B1DFED0F0A30EE46
:1056F000200A00F0A1FAA06880ED400A9FED0B0A95
:1057000080ED440A70BD0121E6E7A06880ED400A03
:1057100070BD0000D01D0020000020424C0400207D
:10572000D02B0020D404002000E0FF441F856B3FF5
:1057300070B5284C4FF4FA7305222068C08AC0F374
:1057400000212548FFF71EFD234800253038244E50
:1057500090F834102148022919D2DFE801F001192C
:105760000068B0F84F10B0F86C00081A14280BDD70
:10577000206890F83200002809D0FDF7CBFF31688F
:10578000401AB0F5966F02D9206880F8325070BD8B
:10579000216891F8322072B15FF0000281F8322066
:1057A0000068B0F84F30B0F86C00181A142804DC08
:1057B00081F8325070BD0122F0E7002AFAD0FDF7DF
:1057C000A9FF306007480421826BBDE870400C30AF
:1057D000104700004C040020E02B0020DC060020D5
:1057E00054000020180000200D4810B500684FF448
:1057F000FA730522807DC0F300110A48FFF7C2FC4E
:105800000848783890F87C100748022907D2DFE86A
:1058100001F00103002100E0012180F8241010BDF7
:105820004C040020282C0020180000202DE9F04115
:10583000234E4FF4FA773B4630680522C08AC0F306
:1058400080312048FFF79EFC1E481F4C603890F8BE
:105850006400042831D2DFE800F03002302D207AD5
:1058600001282AD13168194D11F8380F401C0870F1
:10587000C00709D0FDF74EFF2861306890F8380066
:10588000C00701D0686902E0FDF744FF686129693B
:10589000884201D0401A00E0081AB8420DD2607F59
:1058A00030B100206077BDE8F0410948FFF78ABBBE
:1058B0000120F7E7002020776077BDE8F081000045
:1058C0004C040020102C0020180000205400002060
:1058D000D01D0020104810B500684FF4FA7305225F
:1058E000C08AC0F300310D48FFF74CFC0B4850381C
:1058F00090F8540002280DD2DFE800F00C01084CAB
:105900002078002806D107480221826B0C3090478E
:105910000220207010BD00004C040020002C00204C
:10592000C803002018000020104810B500684FF48C
:10593000FA730522C08AC0F3C0210D48FFF722FC8C
:105940000B48483890F84C0002280DD2DFE800F0F0
:105950000C01084C2078002806D107480221826BF0
:105960000C3090470320207010BD00004C04002034
:10597000F82B0020C803002018000020194810B59B
:1059800000684FF4FA730522807DC0F34011164879
:10599000FFF7F8FB1448703890F874101348042986
:1059A00014D2DFE801F013021619827C0021012ACB
:1059B0000DD0827A002A09D1417701210177C17186
:1059C0000C489FED0B0A806880ED200A10BD8174A1
:1059D00010BD0121426B01E0426B0221BDE8104085
:1059E000401D10474C040020202C002018000020EF
:1059F00000609645D01D00202DE9F05F474E4849D4
:105A0000484B7068484A401C706091F8207001242F
:105A10001B7E92F84820DFF81491454DA1024FF407
:105A2000804A4FF4005B17B9424F3F7E1FB1012BF4
:105A300066D0EAB302E0012B62D0AAB1C5F8A84251
:105A4000C5F8AC42FA21B0FBF1F201FB12000028CC
:105A500061D159464C464846FDF74EFE5146204618
:105A6000BDE8F05FFDF748BEB0466426B0FBF6F037
:105A70000527B0FBF7F207FB1200012808D14846C2
:105A8000FDF73AFEC5F8AC42C5F8B442C5F8B842D5
:105A9000D8F804004446B0FBF6F0B0FBF7F107FB82
:105AA0001100022803D181024846FDF725FE00E0DF
:105AB00018E06068B0FBF6F0B0FBF7F107FB1100EF
:105AC000032803D151464846FDF716FE6068B0FB37
:105AD000F6F0B0FBF7F107FB110004281BD1594683
