:020000040800F2
:10000000205D00203103000819530008254900082D
:10001000D95200083D0F00084B670008000000009F
:100020000000000000000000000000007102000855
:100030005519000800000000CD020008295F0008E3
:100040004B0300084B0300084B0300084B03000858
:100050004B0300084B0300084B0300084B03000848
:100060004B0300084B0300084B03000885150008EC
:100070004B030008911500084B0300084B030008D0
:100080009D1500084B0300084B0300084B030008B4
:10009000690F00084B0300084B0300084B030008DE
:1000A0004B0300084B0300084B0300084B030008F8
:1000B000FD5F00084B0300084B0300084B030008DA
:1000C0004B0300084B0300084B0300084B030008D8
:1000D0004B030008F9650008656600084B0300083B
:1000E0004B0300084B0300084B0300084B030008B8
:1000F0004B0300084B0300084B0300084B030008A8
:100100004B0300084B0300084B0300084B03000897
:10011000ED620008056300084B0300084B0300086C
:100120004B0300084B030008A91500084B03000807
:100130004B0300084B0300084B0300084B03000867
:10014000D50F00084B0300084B0300084B030008C1
:100150004B0300084B030008B51500084B030008CB
:100160004B0300084B0300084B0300084B03000837
:100170004B0300084B0300084B030008000000007D
:100180004B0300084B03000800F002F800F060F891
:100190000AA090E8000C82448344AAF10107DA45E2
:1001A00001D100F055F8AFF2090EBAE80F0013F0D4
:1001B000010F18BFFB1A43F00103184720FF00008E
:1001C00040FF00000A444FF0000C10F8013B13F010
:1001D000070408BF10F8014B1D1108BF10F8015BA0
:1001E000641E05D010F8016B641E01F8016BF9D193
:1001F00013F0080F1EBF10F8014BAD1C0C1B09D1EA
:100200006D1E58BF01F801CBFAD505E014F8016B5B
:1002100001F8016B6D1EF9D59142D6D370470000ED
:100220000023002400250026103A28BF78C1FBD8FF
:10023000520728BF30C148BF0B6070471FB50DF093
:1002400084F89DE8030000F03FFA1FBD10B510BD13
:1002500000F0A6FA1146FFF7F1FF09F087F900F068
:10026000C4FA03B4FFF7F2FF03BC00F0F5FA000094
:100270002C4B19680868B0E8F04F80F30988BFF389
:100280006F8F4FF0000080F311887047000000006E
:1002900008480068006880F308884FF0000080F389
:1002A000148862B661B6BFF34F8FBFF36F8F00DF64
:1002B00000BF00BF08ED00E0DFF80C00016841F46A
:1002C00070010160704700BF88ED00E0EFF3098026
:1002D000BFF36F8F134B1A681EF0100F08BF20ED8D
:1002E000108A20E9F04F106009B44FF0500080F3FD
:1002F0001188BFF34F8FBFF36F8F0BF059FF4FF093
:10030000000080F3118809BC19680868B0E8F04F54
:100310001EF0100F08BFB0EC108A80F30988BFF3FD
:100320006F8F704730070020EFF3058070470000A3
:100330000948804709480047FEE7FEE7FEE7FEE779
:10034000FEE7FEE7FEE7FEE7FEE7FEE704480549B5
:10035000054A064B70470000E15F0008890100086C
:1003600020570020205D0020205900202059002027
:1003700070B5064600F08CF9056806F10B0020F018
:100380000704B4429CBF002070BD2B466A68BAB116
:100390001068A04210D304F1080188423CBF5068A5
:1003A000586007D35168101941601168091B01603A
:1003B00058601460101D70BD13465268002AE7D1C2
:1003C0002146284600F06CF90028DED170BD70B5DA
:1003D0000446051F00F05CF90068002C14BF446857
:1003E00070BD002C18BFAC423CBF20466468F8D3F7
:1003F00001680A18AA4218BF456003D12A68054659
:100400001144016028684119A1421CBF6C6070BD95
:100410006168696021680844286070BD53EA020C75
:1004200000F069802DE9F04B4FF00006002B1FBF54
:10043000B3FA83F503FA05F424FA05F65E4012BF19
:100440001643B2FA82F502FA05F4C5F120051EBF83
:1004500022FA05FC44EA0C04203556EA044C4FEA23
:10046000144418BF641C4FF000084FF0000990427C
:1004700071EB030C39D3002919BFB1FA81F701FAE6
:1004800007F6B0FA80F700FA07F6C7F120071EBF9B
:1004900020FA07FC46EA0C062037B6FBF4FCA7EB73
:1004A0000507103F07F01F0BCBF120060CFA0BFBE2
:1004B0002CFA06F644BFB3460026202FA4BF5E46A2
:1004C0004FF0000B5BEA060C08BF4FF0010B19EB75
:1004D0000B09ABFB027C48EB0608C01B06FB02CCF9
:1004E0000BFB03CC71EB0C01C1E70B460246414606
:1004F0004846BDE8F08B13B54FF000004FF0000107
:10050000AFF30080BDE81C407047032A40F2308002
:1005100010F0030C00F0158011F8013BBCF1020F44
:10052000624498BF11F801CB00F8013B38BF11F8C5
:10053000013BA2F1040298BF00F801CB38BF00F8DC
:10054000013B11F0030300F02580083AC0F0088059
:1005500051F8043B083A51F804CBA0E80810F5E73D
:10056000121D5CBF51F8043B40F8043BAFF3008020
:10057000D20724BF11F8013B11F801CB48BF11F895
:10058000012B24BF00F8013B00F801CB48BF00F865
:10059000012B704710B5203AC0F00B80B1E818501D
:1005A000203AA0E81850B1E81850A0E81850BFF45D
:1005B000F5AF5FEA027C24BFB1E81850A0E81850FC
:1005C00044BF18C918C0BDE810405FEA827C24BF50
:1005D00051F8043B40F8043B08BF7047D20728BFDE
:1005E00031F8023B48BF11F8012B28BF20F8023B2D
:1005F00048BF00F8012B70474FF000020429C0F0FB
:10060000128010F0030C00F01B80CCF1040CBCF144
:10061000020F18BF00F8012BA8BF20F8022BA1EB96
:100620000C0100F00DB85FEAC17C24BF00F8012B7B
:1006300000F8012B48BF00F8012B70474FF0000273
:1006400000B5134694469646203922BFA0E80C50C8
:10065000A0E80C50B1F12001BFF4F7AF090728BFA3
:10066000A0E80C5048BF0CC05DF804EB890028BF1F
:1006700040F8042B08BF704748BF20F8022B11F048
:10068000804F18BF00F8012B7047704770477047C4
:1006900000487047C8560020704770477047704741
:1006A00038B504460A4600206946AFF300800028AA
:1006B00008BF38BD02460099204600F04FF80120DF
:1006C00038BD012000F064B8F8B5AFF300800546EE
:1006D00000200C46102000BF0646A819A0420DD9E4
:1006E000324669460020AFF30080070008BF00F0E3
:1006F0004FF80098A04218BF0546C419FFF7C8FF7D
:1007000005600746F01D20F007004619284600F056
:100710000AF8B44208BFF8BDA21B31463868BDE8EC
:10072000F84000F01BB800210160C0E901107047DB
:100730001020704710B500F00DF8006810BD10B51E
:10074000044600F007F8046010BD00000048704740
:10075000C056002000487047C0560020034640683D
:100760008C46002818BF88423CBF03464068F8D337
:1007700018681844884207D00CF1030020F00700E5
:10078000001D411A521A0146081D0A60FFF71FBEDC
:1007900010B500F039F8BDE8104000F02FB87047F0
:1007A0007546FFF7D3FFAE4605006946534620F075
:1007B0000700854618B020B5FFF7C8FDBDE820400A
:1007C0004FF000064FF000074FF000084FF0000B0D
:1007D00021F00701AC46ACE8C009ACE8C009ACE8C0
:1007E000C009ACE8C0098D46704710B50446AFF3A8
:1007F00000802046BDE81040FFF733BD002801D03F
:1008000000F02AB87047000010B5012805D000217B
:1008100003A000F027F8012010BD09A1F8E70000AF
:1008200053494752544D454D3A204F7574206F66D9
:100830002068656170206D656D6F72790000000041
:100840003A2048656170206D656D6F727920636F25
:10085000727275707465640001491820ABBEFEE7C2
:100860002600020070B505460C460A2000E06D1C0B
:1008700000F011F835B128780028F8D102E0641CA6
:1008800000F009F814B120780028F8D1BDE87040D4
:100890000A20AFF3008008B569468DF800000320F8
:1008A000ABBE08BD70470000464910B54A6822F447
:1008B00040324A604A6843681A434A6001684A689D
:1008C00022F480724A6001684A68036942EA03229E
:1008D0004A6001684A6822F040724A6001684A68CA
:1008E00083681A434A6001688A6822F400628A6059
:1008F00001688A68C3681A438A60816A6FF070620F
:10090000D14201688A6822F070628A6001688A6850
:100910000CD0836A1A438A6001688A6822F04052C8
:100920008A6001688A68C36A1A4301E022F0405273
:100930008A6001688A6822F002028A6001688A6817
:10094000037E42EA43028A6090F820100029016881
:100950004A680FD042F400624A6001684A6822F493
:1009600060424A6001684A68174C436A04EB4333AB
:100970001A4301E022F400624A600168CA6A22F464
:100980007002CA620168CA6A838B104C04EB03537D
:100990001A43CA6201688A6822F400728A60016898
:1009A0008A6890F8303042EA43228A6001688A6897
:1009B00022F480628A6001688A68406942EA802085
:1009C000886010BD0023014000E0FFFF0000F0FF41
:1009D0000348417D002901D00021017570470000C6
:1009E0000C05002030B50C4605000CD0022C0AD9AD
:1009F0000548A11E0288284601F01AFC291901F8B1
:100A0000020D000A487030BDF006002030B50C46DB
:100A100005000AD0022C08D9601E81B2FF222846A8
:100A200001F01CFC291901F8010C30BD2DE9F04141
:100A300016462DED0A8B0F468046B3F90030DDE9EE
:100A4000131000EE103ADDE91152F8EEC00AFE4C28
:100A5000DDF840C0C4ED0E0ABCF9003000EE103ADB
:100A6000B8EEC00A84ED0F0AB5F90030032593FBF8
:100A7000F5F31BB203EB430300EE103AB8EEC00AE5
:100A800084ED100AB2F9002000EE102AB8EEC01A68
:100A900084ED111AB1F9001000EE101AB8EEC00A78
:100AA00084ED120AB0F9000021EE000A01EE900A6E
:100AB000F8EEE11AC4ED131A20EE210AB5EEC00AD1
:100AC000F1EE10FA7DD0E14D297B9FEDE18AFDEE3C
:100AD000E00AB0EE480A10EE900A00B208F018FDE5
:100AE00084ED0E0AD4ED0F0A297BB0EE480AFDEE24
:100AF000E00A10EE900A00B208F00AFD84ED0F0A39
:100B0000D4ED100A297BB0EE480AFDEEE00A10EEA3
:100B1000900A00B208F0FCFC94ED0E1ADFEDCD0A4D
:100B200021EE201A20EE200A84ED0E1A94ED0F1A01
:100B300021EE201A84ED0F1A84ED100AD4ED110A6B
:100B4000297BB0EE000AFDEEE00A10EE900A00B23A
:100B500008F0F2FC84ED110AD4ED120A297BB0EE04
:100B6000000AFDEEE00A10EE900A00B208F0E4FC84
:100B700084ED120AD4ED130A297BB0EE000AFDEED3
:100B8000E00A10EE900A00B208F0D6FCF0EE400A3F
:100B9000C4ED130A94ED110A94ED121A20EE000A26
:100BA00001EE010A00EEA00A08F09CFC84ED070AA1
:100BB000D4ED110A60EE802AC4ED112AD4ED120A98
:100BC00000E05CE160EE804AB0EE008AC4ED124ABB
:100BD000D4ED130A20EE803A84ED133A94ED040A22
:100BE000D4ED060AD4ED031A94ED051A20EE202A5E
:100BF00001EEC12A22EE084A21EE802A84ED084A3D
:100C000001EE202A22EE085A21EEA12A84ED095A8B
:100C100000EE402A01EE412A00EEA02A84ED0A2AC5
:100C200064EE823A43EE453A23EE043A02EEC23ACB
:100C300062EE852AC4ED0B3A44EEC42A84ED0C3AE8
:100C4000C4ED0D2A94ED142A94ED015A03EE852A81
:100C500084ED142A94ED154A03EE054A84ED154AF5
:100C6000D4ED164A42EE854AC4ED164AD4ED0E5A2A
:100C700094ED005A45EE235A35EE822A84ED0E2A71
:100C8000D4ED0F3A45EE033A33EE843A20EE424A71
:100C900084ED0F3AD4ED103A01EE434A61EE835AE7
:100CA00045EE223AB0EE615A73EEA42A61EE824A12
:100CB000C4ED102AC4ED171A41EE224A84ED180A39
:100CC00000EEE24A84ED191AC4ED1A0AD4ED023A94
:100CD00040EEC34A40EE625A04EE235AB0EE404A58
:100CE00004EEA34A40EE825A84ED035A84ED044A8E
:100CF00061EEA21AF0EE414A45EEA34A40EE031A15
:100D000025EE050AC4ED054A04EE040A41EE421A36
:100D100004EEA40A41EEA30AC4ED060A00EEA00AFE
:100D200008F0E0FB84ED070AD4ED030A20EE80BA58
:100D300084ED03BAD4ED040A60EE808AC4ED048A1F
:100D4000D4ED050A20EE809A84ED059AD4ED060ACA
:100D500060EE809A2BEE0B0AC4ED069A08EEE80AC4
:100D600009EE490A09EEA90A10EE100A0CF07CFA05
:100D700029EE080A6BEE080A41EC1A0B20EE290A4C
:100D800000EEA80A10EE100A0CF06EFA41EC100BFF
:100D9000B0EE4A1AF0EE6A1A06F09AF99FED2EBBF1
:100DA00051EC100B53EC1B2B0BF09EFF0BF056FD80
:100DB000386094ED040AD4ED060A94ED051A20EE8D
:100DC000080A20EE200AD4ED030A60EE880A00EE3D
:100DD000C10A10EE100A0CF047FA41EC100B05F0B6
:100DE0005BFE9FED1F1B51EC100B53EC112B0BF016
:100DF0007BFF0BF033FDC8F8000094ED03CAD4ED7F
:100E0000048AD4ED05AA2CEE0C0A94ED06AA08EE8D
:100E1000A80A0AEEEA0A0AEE4A0A10EE100A0CF0D4
:100E200023FA28EEAA0A41EC190B0CEE0A0A20EE6E
:100E3000080A10EE100A0CF017FA41EC100BB0EE95
:100E4000491AF0EE691A0FE014000020D8090020BA
:100E50000000FA44728A8E3C0000006066A64C4096
:100E60000000006066A64CC006F032F953EC1B2B64
:100E700051EC100B0BF038FF0BF0F0FC3060002051
:100E8000BDEC0A8BBDE8F0812DE9FE4F1546DDE98A
:100E90000C9A0E4607460C221C466946104603F083
:100EA0000DFFBDF80080BDF802C0BDF80430BDF8EC
:100EB0000620BDF80810BDF80A00A4F80080A9F8C3
:100EC00000C0AAF800303A8031802880BDE8FE8F4B
:100ED00038B5194806F0F6FE06F068FB164806F02D
:100EE00029FB044606F062FB24BB01208DF80000BC
:100EF0000146114A684606F073FF06F057FB0E489C
:100F000004F0FAFD00208DF800000B4A012168462C
:100F100006F066FF06F04AFB074804F0C3FD022016
:100F20008DF80000044A0121684606F059FF044686
:100F300006F03CFB204638BDD8090020FEE7000043
:100F400000B58BB0684600F05EF96946054801F0CF
:100F500043FB0221034801F0C9FA024801F054FEA4
:100F60000BB000BD98150020014801F030BC000016
:100F70009815002010B5B0F5887F0BD0B0F5907FA4
:100F80000FD1084C2046A2689047E1682046BDE892
:100F900010400847044C2046A26890472046E1686C
:100FA000F5E710BDEC020020CC02002000B58BB0AC
:100FB000684600F028F96946054801F00DFB02215A
:100FC000034801F093FA024801F01EFE0BB000BD89
:100FD000C0150020014801F0FABB0000C015002038
:100FE00070B51E4CA0F50072073A16D0A0F500723D
:100FF000063A19D0A0F50072013A1ED0A0F5007291
:10100000023A22D0A0F50072033A25D104F138004B
:10101000626C05469047A16C0DE01048226E54307A
:1010200005469047616E06E00C48E26F7030054659
:101030009047D4F88010284604E0E26807489047BB
:1010400006482169BDE8704008470448A26A1C3080
:1010500005469047E16AEEE770BD000030020020CF
:10106000008840BA7047408840BA00B27047808814
:1010700040BA00B27047808840BA00B270478079A9
:10108000704713B5012201A900F00EF81CBD08B588
:101090000A0A8DF800208DF801100222694600F03E
:1010A00003F808BDAFF300802DE9F0410446407815
:1010B00015460E4628B1012825D1144AA1681068AA
:1010C00008E0124A1C3AF9E703688B4201D118B1D3
:1010D00006E080690028F7D12146104600F050F85C
:1010E000227B58B1002107E05318082B06D2775C09
:1010F0000344491C1F71C9B2A942F5D3E189828911
:101100008A4200D98181BDE8F0810000B407002047
:1011100008B50A0E8DF800200A0C8DF801200A0A85
:101120008DF802208DF8031004226946FFF7BCFFFA
:1011300008BD00002DE9F04105001AD00E4C0F4FFC
:10114000287E002815D0284600F08CF8064608F0C6
:101150006FFA20603968401A606008F069FAE16847
:10116000401AA06008F064FAE060304600F0EEF843
:10117000E6E7BDE8F081000000000020C80600207E
:101180002DE9F04105680F4604460026F5B10FB978
:101190001CE00546A8690028FBD11C2008F0BEFC15
:1011A000A861B9680160A969F8898881A8690661A0
:1011B0000020011DAA69401CC0B256540828F8D36B
:1011C000A8698661A8694461A86917E01C2008F035
:1011D000A5FC2060B96801602168F88988812068D1
:1011E00006610020011D2268401CC0B25654082828
:1011F000F8D3206886612068446120682179491C01
:101200002171BDE8F0810021016041608160C16011
:10121000016101224161C0E90612C0E9082170475D
:1012200070B505004FF0000618D02879B0B12C68D1
:1012300012E000BF08F0FCF92169411AA08900EB17
:101240004002C2EBC010B1EBC00F04D321462846C8
:1012500000F01FF80126A469002CEBD1304670BDC8
:1012600000F052B810B5002288B1017E79B1D0F8F3
:101270000820002100EB8103491CDC68C9B29C6096
:101280000329F7D300214161017E491E01761046F2
:1012900010BD012250B149B1037E042B06D200EBF0
:1012A00083029160017E491C01760022104670473E
:1012B00010B5124A016891420DD1114B00211C4614
:1012C000A3F11C0201F00FFA0D4821461C380068FA
:1012D000FFF750FE10BD0B4A9142FBD1084B002195
:1012E00024331C46A3F11C0201F0FDF904482146F9
:1012F00008300068FFF774FE10BD00000064004075
:10130000EC0700200068004000B5034687B09A68EB
:1013100000920022012002920392082204925A783D
:1013200052B1012A06D10A46064806AB694600BFFB
:1013300001F0EEF807B000BD0A4606AB6946024868
:10134000F6E70000C01500209815002030B587B0E2
:1013500004004FF0010521D00AF04EFE20680090F5
:10136000002002900390082004900E496069884292
:1013700004D106AB221D69460B4807E009491C3120
:10138000884206D106AB221D6946084801F0C0F824
:10139000054608F04DF920610AF04EFE07B02846D8
:1013A00030BD00009807002098150020C0150020CF
:1013B0000021014801F0C2BCE815002010B50D4C19
:1013C000206881688847606881688847E06981682B
:1013D0008847A06881688847E068816888472069F5
:1013E00081688847606981688847A0698168BDE82D
:1013F00010400847F80000200448C079C10604489E
:1014000001D5012100E0002141757047BC02002098
:101410000C050020124910B58C78002001F108035A
:1014200001F5BC7264B1117D002908D0107593EDEF
:101430000E0ADFED0C0A30EE200A83ED0E0A10BD15
:1014400001248C70C87008719FED070A074983ED6D
:101450000E0A83ED0F0A0968C860107510BD000000
:101460009403002080FB0FC7000000003002002022
:101470000E4802799FED0E0A00F1080162B90122BF
:10148000027100228270C27042710A4881ED0E0A18
:1014900081ED0F0A0068C2600748007D18B103485B
:1014A000243890ED020A81ED000A70479403002071
:1014B00000000000300200200C05002030B5154966
:1014C0004B79002001F108026BB901234B71C87000
:1014D000087188709FED100A104982ED0E0A82EDA6
:1014E0000F0A0968C8600E4CA4F5CE71E57D8B88A3
:1014F00045B13BB992ED0E0ADFED0A0A30EE600A03
:1015000082ED0E0A5B1C9AB28A80C82A01D98880B3
:10151000E07530BD94030020000000003002002080
:101520000C05002080FB0FC7124910B5CC780020B5
:1015300001F1080301F5BC7264B1117D002908D0E6
:10154000107593ED0E0ADFED0C0A30EE200A83EDE4
:101550000E0A10BD0124CC70087188709FED070A37
:10156000074983ED0E0A83ED0F0A0968C8601075FC
:1015700010BD00009403002040F9D7C70000000010
:1015800030020020014801F063BC00000818002070
:10159000014801F05DBC0000A8170020014801F0DF
:1015A00057BC000028190020014801F051BC000080
:1015B00068180020014801F04BBC0000C81800204A
:1015C0002DE9F04F85680024099E802D18D0894DA3
:1015D000C563894D456490F83450012D15D001251F
:1015E00080F8345090F83550012D10D0002180F84B
:1015F00034100224002180F834102046BDE8F08F1A
:101600004FF4807141650120F8E70220F6E70225DA
:1016100080F835500025456505682F6847F4802718
:101620002F6005682B6103685E608368402B036848
:101630002AD099600168CA60714D704E704FDFF812
:10164000BC81DFF8B891DFF8B8A1DFF8B4B1EA14D3
:10165000DFF8A8E10168183630379302A9F148098C
:101660000AF1600A0BF1180BAEF1300E4FF0006C6E
:1016700041452DD9A94205D0494503D0514501D056
:10168000B14205D1202220E09A600268D160D3E700
:1016900059451AD0714518D0594D7835A94214D002
:1016A000564D3035A94210D0B9420BD0534A183AA2
:1016B000914207D0524A9032914203D04F4A483269
:1016C000914201D11A4600E062464C494C392EE065
:1016D000DFF82C8108F1A80841452AD9A94205D094
:1016E000494503D0514501D0B14201D120221CE02F
:1016F00059451AD0714518D0414D7835A94214D0BA
:101700003E4D3035A94210D0B9420BD03B4A183A71
:10171000914207D03A4A9032914203D0374A483238
:10172000914201D11A4600E06246344950390A60BC
:101730005AE0DFF8CC8008F1480841452AD9A9428F
:1017400005D0494503D0514501D0B14201D12022F5
:101750001CE059451AD0714518D0294D7835A94259
:1017600014D0264D3035A94210D0B9420BD0234AAF
:10177000183A914207D0224A9032914203D01F4A30
:101780004832914201D11A4600E062461C491039A4
:10179000CA6029E0A94205D0494503D0514501D08E
:1017A000B14201D120221CE059451AD0714518D010
:1017B000134D7835A94214D0104D3035A94210D0C0
:1017C000B9420BD00D4A183A914207D00C4A9032D8
:1017D000914203D0094A4832914201D11A4600E0B1
:1017E0006246074910398A6001680A6842F00102BE
:1017F0000A60FFE6BD830008D583000858640240F4
:101800001060024001681823CAB2103AB2FBF3F22A
:10181000054B6FF30901032A9B5CC36500D9091DC1
:10182000816508467047000070F7000810B5014652
:1018300000208B698A6A4FF0C07453B1B3F5005F22
:1018400015D072B1012A0CD0022A0AD0032A09D17C
:1018500004E01AB1012A06D0022A03D1C96AC901DB
:1018600000D5012010BDC96AA142FAD010BD002ADE
:10187000F7D0012AF2D0022AF3D0032AF3D010BD08
:1018800030B50468256825F4802525600468636008
:101890008368402B036803D099600068C26030BD44
:1018A0009A600068C16030BD70B590F83450002473
:1018B000012D0CD0012580F8345090F835600025BA
:1018C000012E06D080F834500224204670BD02203C
:1018D00070BD022680F83560456505682E6826F4DF
:1018E00080262E6005686B608368402B036808D0F3
:1018F00099600168CA600068016841F001010160F7
:10190000E3E79A600268D160F5E710B503F006FDE1
:1019100000F022F8FEF7C6FFFFF74AFD04F078FE5C
:1019200004F0ACFE04F0D6FE04F0F2FEFFF708FB74
:10193000FFF73CFB03F04EF9BDE8104003F0CEBCCE
:1019400001680A68D20604D5C968C90601D50AF03B
:1019500045BA70477047000010B50021044802F0F6
:1019600075FABDE810400421014802F06FBA00008A
:101970000816002070470000044A00F57A701060D5
:10198000101D01F57A7101607047000034040040B9
:1019900000B503F0DFFD0B48C07981060A4804D585
:1019A000A0F5CE7191ED030A01E09FED080A80EDEC
:1019B000040A0748F1EE400AC0ED1D0A80ED3A0A1C
:1019C00000BD0000BC0200200C050020000000004B
:1019D0009C03002010B501EB4102C2EB411100EB6A
:1019E000810404F1380094ED0E0AD4ED0F0A30EEB4
:1019F000600A84ED100A0AF059F994ED180A20469D
:101A000084ED000AD4ED010A30EE600A84ED020A8A
:101A10000AF04CF994ED0A0A84ED1C0A10BD00008E
:101A200030B52F482F4D0179A5F1580401B3417904
:101A300009B10021417195ED0F0AD4ED090A30EE8C
:101A4000600A84ED020AD5ED2C0A94ED0A1A70EEB4
:101A5000C10AC4ED030A90ED021A31EE000A84EDCA
:101A6000070A90ED030A30EE200A84ED080A03E02D
:101A700003F066FC04F048FFD4ED070A1A4910EEA3
:101A8000900A884202DDDFED190A06E010EE900AA6
:101A90001749884201D9DFED170A1749C4ED070A33
:101AA00094ED080A10EE100A884202DD9FED130A39
:101AB00006E010EE100A1249884201D99FED110A82
:101AC00084ED080A94ED091A71EE200AC5ED0E0A9C
:101AD000D4ED0A0A30EE800A85ED2B0A30BD0000F5
:101AE000E80D00209805002000C02E4400C02E44C0
:101AF000000016C3000016C300F0034500F00345C4
:101B0000008080C4008080C410B500F01DF800F093
:101B100071F90C48007830B101280CD0022805D0AA
:101B2000032806D007E000F0FBF804E0FFF778FF99
:101B300001E000F037F800F09FF8BDE8104000F039
:101B400007BB00004405002010B500F005F8BDE813
:101B5000104000F017BB000005480178054829B186
:101B6000012903D0022901D0032900D10170704757
:101B7000BE060020440500200949A1F580720868CE
:101B80004368136049684B6853600832C2E900013A
:101B900002680348F038026009684160704700003D
:101BA000800600202B4A2A49A2F158000B79D0ED7B
:101BB000091A90ED0A1ADBB14B790BB100234B7176
:101BC00092ED0F0A30EE610A80ED040AD2ED2C0A84
:101BD00070EEC10AC0ED050A91ED022A32EE000A4C
:101BE00080ED070A91ED030A30EE200A80ED080A25
:101BF000D0ED070A184B10EE901A994202DDDFED86
:101C0000170A06E010EE901A154B994201D9DFED44
:101C1000150A154BC0ED070A90ED080A10EE101AD0
:101C2000994202DD9FED110A06E010EE101A104BEA
:101C3000994201D99FED0F0A71EEA00A80ED080AC2
:101C400031EE000AC2ED0E0A82ED2B0A7047000049
:101C5000E80D00209805002000C02E4400C02E444E
:101C6000000016C3000016C300F0034500F0034552
:101C7000008080C4008080C42DE9F0410021174815
:101C8000FFF7A8FE01211548FFF7A4FE134E00241C
:101C9000A6F11007A6F1180557F82400007E0128C8
:101CA0000AD055F82400002182699047641CE4B2F0
:101CB000022CF1D3BDE8F08104EB4400C0EB4410EA
:101CC00006EB800090ED1C0ABDEEC00A10EE100A73
:101CD00081B255F824008269E7E7000098050020EA
:101CE0002DE9F0410E462DED028B074600249FEDB5
:101CF0000B8A0CE004EB4400C0EB441007EB8005BA
:101D0000284607F051FD641C85ED1C8AE4B2B442FC
:101D1000F0D3BDEC028BBDE8F081000000000000B4
:101D20002949DFED2A0AB2EE041AB1F90200294A64
:101D3000404200EE100A2648B8EEC00AC0EE201A53
:101D400090ED070A01EE810A80ED070AB1F9001053
:101D500001EE901A10EE101AB8EEE12A9142C2EE8E
:101D6000201AD0ED080A41EE810AC0ED080A02DD12
:101D70009FED190A06E010EE101A184A914201D997
:101D80009FED170A10EE901A164A80ED070A91424D
:101D900002DDDFED150A06E010EE901A134A9142BB
:101DA00001D9DFED130A0A49C0ED080A90ED091ABE
:101DB000583131EE000A81ED0E0A90ED0A0A30EE3C
:101DC000200A81ED2B0A7047E40200200000254420
:101DD0004005002000C02E4400C02E44000016C361
:101DE000000016C300F0034500F00345008080C4E6
:101DF000008080C4BD4910B5087801286FD1BC4A65
:101E00001068038841F61B04E31A00EE103A0388B9
:101E1000F8EEC01A43F61B04E31A00EE103A0388EA
:101E2000B8EEC01A03F2E5735B4200EE103A526856
:101E3000B8EEC02A138841F66D24E31A00EE103A7A
:101E40001388B8EEC00A43F66D24E31A00EE903A08
:101E50001388F8EEE02A03F293535B4200EE903AC7
:101E6000F5EEC01AF8EEE00AF1EE10FA02DDB0EE7F
:101E7000614A01E0B1EE614AB5EEC01AF1EE10FA26
:101E800002DDF0EE414A01E0F1EE414AB4EEE44AEF
:101E9000F1EE10FA1BDDB5EEC02AF1EE10FA02DD0C
:101EA000B0EE424A01E0B1EE424AB5EEC01AF1EEA0
:101EB00010FA02DDF0EE414A01E0F1EE414AB4EEE3
:101EC000E44AF1EE10FA02DDF0EE413A63E0F5EE9D
:101ED000C01AF1EE10FA03DDB0EE614A02E004E14F
:101EE000B1EE614AB5EEC01AF1EE10FA02DDF0EE85
:101EF000414A01E0F1EE414AB4EEE44AF1EE10FA53
:101F00001BD2F5EEC01AF1EE10FA02DDB0EE614A16
:101F100001E0B1EE614AB5EEC02AF1EE10FA02DD41
:101F2000F0EE424A01E0F1EE424AB4EEE44AF1EE4C
:101F300010FA02D2F0EE613A2DE0B5EEC02AF1EED1
:101F400010FA02DDB0EE424A01E0B1EE424AF5EE8F
:101F5000C01AF1EE10FA01DCF1EE611AB4EEE14ABA
:101F6000F1EE10FA17D2B5EEC02AF1EE10FA02DD4A
:101F7000F0EE421A01E0F1EE421AB5EEC01AF1EEAF
:101F800010FA01DCB1EE411AF4EEC11AF1EE10FACA
:101F900001D2F0EE423AB5EEC00AF1EE10FA02DDDF
:101FA000B0EE401A01E0B1EE401AF5EEC02AF1EEB3
:101FB00010FA02DDF0EE621A01E0F1EE621AB4EE00
:101FC000E11AF1EE10FA1BDDF5EEC00AF1EE10FA9F
:101FD00002DDB0EE601A01E0B1EE601AF5EEC02A43
:101FE000F1EE10FA02DDF0EE621A01E0F1EE621A93
:101FF000B4EEE11AF1EE10FA02DDB0EE623A62E000
:10200000B5EEC00AF1EE10FA02DDB0EE401A01E0C2
:10201000B1EE401AF5EEC02AF1EE10FA02DDF0EE54
:10202000621A01E0F1EE621AB4EEE11AF1EE10FA72
:102030001BD2B5EEC00AF1EE10FA02DDB0EE401A86
:1020400001E0B1EE401AF5EEC00AF1EE10FA02DD41
:10205000F0EE601A01E0F1EE601AB4EEE11AF1EE72
:1020600010FA02D2B0EE403A2DE0F5EEC00AF1EEE1
:1020700010FA02DDB0EE601A01E0B1EE601AB5EEC2
:10208000C00AF1EE10FA01DCB1EE400AB4EEC01A5B
:10209000F1EE10FA17D2F5EEC00AF1EE10FA02DDF9
:1020A000B0EE600A01E0B1EE600AF5EEC02AF1EE92
:1020B00010FA01DCF1EE622AB4EEE20AF1EE10FA57
:1020C00001D2B0EE603A0023C360D36008489FEDB0
:1020D000090A5038C0ED093A80ED0A3A80ED070A46
:1020E00080ED080A012048700B7010BDBC0600206E
:1020F00090050020000000002DE9F041124D002461
:102100002DED028B26469FED118AA5F1180700BF21
:1021100004EB4400C0EB441005EB8000314680ED39
:102120001C8A57F8240082699047641CE4B2022C90
:10213000EED302210448FFF7D3FDBDEC028BBDE8CE
:10214000F041FFF701BD00009805002000000000ED
:102150000B48A0F1580190ED0E0A81ED0B0A90EDAD
:102160000F0A81ED0C0A90ED000A81ED0D0A90ED49
:10217000010A81ED0E0A90ED1C0A81ED0F0A7047ED
:102180009805002070B51E480168C96800F1080470
:1021900000EE101AB8EEC00A84ED0F0A4068C0685D
:1021A00000EE100AB8EEC00A84ED2C0A00F066F8C2
:1021B000A4F15805134885ED060AB1EE400A0068FF
:1021C000B0F90E1000EE901AF8EEE00AC4ED010A24
:1021D00084ED1E0AB0F90E0000EE100A0A48B8EEAF
:1021E000C00A02F0C9FC84ED010A95ED060A074811
:1021F000B1EE400A02F0C0FC84ED1E0A70BD000082
:1022000090050020DC0000206C0F00203C0F002017
:102210000079C01C8007400F70474068A0F205207D
:10222000042802D240F2FF10704740F2FF207047AE
:1022300010B558B1084C491E0BD310F8013B534060
:10224000DBB234F8133083EA1222F4E74FF6FF7062
:1022500010BD104610BD0000ACF4000810B5064CCF
:1022600004E000BF10F8013B5340E25C491E89B214
:10227000F8D2104610BD0000ACF3000810B5184CA1
:10228000DFED180A2DED028B206890ED010A20EE9B
:10229000200ADFED150AC0EE208AB0EE680A05F0CC
:1022A000BFF8F0EE400AB0EE680AB0EE608A05F0C2
:1022B000F3F82068B0F90C10B0F9100000EE901A95
:1022C00001EE100AF8EEE00AB8EEC11A60EE880AD4
:1022D000BDEC028B41EE400AB0EE600A10BD00007A
:1022E000DC000020DB0F49400000344378B50024B7
:1022F000009490F83C20012A19D0012280F83C205B
:102300000A6807230568092A13D9EE680A3A02EB1E
:10231000420293409E43EE600B788A680A3B03EBCF
:1023200043039A400368DD682A43DA6010E0022024
:1023300078BD2E6902EB420293409E432E610B78DA
:102340008A6803EB43039A4003681D692A431A61B4
:102350004A681F23072A13D205686E6B521E02EBD0
:10236000820293409E436E630B790A885B1E92B291
:1023700003EB83039A4003685D6B2A435A6327E0AB
:1023800005680D2A12D22E6BD21F02EB82029340F7
:102390009E432E630B790A88DB1F92B203EB830303
:1023A0009A4003681D6B2A431A6311E0EE6A0D3AE6
:1023B00002EB820293409E43EE620B790A880D3B4A
:1023C00092B203EB83039A400368DD6A2A43DA6220
:1023D000164B0568144A9D4206D10D68122D03D193
:1023E000556845F48005556005689D4218D10B6815
:1023F000102B01D0112B13D1536843F40003536009
:10240000096810290CD10A490A4A0968B1FBF2F19E
:1024100001EB8101490000E0491E00910029FBD138
:1024200080F83C40002078BD00230140002001409E
:102430002C07002040420F0070B504004FF000054B
:1024400003D0206C002610B107E0012070BD2046AB
:1024500000F01CF8666484F83C60206CC00610D460
:10246000206C20F4885040F0020020642046FEF7E3
:102470001BFA6664206C20F0020040F0010020642A
:1024800000E0012584F83C60284670BD10B586B098
:10249000044614216846FEF7D1F8114920688842A5
:1024A0001CD110480021026842F48072026000686A
:1024B00000F4807005900B481438026842F0040262
:1024C0000260006800F004000590012000900320E5
:1024D000CDE901016946044800F02CFE06B010BDAC
:1024E00000200140443802400008024090F82020BB
:1024F000012A07D0022A05D0416A41F480214162B5
:1025000001207047006842690A4342610020704719
:10251000F0B590F820500468A468012D05D0022D74
:1025200003D0416A41F4802153E014F0406F01D19F
:10253000E5004BD5C4F30164022C03D9416A41F490
:10254000000146E00125A5401D608D684FF4C07371
:102550009DB1CE6835434E6845EAC605066803EB73
:102560000417F5514FF4C275076805EB04150E69A1
:102570007E51097D012905D009E00E88CD6845EA24
:102580004655EBE701684E5946F480764E51117975
:10259000D2F805504FF4C67641EA0525016806EBEE
:1025A00004168D511178D2F801204FF4C47541EA18
:1025B0000221026805EB04155151006803EB041178
:1025C000425842F0010242500020F0BD416A41F4FD
:1025D000001141620120F0BD10B590F82020012AC1
:1025E00007D0022A05D0416A41F4802141620120CE
:1025F00010BD3B48D0F8002242F00102C0F8002292
:10260000D0F8002222F47C52C0F80022D0F8002238
:102610004B6A42EA0322C0F800220A7D02F01F033F
:1026200001229A40D0F81C329343C0F81C32CB6987
:10263000B3B9D0F80C329343C0F80C328C894B6894
:1026400064F31F434C6900EBC404C4F840320C89A6
:102650000B6864F31F434C6900EBC404C4F84432B4
:10266000CB69012B16D1D0F80C321343C0F80C32D1
:102670000C884B6864F31F434C6900EBC404C4F836
:1026800040320C89CB6864F31F434C6900EBC404EF
:10269000C4F844328B69002BD0F804320ED01343B7
:1026A000C0F804320B69002BD0F8143208D0134361
:1026B000C0F81432096A012904D008E09343EFE717
:1026C0009343F5E7D0F81C121143C0F81C12D0F860
:1026D000001221F00101C0F80012002010BD00001E
:1026E00000640040704730B590F82040012C05D0C0
:1026F000022C03D0416A41F480215DE00468002986
:1027000055D02469A40754D04FF4D874056804EB5D
:1027100001142D5915F00405956005682D594ED00A
:10272000ED08556005682C5904F00204D4604FF49C
:10273000DA74056804EB01142D5905F00F051561D5
:1027400005682D59C5F30725956105682C59240C9A
:1027500054614FF4DC72046802EB0112A4581C703F
:102760000468A458240A5C700468A458240C9C7063
:102770000468A258120EDA704FF4DE72046802EB9D
:102780000112A4581C710468A458240A5C710468DE
:10279000A458240C9C710468A258120EDA710068C7
:1027A00081B1016941F020010161002030BDE46880
:1027B000A8E7416A41F400114162012030BD6D0D6E
:1027C0001560AFE7C16841F02001C160EDE72DE978
:1027D000F05F0546006800244669D0F804908768D9
:1027E000D0F80CB0D0F810A0D0F81880F10748D07D
:1027F000F90714D001218160B80703D5284600F0FD
:1028000030FA0CE0780702D54FF4006407E038078F
:1028100002D54FF4805402E0284600F021FAF80572
:1028200016D529684FF480708860B80503D528460E
:1028300000F019FA0CE0780502D544F4005407E0E2
:10284000380502D544F4804402E0284600F00AFA34
:10285000F80316D529684FF480308860B80303D593
:10286000284600F002FA0CE0780302D544F4004454
:1028700007E0380302D544F4803402E0284600F033
:10288000F3F9300707D55FEACB6004D5296810203B
:1028900044F40074C86070074FF0080707D55FEA7A
:1028A0000B7004D52868C760284600F099F9B00776
:1028B00006D52868C068800702D0284600F092F943
:1028C000700607D55FEACA6004D52968102044F471
:1028D00080640861B00607D55FEA0A7004D52868ED
:1028E0000761284600F08CF9F00606D528680069D3
:1028F000800702D0284600F084F9B00308D55FEACB
:10290000C96005D5296810204860284600F07AF98A
:10291000F00307D55FEA097004D5286847602846A8
:1029200000F0A4F9300446D55FEA497040D5F005BF
:1029300004D55FEAC87001D044F00104B00504D5A5
:102940005FEA887001D544F00204700504D55FEA9F
:10295000487001D544F00404300529D518F0700FF3
:1029600026D008F07000402815D006DC102809D0C9
:1029700020280AD0302816D10AE050280ED060282E
:1029800011D10EE044F008040DE044F010040AE018
:1029900044F0200407E044F0400404E044F08004E4
:1029A00001E044F480742868816921F0700181613C
:1029B000296804204860002C05D0686A20436862BA
:1029C0002846FFF78FFEBDE8F09F70B5040003D0E6
:1029D00094F8200010B104E0012070BD204600F002
:1029E00081F82068016841F00101016000F0A8FC55
:1029F0000546052604E000F0A3FC401B0A2811D878
:102A000020684068C007F6D02068016821F0020104
:102A1000016000F095FC05460BE000F091FC401BC6
:102A20000A2806D9606A40F40030606284F82060A9
:102A3000D2E7206840688007EFD4207E0128206814
:102A400001683DD021F080010160607E012820688E
:102A5000016838D021F040010160A07E0128206883
:102A6000016833D021F020010160E07E0128206858
:102A700001682ED041F010010160207F01282068FC
:102A8000016829D021F008010160607F01282068D9
:102A9000016824D021F004010160D4E90201084357
:102AA000D4E90412114308436168491E08432168B0
:102AB000C86100206062012084F82000002070BD01
:102AC00041F08001C0E741F04001C5E741F020013D
:102AD000CAE721F01001CFE741F00801D4E741F047
:102AE0000401D9E7F0B587B0044614216846FDF724
:102AF000A5FD364B3648DFF8D0E01968D4F800C0A1
:102B0000334A03250226092710300024491CF445C6
:102B100022D11960012907D1016841F000710160DB
:102B2000006800F000700590106840F00800106028
:102B30001068CDE9005600F00800CDE90470694640
:102B40002448CDE9024500F0F5FA002205211420C1
:102B500000F0C8FC142032E0DFF87CE0F44530D10E
:102B6000D0F800C04CF0806CC0F800C0D0F800C0B5
:102B700001290CF0806CCDF814C0196007D10168F0
:102B800041F000710160006800F00070059010686D
:102B900040F002001060106802AB00F002000590E7
:102BA0006020CDE9000683E8B00069460B4800F0DC
:102BB000C1FA00220521402000F094FC402000F0E2
:102BC00083FC07B0F0BD0000006400401C0700203B
:102BD00030380240000C024000680040000402400F
:102BE00070470000044A0168914202D0034A9142B2
:102BF00001D1FEF75DBB70470064004000680040F3
:102C0000704770477047000070B5044690F8200088
:102C1000012804D0606A40F40020606218E00220BD
:102C200084F820002068016821F00101016000F0B3
:102C300087FB05460EE000BF00F082FB401B0A2820
:102C400008D9606A40F400306062052084F82000F2
:102C5000012070BD20684068C007EDD1606270BD82
:102C6000704770477047704770477047704770B53E
:102C70004379012B1CD0012646710223037105689C
:102C80002B6802F0100440F6FE72A2409343D1E993
:102C900000210A43A2401A432A6001680A68C0233F
:102CA000A3409A430A60067100214171084670BD35
:102CB000022070BD70B5040003D02079002510B14A
:102CC00005E0012070BD6571204600F007F8022084
:102CD0002071256101202071002070BD10B586B0E3
:102CE000044614216846FDF7A9FC11492068884272
:102CF0001CD110480021026842F0005202600068B6
:102D000000F0005005900B481038026842F00102B4
:102D10000260006800F00100059010200090032080
:102D2000CDE901016946044800F004FA06B010BD7F
:102D300000740040403802400000024070B5427903
:102D4000012A1ED001224271022303710468266801
:102D500001F0100302FA03F52E43266000290168F2
:102D600011D00C6804F470153C249C40A54203D19A
:102D70004B6843F002034B60027100214171084629
:102D800070BD022070BD0B68C3F383030F2BF3D11A
:102D90004B6843F00103EEE72DE9F0410446876DEF
:102DA00000F0CEFA064694F835000025022806D039
:102DB0008020606584F834500120BDE8F0812068EF
:102DC000016821F0160101602068416921F080014D
:102DD0004161206C08B9A06C20B12068016821F025
:102DE000080101602068016821F0010101600CE028
:102DF00000F0A6FA801B052807D920206065032073
:102E000084F8350084F83450D7E720680068C0079C
:102E1000EED194F85C103F208840B860012084F81F
:102E2000350084F834500020C7E790F835100229A7
:102E300003D08021416501207047052180F83510BD
:102E40000068016821F00101016000207047000066
:102E50002DE9F84304464FF00009CDF8009063488F
:102E60004FF41651A56D0068B0FBF1F72E6894F889
:102E70005C10082000FA01F131420FD021680A6885
:102E800052070BD50A6822F004020A6094F85C101D
:102E90008840A860606D40F00100606594F85C10A7
:102EA0004FF0010808FA01F0304208D02168496962
:102EB000090604D5A860606D40F00200606594F8D2
:102EC0005C1004208840304208D0216809688907D6
:102ED00004D5A860606D40F00400606594F85C1053
:102EE00010208840304218D021680968090714D59D
:102EF000A86020680168490304D50068000308D56C
:102F0000A16C07E00168C90503D4016821F008013C
:102F10000160216C09B12046884794F85C1020209C
:102F20008840304231D021680968C9062DD5A86093
:102F300094F8350005282068016806D0490347D574
:102F4000006800031DD4616C1CE021F016010160D3
:102F50002068416921F080014161206C08B9A06CB2
:102F600020B12068016821F00801016094F85C102C
:102F70003F208840A86084F8358084F83490216D23
:102F80001FE0E16B09B120468847606D00282BD017
:102F9000606DC00714D0052084F8350020680168F2
:102FA00021F0010101600098401C0090B84203D854
:102FB00020680068C007F6D184F8358084F8349022
:102FC000E16C002910D001B02046BDE8F04308476D
:102FD0000168C905D5D4016821F01001016084F8A9
:102FE000358084F83490CCE7BDE8F8832C070020C6
:102FF0002DE9F041044600F0A3F906465CB1022039
:1030000084F83500002584F834502068016821F0E8
:10301000010101600DE00120BDE8F08100F090F9B0
:10302000801B052805D920206065032084F8350021
:10303000F2E720680068C007F0D1226811682048D4
:103040000140D4E901031843D4E90336334318435C
:1030500063691843A3691843E3691843236A184353
:103060000843616A042903D1D4E90B1319430843C7
:10307000106020684069666A20F0070130460E4300
:10308000012704280CD1A06A0643E06A40B120461B
:10309000FEF7CCFB20B14020606584F83570BAE7BC
:1030A000206846612046FEF7ADFB94F85C203F2186
:1030B00091408160656584F835700020ACE70000C0
:1030C0003F8010F02DE9F0410446866D90F8340001
:1030D000002501280DD0012084F8340094F83570C3
:1030E0000020012F07D084F8340002252846BDE8CF
:1030F000F0810220FBE7022784F8357060652046E6
:10310000FEF7BEFB94F85C103F208840B06020685A
:10311000016841F016010160206C20B1206801684F
:1031200041F0080101602068016841F0010101607F
:10313000DCE700002DE9F84FDFF8BCA100220125F3
:103140000AF1040B03264FF00F090BF1040E00BF28
:103150000B6805FA02F42340A34270D10F7907F0FF
:103160000307012F01D0022F16D187684FEA4208CA
:1031700006FA08FC27EA0C07D1F80CC00CFA08FC88
:103180004CEA070CC0F808C04768A7430C79C4F3A1
:10319000001494403C4344600C79E443A4070AD0F3
:1031A000C4684FEA420C06FA0CF7BC438F6807FA72
:1031B0000CF72743C7600C7904F00304022C12D1EA
:1031C000D40800EB840CDCF820405707FF0E09FA06
:1031D00007F824EA0804D1F8108008FA07F848EA4A
:1031E0000408CCF8208004684FEA420C06FA0CF779
:1031F000BC430F7907F0030707FA0CF72743076072
:103200004C6814F4403F70D03C4C276847F480472A
:103210002760246822F0030704F480440094384CAB
:1032200007EB040CDCF8084897074FEA177809FA0F
:1032300008F7BC43334FB84202D1002724E054E0E2
:10324000314FB84201D101271EE0304FB84201D1C1
:10325000022719E02E4FB84201D1032714E02D4F69
:10326000B84201D104270FE02B4FB84201D1052706
:103270000AE02A4FB84201D1062705E0284FB8429C
:1032800001D1072700E0082707FA08F72743CCF801
:103290000878DAF800405746D1F804C09C435FEA4A
:1032A000CC3C00D51C433C60DBF800405F46D1F8C5
:1032B00004C09C435FEA8C3C00D51C433C60DEF8B4
:1032C00000407746D1F804C09C435FEACC2C00D57F
:1032D0001C433C60084F0C373C68D1F804C09C4349
:1032E0005FEA8C2C00D51C433C60521C102AFFF472
:1032F0002FAFBDE8F88F0000003C01404438024089
:10330000003001400000024000040240000802407A
:10331000000C02400010024000140240001802405D
:10332000001C0240426921EA02030A4043EA0241CA
:10333000816170470AB1816170470904FBE70000B1
:1033400001488068704700002007002070B5040025
:1033500011D021684CF6CC400860216845F25550E8
:103360000860D4E9000141602168A0688860FFF727
:10337000E7FF05460DE0012070BD00BFFFF7E0FF4D
:10338000401B312805D92068C068800701D0032080
:1033900070BD2068C0688007F0D121684AF6AA2075
:1033A0000860002070BD00684AF6AA210160002074
:1033B0007047000009480168094A12781144016009
:1033C0004FF08041496A006800EB4002C2EBC01038
:1033D00001EBC00003490860704700002807002087
:1033E00020070020100000200B4810B5016841F4B0
:1033F00000710160016841F480610160016841F47D
:1034000080710160032000F08DF80F2000F006F8B5
:1034100000F03EF8002010BD003C024010B501460F
:1034200088B000221C2000F05DF81C2000F04CF851
:1034300014480024016841F001010160006805A9F9
:1034400000F001000690684600F018F900F036F927
:103450000D494000B0FBF1F10C484FF08042491E8D
:10346000026040F2E732C0E90324C0E9011400F031
:1034700077FB10B1012008B010BD044800F0B2FB8A
:10348000F9E700004038024040420F008819002050
:103490000C4882B0016841F480410160006800F48A
:1034A000804000900748001F016841F08051016092
:1034B0000068002200F0805000900F21901E02B0A2
:1034C00000F010B844380240002809DB00F01F0269
:1034D000012191404009800000F1E020C0F8001176
:1034E00070470000F0B40E4B1B680C46C3F3022378
:1034F000C3F10705042D00D90425191D072901D2A0
:10350000002300E0DB1E012606FA05F1491E2140DA
:1035100099409E40761E16403143F0BC03F09ABAA3
:103520000CED00E0064900F0070208684FF6FF03C3
:10353000184040EA0220034A104308607047000028
:103540000CED00E00000FA052DE9F0470E460500FD
:1035500065D0DFF81481D8F80000F7B200F007005A
:10356000B04207D288F80070D8F8000000F00700D9
:10357000B04254D128683D4C810712D5400703D58D
:10358000206840F4E05020602878000703D52068C8
:1035900040F4604020602068A96820F0F0000843F3
:1035A00020602878C0072DD0304968680839012884
:1035B00012D0022813D0032811D0096889070029E6
:1035C0002DDA216821F0030101432160FFF7B8FEE5
:1035D000814641F2883A0EE009688903EFE70968FD
:1035E0008901ECE7FFF7ACFEA0EB0901514502D9D8
:1035F0000320BDE8F0872068696800F00C00B0EB9C
:10360000810FEFD1D8F80010404601F00701B14218
:1036100007D90770006800F00700B04201D0012010
:10362000E7E72878400705D52068E96820F4E050EE
:10363000084320602878000706D52068296920F40F
:10364000604040EAC100206000F058F82168084A54
:10365000C1F30311515CC840064908600648006880
:10366000FFF7DCFE0020C4E7003C024008380240BF
:103670007CFF00082C070020240700200F22026096
:103680000C4A136803F003034360136803F0F0036C
:103690008360136803F4E053C36012684FF4E0538F
:1036A00003EAD20202610448006800F007000860E3
:1036B0007047000008380240003C024004480549B9
:1036C00000680968044AC1F38221515CC840704710
:1036D0002C070020083802408CFF000804480549E8
:1036E00000680968044AC1F34231515CC840704720
:1036F0002C070020083802408CFF0008154810B540
:10370000006810F00C02144813D01449042A0FD09A
:10371000082A0ED10F4C241F2268236802F03F02B2
:103720005B0207D52068C0F38810A0FB010106E00A
:10373000084610BD2168C1F38811A1FB00010023D8
:10374000FCF76CFE2168C1F30141491C4900B0FB44
:10375000F1F010BD083802400024F40040787D01EB
:103760002DE9F84F04006ED02078DFF84C93C007A5
:10377000A9F104054AD009F104000168C1F38101EF
:10378000012908D00068C0F3810002280AD1D9F8C5
:103790000000400206D52868800337D560680028FD
:1037A000E1D033E06068B0F5803F10D0B0F5A02FD5
:1037B000286810D020F480302860286820F4802009
:1037C00028606068A8B1FFF7BBFD06460DE02868D9
:1037D00040F48030F4E740F480202860F7E700BF31
:1037E000FFF7AEFD801B642873D828688003F7D5E7
:1037F0000CE0FFF7A5FD064605E000BFFFF7A0FDC2
:10380000801B6428F0D828688003F7D42078DFF87C
:10381000AC8280074FF0000A3ED5A748001D016822
:1038200011F00C0F08D00068C0F3810002280BD102
:10383000D9F80000400207D42868800716D5E06850
:10384000012800D112E033E1E068B8B10120C8F8E6
:103850000000FFF775FD064605E000BFFFF770FDAD
:10386000801B0228C0D828688007F7D528682169FE
:1038700020F0F80040EAC10028600DE0C8F800A080
:10388000FFF75EFD064604E0FFF75AFD801B0228A5
:103890001FD828688007F7D42078000722D5864FE4
:1038A00087486169703771B101210160FFF748FDF8
:1038B000064604E0FFF744FD801B022809D838685B
:1038C0008007F7D50EE0C0F800A0FFF739FD0646E7
:1038D00005E082E0FFF734FD801B02287DD83868C0
:1038E0008007F7D42078400768D5DFF8CCB10027EF
:1038F0000BF13C0BDBF80000C0000BD4DBF8001030
:1039000041F08051CBF80010DBF80000012700F0F7
:10391000805000906B4E3068C00510D4306840F481
:1039200080703060FFF70CFD009005E0FFF708FDA8
:103930000099401A022850D83068C005F6D55E4E6E
:10394000A0686C3601280FD00528306810D020F010
:1039500001003060306820F004003060A068B8B129
:10396000FFF7EEFC00900FE0306840F00100F4E754
:1039700040F004003060F7E7FFF7E2FC0099411ADD
:1039800041F28830814266D830688007F4D50EE075
:10399000FFF7D6FC009007E0FFF7D2FC0099411A30
:1039A00041F28830814256D830688007F4D42FB174
:1039B000DBF8001021F08051CBF80010A069C8B3EB
:1039C0003D49091D0968C1F3810102294AD0022835
:1039D000504607D0C8F8600000E03CE0FFF7B0FCBC
:1039E00004463BE04746C8F86000FFF7A9FC0646DE
:1039F00005E000BFFFF7A4FC801B02282BD8286835
:103A00008001F7D4D4E907010843A16A2E4A490886
:103A100002EB0141626A41EA8211084394F82C10DA
:103A200040EA0161C9F8001001203866FFF788FC00
:103A3000044606E03EE000BFFFF782FC001B0228C0
:103A400009D828688001F7D534E000BFFFF778FC7B
:103A5000001B022802D90320BDE8F88F28688001E6
:103A6000F4D427E00128F7D0D9F80000E26900F487
:103A7000800191421CD1226A00F03F01914217D18E
:103A800047F6C071626A0140B1EB821F10D1A26A91
:103A90004FF0FF3300F4403103EB5202B1EB024F21
:103AA00006D194F82C1000F07060B0EB016F01D0DB
:103AB0000120D1E70020CFE7043802400000474250
:103AC000800E4742007000400000FFFF70477047C3
:103AD00070B590F83C20012A32D0012480F83C4097
:103AE000022280F83D2003685A689D6822F0700623
:103AF0000A6832435A60134B02689A4214D0B2F1FA
:103B0000804F11D0104B9A420ED0104B9A420BD0DE
:103B10000F4B9A4208D00F4B9A4205D00E4B9A4257
:103B200002D00E4B9A4204D1496825F08003194314
:103B3000916080F83D40002180F83C10084670BD3F
:103B4000022070BD00000140000400400008004059
:103B5000000C0040000401400040014000180040FB
:103B600010B5040003D094F83D0010B107E0012027
:103B700010BD002084F83C00204600F01FF8022011
:103B800084F83D00211D206802F03EFA012084F8EF
:103B9000460084F83E0084F83F0084F8400084F832
:103BA000410084F8420084F8430084F8440084F81B
:103BB000450084F83D00002010BD000008B50068F5
:103BC0000649884208D10648016841F002010160B7
:103BD000006800F00200009008BD000000040040F2
:103BE0004038024090F83D10012901D00120704773
:103BF000022180F83D100168CA6842F00102CA60E3
:103C000000681149884214D0B0F1804F11D00F499B
:103C100088420ED00E4988420BD00E49884208D007
:103C20000D49884205D00D49884202D00C4988428E
:103C300004D1816801F00701062903D0016841F031
:103C400001010160002070470000014000040040B5
:103C500000080040000C004000040140004001400A
:103C60000018004070B5044690F83C00002501287B
:103C700017D0012684F83C60022084F83D002068BB
:103C8000826822F0770222F47F428260086850281E
:103C900038D00DDC20284FD005DC90B3102811D18E
:103CA0004AE0022070BD302846D040280AD13BE0CF
:103CB00060282FD070280DD0B0F5805F03D0B0F50C
:103CC000005F12D0012584F83D60002084F83C009C
:103CD000284670BDCB68D1E90121206802F005FAC1
:103CE0002068816841F0770109E0CB68D1E90121C2
:103CF000206802F0FAF92068816841F4804181600F
:103D0000E1E719E0CA684968206802F0C3FA502167
:103D1000206806E0CA684968206802F0CCFA602191
:103D2000206802F0ECF9CEE7CA684968206802F022
:103D3000B1FA40212068F4E7226801461046F0E716
:103D40002DE9F0410D46040003D094F83D0018B170
:103D500008E00120BDE8F081002084F83C00204606
:103D600000F040F8022084F83D002068816844F2A9
:103D7000070291438160211D206802F045F9226805
:103D800090689169166A2B68AF69034340F203306B
:103D9000814341EA0721A868EF6908434FF6FC41D7
:103DA0008843E96840EA0720014328692F6A000137
:103DB00040EA0730084369686D6926F0AA0646EABA
:103DC0000515294393602268906154F8460B0162FF
:103DD000012004F81F09E0752076E0762077A075B1
:103DE0000020B7E710B586B0044614216846FCF7FA
:103DF00025FC13492068884220D11248002102681E
:103E000042F001020260006800F0010005900D48D8
:103E10001438026842F010020260006800F01000DE
:103E200005904FF420600090122001900120CDE910
:103E30000201049069460448FFF77CF906B010BD02
:103E400000000140443802400010024070B590F874
:103E50003E60044690F83F5090F8423090F843207E
:103E6000022021B104290ED0012E1BD114E0012E15
:103E700018D1012B16D184F83E0084F842000122AB
:103E80000021206820E0012D0CD1012A0AD184F8FC
:103E90003F0084F8430014E0012D03D1012B01D130
:103EA000012A01D0012070BD84F83E0084F83F0053
:103EB00084F8420084F8430001220021206802F0C7
:103EC00007F901220421206802F002F92068016844
:103ED00041F001010160002070BD704770B50446DB
:103EE000006801694FF00005C943890715D4C1680E
:103EF000C943890711D4E91E016101202077206898
:103F000080698007204602D0FFF7E7FF04E000F059
:103F1000C1F8204600F053F9257720680169C943AC
:103F2000490717D4C168C943490713D46FF0040186
:103F30000161022020772068806910F4407F2046CC
:103F400002D0FFF7CAFF04E000F0A4F8204600F01A
:103F500036F9257720680169C943090716D4C16875
:103F6000C943090712D46FF00801016104202077CA
:103F70002068C0698007204602D0FFF7AEFF04E04A
:103F800000F088F8204600F01AF9257720680169CA
:103F9000C943C90617D4C168C943C90613D46FF011
:103FA00010010161082020772068C06910F4407F6B
:103FB000204602D0FFF791FF04E000F06BF82046A6
:103FC00000F0FDF8257720680169C943C90708D1C9
:103FD000C168C943C90704D1891E0161204600F0A8
:103FE00053F920680169C943090609D4C168C94366
:103FF000090605D46FF0800101612046FFF766FDD8
:1040000020680169C943490609D4C168C943490602
:1040100005D46FF040010161204600F03CF92068B2
:104020000169C94389060BD4C168C943890607D40D
:104030006FF0200101612046BDE87040FFF747BDE9
:1040400070BD000010B586B0044614216846FCF728
:10405000F5FA0D492068884214D10C480021026805
:1040600042F001020260006800F001000590C020EB
:1040700000900220CDE90101CDE903106946044812
:10408000FFF758F806B010BD000400403038024079
:1040900000000240704770B5044690F83C000026CE
:1040A0000D4601280FD0012084F83C006AB1042A93
:1040B0001DD0082A2FD00C2A3FD00126002084F8DA
:1040C0003C00304670BD022070BD206802F020F830
:1040D0002068816941F0080181612068816921F0CF
:1040E00004018161206881692A69114311E0206817
:1040F00002F03EF82068816941F400618161206826
:10410000816921F480618161206881692A6941EABD
:1041100002218161D2E7206802F060F82068C1695D
:1041200041F00801C1612068C16921F00401C16149
:104130002068C1692A69114311E0206802F082F801
:104140002068C16941F40061C1612068C16921F43E
:104150008061C1612068C1692A6941EA0221C161A7
:10416000ACE710B5040003D094F83D0010B107E0AF
:10417000012010BD002084F83C00204600F01EF80D
:10418000022084F83D00211D206801F03DFF012040
:1041900084F8460084F83E0084F83F0084F840002C
:1041A00084F8410084F8420084F8430084F8440015
:1041B00084F8450084F83D00002010BD704770472A
:1041C00010B50446022249B104290ED0082913D0A3
:1041D00094F84100012816D0012010BD94F83E004B
:1041E0000128F9D184F83E200FE094F83F0001281F
:1041F000F2D184F83F2008E094F840000128EBD188
:1042000084F8402001E084F841200122206801F078
:104210005FFF16492068164A884201D0904203D1B8
:10422000436C43F4004343642068884213D0B0F1E8
:10423000804F10D00F4988420DD00F4988420AD0D4
:104240000E49884207D0904205D00D49884202D0DD
:104250000C49884204D1816801F00701062903D086
:10426000016841F001010160002010BD0000014023
:10427000000401400004004000080040000C004021
:1042800000400140001800400068B0F1804F01D1AB
:10429000FFF790B87047704770477047F8B50168EE
:1042A00004460868CA684B6910F00F0F4FF000050C
:1042B00059D003F0010602F49077374365D0C10767
:1042C00005D0D10503D5216C41F0010121644107DE
:1042D00005D5D90703D0216C41F002012164810783
:1042E00005D5D90703D0216C41F0040121640107F1
:1042F00007D502F02001314303D0216C41F00801C1
:104300002164216C00293AD0800604D5900602D59C
:10431000204602F08BF820684069216CC0F38010C1
:10432000090700D460B3204602F04BF820684069CA
:10433000400621D52068143050E8001F21F04001CC
:1043400040E80012002AF5D1A06BA8B16C490165C4
:10435000A06BFEF76AFD002811D0A06B016D01B0C3
:10436000BDE8F040084783060FD593060DD52046DB
:10437000BDE8F84002F05AB82046FFF78EFFF8BDBE
:104380002046FFF78AFF2564F8BD266B2023012E07
:1043900079D1C60677D5D60675D5086848680090E5
:1043A0004869400640D5A16B086840680004000CCD
:1043B000EAD0A28D8242E7D9E085C869B0F5807F56
:1043C0002DD020680C3050E8001F21F4807140E8A7
:1043D0000012002AF5D12068143050E8001F21F0A7
:1043E000010140E80012002AF5D12068143050E89D
:1043F000001F21F0400140E80012002AF5D184F8A6
:104400003E30256320680C3050E8001F21F0100179
:1044100040E80012002AF5D1A06BFEF7BDFCA08D8C
:10442000E18D401A81B229E0A08DE18D401A81B260
:10443000E08D0028A8D00029A6D020680C3050E8D4
:10444000002F22F4907240E80026002EF5D120685B
:10445000143050E8002F22F0010240E80026002E20
:10446000F5D184F83E30256320680C3050E8002FE9
:1044700022F0100240E80023002BF5D12046FFF780
:104480000BFFF8BDFFE705062BD5150629D594F8D7
:104490003D002128F5D1A068B0F5805F01D12069E9
:1044A000B0B1206A411C2162216800784860E08C2C
:1044B000401E0004000CE084E3D12068C16821F0B4
:1044C0008001C1602068C16841F04001C160D8E747
:1044D000206A0088C0F308004860206A801C2062BF
:1044E000E5E74006CDD55006CBD5CA68204622F078
:1044F0004002CA6084F83D3000F012FAC1E70000C3
:104500001D63000870B5040004D094F83D00002538
:1045100010B106E0012070BD84F83C50204600F048
:1045200023F8242084F83D002068C16821F400515C
:10453000C160204601F0DAFF2068016921F4904152
:1045400001612068416921F02A0141612068C16848
:1045500041F40051C1602564202084F83D0084F8B6
:104560003E00002070BD00002DE9F04F87B00546E9
:1045700014216846FCF762F8BA48DFF8E482103884
:104580000222D5F800C0B74B0321DFF8DCB20024CB
:10459000960607154FF0080A4FF48079C4453BD1C1
:1045A000D3F800C04CF4002CC3F800C01B6803F41F
:1045B00000230593036843F001030360006800F0E3
:1045C000010005908DE81600CDE9031A69465846AA
:1045D000FEF7B0FDDFF89882A4494046C8F8001005
:1045E000C0E90164C0E90347C8F81440C0E90649BE
:1045F000C8F82040C8F82440FEF7FAFC08B1FDF7DF
:10460000B9F9C5F83880002205213420C8F838509F
:10461000FEF768FF34205CE0DFF85882C4455DD1C6
:10462000D3F800C04CF4801CC3F800C01B6803F42E
:1046300080130593036843F004030360036803F0E9
:1046400004030593036843F0080303600068884689
:1046500000F0080005904FF48050CDE900020DF104
:10466000080C93468CE8100569468348FEF762FD06
:104670000420CDE9000B0DF1080B69468BE810050D
:104680007E48FEF757FDDFF8E881784908F16008B9
:1046900030394046C8F80010C0E90164C0E903475A
:1046A000C8F814404FF44031C8F81840C8E90791E1
:1046B000C8F82440FEF79CFC08B1FDF75BF9C5F88B
:1046C0003880002205213520C8F83850FEF70AFF4F
:1046D0003520FEF7F9FE07B0BDE8F08FDFF8A081C6
:1046E0004FF0070EC4455DD15E4BA2461B1DD3F8AB
:1046F00000C04CF0100CC3F800C01B6803F010039E
:104700000593036843F0010303600068CDE90241AB
:1047100000F0010005904FF4C060CDE90002CDF833
:1047200010E069465846FEF705FDDFF8448155491B
:1047300008F1C0084046C8F80010C0E90164C0E9AB
:104740000347C8F81440C0E906494FF40039C8E9E6
:104750000894FEF74DFC08B1FDF70CF949484A4CA6
:10476000C5F838807830C8F83850C4E900064020D1
:10477000A060C4E903A7C4F814A0C4F818A0C4E951
:1047800007A92046C4F824A0FEF732FC08B1FDF7C3
:10479000F1F86C63002205212520A563FEF7A2FE37
:1047A000252096E7DFF8E480C44594D1D3F800C013
:1047B0004CF4003CC3F800C01B6803F400330593BD
:1047C000036843F001030360036803F001030593EA
:1047D000036843F0080303600068F04600F0080037
:1047E00005900220CDE900A08A46CDE9024A69463B
:1047F0005846CDF810E0FEF79DFC2020009001AA5D
:104800000220CDF8108082E8110469461B48FEF7AB
:1048100091FCDFF87480154908F160084831404682
:10482000C8F80010C0E90164C0E90347C8F81440A3
:104830004FF44031C8F81840C8E90791C8F824403F
:10484000FEF7D6FB08B1FDF795F8C5F838800022D1
:1048500005212620C8F83850FEF744FE262038E708
:10486000004C0040403802400000024040600240DE
:10487000A81700200050004000080240000C024031
:104880000010014040640240C8180020004400406D
:104890007047000070B5044690F83D00202836D1DE
:1048A00091B38AB394F83C00012830D0012084F8F9
:1048B0003C002162A284E28400252564212084F842
:1048C0003D00636B1348D863636B13481864636BD4
:1048D0001248D864606B134605652668606B321D0C
:1048E000FEF7F0FB21686FF04000086084F83C5050
:1048F0002068143050E8001F41F0800140E80012A9
:10490000002AF5D1002070BDFFE70120FBE702205F
:10491000F9E7000077630008B96300082D63000819
:1049200070477047FEE7000070B50D4C0025C4F8D5
:10493000B4520C48016821F040410160016841F027
:1049400080410160C4F8BC52022004F52D7403F0CC
:10495000E3FC01202060022003F0DEFC256070BD36
:10496000008040420004024070B50D4C0025C4F8A0
:10497000B4520C48016821F040410160016841F0E7
:10498000804101600126C4F8BC62022004F52D7448
:1049900003F0C2FC2660022003F0BEFC256070BD5F
:1049A00000804042000402402DE9F047814616484D
:1049B0000024016821F04041016001680160134E4C
:1049C000254627464FF00108C6F8B472022003F0CE
:1049D000A3FCC6F8B4826006040ED6F83C0208B107
:1049E000641CE4B2012003F097FC6D1CEDB2082DAD
:1049F000EAD3B9F1000F04D0FFF796FF2046BDE8D7
:104A0000F087FFF7B1FFF9E7000402400080404261
:104A10002DE9F04106461448016821F0404101604B
:104A2000016841F080410160104C0027C4F8B47265
:104A30003D464FF00108F009C4F8BC027006060EAE
:104A4000022003F069FCC4F8B482022003F064FC85
:104A5000C4F8B472022003F05FFC6D1CEDB2082DA7
:104A6000E9D3BDE8F081000000040240008040422C
:104A700070B50D48016821F040410160016841F0C6
:104A800080410160094C0120C4F8BC02C4F8B402A2
:104A9000042004F52D7403F03FFC0025A5600420DC
:104AA00003F03AFC256070BD0004024000804042E3
:104AB0000E4810B5016821F040410160016841F0E5
:104AC000804101600A4C0020C4F8B402C4F8BC0262
:104AD000042004F52D7403F01FFC01202060A06069
:104AE000BDE81040042003F017BC000000040240A1
:104AF0000080404270B512480024016821F0404116
:104B00000160016801600F4D0126C5F8BC623046A6
:104B100003F002FCC5F8B462012003F0FDFB07E0DE
:104B2000641CE4B2FA2C03D9FFF7C2FF012070BD68
:104B3000D5F83C020028F3D1C5F8B40270BD0000DE
:104B400000040240008040429FED0A1A80ED001AE6
:104B500080ED051A80ED090AC0ED0A0AB7EE000AD9
:104B600080ED070A80ED081A80ED0B0A80ED011A2E
:104B70007047000000000000D0ED071AD0ED000AD9
:104B800021EEA01A80ED011AD0ED090A90ED052A58
:104B900041EE820AC0ED030AD0ED0A1A30EEA12AD6
:104BA000C0EE821A30EE412AB0EE410AB7EE001A8A
:104BB000C0ED061A31EE611A01EE820A61EE200A9A
:104BC00080ED020AC0ED040AC0ED050A80ED000A7E
:104BD00070470000DFED221A00B5F0EE610AB7EE73
:104BE000000A2048FFF7B0FF1E48F0EE610AB7EE5A
:104BF000000A3030FFF7A8FF9FED1B2A1948B7EED7
:104C0000000AF0EE420AC038FFF79EFF1548F0EEAA
:104C1000420AB7EE000A9038FFF796FF1148F0EE0F
:104C2000420AB7EE000A6038FFF78EFFF3EE0E0A75
:104C3000B7EE000A0D48FFF787FF0C48F3EE0E0AA7
:104C4000B7EE000A3030FFF77FFF0648F0EE610A4A
:104C5000B7EE000A30385DF804EBFFF775BF0000CF
:104C6000000000003C0F0020000070421C0E0020DD
:104C700070B50546FFF7FCFE0F4C20784006000E8D
:104C8000FFF7C6FEFFF736FF2846FFF7C1FEFFF726
:104C900031FFFFF7EDFE2078012101EB4000C0B2AB
:104CA000FFF7B6FEFFF726FF0020FFF77DFE044664
:104CB000FFF7FEFE204670BD800000202DE9F04188
:104CC00016460D460746FFF7D3FE134C20784006E4
:104CD000000EFFF79DFEFFF70DFF3846FFF798FE29
:104CE000FFF708FFFFF7C4FE2078012101EB400029
:104CF000C0B2FFF78DFEFFF7FDFE002406E00120A5
:104D0000FFF752FE641C05F8010BE4B2B442F6D37F
:104D1000BDE8F041FFF7CCBE800000207FB5002445
:104D200015480094019402941249039401604FF4D1
:104D30008031C0E901140461047680F820400F49F5
:104D4000C0E90A140125C561C46080F8304045619E
:104D5000FDF772FB08B1FCF70DFE0A20CDE9000556
:104D6000694602940448FDF7C1FA002801D0FCF717
:104D700001FE7FBD00200140501500200100000F02
:104D8000104810B50E4901600321416000214FF425
:104D900000228160C0E903124FF4401242610176A3
:104DA000012242768276C27601774277FDF70DFEC8
:104DB000002803D0BDE81040FCF7DCBD10BD0000AA
:104DC0000064004098150020104810B50E4901609D
:104DD0000321416000214FF400228160C0E90312E9
:104DE0004FF4401242610176012242768276C27609
:104DF00001774277FDF7E9FD002803D0BDE81040B8
:104E0000FCF7B8BD10BD000000680040C0150020D0
:104E10001CB500240C4900940A4801940860084617
:104E2000FDF748FF08B1FCF7A5FD0220CDE90040E1
:104E3000002269460448FDF71AFF002801D0FCF75C
:104E400099FD1CBD00740040E81500201D4808B500
:104E5000016841F400110160016801F40011009142
:104E6000016841F4800101600068002200F48000C4
:104E7000009005210B20FEF735FB0B20FEF724FBED
:104E8000002205210D20FEF72DFB0D20FEF71CFB57
:104E9000002205211020FEF725FB1020FEF714FB51
:104EA000002205213A20FEF71DFB3A20FEF70CFBFD
:104EB000002205214620FEF715FBBDE808404620EC
:104EC000FEF702BB3038024010B5B2B01C222749B1
:104ED0006846FBF75FFB0021684604F03AFC244C6F
:104EE00022491C2220601C3107A8FBF753FB00213C
:104EF00007A804F02EFC1D4960601C2238310EA862
:104F0000FBF748FB00210EA804F023FC1749A06022
:104F10001C22543115A8FBF73DFB002115A804F015
:104F200018FC1249E0601C2270311CA8FBF732FB10
:104F300000211CA804F00DFC0C4920611C228C31BE
:104F400023A8FBF727FB002123A804F002FC074954
:104F500060611C22A8312AA8FBF71CFB00212AA8AB
:104F600004F0F7FBA06132B010BD0000ACF6000801
:104F7000000700202DE9F04F87B014216846FBF7A9
:104F80005DFB47480024016841F0040101600168AD
:104F900001F004010591016841F0800101600168A0
:104FA00001F080010591016841F001010160016893
:104FB00001F001010591016841F0100101600168F3
:104FC00001F010010591016841F0020101600168E2
:104FD00001F002010591016841F0080101600068DB
:104FE000DFF8C09000F008004FF4D845059001228A
:104FF00029464846FEF79EF9002208214846FEF75A
:1050000099F9DFF8A4A0002224215046FEF792F976
:10501000DFF898B04FF42047012239465846FEF792
:1050200089F94FF40078012241462148FEF782F9C0
:1050300000950125CDE90154694648460394FEF7E1
:1050400079F808200326CDE90005CDE90246694636
:105050004846FEF76FF82420CDE90005CDE9024669
:1050600069465046FEF766F800970396CDE901546D
:1050700069465846FEF75EF8CDF80080CDE9015448
:1050800069460B480394FEF755F830038DE831006C
:1050900069460748FEF74EF807B0BDE8F08F0000FC
:1050A0003038024000080240000002400004024084
:1050B000000C0240094810B5074901600221416017
:1050C00040F6FF718160FEF741F9002803D0BDE88A
:1050D0001040FCF74FBC10BD00300040FC15002014
:1050E00010B58CB024216846FBF7A8FA00241648B6
:1050F000099414490A94C0E9001440F69F71C0E96C
:1051000002410461446184610320CDE9000401206F
:10511000CDE902040494CDE90540079469460A48A4
:105120000894FEF70DFE08B1FCF724FC099409A9C8
:1051300005480A94FEF7CCFC002801D0FCF71AFCC5
:105140000CB010BD000001400816002010B58EB054
:1051500000240794089409940A940B941C2168462F
:105160000C94FBF76BFA2248204901605321C0E9F7
:10517000011440F6C311C0E903148461FEF7F0FC8A
:1051800008B1FCF7F7FB4FF48050079007A91848C7
:10519000FEF768FD08B1FCF7EDFB1548FEF7E1FFEF
:1051A00008B1FCF7E7FB0B940BA911480C94FEF730
:1051B0008FFC08B1FCF7DEFB6020CDE9000402940F
:1051C000002269460A480494FEF765FF08B1FCF71F
:1051D000D1FB042269460648FEF75DFF08B1FCF7E3
:1051E000C9FB0348FEF72EFF0EB010BD00040040BF
:1051F000501600200C4810B50A4901604FF4E13107
:105200004160002181600C22C160C0E9041281610B
:10521000C161FFF777F9002803D0BDE81040FCF723
:10522000A9BB10BD004C0040981600200C4810B5DA
:105230000A4901604FF4E1314160002181600C2294
:10524000C160C0E904128161C161FFF75BF9002808
:1052500003D0BDE81040FCF78DBB10BD00500040EE
:10526000DC1600200C4810B50A4901604FF4E1310A
:105270004160002181600C22C160C0E9041281619B
:10528000C161FFF73FF9002803D0BDE81040FCF7EB
:1052900071BB10BD00100140201700200C4810B554
:1052A0000A4901600B494160002181600C22C16004
:1052B000C0E904128161C161FFF724F9002803D01D
:1052C000BDE81040FCF756BB10BD00000044004094
:1052D00064170020A0860100FEE7000000B5054825
:1052E00000F00EF8044800F00BF804485DF804EBF9
:1052F00000F006B8BC100020DC1100209C0F00203C
:1053000000219FED040A80F8181180ED000A80ED5D
:10531000470A7047000000007047000010B50021E8
:105320000648FEF74DFF04210448FEF749FF00211F
:10533000BDE810400846FCF71FBB000050160020D7
:10534000144810B54178144C491CCAB2427090ED13
:10535000070A002110EE103AA34202DB012303707A
:1053600005E010EE103A0D4CA34200D30170002A64
:105370000ED00278F1EE040A12B1012A07D102E040
:1053800030EE200A01E030EE600A80ED070A41703D
:1053900010BD00004005002000C02E44000016C3D0
:1053A00010B5074800F03CF8064800F039F804480A
:1053B00000F026F8BDE81040024800F021B80000D7
:1053C000A00A0020440C002010B50A4C606D008833
:1053D00000EE100A0848B8EE400A00F035F8206FD9
:1053E0000088BDE8104000EE100A0448B8EE400AFC
:1053F00000F02AB830020020A00A0020440C00204F
:1054000000219FED060A05E000EB8102491C82EDB8
:10541000010A89B202888A42F6D87047000000006B
:10542000642101809FED070A002180ED010A80EDD3
:10543000670A80ED650A418080ED660AA0F8A01138
:105440007047000000000000B0F8A02101888A42E7
:1054500010D3491EA0F8A011002107E000EB810243
:10546000491CD2ED020A89B2C2ED010AB0F8A021AE
:105470008A42F3D891B200EB810181ED010A4188A3
:10548000491C8AB2428001888A4200D9418000EBDF
:105490008101D0ED660A91ED001A70EEC10AC0EDEF
:1054A000660AB0F8A01100EB8102491C92ED011AC6
:1054B00030EE811A80ED661A428800EE902AF8EEEE
:1054C000601AC1EE210AC0ED670A30EE600A80ED75
:1054D000650AA0F8A01170470268002111800268D7
:1054E0005180026891800268D180036803221A7299
:1054F00003685A7202685181026891810268D18101
:1055000002681174026851740268518200688182D5
:1055100070470079C01C8007400F70474068A0F2B8
:105520000120042802D24FF40070704740F2FF10AF
:1055300070470079C01C8007400F70474068A0F298
:105540000120042802D24FF40070704740F2FF108F
:1055500070470000234A1079002841D022480023D8
:105560009FED231AD0ED050AC0ED040A116800EE84
:10557000101A80ED050A13711C4A914212DDB4EE37
:10558000600AF1EE10FA0DD090ED030A30EE410AF8
:1055900080ED030AB5EEC00AF1EE10FA20D29FEDBD
:1055A000150A1BE0144A91421ADAB4EE600AF1EED1
:1055B00010FA15D04188491C0904090C41800FD00C
:1055C000438090ED030A0D4A30EE010A10EE101AE6
:1055D00080ED030A914203DD9FED090A80ED030A85
:1055E00070470000BC020020700300200000E04172
:1055F00000004842000000000000D84100C0DA4529
:1056000000C0DA4513484178243802291ED0B2EE92
:10561000040A00BF104980ED060ADFED100AB1F858
:10562000051000EE101AB8EE400A80ED070AC0ED32
:10563000080A30EEC00AD0ED060AB4EEE00AF1EE38
:1056400010FA02D206490020087570479FED050A3E
:10565000E0E7000094030020BC0200200000A0430B
:105660000C0500200000704270B50D46064601EBA7
:105670004500C0EB451006EB800404F1380094EDC2
:105680000E0AD4ED0F0A30EE600A84ED100A06F01F
:105690000DFB94ED180A294684ED000A3046BDE85A
:1056A000704000F051B900000649022048700648D9
:1056B000C079000601D500F04BBA044900200875F6
:1056C0007047000094030020BC0200200C0500205D
:1056D00010B500F023F81048007830B101280CD044
:1056E000022805D0032806D007E000F0EDF804E01A
:1056F000FFF7DAFF01E000F053F8FCF749F9FBF798
:1057000067F9FFF77FFF00F0DBFB00F05DF8BDE815
:10571000104000F071B800009403002000B500F0C4
:1057200007F8FBF769FE5DF804EB00F023B9000011
:1057300004480178044819B1022901D0032900D195
:1057400001707047BE06002094030020114810B578
:105750000268114B9FED110A5168196041684C684D
:105760005C60806844689C600C331A60C3E9011077
:105770001368094A18321360096851600068906024
:1057800004481430002180ED040A01750173C175CD
:1057900010BD0000F8040020400A002000000000B6
:1057A0000649022048700648C0794106054801D5DF
:1057B000012100E0002101757047000094030020E2
:1057C000BC0200200C0500200948C07D08B1FBF791
:1057D00075BE0848407828B1012805D0022805D1B7
:1057E000FBF746BEFBF716BEFBF79EBE70470000F8
:1057F0000C050020940300202DE9F04101211F48F1
:1058000000F0A2F802211D4800F09EF81C48C07D5F
:1058100020B91A4808384078022819D000211748C2
:10582000FFF722FF174F154E0024A7F10C0500BF0C
:1058300057F82400007E01280FD055F824000021DD
:1058400082699047641CE4B2032CF1D3BDE8F08177
:1058500000210A4800F078F8E4E704EB4400C0EBCC
:10586000441006EB800090ED1C0ABDEEC00A10EE5D
:10587000100A81B255F824008269E2E79C030020F7
:105880000C0500204C0A00202DE9F0410E462DEDBC
:10589000028B074600249FED0B8A0CE004EB4400CA
:1058A000C0EB441007EB8005284603F07DFF641C25
:1058B00085ED1C8AE4B2B442F0D3BDEC028BBDE8A6
:1058C000F0810000000000000649022048700648F0
:1058D000C0794106054801D5012100E0002101758C
:1058E0007047000094030020BC0200200C0500203B
:1058F0002DE9F041114D00242DED028B26469FED40
:10590000108A104F04EB4400C0EB441005EB8000FC
:10591000314680ED1C8A57F8240082699047641C48
:10592000E4B2032CEED303210448FFF7ADFFBDEC36
:10593000028BBDE8F041FFF7F1BE00009C030020A0
:1059400000000000400A002010B501EB4102C2EB4C
:10595000411100EB8104204694EC020A30EE600A0B
:1059600084ED020A06F0A2F994ED0A0A84ED1C0AFD
:1059700010BD704712490A68B2F9020000EE100A21
:105980001048B8EEC00A80ED010AD26800EE102A75
:10599000B8EEC00A80ED0F0A4A68B2F9022000EEA4
:1059A000102AB8EEC00A80ED1E0A8968B1F902100B
:1059B00000EE101AB8EEC00A80ED3B0A70470000F6
:1059C000580A00209C03002070B52C4D2DED048B4F
:1059D000286F008807F074F99FED298B53EC182B82
:1059E00007F016F89FED289B53EC192B07F07CF974
:1059F00006F034FF264CC4F81900686D0088153491
:105A000007F05EF953EC182B07F002F853EC192B52
:105A100007F06AF906F022FFA0601E48C079C0F3C3
:105A2000C000401CE070FDF78BFCC4F80D000025A1
:105A300025731E20A070A52004F8010C04202070FE
:105A4000154C1349142220781431401C207013483F
:105A5000FAF7A0FD03211148FAF7D8FF14210F48E7
:105A6000FAF7C0FF2078032805D30D4814214268B7
:105A70000A4890472570BDEC048B70BD30020020B1
:105A80000000000000FFBF400000000000807640E2
:105A90000C030020BC020020D4060020640A002071
:105AA0000403002070B58EB00646002502468DF82E
:105AB00000500121684601F065FE01F077FD324695
:105AC0000121042002F01EF9044601F06FFD84B9A3
:105AD0000C208DF8020002208DF8030001208DF8C3
