:020000040800F2
:10000000F05D002069030008C96C000895600008D5
:10001000516C00086D130008F97F00080000000013
:100020000000000000000000000000007502000851
:100030005131000800000000D1020008C17700081B
:100040008303000883030008830300088303000878
:100050008303000883030008830300088303000868
:10006000830300088303000883030008792D000838
:1000700083030008852D000883030008912D0008E4
:100080009D2D0008830300088303000883030008F4
:100090009913000883030008830300088303000802
:1000A0008303000883030008830300088303000818
:1000B0009578000883030008830300088303000881
:1000C00083030008830300088303000883030008F8
:1000D00083030008917E0008E57E00088303000882
:1000E00083030008830300088303000883030008D8
:1000F00083030008830300088303000883030008C8
:1001000083030008830300088303000883030008B7
:10011000757B00089D7B00088303000883030008AB
:100120008303000883030008A92D00088303000847
:100130008303000883030008830300088303000887
:1001400021140008830300088303000883030008C8
:100150008303000883030008B52D0008830300080B
:100160008303000883030008830300088303000857
:1001700083030008830300088303000800000000D5
:10018000830300088303000800F002F800F062F81F
:100190000AA090E8000C82448344AAF10107DA45E2
:1001A00001D100F057F8AFF2090EBAE80F0013F0D2
:1001B000010F18BFFB1A43F0010318473C1C010054
:1001C0005C1C01000A444FF0000C10F8013B13F0D6
:1001D000070408BF10F8014B1D1108BF10F8015BA0
:1001E000641E05D010F8016B641E01F8016BF9D193
:1001F00013F0080F1EBF10F8014BAD1C0C1B09D1EA
:100200006D1E58BF01F801CBFAD505E014F8016B5B
:1002100001F8016B6D1EF9D59142D6D370470000ED
:100220000023002400250026103A28BF78C1FBD8FF
:10023000520728BF30C148BF0B6070471FB50EF092
:10024000FEFE9DE8030000F07BFA00F090F91FBD70
:1002500010B510BD00F0E0FA1146FFF7EFFF0AF00D
:100260007FFF00F0FEFA03B4FFF7F2FF03BC00F0DB
:100270002FFB00002C4B19680868B0E8F04F80F3A2
:100280000988BFF36F8F4FF0000080F3118870472B
:100290000000000008480068006880F308884FF0FC
:1002A000000080F3148862B661B6BFF34F8FBFF3CE
:1002B0006F8F00DF00BF00BF08ED00E0DFF80C002B
:1002C000016841F470010160704700BF88ED00E0F3
:1002D000EFF30980BFF36F8F134B1A681EF0100FF6
:1002E00008BF20ED108A20E9F04F106009B44FF0EC
:1002F000500080F31188BFF34F8FBFF36F8F0DF065
:10030000BBFD4FF0000080F3118809BC1968086834
:10031000B0E8F04F1EF0100F08BFB0EC108A80F369
:100320000988BFF36F8F7047B8090020EFF305808D
:10033000704700000B49D1F800C04A685CF8043BE4
:100340001068184442F8040B8C4528BFA1F1DC0C5E
:100350008A4228BFA1F1DC02C1F800C04A6020F047
:1003600000407047885700200948804709480047E7
:10037000FEE7FEE7FEE7FEE7FEE7FEE7FEE7FEE755
:10038000FEE7FEE704480549054A064B70470000B2
:100390007978000889010008F0570020F05D0020FE
:1003A000F0590020F059002070B5064600F0ACF975
:1003B000056806F10B0020F00704B4429CBF002042
:1003C00070BD2B466A68BAB11068A04210D304F120
:1003D000080188423CBF5068586007D35168101923
:1003E00041601168091B016058601460101D70BDE8
:1003F00013465268002AE7D12146284600F08CF9BE
:100400000028DED170BD70B50446051F00F07CF9F0
:100410000068002C14BF446870BD002C18BFAC42AB
:100420003CBF20466468F8D301680A18AA4218BF86
:10043000456003D12A6805461144016028684119C6
:10044000A1421CBF6C6070BD61686960216808448E
:10045000286070BD53EA020C00F069802DE9F04B72
:100460004FF00006002B1FBFB3FA83F503FA05F423
:1004700024FA05F65E4012BF1643B2FA82F502FA7C
:1004800005F4C5F120051EBF22FA05FC44EA0C0460
:10049000203556EA044C4FEA144418BF641C4FF050
:1004A00000084FF00009904271EB030C39D300298A
:1004B00019BFB1FA81F701FA07F6B0FA80F700FA2E
:1004C00007F6C7F120071EBF20FA07FC46EA0C0614
:1004D0002037B6FBF4FCA7EB0507103F07F01F0B16
:1004E000CBF120060CFA0BFB2CFA06F644BFB34600
:1004F0000026202FA4BF5E464FF0000B5BEA060CDF
:1005000008BF4FF0010B19EB0B09ABFB027C48EB6A
:100510000608C01B06FB02CC0BFB03CC71EB0C01E5
:10052000C1E70B46024641464846BDE8F08B13B58D
:100530004FF000004FF00001AFF30080BDE81C4019
:10054000704700000B4910B5A1F17C020A4CC2E9CA
:100550003712372106E000EB104342F82130074BF9
:1005600000FB03400B1EA1F10101F4DC10BD0120D2
:10057000E8E7000028570020E119D666CD0D0100FC
:10058000032A40F2308010F0030C00F0158011F8BF
:10059000013BBCF1020F624498BF11F801CB00F897
:1005A000013B38BF11F8013BA2F1040298BF00F8EB
:1005B00001CB38BF00F8013B11F0030300F02580A8
:1005C000083AC0F0088051F8043B083A51F804CBCF
:1005D000A0E80810F5E7121D5CBF51F8043B40F895
:1005E000043BAFF30080D20724BF11F8013B11F8A0
:1005F00001CB48BF11F8012B24BF00F8013B00F8E4
:1006000001CB48BF00F8012B704710B5203AC0F06D
:100610000B80B1E81850203AA0E81850B1E8185003
:10062000A0E81850BFF4F5AF5FEA027C24BFB1E840
:100630001850A0E8185044BF18C918C0BDE81040B1
:100640005FEA827C24BF51F8043B40F8043B08BFBA
:100650007047D20728BF31F8023B48BF11F8012B81
:1006600028BF20F8023B48BF00F8012B70474FF02D
:1006700000020429C0F0128010F0030C00F01B806F
:10068000CCF1040CBCF1020F18BF00F8012BA8BF7D
:1006900020F8022BA1EB0C0100F00DB85FEAC17C41
:1006A00024BF00F8012B00F8012B48BF00F8012BF4
:1006B00070474FF0000200B5134694469646203925
:1006C00022BFA0E80C50A0E80C50B1F12001BFF40B
:1006D000F7AF090728BFA0E80C5048BF0CC05DF871
:1006E00004EB890028BF40F8042B08BF704748BFBF
:1006F00020F8022B11F0804F18BF00F8012B704733
:1007000070477047704700000048704798570020B6
:10071000704770477047704738B504460A46002056
:100720006946AFF30080002808BF38BD0246009933
:10073000204600F04FF8012038BD012000F064B8D9
:10074000F8B5AFF30080054600200C46102000BF2E
:100750000646A819A0420DD9324669460020AFF3DB
:100760000080070008BF00F04FF80098A04218BFB3
:100770000546C419FFF7C8FF05600746F01D20F0C5
:1007800007004619284600F00AF8B44208BFF8BD31
:10079000A21B31463868BDE8F84000F01BB80021C4
:1007A0000160C0E9011070471020704710B500F0DB
:1007B0000DF8006810BD10B5044600F007F804609D
:1007C00010BD000000487047905700200048704757
:1007D00090570020034640688C46002818BF884286
:1007E0003CBF03464068F8D318681844884207D0D5
:1007F0000CF1030020F00700001D411A521A0146B7
:10080000081D0A60FFF7FFBD10B500F039F8BDE81C
:10081000104000F02FB870477546FFF7D3FFAE4683
:1008200005006946534620F00700854618B020B5FC
:10083000FFF7A8FDBDE820404FF000064FF000078D
:100840004FF000084FF0000B21F00701AC46ACE878
:10085000C009ACE8C009ACE8C009ACE8C0098D46E5
:10086000704710B50446AFF300802046BDE8104045
:10087000FFF7F9BC002801D000F02AB8704700004B
:1008800010B5012805D0002103A000F027F80120B1
:1008900010BD09A1F8E7000053494752544D454D9A
:1008A0003A204F7574206F662068656170206D6511
:1008B0006D6F7279000000003A2048656170206D0C
:1008C000656D6F727920636F727275707465640004
:1008D00001491820ABBEFEE72600020070B50546B0
:1008E0000C460A2000E06D1C00F011F835B12878A4
:1008F0000028F8D102E0641C00F009F814B1207857
:100900000028F8D1BDE870400A20AFF3008008B598
:1009100069468DF800000320ABBE08BD704700009B
:10092000464910B54A6822F440324A604A68436832
:100930001A434A6001684A6822F480724A6001687A
:100940004A68036942EA03224A6001684A6822F061
:1009500040724A6001684A6883681A434A600168C5
:100960008A6822F400628A6001688A68C3681A4350
:100970008A60816A6FF07062D14201688A6822F0F1
:1009800070628A6001688A680CD0836A1A438A6040
:1009900001688A6822F040528A6001688A68C36AE6
:1009A0001A4301E022F040528A6001688A6822F00E
:1009B00002028A6001688A68037E42EA43028A6012
:1009C00090F82010002901684A680FD042F40062B4
:1009D0004A6001684A6822F460424A6001684A68D5
:1009E000174C436A04EB43331A4301E022F40062DC
:1009F0004A600168CA6A22F47002CA620168CA6A5F
:100A0000838B104C04EB03531A43CA6201688A6853
:100A100022F400728A6001688A6890F8303042EAF5
:100A200043228A6001688A6822F480628A600168D1
:100A30008A68406942EA8020886010BD0023014036
:100A400000E0FFFF0000F0FF10B5124C1248217AC1
:100A5000406D11B1052904D016E0408860832083E1
:100A600012E00021217240886083B4F9181000B2AE
:100A7000401A0DF089FF9FED091B53EC112B0DF06F
:100A80002BFE0DF04FFD2065207A401C207294ED66
:100A9000140A10BD700400205C0200200000000059
:100AA000000024400548417C002906D00021417304
:100AB0000348C17921F04001C171704768080020E6
:100AC000DC08002030B50C4605000CD0022C0AD9F9
:100AD0000548A11E0288284602F04CFF291901F89A
:100AE000020D000A487030BD7409002030B50C4674
:100AF00005000AD0022C08D9601E81B2FF222846C8
:100B000002F04EFF291901F8010C30BD2DE9F0412A
:100B100016462DED0A8B0F468046B3F90030DDE90D
:100B2000131000EE103ADDE91152F8EEC00AFE4C47
:100B3000DDF840C0C4ED0E0ABCF9003000EE103AFA
:100B4000B8EEC00A84ED0F0AB5F90030032593FB17
:100B5000F5F31BB203EB430300EE103AB8EEC00A04
:100B600084ED100AB2F9002000EE102AB8EEC01A87
:100B700084ED111AB1F9001000EE101AB8EEC00A97
:100B800084ED120AB0F9000021EE000A01EE900A8D
:100B9000F8EEE11AC4ED131A20EE210AB5EEC00AF0
:100BA000F1EE10FA7DD0E14D297B9FEDE18AFDEE5B
:100BB000E00AB0EE480A10EE900A00B20AF0A2FA7B
:100BC00084ED0E0AD4ED0F0A297BB0EE480AFDEE43
:100BD000E00A10EE900A00B20AF094FA84ED0F0ACF
:100BE000D4ED100A297BB0EE480AFDEEE00A10EEC3
:100BF000900A00B20AF086FA94ED0E1ADFEDCD0AE3
:100C000021EE201A20EE200A84ED0E1A94ED0F1A20
:100C100021EE201A84ED0F1A84ED100AD4ED110A8A
:100C2000297BB0EE000AFDEEE00A10EE900A00B259
:100C30000AF07CFA84ED110AD4ED120A297BB0EE99
:100C4000000AFDEEE00A10EE900A00B20AF06EFA19
:100C500084ED120AD4ED130A297BB0EE000AFDEEF2
:100C6000E00A10EE900A00B20AF060FAF0EE400AD4
:100C7000C4ED130A94ED110A94ED121A20EE000A45
:100C800001EE010A00EEA00A0AF0E8F884ED070A76
:100C9000D4ED110A60EE802AC4ED112AD4ED120AB7
:100CA00000E05CE160EE804AB0EE008AC4ED124ADA
:100CB000D4ED130A20EE803A84ED133A94ED040A41
:100CC000D4ED060AD4ED031A94ED051A20EE202A7D
:100CD00001EEC12A22EE084A21EE802A84ED084A5C
:100CE00001EE202A22EE085A21EEA12A84ED095AAB
:100CF00000EE402A01EE412A00EEA02A84ED0A2AE5
:100D000064EE823A43EE453A23EE043A02EEC23AEA
:100D100062EE852AC4ED0B3A44EEC42A84ED0C3A07
:100D2000C4ED0D2A94ED142A94ED015A03EE852AA0
:100D300084ED142A94ED154A03EE054A84ED154A14
:100D4000D4ED164A42EE854AC4ED164AD4ED0E5A49
:100D500094ED005A45EE235A35EE822A84ED0E2A90
:100D6000D4ED0F3A45EE033A33EE843A20EE424A90
:100D700084ED0F3AD4ED103A01EE434A61EE835A06
:100D800045EE223AB0EE615A73EEA42A61EE824A31
:100D9000C4ED102AC4ED171A41EE224A84ED180A58
:100DA00000EEE24A84ED191AC4ED1A0AD4ED023AB3
:100DB00040EEC34A40EE625A04EE235AB0EE404A77
:100DC00004EEA34A40EE825A84ED035A84ED044AAD
:100DD00061EEA21AF0EE414A45EEA34A40EE031A34
:100DE00025EE050AC4ED054A04EE040A41EE421A56
:100DF00004EEA40A41EEA30AC4ED060A00EEA00A1E
:100E00000AF02CF884ED070AD4ED030A20EE80BA2C
:100E100084ED03BAD4ED040A60EE808AC4ED048A3E
:100E2000D4ED050A20EE809A84ED059AD4ED060AE9
:100E300060EE809A2BEE0B0AC4ED069A08EEE80AE3
:100E400009EE490A09EEA90A10EE100A0EF086F81A
:100E500029EE080A6BEE080A41EC1A0B20EE290A6B
:100E600000EEA80A10EE100A0EF078F841EC100B14
:100E7000B0EE4A1AF0EE6A1A07F0CAFD9FED2EBBDB
:100E800051EC100B53EC1B2B0DF0A8FD0DF04AFBA1
:100E9000386094ED040AD4ED060A94ED051A20EEAC
:100EA000080A20EE200AD4ED030A60EE880A00EE5C
:100EB000C10A10EE100A0EF051F841EC100B07F0C9
:100EC0008BFA9FED1F1B51EC100B53EC112B0DF007
:100ED00085FD0DF027FBC8F8000094ED03CAD4EDA2
:100EE000048AD4ED05AA2CEE0C0A94ED06AA08EEAD
:100EF000A80A0AEEEA0A0AEE4A0A10EE100A0EF0F2
:100F00002DF828EEAA0A41EC190B0CEE0A0A20EE85
:100F1000080A10EE100A0EF021F841EC100BB0EEAA
:100F2000491AF0EE691A0FE01C000020600C002046
:100F30000000FA44728A8E3C0000006066A64C40B5
:100F40000000006066A64CC007F062FD53EC1B2B4E
:100F500051EC100B0DF042FD0DF0E4FA3060002072
:100F6000BDEC0A8BBDE8F0812DE9FE4F1546DDE9A9
:100F70000C9A0E4607460C221C466946104605F0A0
:100F800047FBBDF80080BDF802C0BDF80430BDF8D5
:100F90000620BDF80810BDF80A00A4F80080A9F8E2
:100FA00000C0AAF800303A8031802880BDE8FE8F6A
:100FB00038B5194808F026FB07F098FF164807F0E7
:100FC00059FF044607F092FF24BB01208DF8000072
:100FD0000146114A684608F0A3FB07F087FF0E4858
:100FE00006F08AF900208DF800000B4A01216846BE
:100FF00008F096FB07F07AFF074806F053F9022045
:101000008DF80000044A0121684608F089FB044677
:1010100007F06CFF204638BD600C0020044890F8B3
:101020008800002802D1034901208875704700001C
:101030005C020020F4050020F0B55248524B0668CF
:10104000A3F1FC0090F804C0DFED500A00F1840128
:10105000052491ED2C0A4E4F002130EE600A012547
:1010600000F5C272BCF1060F1AD2DFE80CF01903CA
:1010700027374D7C418481849173434AB468783A20
:10108000022192ED0F1A92ED0E0A424B002C70EEE7
:10109000410A31EE400A04DD10EE902A0BE00171A6
:1010A000F0BD06DBB5EEC00AF1EE10FA01DCB0EEE1
:1010B000600A10EE102A9A42F1DDF0BDC18441842D
:1010C00081843C6FE1609573D17351739FED320A57
:1010D000032183ED0F0A83ED0E0AE0E7418481844A
:1010E000B67B16B10423037101E083ED0E0AC38CB5
:1010F00040F2DC565B1C9BB2C384B34202D3C18472
:1011000095751BE09175F0BD83ED0E0A428C521C63
:1011100092B24284322A01D34184047181847A6D6F
:10112000B2F90230002BB2F9023000DC5B42B3F5B9
:101130007A7F05DC428C1E2A13D2F0BD0471F0BD0B
:10114000B2F90230B2F90220002B00DC524240F624
:10115000B8339A42428C02DC192A02D2F0BD142A1A
:10116000FCD34184EAE7C184838C5B1C9BB28384FB
:1011700055734184448AA342F0D981845173D57355
:1011800091738CE7000300206C0500200000FA43F7
:101190005C02002000803B450000000070B5334831
:1011A00000F18803997B00291DD00124A0F1FC01E6
:1011B00080F870404E7A0022B6B103259FED2C0ACC
:1011C000012E1ED0022E39D0032E0CD10A845C735E
:1011D000C88B401C80B2C883FA2804D9CA835A73CA
:1011E000DC739A734A7270BD224DCA830A842D6FD4
:1011F000EA60DA735A7390ED0F0A80ED0E0A4C72B2
:1012000070BD1D4ECA833668B67B16B10220487287
:1012100005E0D0ED0E0A30EEC00A80ED0E0A088C13
:1012200040F2DC56401C80B20884B04203D30A84EA
:101230009C754D7200E09A758C7270BDCA838B7A72
:1012400023B1D0ED0F0AC0ED0E0A8A720A84D0EDE8
:101250000E0A30EEC00A80ED0E0A888B401C80B268
:1012600088831E28E9D38A834D7270BD6C050020E7
:101270000000FA435C02002000030020364A10B54B
:10128000A2F1BC00A2F13803018F491C8CB21946AF
:101290000487D1ED0F0A0021322C06D390ED170AF6
:1012A00080ED160AC0ED170A0187447984B12A4AF5
:1012B000383A82F8701090ED180A83ED000A828F98
:1012C000521C92B28287FA2A01D98187417110BDDE
:1012D000214BC8331C7E002CF9D19B7E002BF6D10C
:1012E0001E4B1B6893F846305B07F0D4D0ED171AFD
:1012F00090ED161A31EEC10AB5EEC00AF1EE10FA01
:1013000001DC31EE610A164C10EE103AA34217DAF6
:10131000438F5B1C9BB24387962BD8D94187818A28
:10132000491C81820121417192ED000A30EE600A70
:10133000B5EEC00AF1EE10FA04DD9FED0A0A08E0EE
:10134000418710BDB5EEC00AF1EE10FAF9D29FED5B
:10135000060A80ED180A10BD2C050020E8030020C5
:101360000000A0410000FAC40000FA44FEE70000BB
:1013700000B58BB0684600F04AF96946054802F0AE
:10138000CBFC0221034802F051FC024802F0DCFFD2
:101390000BB000BD24150020014802F0B8BD0000CC
:1013A0002415002070B5134CA0F50072053A12D038
:1013B000A0F50072013A15D0A0F50072023A18D1DA
:1013C00004F17000E26F05469047D4F8801028467B
:1013D000BDE8704008470748626C383005469047C2
:1013E000A16CF4E70348226E543005469047616EC5
:1013F000EDE770BD5C02002000B58BB0684600F0E0
:1014000006F96946054802F087FC0221034802F00C
:101410000DFC024802F098FF0BB000BD4C150020F7
:10142000014802F074BD00004C15002070B50C4C52
:10143000B0F5017F0DD0A0F50072063A0FD104F18E
:101440001C00A26A05469047E16A2846BDE8704044
:101450000847E2680248904701482169F6E770BDF5
:101460005C020020008840BA7047408840BA00B251
:101470007047808840BA00B27047808840BA00B296
:1014800070478079704713B5012201A900F00EF86A
:101490001CBD08B50A0A8DF800208DF80110022243
:1014A000694600F003F808BDAFF300802DE9F04174
:1014B0000446407815460E4628B1012825D1144A25
:1014C000A168106808E0124A1C3AF9E703688B42E9
:1014D00001D118B106E080690028F7D121461046F5
:1014E00000F052F8227B58B1002107E05318082B76
:1014F00006D2775C0344491C1F71C9B2A942F5D3D7
:10150000E18982898A4200D98181BDE8F0810000A9
:101510003C0A00200822FFF7C9BF08B50A0E8DF863
:1015200000200A0C8DF801200A0A8DF802208DF89F
:10153000031004226946FFF7B9FF08BD2DE9F04109
:1015400005001AD00E4C0F4F287E002815D02846D3
:1015500000F08CF8064609F031FE20603968401A28
:10156000606009F02BFEE168401AA06009F026FED9
:10157000E060304600F0EEF8E6E7BDE8F0810000FC
:1015800000000020A80800202DE9F04105680F4662
:1015900004460026F5B10FB91CE00546A8690028ED
:1015A000FBD11C200AF0F2F8A861B9680160A969B2
:1015B000F8898881A86906610020011DAA69401C7C
:1015C000C0B256540828F8D3A8698661A869446156
:1015D000A86917E01C200AF0D9F82060B9680160FA
:1015E0002168F8898881206806610020011D226831
:1015F000401CC0B256540828F8D320688661206881
:10160000446120682179491C2171BDE8F0810021E5
:10161000016041608160C160016101224161C0E9F6
:101620000612C0E90821704770B505004FF00006AA
:1016300018D02879B0B12C6812E000BF09F0BEFDC7
:101640002169411AA08900EB4002C2EBC010B1EB46
:10165000C00F04D32146284600F01FF80126A469D4
:10166000002CEBD1304670BD00F052B810B500220E
:1016700088B1017E79B1D0F80820002100EB810308
:10168000491CDC68C9B29C600329F7D30021416181
:10169000017E491E0176104610BD012250B149B1AC
:1016A000037E042B06D200EB83029160017E491C6D
:1016B000017600221046704710B5124A0168914227
:1016C0000DD1114B00211C46A3F11C0202F0ABFB13
:1016D0000D4821461C380068FFF764FE10BD0B4A18
:1016E0009142FBD1084B002124331C46A3F11C027C
:1016F00002F099FB0448214608300068FFF796FE87
:1017000010BD000000640040740A00200068004022
:1017100000B5034687B09A68009200220120029229
:101720000392082204925A7852B1012A06D10A463D
:10173000064806AB694600BF02F08AFA07B000BD52
:101740000A4606AB69460248F6E700004C15002041
:101750002415002030B587B004004FF0010521D0DA
:101760000CF0AEFA20680090002002900390082050
:1017700004900E496069884204D106AB221D694677
:101780000B4807E009491C31884206D106AB221DEF
:101790006946084802F05CFA054609F00FFD206131
:1017A0000CF0AEFA07B0284630BD0000200A002039
:1017B000241500204C15002070B50D460646C1EBDF
:1017C000051006EBC00404F1380094ED0E0AD4EDC8
:1017D0000F0A30EE600A84ED100A0CF0B7F894EDB1
:1017E000180A294684ED000A3046BDE8704000F032
:1017F000B3BE0000154810B5A0F184020121D170DC
:10180000134A00F58074127A022A0ED000F046FFC7
:10181000207B002812D1A07D88B101280ED100F0D4
:1018200069F8BDE8104000F0FBBA084B00229FEDBC
:10183000090A83F8702080ED000A217310BD05F0BD
:10184000AFFB00F009F800F0ABF8EAE7F404002081
:101850008A0000200000000010B504F055FD224968
:10186000A1F5B7708B7F2BB10222012B03D0022B85
:1018700002D100E0012242700A7E1AB1BDE8104098
:1018800000F09EB8CA7E12B100F01AF927E0897EF6
:1018900019B1BDE8104000F0BDB81449096891F8CD
:1018A0004610490708D4124940F22623B1F9141012
:1018B000A1F132029A4203D2BDE8104000F060BEAE
:1018C000B1F5167FE0DA407820B10128DCD002289B
:1018D00005D102E000F0C8FB01E000F065FBBDE8C7
:1018E0001040FFF7CBBC0000F4050020E803002007
:1018F0008A00002070B52749002001F5C2740871E4
:1019000060730125E573A07304F0FEFCA27FA4F5CB
:10191000B7702AB10221012A04D0022A03D101E0C2
:10192000457000E04170217E19B1BDE8704000F0C3
:1019300047B8E17E49BBA17E19B1BDE8704000F017
:1019400069B81549096891F84610490708D4134940
:1019500040F22623B1F91410A1F132029A4203D2C7
:10196000BDE8704000F00CBEB1F5167F0DDA40788E
:1019700038B1012809D002280BD1BDE8704000F031
:1019800041BBBDE8704000F025BCBDE8704000F0F0
:1019900011B970BD70040020E80300208A00002007
:1019A000054800F1C801897D19B99FED040A80ED51
:1019B0000D0AFFF741BB00002C0500200000FA458E
:1019C000124A10B51046012100F5807380F870109E
:1019D0001869C41700EB9470801000EE100AA2F191
:1019E00084000024B8EEC00A82ED0E0A04715C7314
:1019F000D9739C730378383203B90170437803B903
:101A000041709FED030A82ED040A10BDF40400202A
:101A10006666E63E70B5234D0024A5F13800014608
:101A200000F5807281F87040064692F91C1096ED20
:101A3000000A4B1CF1EE040A04D0012905D090EDF8
:101A4000000A06E030EE600A01E030EE200A80ED88
:101A5000000A10EE101A144B994202DD9FED130A92
:101A600006E010EE101A124B994201D99FED110AAF
:101A70000C4980ED000ABC3901230C715473D373F7
:101A800094730A789FED0C0A12B90B7080ED000A6E
:101A90004A7812B94B7080ED000A9FED080A85ED77
:101AA000040A70BD2C0500200000FA450000FA452C
:101AB0000000FAC50000FAC5000000006666E63EB8
:101AC0002DE9F04133480126A0F1840480F87060CC
:101AD00000F138052078002700B12770607800B940
:101AE0006670A078DFF8B08068B1D8F810000CF00C
:101AF0004BFF9FED2A1B53EC112B0CF06FFF0CF0EA
:101B000011FD2860A770207940BB88F80E7088F816
:101B10000F60D5EC020A31EE600AB5EEC00AF1EEB4
:101B200010FA01DC30EEC10A1E4A9FED1F1A10EEBA
:101B3000101A91421DDB1D4909680A7BCAB915E0DC
:101B4000B8EEE00A07E000BFB5EEC00AF1EE10FA09
:101B500001D2B0EE410A85ED000A2671FA209FED10
:101B6000140A608285ED040ABDE8F081497B0029F2
:101B7000F4D094ED120AB8EEC00A85ED000AD8ED53
:101B8000040AF8EEE01AB4EEE10AF1EE10FADBDD39
:101B9000D6E70000F4040020F40500200000000057
:101BA0000000E03F00803B450000000000030020F3
:101BB0009A99193F70B555490120A1F1840581F822
:101BC0007000287801F1380428B10020287094EDC5
:101BD000010A84ED000AFEF7ADFB4D490A69A2F542
:101BE0005853B03B90FBF3F603FB160041F6583315
:101BF00018446866002801DD034600E0434200EE19
:101C0000103AB8EEC01A94ED000AB5EEC00AF1EE33
:101C100010FA02DDF0EE400A01E0F1EE400A71EE4A
:101C2000600AF5EEC00AF1EE10FA15DD002801DDBC
:101C3000034600E0434200EE903AB5EEC00AB8EE2B
:101C4000E01AF1EE10FA02DDF0EE400A01E0F1EEEA
:101C5000400A71EE600A14E0B5EEC00AF1EE10FA27
:101C600002DDF0EE400A01E0F1EE400A002801DD5D
:101C7000034600E0434201EE103AB8EEC11A70EE9E
:101C8000C10AD31702EB9372921001EE102AB8EE3C
:101C9000C11AF4EEC10AF1EE10FA31DDA86694ED36
:101CA000011A71EE400AF5EEC00AF1EE10FA01DCFD
:101CB00070EE410A174B10EE902A9A4220DA00EE9D
:101CC000100AB8EEC00A84ED000A0869A0F5D850E1
:101CD000583800EE900AF8EEE00AB4EEE00AF1EEB1
:101CE00010FA04DD00EE100AB8EEC00A06E010EEAD
:101CF000100A0949884201DA9FED080A84ED000ABA
:101D00009FED070A84ED040A70BD0000F404002072
:101D1000F405002000007A4500C0DA4500C0DA452D
:101D2000CDCCCC3E10B500F063F804F093FF04F086
:101D3000BBFF0D48007830B101280CD0022805D037
:101D4000032806D007E000F0A5FB04E0FFF752FDF2
:101D500001E000F0BFF800F061FBFFF75FF9BDE8BC
:101D6000104000F0DDBA0000860400201E4810B5C7
:101D700002680021012392F850401C48072C0AD029
:101D80006B2C07D1B2F8A1406A2C03D1B2F8A34062
:101D90006B2C08D010BDB2F8A140062CFAD1B2F8D5
:101DA000A340072CF6D192F8A540042C07D0082CAC
:101DB00012D0102C07D0202C417610D000E04376B2
:101DC0000176817602E041760176837680F81B10F9
:101DD00092F8A610017710BD41760376F1E70176FF
:101DE0008176C376F4E70000E8030020F4050020C4
:101DF00010B500F007F8FFF7B9FFBDE8104000F09C
:101E0000FBBB000004480178044819B1022901D045
:101E1000032900D1017070479D080020860400202E
:101E2000F0B5134813490027D0F800C0A1F5C270DF
:101E300001259CF80C608A7D037B02242EB123B11E
:101E400007730D750AE00471F0BD9CF80DC0BCF17C
:101E5000000F06D02BB10773FF230B75002AF2D0B9
:101E6000F0BD002EFCD1BCF1000FF9D10573F0BD1F
:101E700000030020F40500201549A1F584720868CC
:101E80004368136049684B6853600832C2E9000137
:101E900002680F48F838026009684160002100F5C7
:101EA0008470012241738173C2730273FF23016145
:101EB0000375A0F5807383F8701083F8E82001762D
:101EC000017781764176C17682754177704700004F
:101ED000E405002070B42D482E4D012104682C48E3
:101EE000002300F1380280F870102E7A8438022E18
:101EF00003D0C17002787AB333E0C67826B192ED90
:101F0000010A82ED000AC370234EB1EE081A36684A
:101F1000B6F9046000EE106AF8EEC00A80EE810A9D
:101F2000D2ED000A30EE200A82ED000A267B36B19F
:101F3000447B002CDED04373DFED180A07E0647B9E
:101F40005CB1847B002CD5D08373DFED150A30EEB5
:101F5000200A82ED000ACDE702E041738173C9E7F0
:101F60000170427802B941702A7A012A07D00D48DF
:101F7000022A07D0032A00D1817370BC704770BC5D
:101F8000FFF70CB98373C173F7E70000000300206B
:101F9000F40400208A000020A400002000803B45BB
:101FA00000803BC5F405002070B5FEF7C3F940F68C
:101FB000B93590FBF5F105FB1100114C00F2DC5036
:101FC00080B2218D491C89B2218581420BD2608D5E
:101FD00028B1012810D1BDE87040FFF771BDBDE800
:101FE000704000F041B800262685FEF7A3F990FB6B
:101FF000F5F0608D08B1668570BD0120608570BD0B
:102000007004002070B5FEF795F940F6C51590FBF9
:10201000F5F105FB1100134C00F2DC5080B2E18FAA
:10202000491C89B2E18781420CD2B4F8400028B142
:10203000012812D1BDE87040FFF7BCBDBDE870407B
:1020400000F0C8B80026E687FEF774F990FBF5F0BB
:10205000B4F8400010B1A4F8406070BD0120A4F8AD
:10206000400070BD700400202DE9F0415248012667
:10207000A0F1840480F8706000F1380580F8E86011
:102080006078002700B16770207800B92670A078CA
:10209000DFF8288168B1D8F810000CF075FC9FEDCE
:1020A000481B53EC112B0CF099FC0CF03BFA286008
:1020B000A7702079B8BB88F80E7088F80F60D8F840
:1020C0001000D5ED010AA0F5FA5000EE100AB8EEA6
:1020D000C00A30EE600AB5EEC00AF1EE10FA00EE6A
:1020E000100AB8EEC00A02DD30EE602A01E030EEE0
:1020F000C02A9FED350A30EE601AB5EEC01AF1EE37
:1021000010FA02DDF0EE411A01E070EEC01AB4EEF2
:10211000E12AF1EE10FA07DD00EE900AF8EEE00A8F
:10212000C5ED000A22E03FE001EE900AF8EEE11A68
:1021300071EEE01AF5EEC01AF1EE10FA01EE900A17
:10214000F8EEE11A02DD71EEE01A01E070EEE11A3C
:10215000B5EEC01AF1EE10FA01DC30EEC01AF4EE62
:10216000C11AF1EE10FA02D885ED000A2671D8F8EE
:102170001000D5ED000AA0F5FA5001EE100AB8EEF5
:10218000C11AF4EEC10AF1EE10FA04DD00EE100AF5
:10219000B8EEC00A06E010EE900A0C49884201DB56
:1021A000B0EE600A85ED000AFA209FED090A608210
:1021B00085ED040ABDE8F081F4040020F405002058
:1021C000000000000000D03F0000FA450000FA4582
:1021D0009A99193F30B54D480122014680F8702088
:1021E00091ED0E1A91ED0F0A383171EE400AF5EEBD
:1021F000C00AF1EE10FA01DC70EE410A444C10EE18
:10220000900ADFED440A444BA04258DC1869A0F55F
:102210009850883801EE100AB8EEC11A31EE401A13
:10222000B5EEC01AF1EE10FA01EE100AB8EEC11ABE
:1022300002DD31EE402A01E030EE412A334D30EE2E
:10224000C01ADFED341AD5ED0F2AB5EEC01A72EEC2
:10225000E11AF1EE10FA02DDF0EE412A01E0F0EEB3
:10226000612AB4EEE22AF1EE10FA06DD00EE100A61
:10227000B8EEC00A81ED000A21E002EE100AB8EEC5
:10228000C22A32EE402AB5EEC02AF1EE10FA02EE72
:10229000100AB8EEC22A02DD32EE400A01E030EE4A
:1022A000420AB5EEC01AF1EE10FA01DCB0EE611A86
:1022B000B4EEC10AF1EE10FA01D8C1ED000A1869B6
:1022C00091ED000AA0F59850883801EE100AB8EE9A
:1022D000C11AB4EEC10AF1EE10FA04DD00EE100AE4
:1022E000B8EEC00A05E010EE100AA04201DAB0EE26
:1022F000600A064881ED000A8438037803B9027049
:102300009FED060A81ED040A30BD0000F4040020B0
:1023100000409C4500409C45F4050020CDCCCC3EBF
:102320002DE9F041294C94F8700010B1012809D131
:1023300004E00021254800F00FF903E000212348C4
:10234000FFF73AFA94F8E80010B1012809D104E047
:1023500001211E4800F000F903E001211B48FFF7AE
:102360002BFA1B489FED1B0A817B012901D184EDCB
:102370001D0AC17B09B9407B08B184ED3B0A134EAD
:102380000024A6F11007A6F1180500BF57F8240095
:10239000007E01280AD055F8240000218269904768
:1023A000641CE4B2022CF1D3BDE8F081C4EB04104C
:1023B00006EBC00090ED1D0ABDEEC00A10EE100A3B
:1023C00081B255F824008269E9E70000F404002096
:1023D000F4050020000000002DE9F0410E462DED2F
:1023E000028B074600259FED0C8A0EE0C5EB051019
:1023F00007EBC004204609F00FF804F1380009F09B
:102400000BF86D1C84ED1D8AEDB2B542EED3BDEC28
:10241000028BBDE8F081000000000000194910B5F2
:10242000174A0B7EA2F1840033B3012B1BD109683C
:1024300001248B7DB4EB131F02D19FED130A10E032
:10244000B1F873103C290AD200EE101ADFED0F0A22
:10245000B8EE400A80EE201A80ED111A03E0B7EEC4
:10246000000A80ED110A90ED110ADFED090A20EE55
:10247000200A82ED0D0A10BDB6EE000AF1E7000059
:10248000F4040020E80300209A99993E000070426D
:1024900000A08C4670B5174D1748002485F8704091
:1024A00000689FED161AB0F9040000EE100AF8EE6D
:1024B000C00A80EE810ADFED120AB3EE041A20EEA4
:1024C000200AD5ED000A04F04EFDA5F1840085ED4B
:1024D000000A00F5C27104714C730122CA738C7337
:1024E000C270017801B902704178002900D14270B0
:1024F00070BD0000F4040020A4000020000025446A
:1025000000A00C462DE9F041114D00242DED028B69
:1025100026469FED108AA5F1180700BFC4EB0410F2
:1025200005EBC000314680ED1D8A57F82400826912
:102530009047641CE4B2022CF0D302210448FFF758
:102540004BFFBDEC028BBDE8F041FFF751BC000032
:10255000F40400200000000010B5C1EB011100EBF5
:10256000C104204694EC020A30EE600A84ED020AAF
:102570000BF0ECF994ED0A0A84ED1D0A10BD000081
:1025800070B5164D0124A5F1380000F5807680F86D
:10259000704030690CF0F8F99FED111B53EC112BD2
:1025A0000CF01CFA9FED101B53EC112B0CF016FADB
:1025B0000BF0B8FF2860A5F1BC0000210171717318
:1025C000F473B173017801B90470417801B94470B2
:1025D0009FED070A85ED040A70BD00002C05002060
:1025E0000000000000000840000000000000D03F94
:1025F0006666E63E7047000070B5264E3068B0F95A
:10260000020006F1080500EE100A234805F5807166
:10261000B8EEC00AA1F5C27485ED010A0068B5EEF6
:10262000C00AD0ED010A0020F8EEE00AF1EE10FA3F
:10263000C5ED0F0A0AD2E071A279521CD2B2A27182
:102640000A2A12D1FF224A75A0710EE0B5EEC00A27
:10265000A071F1EE10FA07DDE279521CD2B2E271FC
:102660000A2A02D101224A75E071FEF7EDF984EDE4
:10267000130A7068B0F9021000EE101AB8EEC00A22
:1026800085ED1F0AC06800EE100AB8EEC00A85ED9D
:102690002D0A70BDEC04002000030020F0B529498C
:1026A00001F58070027B002A20D00A460027A0F5A1
:1026B000C273264E82F8707093F80BC001259FED0F
:1026C000220AAC1E3268BCF1000F10D0BCF1010F21
:1026D00017D0BCF1020F20D0BCF1030F06D1527B02
:1026E00032B39FED1B0A047581ED000AF0BD127B29
:1026F0001AB181ED000ADD72F0BD04759FED150A77
:10270000F2E7127B1AB105759FED130AECE781ED34
:10271000000A30684760022004E0527B22B181ED5C
:10272000000A0320D872F0BD05759FED0C0ADBE7A7
:1027300081ED000A316849680161DF720773047531
:10274000F0BD0000F40400200000000000030020A1
:102750000000C8C200007AC40000C84200007A44E9
:102760000021014801F08ABE7415002010B5134CF9
:10277000206881688847606881688847A0688168A8
:102780008847206A81688847606A81688847A06AAC
:1027900081688847E06A81688847E068816888477F
:1027A000206981688847606981688847A069816875
:1027B0008847E0698168BDE81040084700010020B3
:1027C00070B50D46064601EB4500C0EB451006EB23
:1027D000800404F1380094ED0E0AD4ED0F0A30EEB7
:1027E000600A84ED100A0BF0B1F894ED180A29463E
:1027F00084ED000A3046BDE8704000F02BBA0000BE
:10280000134930B402204870124804250023847D07
:1028100001F1880001223839B5EB141F12D18273FF
:102820004C88641CA4B24C80B4F5FA6F03D2437395
:10283000827430BC7047837440F2D170488030BCE1
:1028400004F086BD8274837343734B80F1E700000C
:10285000E00700202C03002010B500F055F80F48C9
:10286000007820B1022805D0032806D007E000F048
:102870006BF904E0FFF7C4FF01E000F075F8FEF724
:1028800011F904F075FC04F06BFF00F0B9F800F0EA
:10289000FBF8BDE8104000F0A7BC0000E0070020F6
:1028A000F0B516480026012701681648144A91F829
:1028B0005050C479072D44F0100324F0100410D0B8
:1028C0006B2D0DD1B1F8A1506A2D09D1B1F8A350EB
:1028D0006B2D05D191F8A51001290BD05674C47148
:1028E000F0BDB1F8A150062DFAD1B1F8A350072DD3
:1028F000F0D0F0BD5774C371F0BD0000E8030020B4
:1029000068080020DC08002000B500F007F8FFF799
:10291000C7FF5DF804EB00F019BA00000448017825
:10292000044819B1022901D0032900D10170704770
:102930009D080020E00700200A480A4A0068883AFB
:1029400041681160111D0860091D006808600021C0
:1029500002F1940001224173817341748274C17445
:10296000C17370475C0800202DE9F0412049022026
:1029700001F18805487000271E48AF74EA7BB0F962
:1029800014104FF4167301263AB11B489942C279CC
:1029900029DB6E7342F0400128E0154C383C11F5FC
:1029A000167F207804DC18B11448067027700AE0FE
:1029B000994207DB30B10021084600F009FC66703F
:1029C000277003E02670607800280AD02089401C18
:1029D00080B22081B0F5FA7F03D940F2F510208152
:1029E000EE73BDE8F0816F7322F04001C171F8E72A
:1029F000E00700208A000020DC08002010000020F2
:102A00000948C07C08B100F03BB9074888384078D5
:102A100028B1012805D0022805D100F0C1B800F086
:102A200005B800F065B9704768080020124910B574
:102A30008C78002001F1080301F1880264B1517B18
:102A4000002908D0507393ED0E0ADFED0C0A30EE2A
:102A5000200A83ED0E0A10BD01248C70C870087125
:102A60009FED070A074983ED0E0A83ED0F0A0968F7
:102A7000C860507310BD0000E007002080FB0FC746
:102A8000000000005C0200202DE9F0411D48C07CE0
:102A900020B91C488838407802281BD019480021EA
:102AA0008038FFF78DFE174E0024803EA6F11007F8
:102AB000B7F1040557F82400007E012810D055F81E
:102AC0002400002182699047641C14F0FF04F1D0B7
:102AD000BDE8F0810B480021803800F0BBF8E2E748
:102AE00004EB4400C0EB441006EB800090ED1C0AA0
:102AF000BDEEC00A10EE100A81B255F824008269BA
:102B0000E1E70000680800202DE9F0410E462DEDB8
:102B1000028B074600249FED0B8A0CE004EB440077
:102B2000C0EB441007EB8005284608F075FC641CD8
:102B300085ED1C8AE4B2B442F0D3BDEC028BBDE853
:102B4000F08100000000000070B512490220002250
:102B5000487001F188008274C17B61B10E4C0F494D
:102B60000125B4F91460CB79B6F5167F05DB457302
:102B700043F0400304E0827370BD427323F04003CE
:102B8000CB71217A012902D00229F4D070BD85735E
:102B900070BD0000E00700208A000020DC08002053
:102BA0000F4802799FED0F0A00F1080162B9012276
:102BB000027100228270C27042710B4881ED0E0AD0
:102BC00081ED0F0A0068C26005488830407B18B16B
:102BD0000348383890ED040A81ED000A7047000080
:102BE000E0070020000000005C0200202DE9F04119
:102BF000164D00242DED028B26469FED158AA5F17A
:102C0000140700BF04EB4400C0EB441005EB800048
:102C1000314680ED1C8A57F8240082699047641C75
:102C200014F0FF04EED009488030C07B18B10021B9
:102C3000084600F0CDFA01210448FFF765FFBDEC1E
:102C4000028BBDE8F041FFF75FBE0000E8070020FF
:102C50000000000010B501EB4102C2EB411100EB96
:102C60008104204694EC020A30EE600A84ED020AE8
:102C70000AF06CFE94ED0A0A84ED1C0A10BD0000F7
:102C800030B516494B79002001F108026BB90123D8
:102C90004B71C870887008719FED110A114982ED5F
:102CA0000E0A82ED0F0A0968C8600C4C8834A4F142
:102CB000C001E57C4B8945B13BB992ED0E0ADFEDD1
:102CC0000A0A30EE600A82ED0E0A5B1C9AB24A8153
:102CD000C82A01D94881E07430BD0000E007002017
:102CE000000000005C02002080FB0FC7704700005E
:102CF000124910B5CC78002001F1080301F18802D7
:102D000064B1517B002908D0507393ED0E0ADFEDBA
:102D10000C0A30EE200A83ED0E0A10BD0124CC709F
:102D2000087188709FED070A074983ED0E0A83ED4D
:102D30000F0A0968C860507310BD0000E00700204A
:102D400040F9D7C7000000005C0200200948016874
:102D5000B1F9020000EE100A0648B8EEC00A0C30C5
:102D600080ED010AC96800EE101AB8EEC00A80EDC5
:102D70000F0A7047DC070020014801F009BC000081
:102D8000F4170020014801F003BC000034170020B4
:102D9000014801F0FDBB000094170020014801F03C
:102DA000F7BB000014190020014801F0F1BB00003E
:102DB00054180020014801F0EBBB0000B4180020BB
:102DC0002DE9F04F85680024099E802D18D0894D8B
:102DD000C563894D456490F83450012D15D0012507
:102DE00080F8345090F83550012D10D0002180F833
:102DF00034100224002180F834102046BDE8F08F02
:102E00004FF4807141650120F8E70220F6E70225C2
:102E100080F835500025456505682F6847F4802700
:102E20002F6005682B6103685E608368402B036830
:102E30002AD099600168CA60714D704E704FDFF8FA
:102E4000BC81DFF8B891DFF8B8A1DFF8B4B1EA14BB
:102E5000DFF8A8E10168183630379302A9F1480974
:102E60000AF1600A0BF1180BAEF1300E4FF0006C56
:102E700041452DD9A94205D0494503D0514501D03E
:102E8000B14205D1202220E09A600268D160D3E7E8
:102E900059451AD0714518D0594D7835A94214D0EA
:102EA000564D3035A94210D0B9420BD0534A183A8A
:102EB000914207D0524A9032914203D04F4A483251
:102EC000914201D11A4600E062464C494C392EE04D
:102ED000DFF82C8108F1A80841452AD9A94205D07C
:102EE000494503D0514501D0B14201D120221CE017
:102EF00059451AD0714518D0414D7835A94214D0A2
:102F00003E4D3035A94210D0B9420BD03B4A183A59
:102F1000914207D03A4A9032914203D0374A483220
:102F2000914201D11A4600E06246344950390A60A4
:102F30005AE0DFF8CC8008F1480841452AD9A94277
:102F400005D0494503D0514501D0B14201D12022DD
:102F50001CE059451AD0714518D0294D7835A94241
:102F600014D0264D3035A94210D0B9420BD0234A97
:102F7000183A914207D0224A9032914203D01F4A18
:102F80004832914201D11A4600E062461C4910398C
:102F9000CA6029E0A94205D0494503D0514501D076
:102FA000B14201D120221CE059451AD0714518D0F8
:102FB000134D7835A94214D0104D3035A94210D0A8
:102FC000B9420BD00D4A183A914207D00C4A9032C0
:102FD000914203D0094A4832914201D11A4600E099
:102FE0006246074910398A6001680A6842F00102A6
:102FF0000A60FFE6619D0008799D00085864024060
:103000001060024001681823CAB2103AB2FBF3F212
:10301000054B6FF30901032A9B5CC36500D9091DA9
:1030200081650846704700008014010810B501460C
:1030300000208B698A6A4FF0C07453B1B3F5005F0A
:1030400015D072B1012A0CD0022A0AD0032A09D164
:1030500004E01AB1012A06D0022A03D1C96AC901C3
:1030600000D5012010BDC96AA142FAD010BD002AC6
:10307000F7D0012AF2D0022AF3D0032AF3D010BDF0
:1030800030B50468256825F48025256004686360F0
:103090008368402B036803D099600068C26030BD2C
:1030A0009A600068C16030BD70B590F8345000245B
:1030B000012D0CD0012580F8345090F835600025A2
:1030C000012E06D080F834500224204670BD022024
:1030D00070BD022680F83560456505682E6826F4C7
:1030E00080262E6005686B608368402B036808D0DB
:1030F00099600168CA600068016841F001010160DF
:10310000E3E79A600268D160F5E710B503F0DEFDF1
:1031100000F020F8FDF702FCFFF722FB04F0C4FEEC
:1031200004F0ECFE04F016FF04F03EFFFEF720F979
:10313000FEF762F9BDE8104003F06EB901680A6855
:10314000D20604D5C968C90601D50AF0ABBC7047E0
:103150007047000010B50021044802F017FABDE8DE
:1031600010400421014802F011BA0000941500201B
:1031700030B50446007820B3134B4FF44875588897
:10318000B0F57A6F04D22846294600F021F815E000
:1031900040F6A17058801888C0F5487001B2084602
:1031A00000F016F81888401C80B21880A84205D993
:1031B0000020188058802070012030BD5888401CA5
:1031C0005880002030BD0000120000207047000031
:1031D000044A00F57A701060101D01F57A710160E3
:1031E000704700003404004010B5104CE07B00280C
:1031F0001BD003F063FFA17BA4F1C00011B190EDDF
:10320000050A01E09FED0A0A0A4A80ED030ABDEEB5
:10321000C00A10EE100A10EE101A00B2108009B2A7
:103220005180BDE81040FFF7D3BF10BD68080020F3
:1032300000000000B008002010B501EB4102C2EB15
:10324000411100EB810404F1380094ED0E0AD4ED35
:103250000F0A30EE600A84ED100A0AF077FB94ED55
:10326000180A204684ED000AD4ED010A30EE600A07
:1032700084ED020A0AF06AFB94ED0A0A84ED1C0A46
:1032800010BD000070B5294D294E2879A6F15004D3
:1032900030B3687908B10020687196ED0F0AD4ED5B
:1032A0000A0A30EE600A84ED030A96ED2C0AD4ED8A
:1032B0000B0A30EE600A84ED040A04F0D3FE95EDAB
:1032C000070AD4ED030A30EEC00A84ED080A95ED32
:1032D000080AD4ED040A30EE200A84ED090A03E05E
:1032E00003F002FD04F062FF94ED080A114910EEAC
:1032F000100A884202DD9FED100A06E010EE100A67
:103300000E49884201D99FED0E0A84ED080AD4EDDA
:103310000A0A30EE800A86ED0E0A94ED0B0AD4ED0F
:10332000090A30EE200A86ED2B0A70BD4C100020F1
:10333000800600200080224400802244000002C455
:10334000000002C410B500F047F800F099F90C48ED
:10335000007830B101280CD0022805D0032806D00F
:1033600007E000F027F904E0FFF78CFF01E000F030
:1033700069F800F0C3F8BDE8104000F08FBA000013
:1033800036060020124810B500680022012390F88C
:1033900050401049072C0FD06B2C0CD1B0F8A14035
:1033A0006A2C08D1B0F8A3406B2C04D190F8A5008A
:1033B00002280AD04A7310BDB0F8A140062CFAD1F9
:1033C000B0F8A340072CF1D010BD4B7310BD000026
:1033D000E80300207807002010B500F007F8FFF799
:1033E000D1FFBDE8104000F071BA00000548017837
:1033F000054829B1012903D0022901D0032900D1B0
:10340000017070479D080020360600200C49A1F588
:10341000807208684368136049684B6853600832DB
:10342000C2E9000102680648F0380260096841609C
:103430000349002010314873C8810882704700009A
:103440006807002070B5274D274E2879A6F1500453
:1034500028B3687908B10020687196ED0F0AD4EDA1
:103460000A0A30EE600A84ED050A96ED2C0AD4EDC6
:103470000B0A30EE600A84ED060A04F0F3FD95EDC8
:10348000070AD4ED050A30EEC00A84ED080A95ED6E
:10349000080AD4ED060A30EE200A84ED090A94EDFC
:1034A000080A124910EE100A884202DD9FED100A48
:1034B00006E010EE100A0F49884201D99FED0E0A6E
:1034C00084ED080AD4ED0A0A30EE800A86ED0E0A71
:1034D00094ED0B0AD4ED090A30EE200A86ED2B0A92
:1034E00070BD00004C1000208006002000802244A7
:1034F00000802244000002C4000002C42DE9F04113
:1035000000211B48FFF798FE01211948FFF794FEA0
:1035100017480024064690ED1C0AA0F11007A0F100
:103520001805B1EE400A80ED1C0A00BF57F82400D0
:10353000007E01280AD055F82400002182699047B6
:10354000641CE4B2022CF1D3BDE8F08104EB44002A
:10355000C0EB441006EB800090ED1C0ABDEEC00AE3
:1035600010EE100A81B255F824008269E7E70000E6
:10357000800600202DE9F0410E462DED028B074616
:1035800000249FED0B8A0CE004EB4400C0EB4410D8
:1035900007EB8005284607F03FFF641C85ED1C8A79
:1035A000E4B2B442F0D3BDEC028BBDE8F081000080
:1035B0000000000070B52A4D2DED028BF2EE048A5A
:1035C000B5F910009FED278A00EE100A2648F8EEA4
:1035D000C00A80EE880A20EE280A02F0EFFEA5F568
:1035E000A474D4ED080A30EE200A84ED080AB5F977
:1035F0000E00404200EE100A1C48B8EEC00AC0EEB1
:10360000080A20EEA80A02F0D9FED4ED090A1849EA
:1036100070EE200AC4ED090A94ED080A10EE100AB3
:10362000884202DD9FED130A06E010EE100A1249EF
:10363000884201D99FED110A094884ED080A94EDEA
:103640000A1AF83831EE000A80ED0E0A94ED0B0AE2
:1036500030EE200A80ED2B0ABDEC028B70BD00001D
:103660007807002000002544A810002078100020D2
:103670000080224400802244000002C4000002C4F2
:103680006B49087801286ED16A4803681A88406837
:10369000A2F598520B3A00EE102A0288B8EEC02A22
:1036A00000EE102AB8EE400A9FED631A028871EE10
:1036B000400A00EE102AB8EE400A31EE400ADFED73
:1036C0005F2A028830EE220A03EE102AF5EEC00AC5
:1036D000B8EE433A31EE431A31EE621AF1EE10FAC7
:1036E00002DDF0EE602A01E0F1EE602AB5EEC00ADC
:1036F000F1EE10FA02DDB0EE403A01E0B1EE403AF0
:10370000F4EEC32AF1EE10FA1BDDB5EEC01AF1EEAD
:1037100010FA02DDF0EE412A01E0F1EE412AB5EEA9
:10372000C00AF1EE10FA02DDB0EE403A01E0B1EE6F
:10373000403AF4EEC32AF1EE10FA02DDF0EE401A40
:1037400063E0F5EEC00AF1EE10FA02DDF0EE602A59
:1037500001E0F1EE602AB5EEC00AF1EE10FA03DDE9
:10376000B0EE403A02E062E0B1EE403AF4EEC32A35
:10377000F1EE10FA1BD2F5EEC00AF1EE10FA02DDFE
:10378000F0EE602A01E0F1EE602AB5EEC01AF1EE2B
:1037900010FA02DDB0EE413A01E0B1EE413AF4EE4A
:1037A000C32AF1EE10FA02D2F0EE601A2DE0B5EE67
:1037B000C01AF1EE10FA02DDF0EE412A01E0F1EE5E
:1037C000412AF5EEC00AF1EE10FA01DCF1EE600AD2
:1037D000F4EEE02AF1EE10FA17D2B5EEC01AF1EECF
:1037E00010FA02DDF0EE410A01E0F1EE410AB5EE19
:1037F000C00AF1EE10FA01DCB1EE400AF4EEC00AA4
:10380000F1EE10FA01D2F0EE411A0022DA60C26045
:1038100008489FED0B0A483880ED0A2AC0ED0B1AC4
:1038200080ED080A80ED090A012048700A7070478F
:103830009B0800207806002000007A440000004623
:10384000000000002DE9F041124D00242DED028B07
:1038500026469FED118AA5F1180700BF04EB44002E
:10386000C0EB441005EB8000314680ED1C8A57F810
:10387000240082699047641CE4B2022CEED302213A
:103880000448FFF777FEBDEC028BBDE8F041FFF77F
:10389000A3BD000080060020000000000948816BE5
:1038A000098800EE101A0849B8EE400A81ED0D0AA9
:1038B000C069008800EE100AB8EE400A81ED0C0ADB
:1038C000704700005C0200203006002070B51D48E3
:1038D0000168C96800F10804494200EE101AB8EE08
:1038E000C00A84ED0F0A4068C06800EE100AB8EE06
:1038F000C00A84ED2C0A00F063F8A4F150051248C8
:1039000085ED070A0068B0F90C10494200EE901AE4
:10391000F8EEE00AC4ED010A84ED1E0AB0F90C00CD
:10392000404200EE100A0948B8EEC00A02F046FD17
:1039300084ED010A95ED070A054802F03FFD84ED8C
:103940001E0A70BD78060020E40000203811002017
:10395000681100200079C01C8007400F7047406844
:10396000A0F20520042802D240F2FF10704740F276
:10397000FF20704710B558B1084C491E0BD310F802
:10398000013B5340DBB234F8133083EA1222F4E7F0
:103990004FF6FF7010BD104610BD0000A0110108C9
:1039A00010B5064C04E000BF10F8013B5340E25C48
:1039B000491E89B2F8D2104610BD0000A0100108BF
:1039C00010B5174CDFED170A2DED028B206890ED36
:1039D000010A20EE200ADFED140AC0EE208AB0EEC4
:1039E000680A05F0BDF9F0EE400AB0EE680AB0EEE4
:1039F000608A05F0F1F92068B0F91010B0F90E00F6
:103A0000494200EE901AF8EEE00A20EE800A00EE3D
:103A1000900AF8EEE00A00EE880ABDEC028B10BDB9
:103A2000E4000020DB0F49400000344378B5002457
:103A3000009490F83C20012A19D0012280F83C2003
:103A40000A6807230568092A13D9EE680A3A02EBC7
:103A5000420293409E43EE600B788A680A3B03EB78
:103A600043039A400368DD682A43DA6010E00220CD
:103A700078BD2E6902EB420293409E432E610B7883
:103A80008A6803EB43039A4003681D692A431A615D
:103A90004A681F23072A13D205686E6B521E02EB79
:103AA000820293409E436E630B790A885B1E92B23A
:103AB00003EB83039A4003685D6B2A435A6327E054
:103AC00005680D2A12D22E6BD21F02EB82029340A0
:103AD0009E432E630B790A88DB1F92B203EB8303AC
:103AE0009A4003681D6B2A431A6311E0EE6A0D3A8F
:103AF00002EB820293409E43EE620B790A880D3BF3
:103B000092B203EB83039A400368DD6A2A43DA62C8
:103B1000164B0568144A9D4206D10D68122D03D13B
:103B2000556845F48005556005689D4218D10B68BD
:103B3000102B01D0112B13D1536843F400035360B1
:103B4000096810290CD10A490A4A0968B1FBF2F147
:103B500001EB8101490000E0491E00910029FBD1E1
:103B600080F83C40002078BD002301400020014047
:103B7000B409002040420F0070B504004FF000056A
:103B800003D0206C002610B107E0012070BD204654
:103B900000F01CF8666484F83C60206CC00610D409
:103BA000206C20F4885040F0020020642046FCF78E
:103BB000B7FE6664206C20F0020040F00100206433
:103BC00000E0012584F83C60284670BD10B586B041
:103BD000044614216846FCF76CFD114920688842B0
:103BE0001CD110480021026842F480720260006813
:103BF00000F4807005900B481438026842F004020B
:103C00000260006800F0040005900120009003208D
:103C1000CDE901016946044800F02CFE06B010BD54
:103C200000200140443802400008024090F8202063
:103C3000012A07D0022A05D0416A41F4802141625D
:103C400001207047006842690A43426100207047C2
:103C5000F0B590F820500468A468012D05D0022D1D
:103C600003D0416A41F4802153E014F0406F01D148
:103C7000E5004BD5C4F30164022C03D9416A41F439
:103C8000000146E00125A5401D608D684FF4C0731A
:103C90009DB1CE6835434E6845EAC605066803EB1C
:103CA0000417F5514FF4C275076805EB04150E694A
:103CB0007E51097D012905D009E00E88CD6845EACD
:103CC0004655EBE701684E5946F480764E5111791E
:103CD000D2F805504FF4C67641EA0525016806EB97
:103CE00004168D511178D2F801204FF4C47541EAC1
:103CF0000221026805EB04155151006803EB041121
:103D0000425842F0010242500020F0BD416A41F4A5
:103D1000001141620120F0BD10B590F82020012A69
:103D200007D0022A05D0416A41F480214162012076
:103D300010BD3B48D0F8002242F00102C0F800223A
:103D4000D0F8002222F47C52C0F80022D0F80022E1
:103D50004B6A42EA0322C0F800220A7D02F01F03E8
:103D600001229A40D0F81C329343C0F81C32CB6930
:103D7000B3B9D0F80C329343C0F80C328C894B683D
:103D800064F31F434C6900EBC404C4F840320C894F
:103D90000B6864F31F434C6900EBC404C4F844325D
:103DA000CB69012B16D1D0F80C321343C0F80C327A
:103DB0000C884B6864F31F434C6900EBC404C4F8DF
:103DC00040320C89CB6864F31F434C6900EBC40498
:103DD000C4F844328B69002BD0F804320ED0134360
:103DE000C0F804320B69002BD0F8143208D013430A
:103DF000C0F81432096A012904D008E09343EFE7C0
:103E00009343F5E7D0F81C121143C0F81C12D0F808
:103E1000001221F00101C0F80012002010BD0000C6
:103E200000640040704730B590F82040012C05D068
:103E3000022C03D0416A41F480215DE0046800292E
:103E400055D02469A40754D04FF4D874056804EB06
:103E500001142D5915F00405956005682D594ED0B3
:103E6000ED08556005682C5904F00204D4604FF445
:103E7000DA74056804EB01142D5905F00F0515617E
:103E800005682D59C5F30725956105682C59240C43
:103E900054614FF4DC72046802EB0112A4581C70E8
:103EA0000468A458240A5C700468A458240C9C700C
:103EB0000468A258120EDA704FF4DE72046802EB46
:103EC0000112A4581C710468A458240A5C71046887
:103ED000A458240C9C710468A258120EDA71006870
:103EE00081B1016941F020010161002030BDE46829
:103EF000A8E7416A41F400114162012030BD6D0D17
:103F00001560AFE7C16841F02001C160EDE72DE920
:103F1000F05F0546006800244669D0F80490876881
:103F2000D0F80CB0D0F810A0D0F81880F10748D025
:103F3000F90714D001218160B80703D5284600F0A5
:103F400030FA0CE0780702D54FF4006407E0380738
:103F500002D54FF4805402E0284600F021FAF8051B
:103F600016D529684FF480708860B80503D52846B7
:103F700000F019FA0CE0780502D544F4005407E08B
:103F8000380502D544F4804402E0284600F00AFADD
:103F9000F80316D529684FF480308860B80303D53C
:103FA000284600F002FA0CE0780302D544F40044FD
:103FB00007E0380302D544F4803402E0284600F0DC
:103FC000F3F9300707D55FEACB6004D529681020E4
:103FD00044F40074C86070074FF0080707D55FEA23
:103FE0000B7004D52868C760284600F099F9B0071F
:103FF00006D52868C068800702D0284600F092F9EC
:10400000700607D55FEACA6004D52968102044F419
:1040100080640861B00607D55FEA0A7004D5286895
:104020000761284600F08CF9F00606D5286800697B
:10403000800702D0284600F084F9B00308D55FEA73
:10404000C96005D5296810204860284600F07AF933
:10405000F00307D55FEA097004D528684760284651
:1040600000F0A4F9300446D55FEA497040D5F00568
:1040700004D55FEAC87001D044F00104B00504D54E
:104080005FEA887001D544F00204700504D55FEA48
:10409000487001D544F00404300529D518F0700F9C
:1040A00026D008F07000402815D006DC102809D072
:1040B00020280AD0302816D10AE050280ED06028D7
:1040C00011D10EE044F008040DE044F010040AE0C1
:1040D00044F0200407E044F0400404E044F080048D
:1040E00001E044F480742868816921F070018161E5
:1040F000296804204860002C05D0686A2043686263
:104100002846FFF78FFEBDE8F09F70B5040003D08E
:1041100094F8200010B104E0012070BD204600F0AA
:1041200081F82068016841F00101016000F0A8FCFD
:104130000546052604E000F0A3FC401B0A2811D820
:1041400020684068C007F6D02068016821F00201AD
:10415000016000F095FC05460BE000F091FC401B6F
:104160000A2806D9606A40F40030606284F8206052
:10417000D2E7206840688007EFD4207E01282068BD
:1041800001683DD021F080010160607E0128206837
:10419000016838D021F040010160A07E012820682C
:1041A000016833D021F020010160E07E0128206801
:1041B00001682ED041F010010160207F01282068A5
:1041C000016829D021F008010160607F0128206882
:1041D000016824D021F004010160D4E90201084300
:1041E000D4E90412114308436168491E0843216859
:1041F000C86100206062012084F82000002070BDAA
:1042000041F08001C0E741F04001C5E741F02001E5
:10421000CAE721F01001CFE741F00801D4E741F0EF
:104220000401D9E7F0B587B0044614216846FCF7CD
:1042300040FA364B3648DFF8D0E01968D4F800C0B1
:10424000334A03250226092710300024491CF4456F
:1042500022D11960012907D1016841F00071016084
:10426000006800F000700590106840F008001060D1
:104270001068CDE9005600F00800CDE904706946E9
:104280002448CDE9024500F0F5FA0022052114206A
:1042900000F0C8FC142032E0DFF87CE0F44530D1B7
:1042A000D0F800C04CF0806CC0F800C0D0F800C05E
:1042B00001290CF0806CCDF814C0196007D1016899
:1042C00041F000710160006800F000700590106816
:1042D00040F002001060106802AB00F00200059090
:1042E0006020CDE9000683E8B00069460B4800F085
:1042F000C1FA00220521402000F094FC402000F08B
:1043000083FC07B0F0BD000000640040A409002059
:1043100030380240000C02400068004000040240B7
:1043200070470000044A0168914202D0034A91425A
:1043300001D1FDF7C1B9704700640040006800403A
:10434000704770477047000070B5044690F8200031
:10435000012804D0606A40F40020606218E0022066
:1043600084F820002068016821F00101016000F05C
:1043700087FB05460EE000BF00F082FB401B0A28C9
:1043800008D9606A40F400306062052084F820009B
:10439000012070BD20684068C007EDD1606270BD2B
:1043A000704770477047704770477047704770B5E7
:1043B0004379012B1CD00126467102230371056845
:1043C0002B6802F0100440F6FE72A2409343D1E93C
:1043D00000210A43A2401A432A6001680A68C023E8
:1043E000A3409A430A60067100214171084670BDDE
:1043F000022070BD70B5040003D02079002510B1F3
:1044000005E0012070BD6571204600F007F802202C
:104410002071256101202071002070BD10B586B08B
:10442000044614216846FCF744F911492068884283
:104430001CD110480021026842F00052026000685E
:1044400000F0005005900B481038026842F001025D
:104450000260006800F00100059010200090032029
:10446000CDE901016946044800F004FA06B010BD28
:1044700000740040403802400000024070B54279AC
:10448000012A1ED0012242710223037104682668AA
:1044900001F0100302FA03F52E432660002901689B
:1044A00011D00C6804F470153C249C40A54203D143
:1044B0004B6843F002034B600271002141710846D2
:1044C00070BD022070BD0B68C3F383030F2BF3D1C3
:1044D0004B6843F00103EEE72DE9F0410446876D98
:1044E00000F0CEFA064694F835000025022806D0E2
:1044F0008020606584F834500120BDE8F081206898
:10450000016821F0160101602068416921F08001F5
:104510004161206C08B9A06C20B12068016821F0CD
:10452000080101602068016821F0010101600CE0D0
:1045300000F0A6FA801B052807D92020606503201B
:1045400084F8350084F83450D7E720680068C00745
:10455000EED194F85C103F208840B860012084F8C8
:10456000350084F834500020C7E790F83510022950
:1045700003D08021416501207047052180F8351066
:104580000068016821F0010101600020704700000F
:104590002DE9F84304464FF00009CDF80090634838
:1045A0004FF41651A56D0068B0FBF1F72E6894F832
:1045B0005C10082000FA01F131420FD021680A682E
:1045C00052070BD50A6822F004020A6094F85C10C6
:1045D0008840A860606D40F00100606594F85C1050
:1045E0004FF0010808FA01F0304208D0216849690B
:1045F000090604D5A860606D40F00200606594F87B
:104600005C1004208840304208D02168096889077E
:1046100004D5A860606D40F00400606594F85C10FB
:1046200010208840304218D021680968090714D545
:10463000A86020680168490304D50068000308D514
:10464000A16C07E00168C90503D4016821F00801E5
:104650000160216C09B12046884794F85C10202045
:104660008840304231D021680968C9062DD5A8603C
:1046700094F8350005282068016806D0490347D51D
:10468000006800031DD4616C1CE021F0160101607C
:104690002068416921F080014161206C08B9A06C5B
:1046A00020B12068016821F00801016094F85C10D5
:1046B0003F208840A86084F8358084F83490216DCC
:1046C0001FE0E16B09B120468847606D00282BD0C0
:1046D000606DC00714D0052084F83500206801689B
:1046E00021F0010101600098401C0090B84203D8FD
:1046F00020680068C007F6D184F8358084F83490CB
:10470000E16C002910D001B02046BDE8F043084715
:104710000168C905D5D4016821F01001016084F851
:10472000358084F83490CCE7BDE8F883B4090020E4
:104730002DE9F041044600F0A3F906465CB10220E1
:1047400084F83500002584F834502068016821F091
:10475000010101600DE00120BDE8F08100F090F959
:10476000801B052805D920206065032084F83500CA
:10477000F2E720680068C007F0D12268116820487D
:104780000140D4E901031843D4E903363343184305
:1047900063691843A3691843E3691843236A1843FC
:1047A0000843616A042903D1D4E90B131943084370
:1047B000106020684069666A20F0070130460E43A9
:1047C000012704280CD1A06A0643E06A40B12046C4
:1047D000FEF72CFC20B14020606584F83570BAE704
:1047E000206846612046FEF70DFC94F85C203F21CE
:1047F00091408160656584F835700020ACE7000069
:104800003F8010F02DE9F0410446866D90F83400A9
:10481000002501280DD0012084F8340094F835706B
:104820000020012F07D084F8340002252846BDE877
:10483000F0810220FBE7022784F83570606520468E
:10484000FEF71EFC94F85C103F208840B0602068A2
:10485000016841F016010160206C20B120680168F8
:1048600041F0080101602068016841F00101016028
:10487000DCE700002DE9F84FDFF8BCA1002201259C
:104880000AF1040B03264FF00F090BF1040E00BFD1
:104890000B6805FA02F42340A34270D10F7907F0A8
:1048A0000307012F01D0022F16D187684FEA420873
:1048B00006FA08FC27EA0C07D1F80CC00CFA08FC31
:1048C0004CEA070CC0F808C04768A7430C79C4F34A
:1048D000001494403C4344600C79E443A4070AD09C
:1048E000C4684FEA420C06FA0CF7BC438F6807FA1B
:1048F0000CF72743C7600C7904F00304022C12D193
:10490000D40800EB840CDCF820405707FF0E09FAAE
:1049100007F824EA0804D1F8108008FA07F848EAF2
:104920000408CCF8208004684FEA420C06FA0CF721
:10493000BC430F7907F0030707FA0CF7274307601A
:104940004C6814F4403F70D03C4C276847F48047D3
:104950002760246822F0030704F480440094384C54
:1049600007EB040CDCF8084897074FEA177809FAB8
:1049700008F7BC43334FB84202D1002724E054E08B
:10498000314FB84201D101271EE0304FB84201D16A
:10499000022719E02E4FB84201D1032714E02D4F12
:1049A000B84201D104270FE02B4FB84201D10527AF
:1049B0000AE02A4FB84201D1062705E0284FB84245
:1049C00001D1072700E0082707FA08F72743CCF8AA
:1049D0000878DAF800405746D1F804C09C435FEAF3
:1049E000CC3C00D51C433C60DBF800405F46D1F86E
:1049F00004C09C435FEA8C3C00D51C433C60DEF85D
:104A000000407746D1F804C09C435FEACC2C00D527
:104A10001C433C60084F0C373C68D1F804C09C43F1
:104A20005FEA8C2C00D51C433C60521C102AFFF41A
:104A30002FAFBDE8F88F0000003C01404438024031
:104A40000030014000000240000402400008024023
:104A5000000C024000100240001402400018024006
:104A6000001C0240426921EA02030A4043EA024173
:104A7000816170470AB1816170470904FBE700005A
:104A80000148806870470000A809002070B5040044
:104A900011D021684CF6CC400860216845F2555091
:104AA0000860D4E9000141602168A0688860FFF7D0
:104AB000E7FF05460DE0012070BD00BFFFF7E0FFF6
:104AC000401B312805D92068C068800701D0032029
:104AD00070BD2068C0688007F0D121684AF6AA201E
:104AE0000860002070BD00684AF6AA21016000201D
:104AF0007047000009480168094A127811440160B2
:104B00004FF08041496A006800EB4002C2EBC010E0
:104B100001EBC0000349086070470000B0090020A5
:104B2000A8090020180000200B4810B5016841F4C6
:104B300000710160016841F480610160016841F425
:104B400080710160032000F08DF80F2000F006F85E
:104B500000F03EF8002010BD003C024010B50146B8
:104B600088B000221C2000F05DF81C2000F04CF8FA
:104B700014480024016841F001010160006805A9A2
:104B800000F001000690684600F018F900F036F9D0
:104B90000D494000B0FBF1F10C484FF08042491E36
:104BA000026040F2E732C0E90324C0E9011400F0DA
:104BB00077FB10B1012008B010BD044800F0B2FB33
:104BC000F9E700004038024040420F00741900200D
:104BD0000C4882B0016841F480410160006800F433
:104BE000804000900748001F016841F0805101603B
:104BF0000068002200F0805000900F21901E02B04B
:104C000000F010B844380240002809DB00F01F0211
:104C1000012191404009800000F1E020C0F800111E
:104C200070470000F0B40E4B1B680C46C3F3022320
:104C3000C3F10705042D00D90425191D072901D248
:104C4000002300E0DB1E012606FA05F1491E214083
:104C500099409E40761E16403143F0BC03F098BB4D
:104C60000CED00E0064900F0070208684FF6FF036C
:104C7000184040EA0220034A1043086070470000D1
:104C80000CED00E00000FA052DE9F0470E460500A6
:104C900065D0DFF81481D8F80000F7B200F0070003
:104CA000B04207D288F80070D8F8000000F0070082
:104CB000B04254D128683D4C810712D5400703D536
:104CC000206840F4E05020602878000703D5206871
:104CD00040F4604020602068A96820F0F00008439C
:104CE00020602878C0072DD030496868083901282D
:104CF00012D0022813D0032811D00968890700298F
:104D00002DDA216821F0030101432160FFF7B8FE8D
:104D1000814641F2883A0EE009688903EFE70968A5
:104D20008901ECE7FFF7ACFEA0EB0901514502D980
:104D30000320BDE8F0872068696800F00C00B0EB44
:104D4000810FEFD1D8F80010404601F00701B142C1
:104D500007D90770006800F00700B04201D00120B9
:104D6000E7E72878400705D52068E96820F4E05097
:104D7000084320602878000706D52068296920F4B8
:104D8000604040EAC100206000F058F82168084AFD
:104D9000C1F30311515CC840064908600648006829
:104DA000FFF7DCFE0020C4E7003C02400838024068
:104DB0008C1C0108B4090020AC0900200F220260FD
:104DC0000C4A136803F003034360136803F0F00315
:104DD0008360136803F4E053C36012684FF4E05338
:104DE00003EAD20202610448006800F0070008608C
:104DF0007047000008380240003C02400448054962
:104E000000680968044AC1F38221515CC8407047B8
:104E1000B4090020083802409C1C010804480549D8
:104E200000680968044AC1F34231515CC8407047C8
:104E3000B4090020083802409C1C0108154810B530
:104E4000006810F00C02144813D01449042A0FD043
:104E5000082A0ED10F4C241F2268236802F03F025B
:104E60005B0207D52068C0F38810A0FB010106E0B3
:104E7000084610BD2168C1F38811A1FB0001002381
:104E8000FBF7E8FA2168C1F30141491C4900B0FB76
:104E9000F1F010BD083802400024F40040787D0194
:104EA0002DE9F84F04006ED02078DFF84C93C0074E
:104EB000A9F104054AD009F104000168C1F3810198
:104EC000012908D00068C0F3810002280AD1D9F86E
:104ED0000000400206D52868800337D560680028A6
:104EE000E1D033E06068B0F5803F10D0B0F5A02F7E
:104EF000286810D020F480302860286820F48020B2
:104F000028606068A8B1FFF7BBFD06460DE0286881
:104F100040F48030F4E740F480202860F7E700BFD9
:104F2000FFF7AEFD801B642873D828688003F7D58F
:104F30000CE0FFF7A5FD064605E000BFFFF7A0FD6A
:104F4000801B6428F0D828688003F7D42078DFF825
:104F5000AC8280074FF0000A3ED5A748001D0168CB
:104F600011F00C0F08D00068C0F3810002280BD1AB
:104F7000D9F80000400207D42868800716D5E068F9
:104F8000012800D112E033E1E068B8B10120C8F88F
:104F90000000FFF775FD064605E000BFFFF770FD56
:104FA000801B0228C0D828688007F7D528682169A7
:104FB00020F0F80040EAC10028600DE0C8F800A029
:104FC000FFF75EFD064604E0FFF75AFD801B02284E
:104FD0001FD828688007F7D42078000722D5864F8D
:104FE00087486169703771B101210160FFF748FDA1
:104FF000064604E0FFF744FD801B022809D8386804
:105000008007F7D50EE0C0F800A0FFF739FD06468F
:1050100005E082E0FFF734FD801B02287DD8386868
:105020008007F7D42078400768D5DFF8CCB1002797
:105030000BF13C0BDBF80000C0000BD4DBF80010D8
:1050400041F08051CBF80010DBF80000012700F0A0
:10505000805000906B4E3068C00510D4306840F42A
:1050600080703060FFF70CFD009005E0FFF708FD51
:105070000099401A022850D83068C005F6D55E4E17
:10508000A0686C3601280FD00528306810D020F0B9
:1050900001003060306820F004003060A068B8B1D2
:1050A000FFF7EEFC00900FE0306840F00100F4E7FD
:1050B00040F004003060F7E7FFF7E2FC0099411A86
:1050C00041F28830814266D830688007F4D50EE01E
:1050D000FFF7D6FC009007E0FFF7D2FC0099411AD9
:1050E00041F28830814256D830688007F4D42FB11D
:1050F000DBF8001021F08051CBF80010A069C8B394
:105100003D49091D0968C1F3810102294AD00228DD
:10511000504607D0C8F8600000E03CE0FFF7B0FC64
:1051200004463BE04746C8F86000FFF7A9FC064686
:1051300005E000BFFFF7A4FC801B02282BD82868DD
:105140008001F7D4D4E907010843A16A2E4A49082F
:1051500002EB0141626A41EA8211084394F82C1083
:1051600040EA0161C9F8001001203866FFF788FCA9
:10517000044606E03EE000BFFFF782FC001B022869
:1051800009D828688001F7D534E000BFFFF778FC24
:10519000001B022802D90320BDE8F88F286880018F
:1051A000F4D427E00128F7D0D9F80000E26900F430
:1051B000800191421CD1226A00F03F01914217D137
:1051C00047F6C071626A0140B1EB821F10D1A26A3A
:1051D0004FF0FF3300F4403103EB5202B1EB024FCA
:1051E00006D194F82C1000F07060B0EB016F01D084
:1051F0000120D1E70020CFE70438024000004742F9
:10520000800E4742007000400000FFFF704770476B
:1052100070B590F83C20012A32D0012480F83C403F
:10522000022280F83D2003685A689D6822F07006CB
:105230000A6832435A60134B02689A4214D0B2F1A2
:10524000804F11D0104B9A420ED0104B9A420BD087
:105250000F4B9A4208D00F4B9A4205D00E4B9A4200
:1052600002D00E4B9A4204D1496825F080031943BD
:10527000916080F83D40002180F83C10084670BDE8
:10528000022070BD00000140000400400008004002
:10529000000C0040000401400040014000180040A4
:1052A00010B5040003D094F83D0010B107E00120D0
:1052B00010BD002084F83C00204600F01FF80220BA
:1052C00084F83D00211D206802F0EAFA012084F8EC
:1052D000460084F83E0084F83F0084F8400084F8DB
:1052E000410084F8420084F8430084F8440084F8C4
:1052F000450084F83D00002010BD000008B500689E
:105300000649884208D10648016841F0020101605F
:10531000006800F00200009008BD0000000400409A
:105320004038024090F83D10012901D0012070471B
:10533000022180F83D100168CA6842F00102CA608B
:1053400000681149884214D0B0F1804F11D00F4944
:1053500088420ED00E4988420BD00E49884208D0B0
:105360000D49884205D00D49884202D00C49884237
:1053700004D1816801F00701062903D0016841F0DA
:10538000010101600020704700000140000400405E
:1053900000080040000C00400004014000400140B3
:1053A0000018004070B5044690F83C000025012824
:1053B00017D0012684F83C60022084F83D00206864
:1053C000826822F0770222F47F42826008685028C7
:1053D00038D00DDC20284FD005DC90B3102811D137
:1053E0004AE0022070BD302846D040280AD13BE078
:1053F00060282FD070280DD0B0F5805F03D0B0F5B5
:10540000005F12D0012584F83D60002084F83C0044
:10541000284670BDCB68D1E90121206802F0B1FABD
:105420002068816841F0770109E0CB68D1E901216A
:10543000206802F0A6FA2068816841F4804181600A
:10544000E1E719E0CA684968206802F06FFB502163
:10545000206806E0CA684968206802F078FB60218D
:10546000206802F098FACEE7CA684968206802F01E
:105470005DFB40212068F4E7226801461046F0E712
:105480002DE9F0410D46040003D094F83D0018B119
:1054900008E00120BDE8F081002084F83C002046AF
:1054A00000F040F8022084F83D002068816844F252
:1054B000070291438160211D206802F0F1F9226802
:1054C00090689169166A2B68AF69034340F2033014
:1054D000814341EA0721A868EF6908434FF6FC4180
:1054E0008843E96840EA0720014328692F6A0001E0
:1054F00040EA0730084369686D6926F0AA0646EA63
:105500000515294393602268906154F8460B0162A7
:10551000012004F81F09E0752076E0762077A07559
:105520000020B7E710B586B0044614216846FBF7A3
:10553000C0F813492068884220D11248002102682F
:1055400042F001020260006800F0010005900D4881
:105550001438026842F010020260006800F0100087
:1055600005904FF420600090122001900120CDE9B9
:105570000201049069460448FFF77CF906B010BDAB
:1055800000000140443802400010024070B590F81D
:105590003E60044690F83F5090F8423090F8432027
:1055A000022021B104290ED0012E1BD114E0012EBE
:1055B00018D1012B16D184F83E0084F84200012254
:1055C0000021206820E0012D0CD1012A0AD184F8A5
:1055D0003F0084F8430014E0012D03D1012B01D1D9
:1055E000012A01D0012070BD84F83E0084F83F00FC
:1055F00084F8420084F8430001220021206802F070
:10560000B3F901220421206802F0AEF92068016894
:1056100041F001010160002070BD704770B5044683
:10562000006801694FF00005C943890715D4C168B6
:10563000C943890711D4E91E016101202077206840
:1056400080698007204602D0FFF7E7FF04E000F002
:10565000C1F8204600F053F9257720680169C94355
:10566000490717D4C168C943490713D46FF004012F
:105670000161022020772068806910F4407F204675
:1056800002D0FFF7CAFF04E000F0A4F8204600F0C3
:1056900036F9257720680169C943090716D4C1681E
:1056A000C943090712D46FF0080101610420207773
:1056B0002068C0698007204602D0FFF7AEFF04E0F3
:1056C00000F088F8204600F01AF925772068016973
:1056D000C943C90617D4C168C943C90613D46FF0BA
:1056E00010010161082020772068C06910F4407F14
:1056F000204602D0FFF791FF04E000F06BF820464F
:1057000000F0FDF8257720680169C943C90708D171
:10571000C168C943C90704D1891E0161204600F050
:1057200053F920680169C943090609D4C168C9430E
:10573000090605D46FF0800101612046FFF766FD80
:1057400020680169C943490609D4C168C9434906AB
:1057500005D46FF040010161204600F03CF920685B
:105760000169C94389060BD4C168C943890607D4B6
:105770006FF0200101612046BDE87040FFF747BD92
:1057800070BD000010B586B0044614216846FAF7D3
:1057900090FF0D492068884214D10C48002102680E
:1057A00042F001020260006800F001000590C02094
:1057B00000900220CDE90101CDE9031069460448BB
:1057C000FFF758F806B010BD000400403038024022
:1057D00000000240704770B5044690F83C00002677
:1057E0000D4601280FD0012084F83C006AB1042A3C
:1057F0001DD0082A2FD00C2A3FD00126002084F883
:105800003C00304670BD022070BD206802F0CCF82C
:105810002068816941F0080181612068816921F077
:1058200004018161206881692A69114311E02068BF
:1058300002F0EAF82068816941F400618161206822
:10584000816921F480618161206881692A6941EA66
:1058500002218161D2E7206802F00CF92068C16959
:1058600041F00801C1612068C16921F00401C161F2
:105870002068C1692A69114311E0206802F02EF9FD
:105880002068C16941F40061C1612068C16921F4E7
:105890008061C1612068C1692A6941EA0221C16150
:1058A000ACE710B5040003D094F83D0010B107E058
:1058B000012010BD002084F83C00204600F01EF8B6
:1058C000022084F83D00211D206801F0E9FF01203D
:1058D00084F8460084F83E0084F83F0084F84000D5
:1058E00084F8410084F8420084F8430084F84400BE
:1058F00084F8450084F83D00002010BD70477047D3
:1059000010B50446022249B104290ED0082913D04B
:1059100094F84100012816D0012010BD94F83E00F3
:105920000128F9D184F83E200FE094F83F000128C7
:10593000F2D184F83F2008E094F840000128EBD130
:1059400084F8402001E084F841200122206802F020
:105950000BF816492068164A884201D0904203D1BC
:10596000436C43F4004343642068884213D0B0F191
:10597000804F10D00F4988420DD00F4988420AD07D
:105980000E49884207D0904205D00D49884202D086
:105990000C49884204D1816801F00701062903D02F
:1059A000016841F001010160002010BD00000140CC
:1059B000000401400004004000080040000C0040CA
:1059C00000400140001800400068B0F1804F01D154
:1059D000FFF790B87047704770477047F8B5016897
:1059E00004460868CA684B6910F00F0F4FF00005B5
:1059F00059D003F0010602F49077374365D0C10710
:105A000005D0D10503D5216C41F001012164410786
:105A100005D5D90703D0216C41F00201216481072B
:105A200005D5D90703D0216C41F004012164010799
:105A300007D502F02001314303D0216C41F0080169
:105A40002164216C00293AD0800604D5900602D545
:105A5000204602F037F920684069216CC0F38010BD
:105A6000090700D460B3204602F0F7F820684069C7
:105A7000400621D52068143050E8001F21F0400175
:105A800040E80012002AF5D1A06BA8B16C4901656D
:105A9000A06BFEF76AFD002811D0A06B016D01B06C
:105AA000BDE8F040084783060FD593060DD5204684
:105AB000BDE8F84002F006B92046FFF78EFFF8BDBA
:105AC0002046FFF78AFF2564F8BD266B2023012EB0
:105AD00079D1C60677D5D60675D50868486800908E
