:020000040800F2
:10000000D869002031030008795C0008314F0008EE
:10001000B95B0008510F0008BD7000080000000027
:100020000000000000000000000000007102000855
:10003000BB17000800000000CD020008496100085D
:100040004B0300084B0300084B0300084B03000858
:100050004B0300084B0300084B0300084B03000848
:100060004B0300084B0300084B03000895120008DF
:10007000A1120008AD120008B9120008C51200084C
:10008000D11200084B0300084B0300084B03000883
:100090007D0F00084B0300084B0300084B030008CA
:1000A0004B030008316200084B0300081962000886
:1000B000496200084B0300084B0300084B0300088B
:1000C0004B0300084B0300084B0300084B030008D8
:1000D0004B0300081D6E0008896E0008F96E0008C9
:1000E0004B0300084B0300084B0300084B030008B8
:1000F0004B0300084B0300084B030008DD12000807
:100100004B0300084B0300084B0300084B03000897
:10011000B16A0008C96A00084B0300084B030008D5
:100120004B0300084B030008E91200084B030008CA
:100130004B0300084B0300084B0300084B03000867
:10014000391000084B0300084B0300084B0300085C
:100150004B0300084B0300084B0300084B03000847
:100160004B0300084B0300084B0300084B03000837
:100170004B0300084B0300084B030008000000007D
:100180004B0300084B03000800F002F800F060F891
:100190000AA090E8000C82448344AAF10107DA45E2
:1001A00001D100F055F8AFF2090EBAE80F0013F0D4
:1001B000010F18BFFB1A43F001031847182C010068
:1001C000382C01000A444FF0000C10F8013B13F0EA
:1001D000070408BF10F8014B1D1108BF10F8015BA0
:1001E000641E05D010F8016B641E01F8016BF9D193
:1001F00013F0080F1EBF10F8014BAD1C0C1B09D1EA
:100200006D1E58BF01F801CBFAD505E014F8016B5B
:1002100001F8016B6D1EF9D59142D6D370470000ED
:100220000023002400250026103A28BF78C1FBD8FF
:10023000520728BF30C148BF0B6070471FB510F090
:1002400058FA9DE8030000F035FA1FBD10B510BD47
:1002500000F0CEFA1146FFF7F1FF0BF0CDFA00F0F7
:10026000ECFA03B4FFF7F2FF03BC00F01DFB000043
:100270002C4B19680868B0E8F04F80F30988BFF389
:100280006F8F4FF0000080F311887047000000006E
:1002900008480068006880F308884FF0000080F389
:1002A000148862B661B6BFF34F8FBFF36F8F00DF64
:1002B00000BF00BF08ED00E0DFF80C00016841F46A
:1002C00070010160704700BF88ED00E0EFF3098026
:1002D000BFF36F8F134B1A681EF0100F08BF20ED8D
:1002E000108A20E9F04F106009B44FF0500080F3FD
:1002F0001188BFF34F8FBFF36F8F0EF0FBFD4FF0F0
:10030000000080F3118809BC19680868B0E8F04F54
:100310001EF0100F08BFB0EC108A80F30988BFF3FD
:100320006F8F70471C0C0020EFF3058070470000B2
:100330000948804709480047FEE7FEE7FEE7FEE779
:10034000FEE7FEE7FEE7FEE7FEE7FEE704480549B5
:10035000054A064B70470000FD610008890100084E
:10036000D8630020D8690020D8650020D865002017
:1003700070B5064600F082F9056806F10B0020F022
:100380000704B4429CBF002070BD2B466A68BAB116
:100390001068A04210D304F1080188423CBF5068A5
:1003A000586007D35168101941601168091B01603A
:1003B00058601460101D70BD13465268002AE7D1C2
:1003C0002146284600F062F90028DED170BD70B5E4
:1003D0000446051F00F052F90068002C14BF446861
:1003E00070BD002C18BFAC423CBF20466468F8D3F7
:1003F00001680A18AA4218BF456003D12A68054659
:100400001144016028684119A1421CBF6C6070BD95
:100410006168696021680844286070BD53EA020C75
:1004200000F069802DE9F04B4FF00006002B1FBF54
:10043000B3FA83F503FA05F424FA05F65E4012BF19
:100440001643B2FA82F502FA05F4C5F120051EBF83
:1004500022FA05FC44EA0C04203556EA044C4FEA23
:10046000144418BF641C4FF000084FF0000990427C
:1004700071EB030C39D3002919BFB1FA81F701FAE6
:1004800007F6B0FA80F700FA07F6C7F120071EBF9B
:1004900020FA07FC46EA0C062037B6FBF4FCA7EB73
:1004A0000507103F07F01F0BCBF120060CFA0BFBE2
:1004B0002CFA06F644BFB3460026202FA4BF5E46A2
:1004C0004FF0000B5BEA060C08BF4FF0010B19EB75
:1004D0000B09ABFB027C48EB0608C01B06FB02CCF9
:1004E0000BFB03CC71EB0C01C1E70B460246414606
:1004F0004846BDE8F08B13B54FF000004FF0000107
:10050000AFF30080BDE81C40704710B5431C02E00B
:1005100010F8011B71B18107FAD14FF0013202C806
:100520008C1A8C4314EAC211F9D0C01A0A0603D0FF
:10053000C01E10BDC01A10BD0A0401D0801E10BD1F
:100540000902FCD0401E10BD032A40F2308010F09A
:10055000030C00F0158011F8013BBCF1020F62445E
:1005600098BF11F801CB00F8013B38BF11F8013BEF
:10057000A2F1040298BF00F801CB38BF00F8013B9C
:1005800011F0030300F0D780083AC0F0088051F85A
:10059000043B083A51F804CBA0E80810F5E7121D17
:1005A0005CBF51F8043B40F8043BAFF30080D20736
:1005B00024BF11F8013B11F801CB48BF11F8012B02
:1005C00024BF00F8013B00F801CB48BF00F8012B25
:1005D000704702F0FF0343EA032242EA024200F0BE
:1005E00002B84FF000020429C0F0128010F0030C92
:1005F00000F01B80CCF1040CBCF1020F18BF00F816
:10060000012BA8BF20F8022BA1EB0C0100F00DB8C4
:100610005FEAC17C24BF00F8012B00F8012B48BF22
:1006200000F8012B70474FF0000200B513469446C6
:100630009646203922BFA0E80C50A0E80C50B1F13A
:100640002001BFF4F7AF090728BFA0E80C5048BF4E
:100650000CC05DF804EB890028BF40F8042B08BFEC
:10066000704748BF20F8022B11F0804F18BF00F8E8
:10067000012B704770477047704700000048704773
:100680007C630020704770477047704738B5044658
:100690000A4600206946AFF30080002808BF38BD35
:1006A00002460099204600F081F8012038BD012063
:1006B00000F096B8F8B5AFF30080054600200C4670
:1006C000102000BF0646A819A0420DD9324669463F
:1006D0000020AFF30080070008BF00F081F8009809
:1006E000A04218BF0546C419FFF7C8FF05600746BA
:1006F000F01D20F007004619284600F00AF8B44221
:1007000008BFF8BDA21B31463868BDE8F84000F0CC
:100710004DB800210160C0E90110704710207047FA
:1007200010B500F03FF8006810BD10B5044600F0A9
:1007300039F8046010BD10B5203AC0F00B80B1E864
:100740001850203AA0E81850B1E81850A0E8185006
:10075000BFF4F5AF5FEA027C24BFB1E81850A0E80F
:10076000185044BF18C918C0BDE810405FEA827C29
:1007700024BF51F8043B40F8043B08BF7047D20740
:1007800028BF31F8023B48BF11F8012B28BF20F8E1
:10079000023B48BF00F8012B70470000004870473B
:1007A000746300200048704774630020034640686B
:1007B0008C46002818BF88423CBF03464068F8D3E7
:1007C00018681844884207D00CF1030020F0070095
:1007D000001D411A521A0146081D0A60FFF7F7BDB5
:1007E00010B500F039F8BDE8104000F02FB87047A0
:1007F0007546FFF7D3FFAE4605006946534620F025
:100800000700854618B020B5FFF7A0FDBDE82040E1
:100810004FF000064FF000074FF000084FF0000BBC
:1008200021F00701AC46ACE8C009ACE8C009ACE86F
:10083000C009ACE8C0098D46704710B50446AFF357
:1008400000802046BDE81040FFF70BBD002801D016
:1008500000F02AB87047000010B5012805D000212B
:1008600003A000F027F8012010BD09A1F8E700005F
:1008700053494752544D454D3A204F7574206F6689
:100880002068656170206D656D6F727900000000F1
:100890003A2048656170206D656D6F727920636FD5
:1008A000727275707465640001491820ABBEFEE772
:1008B0002600020070B505460C460A2000E06D1CBB
:1008C00000F011F835B128780028F8D102E0641C56
:1008D00000F009F814B120780028F8D1BDE8704084
:1008E0000A20AFF3008008B569468DF800000320A8
:1008F000ABBE08BD464910B54A6822F440324A6092
:100900004A6843681A434A6001684A6822F4807260
:100910004A6001684A68036942EA03224A60016842
:100920004A6822F040724A6001684A6883681A4344
:100930004A6001688A6822F400628A6001688A68F5
:10094000C3681A438A60816A6FF07062D14201689D
:100950008A6822F070628A6001688A680CD0836AB3
:100960001A438A6001688A6822F040528A600168EE
:100970008A68C36A1A4301E022F040528A60016823
:100980008A6822F002028A6001688A68037E42EA6D
:1009900043028A6090F82010002901684A680FD04D
:1009A00042F400624A6001684A6822F460424A6088
:1009B00001684A68174C436A04EB43331A4301E069
:1009C00022F400624A600168CA6A22F47002CA62B4
:1009D0000168CA6A838B104C04EB03531A43CA6242
:1009E00001688A6822F400728A6001688A6890F857
:1009F000303042EA43228A6001688A6822F48062C9
:100A00008A6001688A68406942EA8020886010BD77
:100A10000023014000E0FFFF0000F0FF30B50C466E
:100A200005000CD0022C0AD90548A11E02882846D0
:100A300002F026F8291901F8020D000A487030BDAD
:100A4000B60B002030B50C4605000AD0022C08D9A0
:100A5000601E81B2FF22284602F028F8291901F809
:100A6000010C30BD2DE9F04116462DED0A8B0F46E5
:100A70008046B3F90030DDE9131000EE103ADDE9ED
:100A80001152F8EEC00AFD4CDDF840C0C4ED0E0A6C
:100A9000BCF9003000EE103AB8EEC00A84ED0F0A3F
:100AA000B5F90030F64D00EE103AB8EEC00A84ED0C
:100AB000100AB2F9002000EE102AB8EEC00A84ED48
:100AC000110AB1F9001000EE101AB8EEC00A84ED58
:100AD000120AB0F9000000EE100AB8EEC00A84ED68
:100AE000130A297B9FEDE78AFDEEE00AB0EE480A83
:100AF00010EE900A00B20AF051FE84ED0E0AD4ED19
:100B00000F0A297BB0EE480AFDEEE00A10EE900ACB
:100B100000B20AF043FE84ED0F0AD4ED100A297BDF
:100B2000B0EE480AFDEEE00A10EE900A00B20AF0BC
:100B300035FE94ED0E1ADFEDD40A21EE201A20EED8
:100B4000200A84ED0E1A94ED0F1A21EE201A84ED7E
:100B50000F1A84ED100AD4ED110A297BB0EE000AB9
:100B6000FDEEE00A10EE900A00B20AF02BFE84EDD2
:100B7000110AD4ED120A297BB0EE000AFDEEE00A5C
:100B800010EE900A00B20AF01DFE84ED120AD4EDB8
:100B9000130A297BB0EE000AFDEEE00A10EE900A7F
:100BA00000B20AF00FFE84ED130AF0EE400A94ED55
:100BB000110A94ED121A20EE000A01EE010A00EE6D
:100BC000A00A09F0C1FF84ED070AD4ED110AB0EEC6
:100BD000008A20EE805A84ED115AD4ED120A60EE9C
:100BE000804AC4ED124AD4ED130A60EE803AC4ED97
:100BF000133A94ED040AD4ED060AD4ED031A94EDE9
:100C0000051A20EE202A01EEC12A22EE084A21EE22
:100C1000802A84ED084A01EE202A22EE083A21EECD
:100C2000A12A84ED093A00EE402A01EE412A00EEA5
:100C3000A02A84ED0A2A64EE822A43EEC32A63EED8
:100C4000843A25EE033A45EE423A04EEC43AC4ED46
:100C50000B2AC4ED0C3A84ED0D3AD4ED145A94ED00
:100C6000012A42EE825AC4ED145AD4ED154A43EEDD
:100C7000824AC4ED154A94ED164A03EE024A84ED09
:100C8000164A94ED0E2A94ED005A05EE222A32EE11
:100C9000252AF0EE615A84ED0E2AD4ED0F2A45EE96
:100CA000232A72EEA42A61EE824AC4ED0F2AD4ED03
:100CB000103A45EE033A33EE843A20EE424A84ED90
:100CC000103AC4ED171A01EE624A84ED180A84ED59
:100CD000191A41EE034AC4ED1A0AD4ED023A00EEA5
:100CE000C34A40EEE24A44EE235AB0EE404AC4ED15
:100CF000035A21EEA25A61EE831A04EEA34AF0EEE3
:100D0000414A00EE435A40EE221A25EEA50A84ED30
:100D1000044A00EE825A41EE421A04EE040A45EEFD
:100D2000234A41EEA30AC4ED054A04EEA40AC4ED29
:100D3000060A00EEA00A09F007FF84ED070AD4EDC9
:100D4000030A20EE80BA84ED03BAD4ED040A60EE03
:100D5000809AC4ED049AD4ED050A60EE808AC4ED51
:100D6000058AD4ED060A20EE809A2BEE0B0A84ED5C
:100D7000069A09EEE90A08EEE80A09EE090A10EEF9
:100D8000100A0FF045FC28EE880A6BEE080A41ECC9
:100D90001A0B20EE090A00EEA90A10EE100A0FF055
:100DA00037FC41EC100BB0EE4A1AF0EE6A1A06F06E
:100DB00093FD9FED36AB51EC100B53EC1A2B0FF05B
:100DC00067F90EF0D9FE386094ED040AD4ED060AF6
:100DD00094ED051A20EE080A20EE200AD4ED030A4D
:100DE00060EE880A00EEC10A10EE100A0FF010FC47
:100DF00041EC100B06F054FA9FED261B51EC100B42
:100E000053EC112B0FF044F90EF0B6FEC8F80000B9
:100E100094ED03CA94ED049AD4ED059A2CEE0C0AD5
:100E2000D4ED068A09EE090A09EEE90A08EEE80A95
:100E300010EE100A0FF0ECFB29EE290A41EC1B0B17
:100E40000CEE280A20EE080A10EE100A0FF0E0FB64
:100E500041EC100BB0EE4B1AF0EE6B1A06F03CFDB5
:100E600053EC1A2B51EC100B0FF012F90EF084FE1C
:100E700030600020BDEC0A8BBDE8F0811C00002032
:100E8000501000200000FA44728A8E3C000000C01E
:100E90001EA54C40000000C01EA54CC02DE9FE4F11
:100EA0001546DDE90C9A0E4607460C221C4669469B
:100EB000104604F011FBBDF80080BDF802C0BDF87B
:100EC0000430BDF80620BDF80810BDF80A00A4F8EB
:100ED0000080A9F800C0AAF800303A80318028804C
:100EE000BDE8FE8F38B5194807F0A2FE07F014FBE5
:100EF000164807F0D5FA044607F00EFB24BB012084
:100F00008DF800000146114A684607F01FFF07F000
:100F100003FB0E4805F018F800208DF800000B4A7E
:100F20000121684607F012FF07F0F6FA074804F0BF
:100F3000E1FF02208DF80000044A0121684607F015
:100F400005FF044607F0E8FA204638BD501000209F
:100F5000FEE7000000B58BB0684600F0CFF86946A8
:100F6000054801F029FF0221034801F0AFFE0248C5
:100F700002F03AFA0BB000BDFC140020014802F068
:100F800016B80000FC1400200A460146014800F093
:100F9000EFB80000FC14002040B1012809D002285D
:100FA0000AD140F2FF2000BFFFF7EEBF40F2FF1072
:100FB000FAE74FF40070F7E77047000070B5124C85
:100FC000A0F50072053A10D0A0F50072063A12D0D2
:100FD000A0F50072073A16D10C4C2046E268904703
:100FE00021692046BDE870400847E26806489047FE
:100FF00005482169F6E70448A26A1C300546904777
:101000002846E16AEEE770BD040500206405002073
:1010100000B58BB0684600F071F86946054801F0EC
:10102000CBFE0221034801F051FE024802F0DCF938
:101030000BB000BD24150020014801F0B8BF00002E
:10104000241500200A460146014800F091B800002E
:101050002415002040B1012809D002280AD140F20D
:10106000FF2000BFFFF7EEBF40F2FF10FAE74FF49A
:101070000070F7E770477047F0B5037B042B23D867
:101080000278A2B1012A1FD11A4C87681A4D01209B
:10109000A7F5807705F11806FF3F0BD0012F14D07C
:1010A000B7F5807F10D1E2B1012A1DD01FE0114CAD
:1010B000E41EEAE712B1012A03D004E025F8131078
:1010C00001E026F813102070F0BD12B1012A03D000
:1010D00005E005EB430201E006EB4302118160707D
:1010E000F0BD05EB430201E006EB43021182A07064
:1010F000F0BD0000BB0B0020D013002000210160D8
:1011000041608160C160016101224161C0E9061254
:10111000C0E908217047000010B5124A01689142E9
:101120000DD1114B00211C46A3F11C0201F0CBFE96
:101130000D4821461C380068FFF740FF10BD0B4AE0
:101140009142FBD1084B002124331C46A3F11C0221
:1011500001F0B9FE0448214608300068FFF78BFF14
:1011600010BD000000640040B00C0020006800408A
:10117000F0B589B015460E46074602F039FC1E4C04
:1011800008AB06AAE0602169411AC4E90401002005
:101190000290039008200096049028886946000A6F
:1011A0008DF8180028788DF819006888000A8DF8E5
:1011B0001A00A8788DF81B00A888000A8DF81C007A
:1011C00028798DF81D00E888000A8DF81E00A8799E
:1011D0008DF81F00384601F08BFD0849002808688B
:1011E00081692160416861608068A06002D001204F
:1011F00009B0F0BD0020FBE700000020241500200E
:101200002DE9F0410078002590B101280ED1114E52
:10121000114F0024305D28B107EBC4012046FFF7D1
:1012200019FF3555641CE4B2032CF3D3BDE8F081FB
:10123000084E094F0024F61E183F305D28B107EB19
:10124000C4012046FFF7A8FE3555641CE4B2032C08
:10125000F3D3EBE7BB0B0020E813002010B50C4CD8
:10126000206881688847606881688847A0688168CD
:101270008847E06881688847206981688847606995
:1012800081688847A0698168BDE810400847000070
:10129000A8050020014802F051B9000020180020E4
:1012A000014802F04BB90000A0190020014802F0EB
:1012B00045B9000060170020014802F03FB9000066
:1012C000001A0020014802F039B90000C0170020C0
:1012D000014802F033B9000040190020014802F033
:1012E0002DB9000080180020014802F027B9000045
:1012F000E01800202DE9F04F85680024099E802D1C
:1013000018D0894DC563894D456490F83450012D3E
:1013100015D0012580F8345090F83550012D10D0AB
:10132000002180F834100224002180F83410204677
:10133000BDE8F08F4FF4807141650120F8E702208D
:10134000F6E7022580F835500025456505682F68C9
:1013500047F480272F6005682B6103685E6083680F
:10136000402B03682AD099600168CA60714D704EA5
:10137000704FDFF8BC81DFF8B891DFF8B8A1DFF873
:10138000B4B1EA14DFF8A8E10168183630379302E7
:10139000A9F148090AF1600A0BF1180BAEF1300E01
:1013A0004FF0006C41452DD9A94205D0494503D0E5
:1013B000514501D0B14205D1202220E09A60026857
:1013C000D160D3E759451AD0714518D0594D7835B9
:1013D000A94214D0564D3035A94210D0B9420BD095
:1013E000534A183A914207D0524A9032914203D060
:1013F0004F4A4832914201D11A4600E062464C49B8
:101400004C392EE0DFF82C8108F1A80841452AD993
:10141000A94205D0494503D0514501D0B14201D17F
:1014200020221CE059451AD0714518D0414D78351D
:10143000A94214D03E4D3035A94210D0B9420BD04C
:101440003B4A183A914207D03A4A9032914203D02F
:10145000374A4832914201D11A4600E06246344987
:1014600050390A605AE0DFF8CC8008F1480841455D
:101470002AD9A94205D0494503D0514501D0B142EE
:1014800001D120221CE059451AD0714518D0294DB0
:101490007835A94214D0264D3035A94210D0B94232
:1014A0000BD0234A183A914207D0224A90329142F7
:1014B00003D01F4A4832914201D11A4600E06246E9
:1014C0001C491039CA6029E0A94205D0494503D01A
:1014D000514501D0B14201D120221CE059451AD01A
:1014E000714518D0134D7835A94214D0104D3035C0
:1014F000A94210D0B9420BD00D4A183A914207D0F8
:101500000C4A9032914203D0094A4832914201D1AB
:101510001A4600E06246074910398A6001680A6885
:1015200042F001020A60FFE6DD970008F597000827
:10153000586402401060024001681823CAB2103A91
:10154000B2FBF3F2054B6FF30901032A9B5CC36501
:1015500000D9091D8165084670470000502B01081D
:1015600010B5014600208B698A6A4FF0C07453B1F0
:10157000B3F5005F15D072B1012A0CD0022A0AD04F
:10158000032A09D104E01AB1012A06D0022A03D1A4
:10159000C96AC90100D5012010BDC96AA142FAD0AB
:1015A00010BD002AF7D0012AF2D0022AF3D0032A74
:1015B000F3D010BD30B50468256825F4802525607A
:1015C000046863608368402B036803D099600068F7
:1015D000C26030BD9A600068C16030BD70B590F8DF
:1015E00034500024012D0CD0012580F8345090F89F
:1015F00035600025012E06D080F8345002242046A4
:1016000070BD022070BD022680F835604565056812
:101610002E6826F480262E6005686B608368402B58
:10162000036808D099600168CA600068016841F0E9
:1016300001010160E3E79A600268D160F5E710B547
:1016400004F08BFE05F0F6FB05F02AFC05F060FCCB
:1016500005F07CFC05F0A4FCFFF77CFCBDE8104025
:10166000FFF7D6BC2DE9F041444F002604464FF069
:101670000108B8423BD120680069414DC00702D043
:101680006878401C68702068016949072FD56FF0A1
:1016900004010161287810B1012812D027E06E7092
:1016A0000421204603F0D7F8686085F800802068A0
:1016B000016A21F0A00101622068016A41F0200165
:1016C00014E00421204603F0C6F8A8606968401AB7
:1016D000697800EB0140E86000F072F82E70206835
:1016E000016A21F0A00101622068016A0162BC4226
:1016F0003DD120680069224DC00705F1100502D0D8
:101700006878401C68702068016989072FD56FF0E0
:1017100002010161287810B1012812D027E06E7013
:101720000021204603F097F8686085F80080206863
:10173000016A21F00A0101622068016A41F0020198
:1017400014E00021204603F086F8A8606968401A7A
:10175000697800EB0140E86000F060F82E702068C6
:10176000016A21F00A0101622068016A01622168B0
:101770006FF001000861BDE8F0810000E015002075
:10178000DC0C002001680A68D20604D5C968C906C5
:1017900001D50DF0F1B8704770EE601AF5EEC01A81
:1017A000F1EE10FA01DC70EEC01AF4EEC11AF1EE9F
:1017B00010FA01D2B0EE600A70477047704700001F
:1017C00070B500B24FF411624FF47A71044603F021
:1017D000CFFC002814D040F6E30240F61B0120465F
:1017E00003F0C6FC0C4D08B1012008E04FF4DC62A8
:1017F0004FF4C361204603F0BBFC10B103202870F6
:1018000070BD40F2DF4240F21741204603F0B0FCC9
:101810000028F5D00220F2E7E40B002010B50446C2
:101820004FF411624FF47A7100B203F0A1FC00286A
:1018300001D00148446010BDE40B0020044A00F5CB
:101840007A701060101D01F57A7101607047000018
:101850003404004070B53448334C40683434C068B8
:10186000D4ED000A0568D5F87D0000EE100AF4EE0C
:10187000400AF1EE10FA50D0206002F0B9F8616829
:10188000401A217F04EB8101886002F0B1F86060AA
:10189000D5F87D0094ED0A0A00EE900AE17F30EE63
:1018A000601A00EE901AF8EE600A61EE200A10EE5F
:1018B000902AB2F1814F02DDB1EE000A1BE000EE8A
:1018C000900A30EE601A00EE901AF8EE600A61EEAF
:1018D000200A10EE902A12F17E5F02D9B9EE000ABA
:1018E00009E000EE900A70EE600A00EE101AB8EE01
:1018F000400A20EE800A94F91D0000EE900AF8EEEE
:10190000E00A30EE200ABDEEC00A10EE100A40B226
:101910006077282802DD2820607770BD6FF02701EE
:101920008842FADA617770BD380B00202DE9F0416A
:101930000646007888B31A4C4FF4487704F11C052A
:10194000E1882868B1F57A6F07D242683946904736
:1019500068683946426890471CE040F6A171E18012
:10196000A1884268C1F5487109B29047A088C0F5C6
:10197000487001B2686842689047A088401C80B2F5
:10198000A080B84206D90020A080E08030700120FD
:10199000BDE8F081E088401CE0800020F8E700000E
:1019A000040B002010B500F011F80748007810B1C2
:1019B000012803D004E004F0A3F901E003F0E2FB06
:1019C000BDE8104000F062B8140B002010B500F024
:1019D00027F803490220C870BDE8104000F002B8A3
:1019E000140B002070B50C4884680C482168A26B69
:1019F00018319047084D243D6870084821680C3024
:101A0000A26B24319047A870044821680C38626B9F
:101A1000FC319047287070BD280B0020AC130020CB
:101A200003480178034809B1012900D101707047CA
:101A3000A10B0020140B002003488078012802D05D
:101A4000002800D000207047140B00200848807840
:101A500000280AD00648001FB0F90010B0F90200B3
:101A6000081A1430282801D8012070470020704738
:101A7000140B0020044801684A68A0F108010A60BC
:101A80004068406848607047280B002070B51848CF
:101A9000406A804716482438041F8178012901D004
:101AA00000200FE01249C078203931F91010104899
:101AB000343090F8212012B190F91E0001E090F925
:101AC0001D0008442080B4F9021000B2022204F084
:101AD00000FA074D6080183D01462868426890472B
:101AE0006868B4F902104268BDE870401047000011
:101AF000380B002010B50C4900200C1F8870208086
:101B0000B4F90210022204F0E4F9608010340021DC
:101B10002068426890476068002142689047BDE8AD
:101B20001040FFF753BF0000140B002010B5FFF763
:101B30004DFF03F027FBBDE81040FFF7A7BF0000F3
:101B40002DE9F04F7D48DFF8FC814FF000092DEDC5
:101B5000028BA8F580740769794881B04FF0010ABB
:101B6000817804F5EC7569B180F8029095ED0F0A63
:101B700088ED040A95ED2F0A88ED050AA4F808906F
:101B800084F803A03A6A01213846904702009FED8D
:101B90006E8A6C4EA6F1800606F5AC7000F1BC01B1
:101BA00000F13C0B00914BD03A6A02213846904735
:101BB000E0B33868D6ED080A0021D0F8070000EE3F
:101BC000100A30EE200A88ED040A386896ED091AEA
:101BD000D0F8030000EE900A584670EE810AC8ED76
:101BE000050AD5ED0F0A30EE600A00F04DF985EDDB
:101BF0000F0A0021584600F0EFFA85ED0F0A95ED27
:101C00002F0AD8ED050A0121009830EEC00A00F035
:101C10003BF985ED2F0A0121009800F0DDFA85EDF2
:101C20002F0AA4F8089084F803900CE0FFE788EDF1
:101C3000028A88ED038A2089142809D2401C208159
:101C40002089142804D23868808FB0F5C87F02D369
:101C500084F803A001E0E07828B12079B0EE080A0A
:101C600002282DD032E02079B1EE080A022805D1F1
:101C7000D6ED090A70EEC00AC6ED090A607902289D
:101C800005D1D6ED090A30EE800A86ED090AA07961
:101C9000B2EE000A022805D1D6ED080A70EEC00A9D
:101CA000C6ED080AE079022805D1D6ED080A30EE23
:101CB000800A86ED080A01B0BDEC028BBDE8F08F0A
:101CC000D5ED2F0A70EEC00AC5ED2F0A6079022803
:101CD00005D1D5ED2F0A70EE800AC5ED2F0AA07947
:101CE000022805D1D5ED0F0A70EEC00AC5ED0F0A26
:101CF000E079022805D1D5ED0F0A30EE800A85ED96
:101D00000F0A0021B0EE480A584600F0BDF885EDF4
:101D10000F0A0021584600F05FFA85ED0F0A0121F5
:101D2000B0EE480A009800F0AFF885ED2F0A0121C7
:101D3000009800F051FA85ED2F0ABCE7D809002081
:101D40009E0B0020000700200000000070B500EB93
:101D5000C1141E4894ED0F0AD4ED100A04F13C059D
:101D600030EE600A84ED110A427812B1012A04D0E3
:101D700017E019B1012901D013E091B910EE102A32
:101D8000B2F18B4F02DBDFED120A06E010EE102AF3
:101D900012F16A5F03D3DFED0F0A30EE200A84ED03
:101DA000110A82786AB940780B4A00EB400002EBD6
:101DB000401001EB410100EB011003F039FB84ED11
:101DC000110A2846BDE870400CF08EBC0C060020BD
:101DD000000000C600000046B810002010B500F05A
:101DE0001BF80B48407828B10A48007828B1012830
:101DF00006D007E000F0B2FB04E000F0A1FB01E038
:101E000000F0DCF900F0F6FABDE8104000F040BA4E
:101E10009E0B00200C06002010B500F073F800F0B7
:101E20009DFDBDE8104000F001B8000070B51348FA
:101E3000C46813482168626B3C319047114D28718A
:101E40000F4821680C30626B4831904768710C482C
:101E500021681830626B54319047A8710848216896
:101E60002430626B60319047E8712168626B0448EE
:101E7000BDE8704030306C3110470000D8090020B8
:101E8000F812002000060020D0ED000A1A4830EEBB
:101E9000800ADFED180A41B1012905D110EE101AB0
:101EA00081421FDD30EE600A704710EE101A814249
:101EB00002DD30EE600A06E0B5EEC00AF1EE10FA7F
:101EC00001D230EE200A10EE101A814202DD9FEDA1
:101ED0000B0A7047B5EEC00AF1EE10FAF9D29FED89
:101EE000080A7047B5EEC00AF1EE10FAF9D230EEEA
:101EF000200A70470000004600F8FF4500F8FF4543
:101F0000000000002DE9F041444D0126444C2878A2
:101F1000002710B1012812D012E042482770B0F813
:101F2000520010B13F4803F08FFE3E485830B0F8E1
:101F3000520028B13B48583003F086FE00E026707E
:101F40003848E978B03011B1012918D10DE0A178F5
:101F5000A1B1617800EB012191ED100A81ED0F0A2A
:101F600091ED300A81ED2F0A08E0A17809B92E49D8
:101F70008E702979012927D0022928D0A7706A7884
:101F800061788A421ED02749083912B3012A19D133
:101F900009680968098800EE101AB8EE400A80ED59
:101FA0004F0A90ED0B0A80ED4B0A90ED700A80ED20
:101FB0006F0A90ED280AD0ED650A80EE201A80EDB8
:101FC0006B1A6670BDE8F0810221A170D7E7A67098
:101FD000D5E70A681268128800EE102AB8EE400AA7
:101FE00080ED0F0A90ED480AD0ED050A80EE201A28
:101FF00080ED0B1A49680968098800EE101AB8EEDE
:10200000400A80ED2F0A90ED680AD0ED250A80EE97
:10201000201A80ED2B1A6770D4E70000A10B002076
:102020000C060020280700209E0B0020D0ED000A9F
:10203000012A2FD190ED010A9FED181A098870EE40
:10204000C01A41F2EE10401A81EE812ADFED141A17
:1020500022EE212A01EE900AF8EEE12ADFED111AB4
:10206000B4EEE22AF1EE10FA0BDCA1F681614842EF
:1020700002EE900AF8EEE22AB4EEE22AF1EE10FA4D
:1020800008D200EE900AF8EEE00A60EEA10A00EE37
:10209000810A7047B0EE600A704700000000B44348
:1020A000000000460000003910B53C4AB7EE000AB7
:1020B0002DED048BA2F5307110689FED398A4368CD
:1020C0000B605268F0EE480A53684B600831C1E972
:1020D0000002344803F094F9DFED338A3148B7EE5B
:1020E000000AF0EE680A303003F08AF99FED2F9A6B
:1020F0002C48B7EE000AF0EE490A603003F080F990
:102100002848F0EE680AB7EE000A903003F078F93C
:102110002448F1EE040AB7EE000AC03003F070F96B
:102120002048F2EE040AB7EE000AF03003F068F936
:10213000F1EE040AB7EE000A1D4803F061F91C48ED
:10214000DFED1C0AB7EE000A303003F059F91848E9
:10215000F0EE490AB7EE000A603003F051F9144876
:10216000F0EE480AB7EE000A903003F049F99FED0F
:10217000128A0F48B7EE000AF0EE480AC03003F0AA
:102180003FF9F0EE480ABDEC048BB7EE000A0848B0
:10219000BDE81040F03003F033B90000D80900204A
:1021A00000002042B81000200000A0420000704251
:1021B000D811002000007A4300009644054880783A
:1021C00028B1012801D0022803D1FFF7B9BC03F0E0
:1021D00003B870470C06002090ED000A39B30129BE
:1021E00024D110EE100A22490844224988421DD306
:1021F0009FED211A70EE410AF5EEC00AF1EE10FAD9
:1022000001DC71EE400ADFED1D1A30EE612AB5EEF9
:10221000C02AF1EE10FA01DC31EEC02AF4EEC20A57
:10222000F1EE10FA20D200BFB0EE410A70479FEDE8
:10223000141A70EE410AF5EEC00AF1EE10FA04DD50
:1022400010EE900A0F498842EEDB9FED0F1A70EEF8
:10225000410AF5EEC00AF1EE10FAE7D210EE900A4C
:102260000A498842E0D37047B0EE610A7047000027
:1022700000F097BA016027000010684500708F4594
:1022800000C0DA440000964400A0F045000096C467
:102290002DE9F047424F00212DED028B07F5E67640
:1022A000787806EB00200446FFF750FDA6F5EC78A1
:1022B000DFF8F09098F801009FED3B8AA6F5AC7529
:1022C000F0B3B9F9000000EE100A3848F8EEC00A81
:1022D00080EE880AD5ED060A20EE200A03F0A8F861
:1022E00084ED000A2046002100F024FA2046012156
:1022F000FFF72CFD98F80200E8B3B9F9020000EEF0
:10230000100A2A48B8EEC00A3038C0EE080A95ED27
:10231000070A20EE800A03F08BF800BF84ED200A44
:102320002046012100F006FA787806EB002090EDB7
:102330000F0A85ED1E0A90ED100A85ED1F0A00E0D8
:1023400027E0174990ED2F0AF431194D81ED000A6D
:1023500090ED300A81ED010A94ED1F0ABDEEC00A2E
:1023600010EE100A01B228680269904794ED3F0A06
:10237000BDEEC00A00E00FE010EE100A01B268687E
:102380000269904728684169BDEC028BBDE8F047BF
:10239000084794ED190AA3E794ED390ABEE7000057
:1023A0000C0600208C00002000002544681200204C
:1023B000180700202DE9F0410D462DED028B064651
:1023C00000249FED0B8A0CE006EBC41707F13C00DC
:1023D00009F016FB384609F013FB641C87ED1F8AD1
:1023E000E4B2AC42F0D3BDEC028BBDE8F08100005A
:1023F000000000005048A0F10C01827800F5E67062
:102400009FED4E0A42B34C4801F5EC73012A407827
:1024100003EB00206BD0022A68D1D1ED0F0AC0ED8A
:10242000040AD1ED100AC0ED050A80ED060AD1EDCF
:102430000E0AC0ED130A80ED140A80ED150AD1EDE5
:10244000120AC0ED240AD1ED130AC0ED250A80ED71
:10245000260AD1ED110A68E0D1ED1B0A364AC0ED1B
:10246000040AD1ED1C0A7432C0ED050A80ED060A9B
:10247000D1ED1A0AC0ED130A80ED140A80ED150A99
:10248000D2ED010AC0ED240AD2ED020AC0ED250A00
:1024900080ED260AD2ED000AC0ED330A80ED340A41
:1024A00080ED350AD1ED1E0AC0ED440AD1ED1F0AB8
:1024B000C0ED450A80ED460AD1ED1D0AC0ED530A74
:1024C00080ED540A80ED550AD2ED040AC0ED640A8D
:1024D000D2ED050AC0ED650A80ED660AD2ED030A69
:1024E000C0ED730A80ED740A80ED750A7047D1ED76
:1024F000150AC0ED040AD1ED160AC0ED050A80EDFB
:10250000060AD1ED140AC0ED130A80ED140A80ED1D
:10251000150AD1ED180AC0ED240AD1ED190AC0ED53
:10252000250A80ED260AD1ED170AC0ED330A80EDA9
:10253000340A80ED350A70470C06002000000000C8
:102540000548807828B1012801D0022803D1FFF77F
:10255000F7BA03F003BC70470C0600202DE9F047E2
:10256000604EDFF8848100272DED048B30789FEDDD
:102570005F8A08F5AC74A4F5EC75012837D194EDA9
:10258000100A84ED0F0A94ED300A84ED2F0A6F8152
:102590000DF03EF9C8F82C00C8F8280094ED100A98
:1025A00038EE400AB5EEC00AF1EE10FA02DDF0EEA8
:1025B000400A01E0F1EE400A10EE900A4FF08B4124
:1025C000884202DA84ED1E0A10E010EE100A8842FA
:1025D00002DBDFED470A06E010EE100A10F16A5F39
:1025E00004D3DFED440A30EE200AEBE73770707851
:1025F000B146002871D10DF00BF9C8F82C003A480B
:1026000046467438477094ED1E0A00F50270B5EE28
:10261000C00AF1EE10FA03DD0021B0EE000A07E077
:10262000B5EEC00AF1EE10FA06D20121B8EE000AAA
:10263000FFF72AFC84ED0F0A9FED2F9AD4ED1E0AB6
:10264000B0EE001AB0EE490A03F026FCDFED2C8A4A
:1026500084ED1E0AD4ED2F0A9FED281AB0EE680A09
:1026600003F01AFC84ED2F0A94ED100A70EE480A6C
:10267000F5EEC00AF1EE10FA01DC78EE400A4FF0F8
:102680007E5110EE900A884211DC94ED300A70EE13
:10269000680AF5EEC00AF1EE10FA01DC78EEC00A25
:1026A00010EE900A884202DC6889401C68816889C3
:1026B000FA2806D8D6E90A10401A41F28831884231
:1026C0000BD36F81012189F8011094ED500A85ED3B
:1026D000090A85ED0A0A85ED0B9ABDEC048BBDE86D
:1026E000F08700009E0B002080060020008022441E
:1026F000000000C600000046000000003333333FF6
:1027000000B0814510B502210848FFF753FE084884
:1027100002210446FFF74EFE044800F00BF9204664
:1027200000F008F9BDE81040FFF776BBD80700209D
:10273000D8080020F0B57E4C04F5E675627804F107
:10274000740305EB022292ED000A83ED0E0A92ED6E
:10275000010A83ED0F0A92ED200A83ED110A92ED32
:10276000210A03F1A00283ED120A52681268B2F93D
:10277000022000EE102A00EBC112B8EEC00A83ED71
:10278000160A92EC020A70EE600AC2ED020A92ED9D
:102790000B0A30EE200A82ED0B0A92ED0C1AB4EE11
:1027A000C10AF1EE10FA06DCB1EE411AB4EEC10A2C
:1027B000F1EE10FA01D2B0EE410A82ED0B0A92ED71
:1027C000041A5B4E61EE200A0C3EC2ED070AD2ED00
:1027D000050A20EE800AD2ED0E0A20EE200A82EDD4
:1027E000080A3778F7B301295DD1D0ED270A00F147
:1027F0008001F5EEC00AF1EE10FA26DD90ED280A10
:10280000B5EEC00AF1EE10FA1FD290ED250A96ED52
:102810000D1A20EE011A81EE200A91ED0B1A30EE0E
:10282000010A81ED0B0A91ED0C1AB4EEC10AF1EE2A
:1028300010FA06DCB1EE411AB4EEC10AF1EE10FA5C
:1028400001D2B0EE410A80ED2B0AF5EEC00AF1EE9E
:1028500010FA28D290ED280AB5EEC00AF1EE10FA6F
:1028600021DD00E01FE090ED250A96ED0C1A20EE28
:10287000010A80EE201A91ED0B0A31EE000A81ED7B
:102880000B0AD1ED0C0AB4EEE00AF1EE10FA06DC08
:10289000F1EE600AB4EEE00AF1EE10FA01D2B0EE09
:1028A000600A80ED2B0A92ED021A92ED030AD2ED36
:1028B000060AD2ED0E1A31EE400A60EE200A80EED2
:1028C000A10A82ED090AD2ED070AD2ED081A70EECC
:1028D000A10A30EE800A82ED0A0AD2ED0D0AB4EEAA
:1028E000E00AF1EE10FA06DCF1EE600AB4EEE00A5E
:1028F000F1EE10FA01D2B0EE600A82ED0A0A82ED22
:10290000031A82ED1F0A607805EB002090ED0B0A98
:1029100083ED100A90ED2B0A83ED130A90ED1F0A48
:1029200083ED140A90ED3F0A83ED150AF0BD000017
:102930000C06002010B5084C002120680269904761
:102940006068002102699047206841698847606893
:102950004169BDE8104008471807002070B53D48A0
:102960003D4C8068A4F1800105683C4895ED000A63
:10297000B1EE400A84ED0D0A81ED080A95ED010AD9
:1029800084ED0C0AD4ED1D0A70EE600AC4ED1A0A3B
:1029900084ED1D0A407818B99FED310A84ED1A0ABA
:1029A000B5F90C0000EE100A2E48B8EEC00A02F08D
:1029B0003FFD84ED170AB5F90E0000EE100A294814
:1029C000B8EEC00A303002F033FD84ED180AB5F9D4
:1029D000100000EE100A2348B8EEC00A603002F082
:1029E00027FD84ED190A94ED170A1B4984ED1B0A93
:1029F000D4ED180AA031C4ED1C0A0A6810680088DA
:102A000001EE100A01F1B800B8EE411A80ED101A7B
:102A10001268128801EE102AB8EE411A80ED501AA1
:102A200080ED010A80ED410A49680968098800EED5
:102A3000101AB8EE400A80ED300A90ED700A94ED5D
:102A40001A1A30EE010A80ED700AC0ED210AC0EDBD
:102A5000610A70BDD8090020800600209E0B00206E
:102A600000000000781100204068A0F20520042832
:102A700002D240F2FF10704740F2FF207047000082
:102A800010B558B1084C491E0BD310F8013B534008
:102A9000DBB234F8133083EA1222F4E74FF6FF700A
:102AA00010BD104610BD00005428010810B5064C9A
:102AB00004E000BF10F8013B5340E25C491E89B2BC
:102AC000F8D2104610BD00005427010878B5002444
:102AD000009490F83C20012A19D0012280F83C2073
:102AE0000A6807230568092A13D9EE680A3A02EB37
:102AF000420293409E43EE600B788A680A3B03EBE8
:102B000043039A400368DD682A43DA6010E002203C
:102B100078BD2E6902EB420293409E432E610B78F2
:102B20008A6803EB43039A4003681D692A431A61CC
:102B30004A681F23072A13D205686E6B521E02EBE8
:102B4000820293409E436E630B790A885B1E92B2A9
:102B500003EB83039A4003685D6B2A435A6327E0C3
:102B600005680D2A12D22E6BD21F02EB820293400F
:102B70009E432E630B790A88DB1F92B203EB83031B
:102B80009A4003681D6B2A431A6311E0EE6A0D3AFE
:102B900002EB820293409E43EE620B790A880D3B62
:102BA00092B203EB83039A400368DD6A2A43DA6238
:102BB000164B0568144A9D4206D10D68122D03D1AB
:102BC000556845F48005556005689D4218D10B682D
:102BD000102B01D0112B13D1536843F40003536021
:102BE000096810290CD10A490A4A0968B1FBF2F1B7
:102BF00001EB8101490000E0491E00910029FBD151
:102C000080F83C40002078BD0023014000200140B6
:102C1000180C002040420F0070B504004FF0000572
:102C200003D0206C002610B107E0012070BD2046C3
:102C300000F01CF8666484F83C60206CC00610D478
:102C4000206C20F4885040F0020020642046FDF7FC
:102C500051FE6664206C20F0020040F00100206408
:102C600000E0012584F83C60284670BD10B586B0B0
:102C7000044614216846FDF7D6FC114920688842B5
:102C80001CD110480021026842F480720260006882
:102C900000F4807005900B481438026842F004027A
:102CA0000260006800F004000590012000900320FD
:102CB000CDE901016946044800F0B2FD06B010BD3F
:102CC00000200140443802400008024090F82020D3
:102CD000012A07D0022A05D0416A41F480214162CD
:102CE00001207047006842690A4342610020704732
:102CF000F0B590F820500468A468012D05D0022D8D
:102D000003D0416A41F4802153E014F0406F01D1B7
:102D1000E5004BD5C4F30164022C03D9416A41F4A8
:102D2000000146E00125A5401D608D684FF4C07389
:102D30009DB1CE6835434E6845EAC605066803EB8B
:102D40000417F5514FF4C275076805EB04150E69B9
:102D50007E51097D012905D009E00E88CD6845EA3C
:102D60004655EBE701684E5946F480764E5111798D
:102D7000D2F805504FF4C67641EA0525016806EB06
:102D800004168D511178D2F801204FF4C47541EA30
:102D90000221026805EB04155151006803EB041190
:102DA000425842F0010242500020F0BD416A41F415
:102DB000001141620120F0BD10B590F82020012AD9
:102DC00007D0022A05D0416A41F4802141620120E6
:102DD00010BD3B48D0F8002242F00102C0F80022AA
:102DE000D0F8002222F47C52C0F80022D0F8002251
:102DF0004B6A42EA0322C0F800220A7D02F01F0358
:102E000001229A40D0F81C329343C0F81C32CB699F
:102E1000B3B9D0F80C329343C0F80C328C894B68AC
:102E200064F31F434C6900EBC404C4F840320C89BE
:102E30000B6864F31F434C6900EBC404C4F84432CC
:102E4000CB69012B16D1D0F80C321343C0F80C32E9
:102E50000C884B6864F31F434C6900EBC404C4F84E
:102E600040320C89CB6864F31F434C6900EBC40407
:102E7000C4F844328B69002BD0F804320ED01343CF
:102E8000C0F804320B69002BD0F8143208D0134379
:102E9000C0F81432096A012904D008E09343EFE72F
:102EA0009343F5E7D0F81C121143C0F81C12D0F878
:102EB000001221F00101C0F80012002010BD000036
:102EC00000640040704730B590F82040012C05D0D8
:102ED000022C03D0416A41F480215DE0046800299E
:102EE00055D02469A40754D04FF4D874056804EB76
:102EF00001142D5915F00405956005682D594ED023
:102F0000ED08556005682C5904F00204D4604FF4B4
:102F1000DA74056804EB01142D5905F00F051561ED
:102F200005682D59C5F30725956105682C59240CB2
:102F300054614FF4DC72046802EB0112A4581C7057
:102F40000468A458240A5C700468A458240C9C707B
:102F50000468A258120EDA704FF4DE72046802EBB5
:102F60000112A4581C710468A458240A5C710468F6
:102F7000A458240C9C710468A258120EDA710068DF
:102F800081B1016941F020010161002030BDE46898
:102F9000A8E7416A41F400114162012030BD6D0D86
:102FA0001560AFE7C16841F02001C160EDE72DE990
:102FB000F05F0546006800244669D0F804908768F1
:102FC000D0F80CB0D0F810A0D0F81880F10748D095
:102FD000F90714D001218160B80703D5284600F015
:102FE00030FA0CE0780702D54FF4006407E03807A8
:102FF00002D54FF4805402E0284600F021FAF8058B
:1030000016D529684FF480708860B80503D5284626
:1030100000F019FA0CE0780502D544F4005407E0FA
:10302000380502D544F4804402E0284600F00AFA4C
:10303000F80316D529684FF480308860B80303D5AB
:10304000284600F002FA0CE0780302D544F400446C
:1030500007E0380302D544F4803402E0284600F04B
:10306000F3F9300707D55FEACB6004D52968102053
:1030700044F40074C86070074FF0080707D55FEA92
:103080000B7004D52868C760284600F099F9B0078E
:1030900006D52868C068800702D0284600F092F95B
:1030A000700607D55FEACA6004D52968102044F489
:1030B00080640861B00607D55FEA0A7004D5286805
:1030C0000761284600F08CF9F00606D528680069EB
:1030D000800702D0284600F084F9B00308D55FEAE3
:1030E000C96005D5296810204860284600F07AF9A3
:1030F000F00307D55FEA097004D5286847602846C1
:1031000000F0A4F9300446D55FEA497040D5F005D7
:1031100004D55FEAC87001D044F00104B00504D5BD
:103120005FEA887001D544F00204700504D55FEAB7
:10313000487001D544F00404300529D518F0700F0B
:1031400026D008F07000402815D006DC102809D0E1
:1031500020280AD0302816D10AE050280ED0602846
:1031600011D10EE044F008040DE044F010040AE030
:1031700044F0200407E044F0400404E044F08004FC
:1031800001E044F480742868816921F07001816154
:10319000296804204860002C05D0686A20436862D2
:1031A0002846FFF78FFEBDE8F09F70B5040003D0FE
:1031B00094F8200010B104E0012070BD204600F01A
:1031C00081F82068016821F00201016000F010FC24
:1031D0000546052604E000F00BFC401B0A2811D828
:1031E000206840688007F6D42068016841F001013A
:1031F000016000F0FDFB05460BE000F0F9FB401B11
:103200000A2806D9606A40F40030606284F82060C1
:10321000D2E720684068C007EFD0207E01282068F0
:1032200001683DD021F080010160607E01282068A6
:10323000016838D021F040010160A07E012820689B
:10324000016833D021F020010160E07E0128206870
:1032500001682ED041F010010160207F0128206814
:10326000016829D021F008010160607F01282068F1
:10327000016824D021F004010160D4E9020108436F
:10328000D4E90412114308436168491E08432168C8
:10329000C86100206062012084F82000002070BD19
:1032A00041F08001C0E741F04001C5E741F0200155
:1032B000CAE721F01001CFE741F00801D4E741F05F
:1032C0000401D9E7F0B587B0044614216846FDF73C
:1032D000AAF9364B3648DFF8D0E01968D4F800C0B8
:1032E000334A03250226092710300024491CF445DF
:1032F00022D11960012907D1016841F000710160F4
:10330000006800F000700590106840F00800106040
:103310001068CDE9005600F00800CDE90470694658
:103320002448CDE9024500F07BFA00221146142022
:1033300000F0EAFB142032E0DFF87CE0F44530D105
:10334000D0F800C04CF0806CC0F800C0D0F800C0CD
:1033500001290CF0806CCDF814C0196007D1016808
:1033600041F000710160006800F000700590106885
:1033700040F002001060106802AB00F002000590FF
:103380006020CDE9000683E8B00069460B4800F0F4
:1033900047FA00221146402000F0B6FB402000F022
:1033A000A5FB07B0F0BD000000640040080C002041
:1033B00030380240000C0240006800400004024027
:1033C00070470000044A0168914202D0034A9142CA
:1033D00001D1FDF7A1BE70470064004000680040C5
:1033E000704770477047000070B5044690F82000A1
:1033F000012804D0606A40F40020606218E00220D6
:1034000084F820002068016821F00101016000F0CB
:10341000EFFA05460EE000BF00F0EAFA401B0A286A
:1034200008D9606A40F400306062052084F820000A
:10343000012070BD20684068C007EDD1606270BD9A
:10344000704770477047704770477047704770B556
:103450004379012B1AD001264671022303710568B6
:103460002C6840F6FE7393409C43D1E900310B4336
:10347000934023432B6001680B68C0249440A3430E
:103480000B60067100214171084670BD022070BDBD
:1034900070B5040003D02079002510B105E00120AB
:1034A00070BD6571204600F007F80220207125618B
:1034B00001202071002070BD10B586B00446142193
:1034C0006846FDF7B0F81149206888421CD11048C1
:1034D0000021026842F000520260006800F00050D3
:1034E00005900B481038026842F001020260006843
:1034F00000F001000590102000900320CDE90101AB
:103500006946044800F08CF906B010BD0074004014
:10351000403802400000024090F83510022903D0E4
:103520008021416501207047052180F83510006831
:10353000016821F001010160002070472DE9F84386
:1035400004464FF00009CDF8009063484FF416513F
:10355000A56D0068B0FBF1F72E6894F85C100820A8
:1035600000FA01F131420FD021680A6852070BD5E9
:103570000A6822F004020A6094F85C108840A8608F
:10358000606D40F00100606594F85C104FF0010838
:1035900008FA01F0304208D021684969090604D5CB
:1035A000A860606D40F00200606594F85C10042033
:1035B0008840304208D021680968890704D5A8608E
:1035C000606D40F00400606594F85C101020884045
:1035D000304218D021680968090714D5A86020680E
:1035E0000168490304D50068000308D5A16C07E011
:1035F0000168C90503D4016821F008010160216C4C
:1036000009B12046884794F85C1020208840304259
:1036100031D021680968C9062DD5A86094F8350015
:1036200005282068016806D0490347D500680003D3
:103630001DD4616C1CE021F0160101602068416915
:1036400021F080014161206C08B9A06C20B1206894
:10365000016821F00801016094F85C103F20884067
:10366000A86084F8349084F83580216D1FE0E16B08
:1036700009B120468847606D00282BD0606DC007D7
:1036800014D0052084F835002068016821F001017C
:1036900001600098401C0090B84203D82068006880
:1036A000C007F6D184F8349084F83580E16C0029A5
:1036B00010D001B02046BDE8F04308470168C905B5
:1036C000D5D4016821F01001016084F8349084F8A9
:1036D0003580CCE7BDE8F883180C00202DE9F041D7
:1036E000044600F085F906465CB1002584F83450A4
:1036F000022084F835002068016821F00101016092
:103700000DE00120BDE8F08100F072F9801B052872
:1037100005D920206065032084F83500F2E7206891
:103720000068C007F0D12268116820480140D4E940
:1037300001031843D4E9033633431843636918433C
:10374000A3691843E3691843236A18430843616A6D
:10375000042903D1D4E90B131943084310602068EE
:103760004069666A20F0070130460E4301270428AD
:103770000CD1A06A0643E06A40B12046FDF7F0FE96
:1037800020B14020606584F83570BAE72068466152
:103790002046FDF7D1FE94F85C203F2191408160E6
:1037A000656584F835700020ACE700003F8010F0BC
:1037B0002DE9F0410446866D90F83400002501287B
:1037C0000DD0012084F8340094F835700020012FCA
:1037D00007D084F8340002252846BDE8F081022095
:1037E000FBE7022784F8357060652046FDF7E2FEAE
:1037F00094F85C103F208840B0602068016841F078
:1038000016010160206C20B12068016841F00801B8
:1038100001602068016841F001010160DCE70000FF
:103820002DE9F84F00224FF0010803254FF00F0E4D
:103830000B6808FA02F42340A3426ED14E68012EB1
:1038400005D0022E03D0112E01D0122E12D186687F
:103850004FEA420C05FA0CF7BE43CF6807FA0CF7A3
:10386000374387604668A6430C79C4F3001494403C
:1038700034434460C668570005FA07FC8C6826EAA2
:103880000C06BC403443C4604C68022C01D0122C9E
:1038900013D1D40800EB8404A346D4F82090540735
:1038A0004FEAD46A0EFA0AF629EA06090E6906FA00
:1038B0000AF646EA0906CBF8206006680C7926EA83
:1038C0000C0604F00304BC40344304604C68E4007C
:1038D00065D5364C266846F480462660246822F07A
:1038E000030604F480440094314C3444A446D4F8D4
:1038F00008489607370F0EFA07F6B4432D4EB0422C
:1039000001D1002624E02C4EB04201D101261FE057
:103910002A4EB04202D102261AE040E0284EB042C0
:1039200001D1032614E0274EB04201D104260FE056
:10393000254EB04201D105260AE0244EB04201D105
:10394000062605E0224EB04201D1072600E00826F7
:10395000BE402643CCF808681E4E34684F689C432E
:10396000FF0300D51C4334601A4C241D26684F68A1
:103970009E43BF0300D51E432660164E08363468AA
:103980004F689C43FF0200D51C433460114E0C3637
:1039900034684F689C43BF0200D51C433460521CFE
:1039A000102AFFF445AFBDE8F88F0000443802400C
:1039B00000300140000002400004024000080240C4
:1039C000000C0240001002400014024000180240A7
:1039D000001C0240003C0140426931EA020200D171
:1039E0000904816170470AB1816170470904FBE7EE
:1039F00001488068704700000C0C00200248816874
:103A000002781144816070470C0C00200B4810B5FF
:103A1000016841F400710160016841F48061016056
:103A2000016841F480710160032000F08DF80020EE
:103A300000F006F800F03EF8002010BD003C024007
:103A400010B5014688B000221C2000F05DF81C2053
:103A500000F04CF814480024016841F001010160B5
:103A6000006805A900F001000690684600F018F90A
:103A700000F036F90D494000B0FBF1F10C484FF071
:103A80008042491E026040F2E732C0E90324C0E9E7
:103A9000011400F06FFB10B1012008B010BD044804
:103AA00000F0FAFBF9E700004038024040420F0006
:103AB000601A00200C4882B0016841F48041016026
:103AC000006800F4804000900748001F016841F042
:103AD000805101600068002200F0805000900F21AA
:103AE000901E02B000F010B844380240002809DBF4
:103AF00000F01F02012191404009800000F1E02008
:103B0000C0F8001170470000F0B40E4B1B680C4663
:103B1000C3F30223C3F10705042D00D90425191DA1
:103B2000072901D2002300E0DB1E012606FA05F179
:103B3000491E214099409E40761E16403143F0BCFC
:103B400003F08BBB0CED00E0064900F007020868AB
:103B50004FF6FF03184040EA0220034A1043086072
:103B6000704700000CED00E00000FA052DE9F04779
:103B70000E46050065D0DFF81481D8F80000F7B2D2
:103B800000F00F00B04207D288F80070D8F80000AB
:103B900000F00F00B04254D128683D4C810712D587
:103BA000400703D5206840F4E050206028780007E3
:103BB00003D5206840F4604020602068A96820F0A8
:103BC000F000084320602878C0072DD0304968688D
:103BD0000839012812D0022813D0032811D009680F
:103BE000890700292DDA216821F0030101432160B2
:103BF000FFF7FEFE814641F2883A0EE0096889032C
:103C0000EFE709688901ECE7FFF7F2FEA0EB090195
:103C1000514502D90320BDE8F0872068696800F0AB
:103C20000C00B0EB810FEFD1D8F80010404601F046
:103C30000F01B14207D90770006800F00F00B042D1
:103C400001D00120E7E72878400705D52068E9681A
:103C500020F4E050084320602878000706D520684B
:103C6000296920F4604040EAC100206000F058F863
:103C70002168084AC1F30311515CC8400649086035
:103C800006480068FFF7DCFE0020C4E7003C024065
:103C900008380240582B0108180C0020100C002096
:103CA0000F2202600C4A136803F003034360136899
:103CB00003F0F0038360136803F4E053C3601268F9
:103CC0004FF4E05303EAD20202610448006800F0B6
:103CD0000F0008607047000008380240003C0240B6
:103CE0000448054900680968044AC1F38221515C0F
:103CF000C8407047180C002008380240682B0108A3
:103D00000448054900680968044AC1F34231515C1E
:103D1000C8407047180C002008380240682B010882
:103D2000154810B5006810F00C02144813D014495F
:103D3000042A0FD0082A0ED10F4C241F22682368B2
:103D400002F03F025B0207D52068C0F38810A0FB99
:103D5000010106E0084610BD2168C1F38811A1FBEE
:103D600000010023FCF75AFB2168C1F30141491C03
:103D70004900B0FBF1F010BD083802400024F40007
:103D800040787D012DE9F84F04006ED02078DFF8EF
:103D90003C93C007A9F104054AD009F10400016869
:103DA000C1F38101012908D00068C0F38100022815
:103DB0000AD1D9F80000400206D52868800337D51B
:103DC00060680028E1D033E06068B0F5803F10D033
:103DD000B0F5A02F286810D020F480302860286823
:103DE00020F4802028606068A8B1FFF701FE064635
:103DF0000DE0286840F48030F4E740F4802028602B
:103E0000F7E700BFFFF7F4FD801B642873D828682C
:103E10008003F7D50CE0FFF7EBFD064605E000BF99
:103E2000FFF7E6FD801B6428F0D828688003F7D4EC
:103E30002078DFF89C8280074FF0000A3ED5A34827
:103E4000001D016811F00C0F08D00068C0F381005C
:103E500002280BD1D9F80000400207D42868800757
:103E600016D5E068012800D112E02BE1E068B8B176
:103E70000120C8F80000FFF7BBFD064605E000BFC3
:103E8000FFF7B6FD801B0228C0D828688007F7D549
:103E90002868216920F0F80040EAC10028600DE0A0
:103EA000C8F800A0FFF7A4FD064604E0FFF7A0FD58
:103EB000801B02281FD828688007F7D420780007C5
:103EC00022D5824E83486169703671B1012101604B
:103ED000FFF78EFD074604E0FFF78AFDC01B0228AE
:103EE00009D830688007F7D50EE0C0F800A0FFF7CA
:103EF0007FFD074605E082E0FFF77AFDC01B022840
:103F00007DD830688007F7D42078400768D5DFF87F
:103F1000BCB100270BF13C0BDBF80000C0000BD458
:103F2000DBF8001041F08051CBF80010DBF8000006
:103F3000012700F080500090674E3068C00510D413
:103F4000306840F480703060FFF752FD009005E06B
:103F5000FFF74EFD0099401A022850D83068C0057E
:103F6000F6D55A4EA0686C3601280FD00528306867
:103F700010D020F001003060306820F00400306084
:103F8000A068B8B1FFF734FD00900FE0306840F052
:103F90000100F4E740F004003060F7E7FFF728FD88
:103FA0000099411A41F28830814266D83068800712
:103FB000F4D50EE0FFF71CFD009007E0FFF718FDB9
:103FC0000099411A41F28830814256D83068800702
:103FD000F4D42FB1DBF8001021F08051CBF80010A1
:103FE000A069C8B33949091D0968C1F381010229D3
:103FF0004AD00228504607D0C8F8600000E03CE0F4
:10400000FFF7F6FC04463BE04746C8F86000FFF7C0
:10401000EFFC064605E000BFFFF7EAFC801B022824
:104020002BD828688001F7D4D4E907010843A16A96
:104030002A4A490802EB0141626A41EA82110843B7
:1040400094F82C1040EA0161C9F80010012038668C
:10405000FFF7CEFC044606E036E000BFFFF7C8FCE1
:10406000001B022809D828688001F7D52CE000BF82
:10407000FFF7BEFC001B022802D90320BDE8F88F21
:1040800028688001F4D41FE00128F7D0D9F8000097
:10409000E26900F48001914214D1226A00F03F01EC
:1040A00091420FD147F6C071626A0140914209D135
:1040B000A26A00F44031914204D1E16A00F07060DC
:1040C000884201D00120D9E70020D7E70438024018
:1040D00000004742800E4742007000400000FFFF92
:1040E0007047704770B590F83C20012A32D0012407
:1040F00080F83C40022280F83D2003685A689D68A1
:1041000022F070060A6832435A60134B02689A42E2
:1041100014D0B2F1804F11D0104B9A420ED0104BF8
:104120009A420BD00F4B9A4208D00F4B9A4205D0BF
:104130000E4B9A4202D00E4B9A4204D1496825F0A8
:1041400080031943916080F83D40002180F83C10C5
:10415000084670BD022070BD000001400004004010
:1041600000080040000C00400004014000400140F5
:104170000018004010B5040003D094F83D0010B1C1
:1041800007E0012010BD002084F83C00204600F02C
:104190000DF8022084F83D00211D206802F05AF835
:1041A000012084F83D00002010BD000030B587B02C
:1041B000044614216846FCF736FA24683048002289
:1041C000304B022184422FD12E481430046844F031
:1041D00001040460006800F001000590186840F0D8
:1041E000100018601868CDE9021200F01000059068
:1041F0004FF42060CDE90001012004906946224877
:10420000FFF70EFB002211461920FFF77DFC192055
:10421000FFF76CFC002211461B20FFF775FC1B20EA
:10422000FFF764FC07B030BD1648184D1030AC42A3
:1042300008D1016841F002010160006800F002004D
:104240000590EFE7124DAC42ECD1046844F0040451
:104250000460006800F004000590186840F0080051
:104260001860186800F0080005904FF440508DE881
:104270000700CDE9032169460648FFF7D1FAD1E7E7
:1042800000000140303802400010024000040040AD
:1042900000080040000C02400168CA6842F00102B8
:1042A000CA600068816801F00701062903D001682F
:1042B00041F0010101600020704770B5044690F89C
:1042C0003C00012817D0012584F83C50022084F8D6
:1042D0003D002068826822F0770222F47F428260EB
:1042E0000868502830D00DDC20284DD005DC98B36C
:1042F00010283BD148E0022070BD302844D040282F
:1043000034D139E0602828D0702806D0B0F5805F1D
:104310002CD0B0F5005F29D10AE0CB68D1E90121AA
:10432000206802F008F82068816841F0770109E010
:10433000CB68D1E90121206801F0FDFF2068816888
:1043400041F48041816011E0CA684968206802F048
:10435000CDF85021206807E016E0CA684968206857
:1043600002F016F96021206801F0EFFF84F83D505B
:10437000002084F83C0070BDCA684968206802F0DB
:10438000B5F840212068EFE7226801461046EBE7C8
:10439000704700002DE9F041044690F83C000D46BE
:1043A00001283DD0012684F83C60022084F83D00BD
:1043B000AAB3042A46D02068082A55D0D5E9002798
:1043C000E968036A23F480530362D0F81CC0036ACF
:1043D0002CF4407C4CEA07274FF6FF7C27F470470B
:1043E0000CEA013139434FF4204723F4204307EA14
:1043F00002321A43C16102622068C16921F440613E
:10440000C1612068C169AA6841EA0221C0F81C1094
:1044100084F83D60002084F83C00BDE8F08101E0B4
:104420000220FAE7D5E90012EB68206802F070F884
:104430002068816921F00C01816120688169AA6886
:1044400011430FE0D5E90012EB68206802F0B2F8E2
:104450002068816921F44061816120688169AA68CE
:1044600041EA02218161D3E7D5E9002C2F7B016A63
:1044700021F480710162C169036A21F0030141EAFC
:104480000C0121F0F00C39074FF420674CEA116160
:1044900023F4206307EA02221A43C1610262206802
:1044A000C16921F00C01C1612068C169AA6811438A
:1044B000ACE710B5040003D094F83D0010B107E05C
:1044C000012010BD002084F83C00204600F00CF8CC
:1044D000022084F83D00211D206801F0BBFE012070
:1044E00084F83D00002010BD704710B502680446F6
:1044F00031B1042908D008291AD00C2908D11BE0B1
:10450000D06840F0020002E0D06840F00400D060C3
:104510000122206801F002FF2068816801F0070194
:10452000062903D0016841F001010160002010BD9F
:10453000D06840F00800EAE7D06840F01000E6E7F5
:1045400070B50446006801694FF00005C94389074A
:1045500015D4C168C943890711D4E91E016101203E
:104560002077206880698007204602D0FFF710FF7F
:1045700004E000F0C1F8204600F043F925772068F8
:104580000169C943490717D4C168C943490713D40E
:104590006FF004010161022020772068806910F427
:1045A000407F204602D0FFF7F3FE04E000F0A4F8BD
:1045B000204600F026F9257720680169C9430907DC
:1045C00016D4C168C943090712D46FF0080101610C
:1045D000042020772068C0698007204602D0FFF7BA
:1045E000D7FE04E000F088F8204600F00AF92577AD
:1045F00020680169C943C90617D4C168C943C906FF
:1046000013D46FF010010161082020772068C06981
:1046100010F4407F204602D0FFF7BAFE04E000F01D
:104620006BF8204600F0EDF8257720680169C94352
:10463000C90708D1C168C943C90704D1891E0161EE
:10464000204600F001F920680169C943090609D430
:10465000C168C943090605D46FF080010161204695
:10466000FFF73EFD20680169C943490609D4C168C6
:10467000C943490605D46FF040010161204600F0AE
:10468000FFF820680169C94389060BD4C168C94392
:10469000890607D46FF0200101612046BDE8704013
:1046A000FFF71FBD70BD000010B586B00446142191
:1046B0006846FBF7B8FF0D492068884214D10C48C2
:1046C0000021026842F001020260006800F001006F
:1046D0000590C02000900220CDE90101CDE9031032
:1046E00069460448FFF79CF806B010BD000400407E
:1046F0003038024000000240704770B5044690F820
:104700003C000D4601280DD0012684F83C600220B3
:1047100084F83D0042B1042A18D0082A2AD00C2A75
:104720004DD139E0022070BD206801F01DFE2068E7
:10473000816941F0080181612068816921F00401EB
:104740008161206881692A69114311E0206801F0C4
:104750003BFE2068816941F40061816120688169C4
:1047600021F480618161206881692A6941EA02211E
:10477000816124E0206801F05DFE2068C16941F09C
:104780000801C1612068C16921F00401C16120688C
:10479000C1692A69114311E0206801F07FFE206899
:1047A000C16941F40061C1612068C16921F480617F
:1047B000C1612068C1692A6941EA0221C16184F8A6
:1047C0003D60002084F83C0070BD10B5040003D0AB
:1047D00094F83D0010B107E0012010BD002084F8DE
:1047E0003C00204600F00CF8022084F83D00211D1A
:1047F000206801F02FFD012084F83D00002010BD4D
:104800007047704710B504460068012201F086FD2C
:104810000B492068884202D00A49884203D1416C82
:1048200041F4004141642068816801F007010629D4
:1048300003D0016841F001010160002010BD0000BB
:1048400000000140000401400068B0F1804F01D138
:10485000FFF7D4B870470246002041B1042909D0BF
:1048600008290AD00C2901D11068006C7047106823
:10487000406B70471068806B70471068C06B704762
:104880007047704770B5026804461068D168536974
:1048900010F00F0F52D003F0010501F490762E4373
:1048A0005FD0C20705D0CA0503D5E26B42F0010212
:1048B000E263420705D5DA0703D0E26B42F0020259
:1048C000E263820705D5DA0703D0E26B42F0040207
:1048D000E263020707D501F020022A4303D0E26B0E
:1048E00042F00802E263E26B002A33D0800604D56E
:1048F000880602D5204602F04DF920684069E16B38
:10490000C0F38010090700D428B3204602F02BF929
:104910002068416949061AD5416921F04001416189
:10492000606BA0B11B490165606BFEF7F5FD0028C7
:1049300010D0606B016DBDE870400847830610D54C
:104940008B060ED52046BDE8704002F023B9204604
:10495000FFF797FF70BD2046FFF793FF0020E0634D
:1049600070BD030606D50B0604D52046BDE8704091
:1049700002F0F0B94006F3D54806F1D5D1682046DB
:1049800021F04001D160202184F8391000F0CEFAE6
:1049900070BD0000D56A000870B5040004D094F81A
:1049A0003900002510B106E0012070BD84F83850B0
:1049B000204600F023F8242084F839002068C168DC
:1049C00021F40051C160204602F030F920680169ED
:1049D00021F4904101612068416921F02A0141617F
:1049E0002068C16841F40051C160E563202084F86B
:1049F000390084F83A00002070BD00002DE9F04F26
:104A000087B0044614216846FBF70DFEEA48DFF83C
:104A1000A48310380222D4F800C0E74B0321DFF84A
:104A20009CE30025960607154FF0010B4FF48079A3
:104A30004FF4003AC44555D1D3F800C0A8464CF411
:104A4000002CC3F800C01B6803F40023059303681F
:104A500043F001030360006800F0010005908DE859
:104A600006080820CDE9031069467046FEF7D8FE17
:104A7000DFF850B3D249584602C0E0E80265E0E8EA
:104A8000035740F8045C80E820065846CBF82450D1
:104A9000FEF724FE08B1FCF791FECA4DC848C4F8E1
:104AA00034B060353030CBF83840C5E900064020DE
:104AB000A860C5E90387C5F81480C5F81880C5E962
:104AC000078A2846C5F82480FEF708FE08B1FCF7DF
:104AD00075FE2563002211463420AC63FFF714F8FD
:104AE00034206FE0DFF8E082C44571D1D3F800C014
:104AF0004CF4801CC3F800C01B6803F480130593BA
:104B0000036843F004030360036803F004030593A0
:104B1000036843F00803036000684FF0080B00F0DF
:104B2000080005904FF48050CDE90002012002906A
:104B30000320CDE9030B90466946A448FEF770FEBA
:104B40000420CDE90008012002900320CDE9030BE9
:104B500069469F48FEF764FE9A489949C03030394B
:104B60000160C0E90165C0E903574561C0E9065924
:104B7000C0E908A5B046BB465646FEF7AFFD08B1F2
:104B8000FCF71CFE8F48934FC030606384638C48F1
:104B90007830E7E802084020A7E821088D4847F868
:104BA0001459BD61C7E907567D62FEF797FD08B14C
:104BB000FCF704FE2763002211463520BC63FEF794
:104BC000A3FF3520FEF792FF07B0BDE8F08FFFE7A7
:104BD000DFF804824FF0070BC44543D1764B1B1D11
:104BE000D3F800C04CF0100CC3F800C01B6803F0F1
:104BF00010030593036843F0010303600068CDE9E7
:104C0000025100F0010005904FF4C060CDE90002B0
:104C1000CDF810B069467046FEF702FEDFF8B481A9
:104C20006E4908F160084046C8F80010C0E9016507
:104C3000C0E90357C8F81450C0E90659C8F8205015
:104C4000C8F82450FEF74AFD08B1FCF7B7FDC4F8D8
:104C50003480002211462520C8F83840FEF754FF62
:104C60002520AFE7DFF87881C4453FD1D3F800C0F5
:104C70004CF4003CC3F800C01B6803F400330593F8
:104C8000036843F0010303600068CDE9025100F0BE
:104C9000010005900C20CDE90002CDF810B0694666
:104CA0007046FEF7BDFDDFF82C81454908F1C008CC
:104CB0004046483102C0E0E80265E0E8035740F8AA
:104CC000045C80E820064046C8F82450FEF706FD44
:104CD00008B1FCF773FDC4F8348000221146262089
:104CE000C8F83840FEF710FF26206BE7DFF8F480A5
:104CF000C4457FF469AFD3F800C0A8464CF4802CBB
:104D0000C3F800C01B6803F480230593036843F0D5
:104D1000020303600068CDE9025100F00200059033
:104D20004FF44060CDE90002CDF810B069462E483E
:104D3000FEF776FD2249DFF8B4A018395046CAF8CC
:104D40000010C0E90165C0E90357CAF81450C0E972
:104D50000659CAF82050CAF82450FEF7BFFC08B123
:104D6000FCF72CFD214D1648C4F834A060351830EE
:104D7000CAF83840C5E900064020A860C5E90387A5
:104D8000C5F81480C5F81880C5F81C80C5F82080C7
:104D90002846C5F82480FEF7A1FC08B1FCF70EFDFB
:104DA0002563002211462720AC63FEF7ADFE2720C5
:104DB00008E70000004C004040380240000002407C
:104DC0004060024060170020005000400008024090
:104DD000000C024080180020001001404064024096
:104DE000004400400048004000040240A019002098
:104DF00070472DE9F843044690F839001F461646DF
:104E00000D46202850D1B5B1AEB194F83800012834
:104E10004AD0012084F838004FF00008C4F83C80E4
:104E2000212084F83900FEF7E3FDA6848146E6845C
:104E300084F8388026E00120BDE8F883E08C401E2D
:104E4000E084A0684B46B0F5805F4FF000024FF061
:104E500080012046009703D001F0ADFFE8B90DE0D6
:104E600001F0A9FFC8B928882168C0F3080048608C
:104E7000206908B16D1C05E0AD1C03E0216815F840
:104E8000010B4860E08C0028D8D14B46002240211D
:104E90002046009701F08FFF08B10320CCE72020C7
:104EA00084F839000020C7E70220C5E770B5044642
:104EB00090F83900202830D169B362B394F83800F3
:104EC00001282AD0012084F838002162A284E284DB
:104ED0000025E563212084F83900236B1048D8634E
:104EE000236B10481864236B0F48D864206B13465B
:104EF00005652668206B321DFEF75AFC21686FF0AD
:104F00004000086084F838502068416941F0800111
:104F10004161002070BD012070BD022070BD000005
:104F20002F6B00085D6B0008E56A0008704770474A
:104F3000FEE7000010B504210448FFF7D6FABDE8EB
:104F4000104000210148FFF7D0BA0000E015002012
:104F500070B50D4C0025C4F8B4520C48016821F01E
:104F600040410160016841F080410160C4F8BC52D9
:104F7000022004F52D7404F0FFFB012020600220C4
:104F800004F0FAFB256070BD00804042000402403E
:104F900070B50D4C0025C4F8B4520C48016821F0DE
:104FA00040410160016841F0804101600126C4F880
:104FB000BC62022004F52D7404F0DEFB26600220A2
:104FC00004F0DAFB256070BD00804042000402401E
:104FD0002DE9F047814616480024016821F0404140
:104FE000016001680160134E254627464FF0010815
:104FF000C6F8B472022004F0BFFBC6F8B4826006A3
:10500000040ED6F83C0208B1641CE4B2012004F09E
:10501000B3FB6D1CEDB2082DEAD3B9F1000F04D03B
:10502000FFF796FF2046BDE8F087FFF7B1FFF9E7ED
:1050300000040240008040422DE9F0410646144839
:10504000016821F040410160016841F08041016048
:10505000104C0027C4F8B4723D464FF00108F00927
:10506000C4F8BC027006060E022004F085FBC4F8EA
:10507000B482022004F080FBC4F8B472022004F071
:105080007BFB6D1CEDB2082DE9D3BDE8F08100007B
:10509000000402400080404270B50D48016821F0D4
:1050A00040410160016841F080410160094C0120EC
:1050B000C4F8BC02C4F8B402042004F52D7404F052
:1050C0005BFB0025A560042004F056FB256070BD45
:1050D00000040240008040420E4810B5016821F0F3
:1050E00040410160016841F0804101600A4C0020AC
:1050F000C4F8B402C4F8BC02042004F52D7404F012
:105100003BFB01202060A060BDE81040042004F0BB
:1051100033BB0000000402400080404270B51248DA
:105120000024016821F040410160016801600F4DD9
:105130000126C5F8BC62304604F01EFBC5F8B46217
:10514000012004F019FB07E0641CE4B2FA2C03D937
:10515000FFF7C2FF012070BDD5F83C020028F3D153
:10516000C5F8B40270BD0000000402400080404257
:10517000914203DC884201DB904201DD0020704750
:1051800001207047134810B5C068124A0368A2F1A5
:105190001402A2F1100193F8560044074FF00000EA
:1051A00005D4B3F8814014B993F8783053B14B89E2
:1051B00040F2E244A34202D25B1C4B8100E001209A
:1051C000907010BD9070034A183A1080508048814A
:1051D00010BD0000280B00202DE9F0477A4F7948D8
:1051E000A7F5007404F5DE750278A4F5E670A4F561
:1051F000EC78407804F1BC0A04F13C06012A38D06E
:10520000DFF8C8910028B9F90A106ED0012874D1CE
:1052100000EE101AD8ED060A6A48B8EEC00A9038B7
:1052200020EE200A00F004F9A4F1B00000F0C6FC62
:1052300004F59E7000210646FCF726FE84ED4F0A19
:1052400000213046FCF7C8FF84ED4F0AB9F90C0085
:10525000D8ED070A00EE100A5A48B8EEC00A6038C6
:1052600020EE200A00F0E4F8A4F1580000F0A6FCBB
:1052700065E040B1012840D198F80600B2EE000A7E
:1052800002283CD041E098F80600022807D100210E
:10529000BAEE000A3046FCF7F7FD84ED0F0A98F8E5
:1052A0000700022807D10021B2EE000A3046FCF7C1
:1052B000EBFD84ED0F0A00213046FCF78DFF84EDF5
:1052C0000F0A98F80400022807D10121B1EE080A5C
:1052D0005046FCF7D9FD84ED2F0A98F80500022806
:1052E00005D10121B9EE080A66E037E005E00121A9
:1052F0005046FCF771FF84ED2F0ABDE8F087D4ED2E
:105300004F0A70EEC00AC4ED4F0A98F80700022851
:1053100005D1D4ED4F0A30EE800A84ED4F0A98F89B
:105320000400B5EE000A022805D1D4ED6F0A70EE34
:10533000C00AC4ED6F0A98F80500022805D1D4ED23
:105340006F0A30EE800A84ED6F0A786801220168E6
:105350002846FCF76BFE84ED6F0ACEE700EE101ACC
:10536000D8ED040A1748B8EEC00A903820EE200A9B
:1053700000F05EF8164800F021FC00213046FCF7F2
:1053800083FD84ED0F0A00213046FCF725FF84EDF4
:105390000F0AB9F90C00D8ED050A00EE100A094809
:1053A000B8EEC00A603820EE200A00F041F8084844
:1053B000583000F003FC01215046FCF765FD84EDF8
:1053C0002F0A94E728130020D80900208C00002021
:1053D0002807002010B50948084C0078303C012807
:1053E00003D00020E070207410BD0120E070142074
:1053F000207406F061FAE06010BD00006413002024
:105400009FED0A1A80ED001A80ED051A80ED090A59
:10541000C0ED0A0AB7EE000A80ED070A80ED081A0F
:1054200080ED0B0A80ED011A7047000000000000BB
:10543000D0ED071AD0ED000A21EEA01A80ED011A76
:10544000D0ED090A90ED052A41EE820AC0ED030A6B
:10545000D0ED0A1A30EEA12AC0EE821A30EE412AAF
:10546000B0EE410AB7EE001AC0ED061A31EE611A2D
:1054700001EE820A61EE200A80ED020AC0ED040A04
:10548000C0ED050A80ED000A7047000070B50546C2
:10549000FFF702FE0F4C20784006000EFFF7CCFD10
:1054A000FFF73CFE2846FFF7C7FDFFF737FEFFF783
:1054B000F3FD2078012101EB4000C0B2FFF7BCFDF5
:1054C000FFF72CFE0020FFF783FD0446FFF704FEE4
:1054D000204670BD880000202DE9F04116460D469B
:1054E0000746FFF7D9FD134C20784006000EFFF762
:1054F000A3FDFFF713FE3846FFF79EFDFFF70EFEF4
:10550000FFF7CAFD2078012101EB4000C0B2FFF790
:1055100093FDFFF703FE002406E00120FFF758FD8E
:10552000641C05F8010BE4B2B442F6D3BDE8F041C7
:10553000FFF7D2BD880000207FB5002415480094F5
:10554000019402941249039401604FF48031C0E940
:1055500001140461047680F820400F49C0E90A1460
:105560000125C561C46080F830404561FDF754FBFA
:1055700008B1FCF723F90A20CDE900056946029439
:105580000448FDF7A3FA002801D0FCF717F97FBD06
:1055900000200140B41400200100000F104810B595
:1055A0000E4901600321416000214FF40022816017
:1055B000C0E903124FF440124261017641768176D0
:1055C000C176017701214177FDF7EFFD002803D077
:1055D000BDE81040FCF7F2B810BD000000640040C8
:1055E000FC140020104810B50E49016003214160F1
:1055F00000214FF400228160C0E903124FF44012F1
:105600004261017641768176C17601770121417749
:10561000FDF7CBFD002803D0BDE81040FCF7CEB865
:1056200010BD000000680040241500201CB50024B7
:105630000C4900940A48019408600846FDF728FFC9
:1056400008B1FCF7BBF80220CDE900400022694612
:105650000448FDF7FCFE002801D0FCF7AFF81CBDA4
:10566000007400404C150020294808B5016841F439
:1056700000110160016801F400110091016841F41A
:10568000800101600068002200F480000090114653
:105690000B20FEF739FA0B20FEF728FA00221146FC
:1056A0000C20FEF731FA0C20FEF720FA00221146FA
:1056B0000D20FEF729FA0D20FEF718FA00221146F8
:1056C0000E20FEF721FA0E20FEF710FA00221146F6
:1056D0000F20FEF719FA0F20FEF708FA00221146F4
:1056E0001020FEF711FA1020FEF700FA00221146F2
:1056F0002F20FEF709FA2F20FEF7F8F900221146B5
:105700003A20FEF701FABDE808403A20FEF7EEB96C
:105710003038024010B5194A0021194806F01EF928
:10572000184C164A002120602432174806F016F95A
:10573000124A606048320021144806F00FF90F4AFF
:10574000A0606C320021124806F008F90B4AE060B4
:10575000903200210F4806F001F9084A2061B43266
:1057600000210D4806F0FAF8044A6061D8320021A1
:105770000A4806F0F3F8A06110BD0000542A0108A1
:10578000A15F0008EC0B00205D60000825600008A8
:10579000A95F0008E55F000825610008CD5F0008EB
:1057A0002DE9F04786B014216846FAF73CFF3A48E5
:1057B0000024016841F004010160016801F0040166
:1057C0000591016841F080010160016801F08001EC
:1057D0000591016841F001010160016801F00101DA
:1057E0000591016841F010010160016801F01001AC
:1057F0000591016841F002010160016801F00201B8
:105800000591016841F0080101600068DFF88CA093
:1058100000F00800059001224FF4D8415046FEF7F1
:10582000E2F8DFF87C804FF4204601223146404602
:10583000FEF7D9F80122DFF86C9057023946484646
:10584000FEF7D1F84FF4C04000900125CDE9015496
:10585000694650460394FDF7E3FF0320CDE902407B
:10586000CDE9006569464046FDF7DAFF022600975C
:105870000396CDE9015469464846FDF7D1FF4FF440
:105880004060CDE90005CDE9024669465046FDF786
:10589000C7FF06B0BDE8F08730380240000802407C
:1058A00000040240000C024010B58AB000242748D2
:1058B0000494059406940794089409940094019420
:1058C0000294214903940160A721C0E901144FF615
:1058D000FF71C0E9031444618461FEF74BFC08B119
:1058E000FBF76CFF4FF48050049004A91748FEF7B3
:1058F000E4FC08B1FBF762FF1448FEF7DAFD08B1DB
:10590000FBF75CFF089408A910480994FEF7EAFB2E
:1059100008B1FBF753FF0120CDE9004002940022BB
:1059200069460A480394FEF735FD08B1FBF746FFC8
:10593000042269460548FEF72DFD002801D0FBF73B
:105940003DFF0AB010BD00000000014060150020BE
:1059500010B58EB000240794089409940A940B940F
:105960001C2168460C94FAF75EFE2248204901602B
:105970005321C0E9011440F6C411C0E90314846145
:10598000FEF7F8FB08B1FBF719FF4FF480500790C2
:1059900007A91848FEF791FC08B1FBF70FFF15485F
:1059A000FEF713FF08B1FBF709FF0B940BA9114891
:1059B0000C94FEF797FB08B1FBF700FF6020CDE9E0
:1059C00000040294002269460A480494FEF795FEFA
:1059D00008B1FBF7F3FE042269460648FEF78DFE88
:1059E00008B1FBF7EBFE0348FEF75EFE0EB010BDFC
:1059F00000040040A015002010B58AB000242648FD
:105A000004940594069407940894099400940194CE
:105A1000029420490394C0E900144FF6FF71C0E9D5
:105A2000024104618461FEF7A5FB08B1FBF7C6FEE5
:105A30004FF48050049004A91748FEF73EFC08B1CB
:105A4000FBF7BCFE1448FEF734FD08B1FBF7B6FEC9
:105A5000089408A910480994FEF744FB08B1FBF725
:105A6000ADFE0120CDE900400294002269460A48BB
:105A70000394FEF78FFC08B1FBF7A0FE04226946F1
:105A80000548FEF787FC002801D0FBF797FE0AB017
:105A900010BD000000080040E01500200C4810B5C3
:105AA0000A4901604FF4E1314160002181600C221C
:105AB000C160C0E904128161C161FEF76DFF002879
:105AC00003D0BDE81040FBF779BE10BD004C00408C
:105AD000201600200C4810B50A4901604FF4E1314E
