:020000040800F2
:10000000F85C00206903000883620008C5560008F8
:1000100081620008C10F000865750008000000003B
:100020000000000000000000000000007502000851
:100030008927000800000000D10200082D6D00088B
:100040008303000883030008830300088303000878
:100050008303000883030008830300088303000868
:10006000830300088303000883030008B12300080A
:1000700083030008BD23000883030008C923000888
:10008000D5230008830300088303000883030008C6
:10009000ED0F0008830300088303000883030008B2
:1000A0008303000883030008830300088303000818
:1000B000016E00088303000883030008830300081F
:1000C00083030008830300088303000883030008F8
:1000D00083030008FD7300085174000883030008BF
:1000E00083030008830300088303000883030008D8
:1000F00083030008830300088303000883030008C8
:1001000083030008830300088303000883030008B7
:10011000E1700008097100088303000883030008E8
:100120008303000883030008E12300088303000819
:100130008303000883030008830300088303000887
:100140005D10000883030008830300088303000890
:100150008303000883030008ED23000883030008DD
:100160008303000883030008830300088303000857
:1001700083030008830300088303000800000000D5
:10018000830300088303000800F002F800F062F81F
:100190000AA090E8000C82448344AAF10107DA45E2
:1001A00001D100F057F8AFF2090EBAE80F0013F0D2
:1001B000010F18BFFB1A43F0010318474C1101004F
:1001C0006C1101000A444FF0000C10F8013B13F0D1
:1001D000070408BF10F8014B1D1108BF10F8015BA0
:1001E000641E05D010F8016B641E01F8016BF9D193
:1001F00013F0080F1EBF10F8014BAD1C0C1B09D1EA
:100200006D1E58BF01F801CBFAD505E014F8016B5B
:1002100001F8016B6D1EF9D59142D6D370470000ED
:100220000023002400250026103A28BF78C1FBD8FF
:10023000520728BF30C148BF0B6070471FB50EF092
:1002400086F99DE8030000F07BFA00F090F91FBDED
:1002500010B510BD00F0E0FA1146FFF7EFFF0AF00D
:100260001BFA00F0FEFA03B4FFF7F2FF03BC00F044
:100270002FFB00002C4B19680868B0E8F04F80F3A2
:100280000988BFF36F8F4FF0000080F3118870472B
:100290000000000008480068006880F308884FF0FC
:1002A000000080F3148862B661B6BFF34F8FBFF3CE
:1002B0006F8F00DF00BF00BF08ED00E0DFF80C002B
:1002C000016841F470010160704700BF88ED00E0F3
:1002D000EFF30980BFF36F8F134B1A681EF0100FF6
:1002E00008BF20ED108A20E9F04F106009B44FF0EC
:1002F000500080F31188BFF34F8FBFF36F8F0DF065
:1003000043F84FF0000080F3118809BC19680868B1
:10031000B0E8F04F1EF0100F08BFB0EC108A80F369
:100320000988BFF36F8F7047C0080020EFF3058086
:10033000704700000B49D1F800C04A685CF8043BE4
:100340001068184442F8040B8C4528BFA1F1DC0C5E
:100350008A4228BFA1F1DC02C1F800C04A6020F047
:1003600000407047905600200948804709480047E0
:10037000FEE7FEE7FEE7FEE7FEE7FEE7FEE7FEE755
:10038000FEE7FEE704480549054A064B70470000B2
:10039000E56D000889010008F8560020F85C00208F
:1003A000F8580020F858002070B5064600F0ACF967
:1003B000056806F10B0020F00704B4429CBF002042
:1003C00070BD2B466A68BAB11068A04210D304F120
:1003D000080188423CBF5068586007D35168101923
:1003E00041601168091B016058601460101D70BDE8
:1003F00013465268002AE7D12146284600F08CF9BE
:100400000028DED170BD70B50446051F00F07CF9F0
:100410000068002C14BF446870BD002C18BFAC42AB
:100420003CBF20466468F8D301680A18AA4218BF86
:10043000456003D12A6805461144016028684119C6
:10044000A1421CBF6C6070BD61686960216808448E
:10045000286070BD53EA020C00F069802DE9F04B72
:100460004FF00006002B1FBFB3FA83F503FA05F423
:1004700024FA05F65E4012BF1643B2FA82F502FA7C
:1004800005F4C5F120051EBF22FA05FC44EA0C0460
:10049000203556EA044C4FEA144418BF641C4FF050
:1004A00000084FF00009904271EB030C39D300298A
:1004B00019BFB1FA81F701FA07F6B0FA80F700FA2E
:1004C00007F6C7F120071EBF20FA07FC46EA0C0614
:1004D0002037B6FBF4FCA7EB0507103F07F01F0B16
:1004E000CBF120060CFA0BFB2CFA06F644BFB34600
:1004F0000026202FA4BF5E464FF0000B5BEA060CDF
:1005000008BF4FF0010B19EB0B09ABFB027C48EB6A
:100510000608C01B06FB02CC0BFB03CC71EB0C01E5
:10052000C1E70B46024641464846BDE8F08B13B58D
:100530004FF000004FF00001AFF30080BDE81C4019
:10054000704700000B4910B5A1F17C020A4CC2E9CA
:100550003712372106E000EB104342F82130074BF9
:1005600000FB03400B1EA1F10101F4DC10BD0120D2
:10057000E8E7000030560020E119D666CD0D0100F5
:10058000032A40F2308010F0030C00F0158011F8BF
:10059000013BBCF1020F624498BF11F801CB00F897
:1005A000013B38BF11F8013BA2F1040298BF00F8EB
:1005B00001CB38BF00F8013B11F0030300F02580A8
:1005C000083AC0F0088051F8043B083A51F804CBCF
:1005D000A0E80810F5E7121D5CBF51F8043B40F895
:1005E000043BAFF30080D20724BF11F8013B11F8A0
:1005F00001CB48BF11F8012B24BF00F8013B00F8E4
:1006000001CB48BF00F8012B704710B5203AC0F06D
:100610000B80B1E81850203AA0E81850B1E8185003
:10062000A0E81850BFF4F5AF5FEA027C24BFB1E840
:100630001850A0E8185044BF18C918C0BDE81040B1
:100640005FEA827C24BF51F8043B40F8043B08BFBA
:100650007047D20728BF31F8023B48BF11F8012B81
:1006600028BF20F8023B48BF00F8012B70474FF02D
:1006700000020429C0F0128010F0030C00F01B806F
:10068000CCF1040CBCF1020F18BF00F8012BA8BF7D
:1006900020F8022BA1EB0C0100F00DB85FEAC17C41
:1006A00024BF00F8012B00F8012B48BF00F8012BF4
:1006B00070474FF0000200B5134694469646203925
:1006C00022BFA0E80C50A0E80C50B1F12001BFF40B
:1006D000F7AF090728BFA0E80C5048BF0CC05DF871
:1006E00004EB890028BF40F8042B08BF704748BFBF
:1006F00020F8022B11F0804F18BF00F8012B704733
:10070000704770477047000000487047A0560020AF
:10071000704770477047704738B504460A46002056
:100720006946AFF30080002808BF38BD0246009933
:10073000204600F04FF8012038BD012000F064B8D9
:10074000F8B5AFF30080054600200C46102000BF2E
:100750000646A819A0420DD9324669460020AFF3DB
:100760000080070008BF00F04FF80098A04218BFB3
:100770000546C419FFF7C8FF05600746F01D20F0C5
:1007800007004619284600F00AF8B44208BFF8BD31
:10079000A21B31463868BDE8F84000F01BB80021C4
:1007A0000160C0E9011070471020704710B500F0DB
:1007B0000DF8006810BD10B5044600F007F804609D
:1007C00010BD000000487047985600200048704750
:1007D00098560020034640688C46002818BF88427F
:1007E0003CBF03464068F8D318681844884207D0D5
:1007F0000CF1030020F00700001D411A521A0146B7
:10080000081D0A60FFF7FFBD10B500F039F8BDE81C
:10081000104000F02FB870477546FFF7D3FFAE4683
:1008200005006946534620F00700854618B020B5FC
:10083000FFF7A8FDBDE820404FF000064FF000078D
:100840004FF000084FF0000B21F00701AC46ACE878
:10085000C009ACE8C009ACE8C009ACE8C0098D46E5
:10086000704710B50446AFF300802046BDE8104045
:10087000FFF7F9BC002801D000F02AB8704700004B
:1008800010B5012805D0002103A000F027F80120B1
:1008900010BD09A1F8E7000053494752544D454D9A
:1008A0003A204F7574206F662068656170206D6511
:1008B0006D6F7279000000003A2048656170206D0C
:1008C000656D6F727920636F727275707465640004
:1008D00001491820ABBEFEE72600020070B50546B0
:1008E0000C460A2000E06D1C00F011F835B12878A4
:1008F0000028F8D102E0641C00F009F814B1207857
:100900000028F8D1BDE870400A20AFF3008008B598
:1009100069468DF800000320ABBE08BD704700009B
:10092000464910B54A6822F440324A604A68436832
:100930001A434A6001684A6822F480724A6001687A
:100940004A68036942EA03224A6001684A6822F061
:1009500040724A6001684A6883681A434A600168C5
:100960008A6822F400628A6001688A68C3681A4350
:100970008A60816A6FF07062D14201688A6822F0F1
:1009800070628A6001688A680CD0836A1A438A6040
:1009900001688A6822F040528A6001688A68C36AE6
:1009A0001A4301E022F040528A6001688A6822F00E
:1009B00002028A6001688A68037E42EA43028A6012
:1009C00090F82010002901684A680FD042F40062B4
:1009D0004A6001684A6822F460424A6001684A68D5
:1009E000174C436A04EB43331A4301E022F40062DC
:1009F0004A600168CA6A22F47002CA620168CA6A5F
:100A0000838B104C04EB03531A43CA6201688A6853
:100A100022F400728A6001688A6890F8303042EAF5
:100A200043228A6001688A6822F480628A600168D1
:100A30008A68406942EA8020886010BD0023014036
:100A400000E0FFFF0000F0FF0548417C002906D0D0
:100A5000002141730348C17921F04001C171704701
:100A600070070020E407002030B50C4605000CD0CC
:100A7000022C0AD90548A11E0288284602F090FAE5
:100A8000291901F8020D000A487030BD7C080020C9
:100A900030B50C4605000AD0022C08D9601E81B280
:100AA000FF22284602F092FA291901F8010C30BD04
:100AB0002DE9F04116462DED0A8B0F468046B3F91D
:100AC0000030DDE9131000EE103ADDE91152F8EEC6
:100AD000C00AFE4CDDF840C0C4ED0E0ABCF900307F
:100AE00000EE103AB8EEC00A84ED0F0AB5F90030F6
:100AF000032593FBF5F31BB203EB430300EE103A1F
:100B0000B8EEC00A84ED100AB2F9002000EE102AF7
:100B1000B8EEC01A84ED111AB1F9001000EE101AE7
:100B2000B8EEC00A84ED120AB0F9000021EE000A06
:100B300001EE900AF8EEE11AC4ED131A20EE210A34
:100B4000B5EEC00AF1EE10FA7DD0E14D297B9FEDA4
:100B5000E18AFDEEE00AB0EE480A10EE900A00B21B
:100B600009F06CFD84ED0E0AD4ED0F0A297BB0EE7E
:100B7000480AFDEEE00A10EE900A00B209F05EFDB0
:100B800084ED0F0AD4ED100A297BB0EE480AFDEE81
:100B9000E00A10EE900A00B209F050FD94ED0E1A32
:100BA000DFEDCD0A21EE201A20EE200A84ED0E1A88
:100BB00094ED0F1A21EE201A84ED0F1A84ED100A1D
:100BC000D4ED110A297BB0EE000AFDEEE00A10EE2A
:100BD000900A00B209F046FD84ED110AD4ED120A24
:100BE000297BB0EE000AFDEEE00A10EE900A00B29A
:100BF00009F038FD84ED120AD4ED130A297BB0EE1A
:100C0000000AFDEEE00A10EE900A00B209F02AFD9B
:100C1000F0EE400AC4ED130A94ED110A94ED121A95
:100C200020EE000A01EE010A00EEA00A09F0B2FB74
:100C300084ED070AD4ED110A60EE802AC4ED112A72
:100C4000D4ED120A00E05CE160EE804AB0EE008A6A
:100C5000C4ED124AD4ED130A20EE803A84ED133A23
:100C600094ED040AD4ED060AD4ED031A94ED051AA6
:100C700020EE202A01EEC12A22EE084A21EE802A27
:100C800084ED084A01EE202A22EE085A21EEA12A1C
:100C900084ED095A00EE402A01EE412A00EEA02A16
:100CA00084ED0A2A64EE823A43EE453A23EE043A92
:100CB00002EEC23A62EE852AC4ED0B3A44EEC42A33
:100CC00084ED0C3AC4ED0D2A94ED142A94ED015AEA
:100CD00003EE852A84ED142A94ED154A03EE054AA5
:100CE00084ED154AD4ED164A42EE854AC4ED164A03
:100CF000D4ED0E5A94ED005A45EE235A35EE822A71
:100D000084ED0E2AD4ED0F3A45EE033A33EE843AE1
:100D100020EE424A84ED0F3AD4ED103A01EE434AF8
:100D200061EE835A45EE223AB0EE615A73EEA42A80
:100D300061EE824AC4ED102AC4ED171A41EE224A30
:100D400084ED180A00EEE24A84ED191AC4ED1A0A7D
:100D5000D4ED023A40EEC34A40EE625A04EE235A02
:100D6000B0EE404A04EEA34A40EE825A84ED035AA4
:100D700084ED044A61EEA21AF0EE414A45EEA34A20
:100D800040EE031A25EE050AC4ED054A04EE040AF6
:100D900041EE421A04EEA40A41EEA30AC4ED060A8B
:100DA00000EEA00A09F0F6FA84ED070AD4ED030A72
:100DB00020EE80BA84ED03BAD4ED040A60EE808A96
:100DC000C4ED048AD4ED050A20EE809A84ED059ADC
:100DD000D4ED060A60EE809A2BEE0B0AC4ED069A5B
:100DE00008EEE80A09EE490A09EEA90A10EE100A0F
:100DF0000DF03CFB29EE080A6BEE080A41EC1A0BD9
:100E000020EE290A00EEA80A10EE100A0DF02EFBC3
:100E100041EC100BB0EE4A1AF0EE6A1A07F0ACF88B
:100E20009FED2EBB51EC100B53EC1B2B0DF05EF81D
:100E30000CF000FE386094ED040AD4ED060A94ED3F
:100E4000051A20EE080A20EE200AD4ED030A60EE0F
:100E5000880A00EEC10A10EE100A0DF007FB41EC03
:100E6000100B06F06DFD9FED1F1B51EC100B53ECAA
:100E7000112B0DF03BF80CF0DDFDC8F8000094EDEF
:100E800003CAD4ED048AD4ED05AA2CEE0C0A94ED25
:100E900006AA08EEA80A0AEEEA0A0AEE4A0A10EEC4
:100EA000100A0DF0E3FA28EEAA0A41EC190B0CEE39
:100EB0000A0A20EE080A10EE100A0DF0D7FA41ECEB
:100EC000100BB0EE491AF0EE691A0FE01C0000207A
:100ED000680B00200000FA44728A8E3C000000601B
:100EE00066A64C400000006066A64CC007F044F8BF
:100EF00053EC1B2B51EC100B0CF0F8FF0CF09AFD8F
:100F000030600020BDEC0A8BBDE8F0812DE9FE4F7A
:100F10001546DDE90C9A0E4607460C221C4669462A
:100F2000104604F08DFEBDF80080BDF802C0BDF88B
:100F30000430BDF80620BDF80810BDF80A00A4F87A
:100F40000080A9F800C0AAF800303A8031802880DB
:100F5000BDE8FE8F38B5194807F008FE07F07AFAA9
:100F6000164807F03BFA044607F074FA24BB012048
:100F70008DF800000146114A684607F085FE07F02B
:100F800069FA0E4805F06AFC00208DF800000B4A53
:100F90000121684607F078FE07F05CFA074805F083
:100FA00033FC02208DF80000044A0121684607F056
:100FB0006BFE044607F04EFA204638BD680B002051
:100FC000FEE7000000B58BB0684600F040F96946C6
:100FD000054802F0B9F90221034802F03FF902483E
:100FE00002F0CAFC0BB000BD2C140020014802F036
:100FF000A6BA00002C14002070B50D4CA0F50072AC
:10100000063A0DD0A0F50072013A10D104F1540057
:10101000226E05469047616E2846BDE8704008473D
:101020000348626C383005469047A16CF4E770BD08
:101030004402002000B58BB0684600F008F969460C
:10104000054802F081F90221034802F007F902483D
:1010500002F092FC0BB000BD54140020014802F0D5
:101060006EBA00005414002070B50D4CA0F500724B
:10107000013A0DD0A0F50072053A0FD104F11C0021
:10108000A26A05469047E16A2846BDE870400847D5
:10109000E2680348904702482169F6E770BD000006
:1010A00044020020008840BA7047408840BA00B22D
:1010B0007047808840BA00B27047808840BA00B25A
:1010C00070478079704713B5012201A900F00EF82E
:1010D0001CBD08B50A0A8DF800208DF80110022207
:1010E000694600F003F808BDAFF300802DE9F04138
:1010F0000446407815460E4628B1012825D1144AE9
:10110000A168106808E0124A1C3AF9E703688B42AC
:1011100001D118B106E080690028F7D121461046B8
:1011200000F052F8227B58B1002107E05318082B39
:1011300006D2775C0344491C1F71C9B2A942F5D39A
:10114000E18982898A4200D98181BDE8F08100006D
:10115000440900200822FFF7C9BF08B50A0E8DF820
:1011600000200A0C8DF801200A0A8DF802208DF863
:10117000031004226946FFF7B9FF08BD2DE9F041CD
:1011800005001AD00E4C0F4F287E002815D0284697
:1011900000F08CF8064609F0ADFA20603968401A74
:1011A000606009F0A7FAE168401AA06009F0A2FAAD
:1011B000E060304600F0EEF8E6E7BDE8F0810000C0
:1011C00000000020B00700202DE9F04105680F461F
:1011D00004460026F5B10FB91CE00546A8690028B1
:1011E000FBD11C2009F05AFDA861B9680160A9690A
:1011F000F8898881A86906610020011DAA69401C40
:10120000C0B256540828F8D3A8698661A869446119
:10121000A86917E01C2009F041FD2060B968016051
:101220002168F8898881206806610020011D2268F4
:10123000401CC0B256540828F8D320688661206844
:10124000446120682179491C2171BDE8F0810021A9
:10125000016041608160C160016101224161C0E9BA
:101260000612C0E90821704770B505004FF000066E
:1012700018D02879B0B12C6812E000BF09F03AFA12
:101280002169411AA08900EB4002C2EBC010B1EB0A
:10129000C00F04D32146284600F01FF80126A46998
:1012A000002CEBD1304670BD00F052B810B50022D2
:1012B00088B1017E79B1D0F80820002100EB8103CC
:1012C000491CDC68C9B29C600329F7D30021416145
:1012D000017E491E0176104610BD012250B149B170
:1012E000037E042B06D200EB83029160017E491C31
:1012F000017600221046704710B5124A01689142EB
:101300000DD1114B00211C46A3F11C0202F0A3F8E1
:101310000D4821461C380068FFF76EFE10BD0B4AD1
:101320009142FBD1084B002124331C46A3F11C023F
:1013300002F091F80448214608300068FFF794FE57
:1013400010BD0000006400407C09002000680040DF
:1013500000B5034687B09A680092002201200292ED
:101360000392082204925A7852B1012A06D10A4601
:10137000064806AB694600BF01F082FF07B000BD1A
:101380000A4606AB69460248F6E7000054140020FE
:101390002C14002030B587B004004FF0010521D097
:1013A0000BF016FF206800900020029003900820A8
:1013B00004900E496069884204D106AB221D69463B
:1013C0000B4807E009491C31884206D106AB221DB3
:1013D0006946084801F054FF054609F08BF9206181
:1013E0000BF016FF07B0284630BD0000280900208A
:1013F0002C14002054140020114910B5A1F1400212
:10140000012090700F4A01F18404127A022A0CD054
:1014100000F062FC207B002810D105F09DF800F060
:1014200015F8BDE8104000F0ADB9054B00229FED66
:10143000060A83F8702081ED000A207310BD0000B9
:10144000780400208A0000200000000010B504F09D
:1014500073FA2349A1F1BA008B7F2BB10222012B31
:1014600003D0022B02D100E0012242700A7E1AB1A1
:10147000BDE8104000F03AB8CA7E5ABB8A7E1AB165
:10148000BDE8104000F054B8497ED9B91549096843
:1014900091F84610490708D4134940F22623B1F9C0
:1014A0001410A1F132029A4203D2BDE8104000F0BC
:1014B000A3BBB1F5167F0DDA407838B1012809D009
:1014C00002280BD1BDE8104000F0FAB9BDE8104089
:1014D00000F024BABDE8104000F07AB810BD00005A
:1014E000FC040020B00300208A0000200F490122E4
:1014F000084680F8702084300069C31700EB9370B1
:10150000801000EE100AA1F14000B8EEC00A81ED93
:101510000E0A0378383103B90270437803B9427078
:10152000B6EE000A81ED040A70470000780400203E
:10153000214910B5A1F138000346002283F870203C
:1015400000F18402044692F91C2094ED000A531C19
:10155000F1EE040A04D0012A05D090ED000A06E05D
:1015600030EE600A01E030EE200A80ED000A10EE55
:10157000102A124B9A4202DD9FED110A06E010EE8E
:10158000102A104B9A4201D99FED0F0A0A4A80EDAA
:10159000000A783A9FED0D0A1478012314B91370EC
:1015A00080ED000A547814B9537080ED000AB6EE4D
:1015B000000A81ED040A10BDB00400200000FA45C5
:1015C0000000FA450000FAC50000FAC5000000005E
:1015D00030B52A49012081F870002948026801F1DC
:1015E000380040390B782BB100230B7090ED010AC5
:1015F00080ED000A91ED090A81ED0C0A90EC021AC7
:1016000071EEC10AF5EEC00AF1EE10FA01DC71EEDE
:10161000610A1A491B4D10EE904A1B4BDFED1B0A65
:101620008431AC4218DB147BB4B912E000EE101A1E
:10163000B8EEC00A06E000BF10EE101A994201D9B8
:10164000B0EE600A80ED000A9FED110A80ED040AF9
:1016500030BD527B002AF7D0B8EEC00A80ED000AF8
:10166000096901F57A6101EE101AB8EEC11AB4EEFB
:10167000C10AF1EE10FADFDDD8E70000780400209F
:10168000CC02002000007A4500007AC500007AC52F
:10169000CDCCCC3E10B500F05DF80C48007830B1F0
:1016A00001280CD0022805D0032806D007E000F05E
:1016B00033FA04E0FFF7A0FE01E000F0A7F800F025
:1016C000EFF9BDE8104000F075B9000042040020B9
:1016D0001E4810B502680021012392F850401C48B2
:1016E000072C0AD06B2C07D1B2F8A1406A2C03D189
:1016F000B2F8A3406B2C08D010BDB2F8A140062C64
:10170000FAD1B2F8A340072CF6D192F8A540042CE8
:1017100007D0082C12D0102C07D0202C417610D0E6
:1017200000E043760176817602E0417601768376A9
:1017300080F81B1092F8A610017710BD4176037651
:10174000F1E701768176C376F4E70000B00300206C
:10175000FC04002000B500F007F8FFF7B9FF5DF8C2
:1017600004EB00F07DBA000004480178044819B188
:10177000022901D0032900D101707047A50700207C
:101780004204002070B50E480024012503680D486E
:10179000A0F1C4011E7BCA791EB112B1CC710575CE
:1017A00005E05B7B2BB122B1CC71FF210175857502
:1017B00070BD002EFCD1002BFAD1CD71847570BDA7
:1017C000CC020020FC0400200F480F4A0068843A35
:1017D00041681160111D0860091D0068086002F170
:1017E0009000012101730021FF2201610275A0F127
:1017F000840282F870100176017781764176C17695
:101800004177817570470000F004002030B526480C
:1018100001220468254800F1380180F8702024482E
:10182000037AA1F17800022B03D08270017881B392
:1018300034E08578002325B191ED010A81ED000A9D
:1018400083701C4DB1EE081A2D68B5F9045000EEF6
:10185000105AF8EEC00A80EE810AD1ED000A30EE8F
:10186000200A81ED000A257B35B1047A002CDDD0F9
:101870000372DFED110A07E0647B5CB1447A002C4F
:10188000D4D04372DFED0D0A30EE200A81ED000A5C
:10189000CCE702E002724272C8E702704178002988
:1018A00000D1427030BD0000CC020020780400203E
:1018B0008A000020A400002000803B4500803BC53A
:1018C00070B5FEF737FD40F6C51590FBF5F105FB49
:1018D0001100114C00F2DC5080B2A18B491C89B27E
:1018E000A18381420BD2E08B28B1012810D1BDE841
:1018F0007040FFF76DBEBDE8704000F00FB80026E5
:10190000A683FEF717FD90FBF5F0E08B08B1E683A8
:1019100070BD0120E08370BD38040020214810B55F
:10192000012280F87020383000F14C019FED1E1A22
:1019300091F914305C1C02D0012B03D00BE080ED38
:10194000001A08E00B6903F57A6300EE103AB8EE6E
:10195000C00A80ED000A096990ED000A01F57A617C
:1019600000EE901AF8EEE00AB4EEE00AF1EE10FA9A
:1019700004DD00EE101AB8EEC00A06E010EE101AF0
:101980000A4B994201D9B0EE410A064980ED000A9E
:1019900040390B7803B90A709FED050A80ED040AFF
:1019A00010BD00007804002000007AC500007AC550
:1019B000CDCCCC3E2DE9F041264D95F8700010B10C
:1019C000012819D102E00021224813E0214C002611
:1019D00004F1380094ED0E0AD4ED0F0A30EE600ADF
:1019E00084ED100A0BF03AFA94ED180A314684EDB2
:1019F000000A204600F0ECF816488430807D01286B
:101A000003D19FED150A85ED1D0A124E0024A6F1A3
:101A100008073D1F57F82400007E01280AD055F81A
:101A20002400002182699047641C14F0FF04F1D067
:101A3000BDE8F081C4EB041006EBC00090ED1D0A78
:101A4000BDEEC00A10EE100A81B255F8240082697A
:101A5000E9E7000078040020000000002DE9F041D3
:101A60000E462DED028B074600259FED0C8A0EE0F9
:101A7000C5EB051007EBC004204608F055FF04F144
:101A8000380008F051FF6D1C84ED1D8AEDB2B5429F
:101A9000EED3BDEC028BBDE8F08100000000000039
:101AA000194910B5174A0B7EA2F1400033B3012B40
:101AB0001BD1096801248B7DB4EB131F02D19FED6C
:101AC000130A10E0B1F873103C290AD200EE101A84
:101AD000DFED0F0AB8EE400A80EE201A80ED081AFA
:101AE00003E0B7EE000A80ED080A90ED080ADFED8A
:101AF000090A20EE200A82ED0D0A10BDB6EE000A9A
:101B0000F1E7000078040020B00300209A99993E84
:101B10000000704200A08C4610B5144C00209FEDD0
:101B2000151A84F8700012480068B0F9040000EE3D
:101B3000100AF8EEC00A80EE810ADFED0F0AB3EE5C
:101B4000041A20EE200AD4ED000A04F0E8FCA4F107
:101B5000400084ED000A01218170027802B9017011
:101B60004278002A00D1417010BD000078040020A6
:101B7000A40000200000254400A00C462DE9F041FF
:101B8000114D00242DED028B26469FED108AA5F104
:101B90000C0700BFC4EB041005EBC000314680ED1C
:101BA0001D8A57F8240082699047641C14F0FF04D2
:101BB000F0D001210448FFF751FFBDEC028BBDE8D6
:101BC000F041FFF7C7BD00007804002000000000CE
:101BD00010B5C1EB011100EBC104204694EC020AE0
:101BE00030EE600A84ED020A0BF038F994ED0A0A2F
:101BF00084ED1D0A10BD000070B5134C0125A4F141
:101C0000380080F87050843000690CF045F99FED81
:101C10000F1B53EC112B0CF069F99FED0E1B53ECCD
:101C2000112B0CF063F90BF005FF2060A4F1780094
:101C3000017801B90570417801B94570B6EE000A26
:101C400084ED040A70BD0000B00400200000000014
:101C500000000840000000000000D03F7047000076
:101C60001B480068B0F902001A4900EE100A184833
:101C7000B8EEC00A001D00F1840280ED010A096877
:101C8000B5EEC00AD1ED010A0021F8EEE00AC0ED80
:101C90000F0A4038F1EE10FA0AD20171C3785B1CCA
:101CA000DBB2C3700A2B02D1FF235375C17070479A
:101CB000B5EEC00AC170F1EE10FA07DD03795B1CC6
:101CC000DBB203710A2BF2D1012353750171704706
:101CD00074040020CC020020F0B5294901F18400F1
:101CE000027B002A20D00A460027A0F1C403264E1A
:101CF00082F8707093F806C001259FED220AAC1E91
:101D00003268BCF1000F10D0BCF1010F17D0BCF14C
:101D1000020F20D0BCF1030F06D1527B32B39FEDEE
:101D20001B0A047581ED000AF0BD127B1AB181ED2A
:101D3000000A9D71F0BD04759FED150AF2E7127B54
:101D40001AB105759FED130AECE781ED000A3068C2
:101D50004760022004E0527B22B181ED000A03209B
:101D60009871F0BD05759FED0C0ADBE781ED000A67
:101D70003168496801619F7107730475F0BD000007
:101D80007804002000000000CC0200200000C8C23F
:101D900000007AC40000C84200007A4400210148D3
:101DA00001F084BE7C14002010B5124C20688168BC
:101DB0008847606881688847A06881688847E069CB
:101DC00081688847206A81688847606A8168884797
:101DD000A06A81688847E0688168884720698168CF
:101DE0008847606981688847A0698168BDE81040BC
:101DF000084700000001002070B50D46064601EBC3
:101E00004500C0EB451006EB800404F1380094ED6A
:101E10000E0AD4ED0F0A30EE600A84ED100A0BF0C2
:101E20001DF894ED180A294684ED000A3046BDE8F5
:101E3000704000F02BBA0000134930B40220487003
:101E4000124804250023847D01F1880001223839DD
:101E5000B5EB141F12D182734C88641CA4B24C8061
:101E6000B4F5FA6F03D24373827430BC7047837445
:101E700040F2D170488030BC04F01CBD8274837382
:101E800043734B80F1E70000E8060020F4020020D5
:101E900010B500F055F80F48007820B1022805D0A1
:101EA000032806D007E000F06BF904E0FFF7C4FF59
:101EB00001E000F075F8FEF7C7FD04F00BFC04F03C
:101EC00005FF00F0B9F800F0FBF8BDE8104000F0A5
:101ED000A7BC0000E8060020F0B516480026012740
:101EE00001681648144A91F85050C479072D44F0FF
:101EF000100324F0100410D06B2D0DD1B1F8A150B7
:101F00006A2D09D1B1F8A3506B2D05D191F8A51018
:101F100001290BD05674C471F0BDB1F8A150062D43
:101F2000FAD1B1F8A350072DF0D0F0BD5774C371AA
:101F3000F0BD0000B003002070070020E40700207F
:101F400000B500F007F8FFF7C7FF5DF804EB00F0FD
:101F500019BA000004480178044819B1022901D0D7
:101F6000032900D101707047A5070020E806002072
:101F70000A480A4A0068883A41681160111D0860E1
:101F8000091D00680860002102F1940001224173DC
:101F9000817341748274C174C173704764070020F7
:101FA0002DE9F0412049022001F188054870002701
:101FB0001E48AF74EA7BB0F914104FF41673012673
:101FC0003AB11B489942C27929DB6E7342F0400155
:101FD00028E0154C383C11F5167F207804DC18B148
:101FE0001448067027700AE0994207DB30B10021DF
:101FF000084600F009FC6670277003E026706078E0
:1020000000280AD02089401C80B22081B0F5FA7FD8
:1020100003D940F2F5102081EE73BDE8F0816F73B3
:1020200022F04001C171F8E7E80600208A00002094
:10203000E4070020100000200948C07C08B100F02F
:102040003BB907488838407828B1012805D00228D4
:1020500005D100F0C1B800F005B800F065B97047CF
:1020600070070020124910B58C78002001F1080398
:1020700001F1880264B1517B002908D0507393EDBF
:102080000E0ADFED0C0A30EE200A83ED0E0A10BDB9
:1020900001248C70C87008719FED070A074983ED11
:1020A0000E0A83ED0F0A0968C860507310BD000066
:1020B000E806002080FB0F470000000044020020DB
:1020C0002DE9F0411D48C07C20B91C488838407873
:1020D00002281BD0194800218038FFF78DFE174ECB
:1020E0000024803EA6F11007B7F1040557F824003C
:1020F000007E012810D055F8240000218269904705
:10210000641C14F0FF04F1D0BDE8F0810B480021FD
:10211000803800F0BBF8E2E704EB4400C0EB441069
:1021200006EB800090ED1C0ABDEEC00A10EE100A0E
:1021300081B255F824008269E1E7000070070020B1
:102140002DE9F0410E462DED028B074600249FED50
:102150000B8A0CE004EB4400C0EB441007EB800555
:10216000284608F0E1FB641C85ED1C8AE4B2B44209
:10217000F0D3BDEC028BBDE8F08100000000000050
:1021800070B5124902200022487001F18800827463
:10219000C17B61B10E4C0F490125B4F91460CB79B4
:1021A000B6F5167F05DB457343F0400304E0827308
:1021B00070BD427323F04003CB71217A012902D014
:1021C0000229F4D070BD857370BD0000E8060020C0
:1021D0008A000020E40700200F4802799FED0F0AD3
:1021E00000F1080162B90122027100228270C270FE
:1021F00042710B4881ED0E0A81ED0F0A0068C26042
:1022000005488830407B18B10348383890ED040AFF
:1022100081ED000A70470000E80600200000000081
:10222000440200202DE9F041164D00242DED028BD3
:1022300026469FED158AA5F1140700BF04EB440064
:10224000C0EB441005EB8000314680ED1C8A57F846
:10225000240082699047641C14F0FF04EED0094802
:102260008030C07B18B10021084600F0CDFA012172
:102270000448FFF765FFBDEC028BBDE8F041FFF7B6
:102280005FBE0000F00600200000000010B501EB6A
:102290004102C2EB411100EB8104204694EC020A9A
:1022A00030EE600A84ED020A0AF0D8FD94ED0A0AC5
:1022B00084ED1C0A10BD000030B516494B79002092
:1022C00001F108026BB901234B71C8708870087165
:1022D0009FED110A114982ED0E0A82ED0F0A09687D
:1022E000C8600C4C8834A4F1C001E57C4B8945B131
:1022F0003BB992ED0E0ADFED0A0A30EE600A82ED7C
:102300000E0A5B1C9AB24A81C82A01D94881E0743E
:1023100030BD0000E806002000000000440200205C
:1023200080FB0F4770470000124910B5CC780020A1
:1023300001F1080301F1880264B1517B002908D042
:10234000507393ED0E0ADFED0C0A30EE200A83ED98
:102350000E0A10BD0124CC70087188709FED070A29
:10236000074983ED0E0A83ED0F0A0968C8605073B0
:1023700010BD0000E806002040F9D747000000002B
:102380004402002009480168B1F9020000EE100A79
:102390000648B8EEC00A0C3080ED010AC96800EEAC
:1023A000101AB8EEC00A80ED0F0A7047E40600204C
:1023B000014801F005BC0000FC160020014801F0B6
:1023C000FFBB00003C160020014801F0F9BB0000F3
:1023D0009C160020014801F0F3BB00001C180020EF
:1023E000014801F0EDBB00005C170020014801F03E
:1023F000E7BB0000BC1700202DE9F04F85680024E2
:10240000099E802D18D0894DC563894D456490F88B
:102410003450012D15D0012580F8345090F83550F6
:10242000012D10D0002180F834100224002180F802
:1024300034102046BDE8F08F4FF4807141650120D3
:10244000F8E70220F6E7022580F8355000254565BB
:1024500005682F6847F480272F6005682B610368A3
:102460005E608368402B03682AD099600168CA6067
:10247000714D704E704FDFF8BC81DFF8B891DFF816
:10248000B8A1DFF8B4B1EA14DFF8A8E101681836A2
:1024900030379302A9F148090AF1600A0BF1180BD1
:1024A000AEF1300E4FF0006C41452DD9A94205D058
:1024B000494503D0514501D0B14205D1202220E049
:1024C0009A600268D160D3E759451AD0714518D097
:1024D000594D7835A94214D0564D3035A94210D007
:1024E000B9420BD0534A183A914207D0524A90321F
:1024F000914203D04F4A4832914201D11A4600E03E
:1025000062464C494C392EE0DFF82C8108F1A808CE
:1025100041452AD9A94205D0494503D0514501D0AA
:10252000B14201D120221CE059451AD0714518D082
:10253000414D7835A94214D03E4D3035A94210D0D6
:10254000B9420BD03B4A183A914207D03A4A9032EE
:10255000914203D0374A4832914201D11A4600E0F5
:102560006246344950390A605AE0DFF8CC8008F1FD
:10257000480841452AD9A94205D0494503D05145CB
:1025800001D0B14201D120221CE059451AD0714539
:1025900018D0294D7835A94214D0264D3035A9429E
:1025A00010D0B9420BD0234A183A914207D0224AA0
:1025B0009032914203D01F4A4832914201D11A46CB
:1025C00000E062461C491039CA6029E0A94205D0E2
:1025D000494503D0514501D0B14201D120221CE030
:1025E00059451AD0714518D0134D7835A94214D0E9
:1025F000104D3035A94210D0B9420BD00D4A183ACF
:10260000914207D00C4A9032914203D0094A483295
:10261000914201D11A4600E06246074910398A60AA
:1026200001680A6842F001020A60FFE69992000818
:10263000B1920008586402401060024001681823FB
:10264000CAB2103AB2FBF3F2054B6FF30901032A49
:102650009B5CC36500D9091D816508467047000071
:102660009009010810B5014600208B698A6A4FF075
:10267000C07453B1B3F5005F15D072B1012A0CD00C
:10268000022A0AD0032A09D104E01AB1012A06D08D
:10269000022A03D1C96AC90100D5012010BDC96A47
:1026A000A142FAD010BD002AF7D0012AF2D0022AA6
:1026B000F3D0032AF3D010BD30B50468256825F4A3
:1026C00080252560046863608368402B036803D01D
:1026D00099600068C26030BD9A600068C16030BD1A
:1026E00070B590F834500024012D0CD0012580F8ED
:1026F000345090F835600025012E06D080F8345013
:102700000224204670BD022070BD022680F835608C
:10271000456505682E6826F480262E6005686B6086
:102720008368402B036808D099600168CA6000681C
:10273000016841F001010160E3E79A600268D1603D
:10274000F5E710B503F09EFD00F020F8FEF7E6F87F
:10275000FFF724FB04F05EFE04F086FE04F0B0FEFA
:1027600004F0D8FEFEF72EFCFEF764FCBDE8104036
:1027700003F06AB901680A68D20604D5C968C906B7
:1027800001D50AF017BC70477047000010B5002152
:10279000044802F013FABDE810400421014802F099
:1027A0000DBA00009C14002030B50446007820B318
:1027B000134B4FF448755888B0F57A6F04D2284609
:1027C000294600F021F815E040F6A17058801888DD
:1027D000C0F5487001B2084600F016F81888401C91
:1027E00080B21880A84205D9002018805880207037
:1027F000012030BD5888401C5880002030BD0000AA
:102800001200002070470000044A00F57A70106042
:10281000101D01F57A71016070470000340400401A
:1028200010B5104CE07B00281BD003F0F9FEA17B13
:10283000A4F1C00011B190ED050A01E09FED0A0A74
:102840000A4A80ED030ABDEEC00A10EE100A10EE2F
:10285000101A00B2108009B25180BDE81040FFF795
:10286000D3BF10BD7007002000000000B807002093
:1028700010B501EB4102C2EB411100EB810404F100
:10288000380094ED0E0AD4ED0F0A30EE600A84EDA4
:10289000100A0AF0E3FA94ED180A204684ED000AC3
:1028A000D4ED010A30EE600A84ED020A0AF0D6FA8D
:1028B00094ED0A0A84ED1C0A10BD000070B5294D84
:1028C000294E2879A6F1500430B3687908B1002068
:1028D000687196ED0F0AD4ED0A0A30EE600A84EDB5
:1028E000030A96ED2C0AD4ED0B0A30EE600A84ED53
:1028F000040A04F06DFE95ED070AD4ED030A30EEEC
:10290000C00A84ED080A95ED080AD4ED040A30EEF9
:10291000200A84ED090A03E003F0C2FC04F0FCFE87
:1029200094ED080A114910EE100A884202DD9FED6D
:10293000100A06E010EE100A0E49884201D99FEDF8
:102940000E0A84ED080AD4ED0A0A30EE800A86EDFC
:102950000E0A94ED0B0AD4ED090A30EE200A86ED3A
:102960002B0A70BD540F0020880500200080DA4338
:102970000080DA43008020C4008020C410B500F03D
:1029800047F800F099F90C48007830B101280CD0D4
:10299000022805D0032806D007E000F027F904E05C
:1029A000FFF78CFF01E000F069F800F0C3F8BDE824
:1029B000104000F089BA00003E050020124810B512
:1029C00000680022012390F850401049072C0FD0D6
:1029D0006B2C0CD1B0F8A1406A2C08D1B0F8A34000
:1029E0006B2C04D190F8A50002280AD04A7310BDC0
:1029F000B0F8A140062CFAD1B0F8A340072CF1D0D2
:102A000010BD4B7310BD0000B003002080060020F5
:102A100010B500F007F8FFF7D1FFBDE8104000F057
:102A20006BBA000005480178054829B1012903D097
:102A3000022901D0032900D101707047A5070020A9
:102A40003E0500200C49A1F58072086843681360B8
:102A500049684B6853600832C2E9000102680648C1
:102A6000F038026009684160034900201031487362
:102A7000C8810882704700007006002070B5274D9D
:102A8000274E2879A6F1500428B3687908B10020B0
:102A9000687196ED0F0AD4ED0A0A30EE600A84EDF3
:102AA000050A96ED2C0AD4ED0B0A30EE600A84ED8F
:102AB000060A04F08DFD95ED070AD4ED050A30EE07
:102AC000C00A84ED080A95ED080AD4ED060A30EE36
:102AD000200A84ED090A94ED080A124910EE100A42
:102AE000884202DD9FED100A06E010EE100A0F4941
:102AF000884201D99FED0E0A84ED080AD4ED0A0A36
:102B000030EE800A86ED0E0A94ED0B0AD4ED090A28
:102B100030EE200A86ED2B0A70BD0000540F002015
:102B2000880500200080DA430080DA43008020C45A
:102B3000008020C42DE9F04100211B48FFF798FEDA
:102B400001211948FFF794FE17480024064690ED2E
:102B50001C0AA0F11007A0F11805B1EE400A80EDA3
:102B60001C0A00BF57F82400007E01280AD055F83F
:102B70002400002182699047641CE4B2022CF1D346
:102B8000BDE8F08104EB4400C0EB441006EB80008C
:102B900090ED1C0ABDEEC00A10EE100A81B255F885
:102BA00024008269E7E70000880500202DE9F04154
:102BB0000E462DED028B074600249FED0B8A0CE09C
:102BC00004EB4400C0EB441007EB8005284607F0F7
:102BD000ABFE641C85ED1C8AE4B2B442F0D3BDECBC
:102BE000028BBDE8F08100000000000070B52A4DA6
:102BF0002DED028BF2EE048AB5F910009FED278AC5
:102C000000EE100A2648F8EEC00A80EE880A20EE90
:102C1000280A02F0EBFEA5F5A474D4ED080A30EE04
:102C2000200A84ED080AB5F90E00404200EE100AB1
:102C30001C48B8EEC00AC0EE080A20EEA80A02F04E
:102C4000D5FED4ED090A184970EE200AC4ED090A30
:102C500094ED080A10EE100A884202DD9FED130A77
:102C600006E010EE100A1249884201D99FED110AC0
:102C7000094884ED080A94ED0A1AF83831EE000A82
:102C800080ED0E0A94ED0B0A30EE200A80ED2B0A3F
:102C9000BDEC028B70BD00008006002000002544C2
:102CA000B00F0020800F00200080DA430080DA435C
:102CB000008020C4008020C4694A10B51078012823
:102CC00077D16848036819884068A1F5D051BF39A9
:102CD00000EE101A0188B8EEC02AA1F6C6014942DA
:102CE00000EE101A0188F8EEC00A42F6C604611A16
:102CF00000EE101A0188B8EEC00A5B4CF5EEC00A6F
:102D0000611A01EE101AB8EEC11AF1EE10FA02DDE6
:102D1000F0EE602A01E0F1EE602AB5EEC00AF1EEB5
:102D200010FA02DDB0EE403A01E0B1EE403AF4EEC6
:102D3000C32AF1EE10FA1BDDB5EEC01AF1EE10FA5F
:102D400002DDF0EE412A01E0F1EE412AB5EEC00AC3
:102D5000F1EE10FA02DDB0EE403A01E0B1EE403A99
:102D6000F4EEC32AF1EE10FA02DDF0EE401A63E051
:102D7000F5EEC00AF1EE10FA02DDF0EE602A01E095
:102D8000F1EE602AB5EEC00AF1EE10FA02DDB0EE07
:102D9000403A01E0B1EE403AF4EEC32AF1EE10FA07
:102DA0001CD2F5EEC00AF1EE10FA03DDF0EE602A57
:102DB00002E053E0F1EE602AB5EEC01AF1EE10FA2F
:102DC00002DDB0EE413A01E0B1EE413AF4EEC32A41
:102DD000F1EE10FA02D2F0EE601A2DE0B5EEC01A54
:102DE000F1EE10FA02DDF0EE412A01E0F1EE412AA7
:102DF000F5EEC00AF1EE10FA01DCF1EE600AF4EE35
:102E0000E02AF1EE10FA17D2B5EEC01AF1EE10FA80
:102E100002DDF0EE410A01E0F1EE410AB5EEC00A32
:102E2000F1EE10FA01DCB1EE400AF4EEC00AF1EE68
:102E300010FA01D2F0EE411A0021D960C1600948B0
:102E40009FED0A0A483880ED0A2AC0ED0B1A80ED82
:102E5000080A80ED090A01205070117010BD0000B1
:102E6000A307002080050020C6E8FFFF0000000047
:102E70002DE9F041124D00242DED028B26469FEDE9
:102E8000118AA5F1180700BF04EB4400C0EB441001
:102E900005EB8000314680ED1C8A57F824008269DA
:102EA0009047641CE4B2022CEED302210448FFF7E1
:102EB0007DFEBDEC028BBDE8F041FFF7A9BD00002F
:102EC00088050020000000000948816B098800EE99
:102ED000101A0849B8EE400A81ED0D0AC069008851
:102EE00000EE100AB8EE400A81ED0C0A70470000AF
:102EF000440200203805002070B51D480168C968EB
:102F000000F10804494200EE101AB8EEC00A84ED40
:102F10000F0A4068C06800EE100AB8EEC00A84EDDF
:102F20002C0A00F063F8A4F15005124885ED070A59
:102F30000068B0F90E10494200EE901AF8EEE00A6F
:102F4000C4ED010A84ED1E0AB0F90E00404200EE05
:102F5000100A0948B8EEC00A02F048FD84ED010AE3
:102F600095ED070A054802F041FD84ED1E0A70BD8B
:102F700080050020E4000020401000207010002098
:102F80000079C01C8007400F70474068A0F2052000
:102F9000042802D240F2FF10704740F2FF20704731
:102FA00010B558B1084C491E0BD310F8013B5340E3
:102FB000DBB234F8133083EA1222F4E74FF6FF70E5
:102FC00010BD104610BD0000B006010810B5064C3B
:102FD00004E000BF10F8013B5340E25C491E89B297
:102FE000F8D2104610BD0000B005010810B5184C0D
:102FF000DFED180A2DED028B206890ED010A20EE1E
:10300000200ADFED150AC0EE208AB0EE680A05F04E
:103010005BF9F0EE400AB0EE680AB0EE608A05F0A7
:103020008FF92068B0F90C10B0F9100000EE901A7A
:1030300001EE100AF8EEE00AB8EEC11A60EE880A56
:10304000BDEC028B41EE400AB0EE600A10BD0000FC
:10305000E4000020DB0F49400000344378B5002431
:10306000009490F83C20012A19D0012280F83C20DD
:103070000A6807230568092A13D9EE680A3A02EBA1
:10308000420293409E43EE600B788A680A3B03EB52
:1030900043039A400368DD682A43DA6010E00220A7
:1030A00078BD2E6902EB420293409E432E610B785D
:1030B0008A6803EB43039A4003681D692A431A6137
:1030C0004A681F23072A13D205686E6B521E02EB53
:1030D000820293409E436E630B790A885B1E92B214
:1030E00003EB83039A4003685D6B2A435A6327E02E
:1030F00005680D2A12D22E6BD21F02EB820293407A
:103100009E432E630B790A88DB1F92B203EB830385
:103110009A4003681D6B2A431A6311E0EE6A0D3A68
:1031200002EB820293409E43EE620B790A880D3BCC
:1031300092B203EB83039A400368DD6A2A43DA62A2
:10314000164B0568144A9D4206D10D68122D03D115
:10315000556845F48005556005689D4218D10B6897
:10316000102B01D0112B13D1536843F4000353608B
:10317000096810290CD10A490A4A0968B1FBF2F121
:1031800001EB8101490000E0491E00910029FBD1BB
:1031900080F83C40002078BD002301400020014021
:1031A000BC08002040420F0070B504004FF000053D
:1031B00003D0206C002610B107E0012070BD20462E
:1031C00000F01CF8666484F83C60206CC00610D4E3
:1031D000206C20F4885040F0020020642046FDF767
:1031E0009FFB6664206C20F0020040F00100206428
:1031F00000E0012584F83C60284670BD10B586B01B
:10320000044614216846FDF754FA114920688842A3
:103210001CD110480021026842F4807202600068EC
:1032200000F4807005900B481438026842F00402E4
:103230000260006800F00400059001200090032067
:10324000CDE901016946044800F02CFE06B010BD2E
:1032500000200140443802400008024090F820203D
:10326000012A07D0022A05D0416A41F48021416237
:1032700001207047006842690A434261002070479C
:10328000F0B590F820500468A468012D05D0022DF7
:1032900003D0416A41F4802153E014F0406F01D122
:1032A000E5004BD5C4F30164022C03D9416A41F413
:1032B000000146E00125A5401D608D684FF4C073F4
:1032C0009DB1CE6835434E6845EAC605066803EBF6
:1032D0000417F5514FF4C275076805EB04150E6924
:1032E0007E51097D012905D009E00E88CD6845EAA7
:1032F0004655EBE701684E5946F480764E511179F8
:10330000D2F805504FF4C67641EA0525016806EB70
:1033100004168D511178D2F801204FF4C47541EA9A
:103320000221026805EB04155151006803EB0411FA
:10333000425842F0010242500020F0BD416A41F47F
:10334000001141620120F0BD10B590F82020012A43
:1033500007D0022A05D0416A41F480214162012050
:1033600010BD3B48D0F8002242F00102C0F8002214
:10337000D0F8002222F47C52C0F80022D0F80022BB
:103380004B6A42EA0322C0F800220A7D02F01F03C2
:1033900001229A40D0F81C329343C0F81C32CB690A
:1033A000B3B9D0F80C329343C0F80C328C894B6817
:1033B00064F31F434C6900EBC404C4F840320C8929
:1033C0000B6864F31F434C6900EBC404C4F8443237
:1033D000CB69012B16D1D0F80C321343C0F80C3254
:1033E0000C884B6864F31F434C6900EBC404C4F8B9
:1033F00040320C89CB6864F31F434C6900EBC40472
:10340000C4F844328B69002BD0F804320ED0134339
:10341000C0F804320B69002BD0F8143208D01343E3
:10342000C0F81432096A012904D008E09343EFE799
:103430009343F5E7D0F81C121143C0F81C12D0F8E2
:10344000001221F00101C0F80012002010BD0000A0
:1034500000640040704730B590F82040012C05D042
:10346000022C03D0416A41F480215DE00468002908
:1034700055D02469A40754D04FF4D874056804EBE0
:1034800001142D5915F00405956005682D594ED08D
:10349000ED08556005682C5904F00204D4604FF41F
:1034A000DA74056804EB01142D5905F00F05156158
:1034B00005682D59C5F30725956105682C59240C1D
:1034C00054614FF4DC72046802EB0112A4581C70C2
:1034D0000468A458240A5C700468A458240C9C70E6
:1034E0000468A258120EDA704FF4DE72046802EB20
:1034F0000112A4581C710468A458240A5C71046861
:10350000A458240C9C710468A258120EDA71006849
:1035100081B1016941F020010161002030BDE46802
:10352000A8E7416A41F400114162012030BD6D0DF0
:103530001560AFE7C16841F02001C160EDE72DE9FA
:10354000F05F0546006800244669D0F8049087685B
:10355000D0F80CB0D0F810A0D0F81880F10748D0FF
:10356000F90714D001218160B80703D5284600F07F
:1035700030FA0CE0780702D54FF4006407E0380712
:1035800002D54FF4805402E0284600F021FAF805F5
:1035900016D529684FF480708860B80503D5284691
:1035A00000F019FA0CE0780502D544F4005407E065
:1035B000380502D544F4804402E0284600F00AFAB7
:1035C000F80316D529684FF480308860B80303D516
:1035D000284600F002FA0CE0780302D544F40044D7
:1035E00007E0380302D544F4803402E0284600F0B6
:1035F000F3F9300707D55FEACB6004D529681020BE
:1036000044F40074C86070074FF0080707D55FEAFC
:103610000B7004D52868C760284600F099F9B007F8
:1036200006D52868C068800702D0284600F092F9C5
:10363000700607D55FEACA6004D52968102044F4F3
:1036400080640861B00607D55FEA0A7004D528686F
:103650000761284600F08CF9F00606D52868006955
:10366000800702D0284600F084F9B00308D55FEA4D
:10367000C96005D5296810204860284600F07AF90D
:10368000F00307D55FEA097004D52868476028462B
:1036900000F0A4F9300446D55FEA497040D5F00542
:1036A00004D55FEAC87001D044F00104B00504D528
:1036B0005FEA887001D544F00204700504D55FEA22
:1036C000487001D544F00404300529D518F0700F76
:1036D00026D008F07000402815D006DC102809D04C
:1036E00020280AD0302816D10AE050280ED06028B1
:1036F00011D10EE044F008040DE044F010040AE09B
:1037000044F0200407E044F0400404E044F0800466
:1037100001E044F480742868816921F070018161BE
:10372000296804204860002C05D0686A204368623C
:103730002846FFF78FFEBDE8F09F70B5040003D068
:1037400094F8200010B104E0012070BD204600F084
:1037500081F82068016841F00101016000F0A8FCD7
:103760000546052604E000F0A3FC401B0A2811D8FA
:1037700020684068C007F6D02068016821F0020187
:10378000016000F095FC05460BE000F091FC401B49
:103790000A2806D9606A40F40030606284F820602C
:1037A000D2E7206840688007EFD4207E0128206897
:1037B00001683DD021F080010160607E0128206811
:1037C000016838D021F040010160A07E0128206806
:1037D000016833D021F020010160E07E01282068DB
:1037E00001682ED041F010010160207F012820687F
:1037F000016829D021F008010160607F012820685C
:10380000016824D021F004010160D4E902010843D9
:10381000D4E90412114308436168491E0843216832
:10382000C86100206062012084F82000002070BD83
:1038300041F08001C0E741F04001C5E741F02001BF
:10384000CAE721F01001CFE741F00801D4E741F0C9
:103850000401D9E7F0B587B0044614216846FCF7A7
:1038600028FF364B3648DFF8D0E01968D4F800C09E
:10387000334A03250226092710300024491CF44549
:1038800022D11960012907D1016841F0007101605E
:10389000006800F000700590106840F008001060AB
:1038A0001068CDE9005600F00800CDE904706946C3
:1038B0002448CDE9024500F0F5FA00220521142044
:1038C00000F0C8FC142032E0DFF87CE0F44530D191
:1038D000D0F800C04CF0806CC0F800C0D0F800C038
:1038E00001290CF0806CCDF814C0196007D1016873
:1038F00041F000710160006800F0007005901068F0
:1039000040F002001060106802AB00F00200059069
:103910006020CDE9000683E8B00069460B4800F05E
:10392000C1FA00220521402000F094FC402000F064
:1039300083FC07B0F0BD000000640040AC0800202C
:1039400030380240000C0240006800400004024091
:1039500070470000044A0168914202D0034A914234
:1039600001D1FDF7C9BC7047006400400068004009
:10397000704770477047000070B5044690F820000B
:10398000012804D0606A40F40020606218E0022040
:1039900084F820002068016821F00101016000F036
:1039A00087FB05460EE000BF00F082FB401B0A28A3
:1039B00008D9606A40F400306062052084F8200075
:1039C000012070BD20684068C007EDD1606270BD05
:1039D000704770477047704770477047704770B5C1
:1039E0004379012B1CD0012646710223037105681F
:1039F0002B6802F0100440F6FE72A2409343D1E916
:103A000000210A43A2401A432A6001680A68C023C1
:103A1000A3409A430A60067100214171084670BDB7
:103A2000022070BD70B5040003D02079002510B1CC
:103A300005E0012070BD6571204600F007F8022006
:103A40002071256101202071002070BD10B586B065
:103A5000044614216846FCF72CFE11492068884270
:103A60001CD110480021026842F000520260006838
:103A700000F0005005900B481038026842F0010237
:103A80000260006800F00100059010200090032003
:103A9000CDE901016946044800F004FA06B010BD02
:103AA00000740040403802400000024070B5427986
:103AB000012A1ED001224271022303710468266884
:103AC00001F0100302FA03F52E4326600029016875
:103AD00011D00C6804F470153C249C40A54203D11D
:103AE0004B6843F002034B600271002141710846AC
:103AF00070BD022070BD0B68C3F383030F2BF3D19D
:103B00004B6843F00103EEE72DE9F0410446876D71
:103B100000F0CEFA064694F835000025022806D0BB
:103B20008020606584F834500120BDE8F081206871
:103B3000016821F0160101602068416921F08001CF
:103B40004161206C08B9A06C20B12068016821F0A7
:103B5000080101602068016821F0010101600CE0AA
:103B600000F0A6FA801B052807D9202060650320F5
:103B700084F8350084F83450D7E720680068C0071F
:103B8000EED194F85C103F208840B860012084F8A2
:103B9000350084F834500020C7E790F8351002292A
:103BA00003D08021416501207047052180F8351040
:103BB0000068016821F001010160002070470000E9
:103BC0002DE9F84304464FF00009CDF80090634812
:103BD0004FF41651A56D0068B0FBF1F72E6894F80C
:103BE0005C10082000FA01F131420FD021680A6808
:103BF00052070BD50A6822F004020A6094F85C10A0
:103C00008840A860606D40F00100606594F85C1029
:103C10004FF0010808FA01F0304208D021684969E4
:103C2000090604D5A860606D40F00200606594F854
:103C30005C1004208840304208D021680968890758
:103C400004D5A860606D40F00400606594F85C10D5
:103C500010208840304218D021680968090714D51F
:103C6000A86020680168490304D50068000308D5EE
:103C7000A16C07E00168C90503D4016821F00801BF
:103C80000160216C09B12046884794F85C1020201F
:103C90008840304231D021680968C9062DD5A86016
:103CA00094F8350005282068016806D0490347D5F7
:103CB000006800031DD4616C1CE021F01601016056
:103CC0002068416921F080014161206C08B9A06C35
:103CD00020B12068016821F00801016094F85C10AF
:103CE0003F208840A86084F8358084F83490216DA6
:103CF0001FE0E16B09B120468847606D00282BD09A
:103D0000606DC00714D0052084F835002068016874
:103D100021F0010101600098401C0090B84203D8D6
:103D200020680068C007F6D184F8358084F83490A4
:103D3000E16C002910D001B02046BDE8F0430847EF
:103D40000168C905D5D4016821F01001016084F82B
:103D5000358084F83490CCE7BDE8F883BC080020B7
:103D60002DE9F041044600F0A3F906465CB10220BB
:103D700084F83500002584F834502068016821F06B
:103D8000010101600DE00120BDE8F08100F090F933
:103D9000801B052805D920206065032084F83500A4
:103DA000F2E720680068C007F0D122681168204857
:103DB0000140D4E901031843D4E9033633431843DF
:103DC00063691843A3691843E3691843236A1843D6
:103DD0000843616A042903D1D4E90B13194308434A
:103DE000106020684069666A20F0070130460E4383
:103DF000012704280CD1A06A0643E06A40B120469E
:103E0000FEF730FC20B14020606584F83570BAE7D9
:103E1000206846612046FEF711FC94F85C203F21A3
:103E200091408160656584F835700020ACE7000042
:103E30003F8010F02DE9F0410446866D90F8340083
:103E4000002501280DD0012084F8340094F8357045
:103E50000020012F07D084F8340002252846BDE851
:103E6000F0810220FBE7022784F835706065204668
:103E7000FEF722FC94F85C103F208840B060206878
:103E8000016841F016010160206C20B120680168D2
:103E900041F0080101602068016841F00101016002
:103EA000DCE700002DE9F84FDFF8BCA10022012576
:103EB0000AF1040B03264FF00F090BF1040E00BFAB
:103EC0000B6805FA02F42340A34270D10F7907F082
:103ED0000307012F01D0022F16D187684FEA42084D
:103EE00006FA08FC27EA0C07D1F80CC00CFA08FC0B
:103EF0004CEA070CC0F808C04768A7430C79C4F324
:103F0000001494403C4344600C79E443A4070AD075
:103F1000C4684FEA420C06FA0CF7BC438F6807FAF4
:103F20000CF72743C7600C7904F00304022C12D16C
:103F3000D40800EB840CDCF820405707FF0E09FA88
:103F400007F824EA0804D1F8108008FA07F848EACC
:103F50000408CCF8208004684FEA420C06FA0CF7FB
:103F6000BC430F7907F0030707FA0CF727430760F4
:103F70004C6814F4403F70D03C4C276847F48047AD
:103F80002760246822F0030704F480440094384C2E
:103F900007EB040CDCF8084897074FEA177809FA92
:103FA00008F7BC43334FB84202D1002724E054E065
:103FB000314FB84201D101271EE0304FB84201D144
:103FC000022719E02E4FB84201D1032714E02D4FEC
:103FD000B84201D104270FE02B4FB84201D1052789
:103FE0000AE02A4FB84201D1062705E0284FB8421F
:103FF00001D1072700E0082707FA08F72743CCF884
:104000000878DAF800405746D1F804C09C435FEACC
:10401000CC3C00D51C433C60DBF800405F46D1F847
:1040200004C09C435FEA8C3C00D51C433C60DEF836
:1040300000407746D1F804C09C435FEACC2C00D501
:104040001C433C60084F0C373C68D1F804C09C43CB
:104050005FEA8C2C00D51C433C60521C102AFFF4F4
:104060002FAFBDE8F88F0000003C0140443802400B
:1040700000300140000002400004024000080240FD
:10408000000C0240001002400014024000180240E0
:10409000001C0240426921EA02030A4043EA02414D
:1040A000816170470AB1816170470904FBE7000034
:1040B0000148806870470000B008002070B5040017
:1040C00011D021684CF6CC400860216845F255506B
:1040D0000860D4E9000141602168A0688860FFF7AA
:1040E000E7FF05460DE0012070BD00BFFFF7E0FFD0
:1040F000401B312805D92068C068800701D0032003
:1041000070BD2068C0688007F0D121684AF6AA20F7
:104110000860002070BD00684AF6AA2101600020F6
:104120007047000009480168094A1278114401608B
:104130004FF08041496A006800EB4002C2EBC010BA
:1041400001EBC0000349086070470000B808002078
:10415000B0080020180000200B4810B5016841F499
:1041600000710160016841F480610160016841F4FF
:1041700080710160032000F08DF80F2000F006F838
:1041800000F03EF8002010BD003C024010B5014692
:1041900088B000221C2000F05DF81C2000F04CF8D4
:1041A00014480024016841F001010160006805A97C
:1041B00000F001000690684600F018F900F036F9AA
:1041C0000D494000B0FBF1F10C484FF08042491E10
:1041D000026040F2E732C0E90324C0E9011400F0B4
:1041E00077FB10B1012008B010BD044800F0B2FB0D
:1041F000F9E700004038024040420F007C180020E0
:104200000C4882B0016841F480410160006800F40C
:10421000804000900748001F016841F08051016014
:104220000068002200F0805000900F21901E02B024
:1042300000F010B844380240002809DB00F01F02EB
:10424000012191404009800000F1E020C0F80011F8
:1042500070470000F0B40E4B1B680C46C3F30223FA
:10426000C3F10705042D00D90425191D072901D222
:10427000002300E0DB1E012606FA05F1491E21405D
:1042800099409E40761E16403143F0BC03F036BB89
:104290000CED00E0064900F0070208684FF6FF0346
:1042A000184040EA0220034A1043086070470000AB
:1042B0000CED00E00000FA052DE9F0470E46050080
:1042C00065D0DFF81481D8F80000F7B200F00700DD
:1042D000B04207D288F80070D8F8000000F007005C
:1042E000B04254D128683D4C810712D5400703D510
:1042F000206840F4E05020602878000703D520684B
:1043000040F4604020602068A96820F0F000084375
:1043100020602878C0072DD0304968680839012806
:1043200012D0022813D0032811D009688907002968
:104330002DDA216821F0030101432160FFF7B8FE67
:10434000814641F2883A0EE009688903EFE709687F
:104350008901ECE7FFF7ACFEA0EB0901514502D95A
:104360000320BDE8F0872068696800F00C00B0EB1E
:10437000810FEFD1D8F80010404601F00701B1429B
:1043800007D90770006800F00700B04201D0012093
:10439000E7E72878400705D52068E96820F4E05071
:1043A000084320602878000706D52068296920F492
:1043B000604040EAC100206000F058F82168084AD7
:1043C000C1F30311515CC840064908600648006803
:1043D000FFF7DCFE0020C4E7003C02400838024042
:1043E0009C110108BC080020B40800200F220260C4
:1043F0000C4A136803F003034360136803F0F003EF
:104400008360136803F4E053C36012684FF4E05311
:1044100003EAD20202610448006800F00700086065
:104420007047000008380240003C0240044805493B
:1044300000680968044AC1F38221515CC840704792
:10444000BC08002008380240AC11010804480549A6
:1044500000680968044AC1F34231515CC8407047A2
:10446000BC08002008380240AC110108154810B5FE
:10447000006810F00C02144813D01449042A0FD01D
:10448000082A0ED10F4C241F2268236802F03F0235
:104490005B0207D52068C0F38810A0FB010106E08D
:1044A000084610BD2168C1F38811A1FB000100235B
:1044B000FBF7D0FF2168C1F30141491C4900B0FB63
:1044C000F1F010BD083802400024F40040787D016E
:1044D0002DE9F84F04006ED02078DFF84C93C00728
:1044E000A9F104054AD009F104000168C1F3810172
:1044F000012908D00068C0F3810002280AD1D9F848
:104500000000400206D52868800337D5606800287F
:10451000E1D033E06068B0F5803F10D0B0F5A02F57
:10452000286810D020F480302860286820F480208B
:1045300028606068A8B1FFF7BBFD06460DE028685B
:1045400040F48030F4E740F480202860F7E700BFB3
:10455000FFF7AEFD801B642873D828688003F7D569
:104560000CE0FFF7A5FD064605E000BFFFF7A0FD44
:10457000801B6428F0D828688003F7D42078DFF8FF
:10458000AC8280074FF0000A3ED5A748001D0168A5
:1045900011F00C0F08D00068C0F3810002280BD185
:1045A000D9F80000400207D42868800716D5E068D3
:1045B000012800D112E033E1E068B8B10120C8F869
:1045C0000000FFF775FD064605E000BFFFF770FD30
:1045D000801B0228C0D828688007F7D52868216981
:1045E00020F0F80040EAC10028600DE0C8F800A003
:1045F000FFF75EFD064604E0FFF75AFD801B022828
:104600001FD828688007F7D42078000722D5864F66
:1046100087486169703771B101210160FFF748FD7A
:10462000064604E0FFF744FD801B022809D83868DD
:104630008007F7D50EE0C0F800A0FFF739FD064669
:1046400005E082E0FFF734FD801B02287DD8386842
:104650008007F7D42078400768D5DFF8CCB1002771
:104660000BF13C0BDBF80000C0000BD4DBF80010B2
:1046700041F08051CBF80010DBF80000012700F07A
:10468000805000906B4E3068C00510D4306840F404
:1046900080703060FFF70CFD009005E0FFF708FD2B
:1046A0000099401A022850D83068C005F6D55E4EF1
:1046B000A0686C3601280FD00528306810D020F093
:1046C00001003060306820F004003060A068B8B1AC
:1046D000FFF7EEFC00900FE0306840F00100F4E7D7
:1046E00040F004003060F7E7FFF7E2FC0099411A60
:1046F00041F28830814266D830688007F4D50EE0F8
:10470000FFF7D6FC009007E0FFF7D2FC0099411AB2
:1047100041F28830814256D830688007F4D42FB1F6
:10472000DBF8001021F08051CBF80010A069C8B36D
:104730003D49091D0968C1F3810102294AD00228B7
:10474000504607D0C8F8600000E03CE0FFF7B0FC3E
:1047500004463BE04746C8F86000FFF7A9FC064660
:1047600005E000BFFFF7A4FC801B02282BD82868B7
:104770008001F7D4D4E907010843A16A2E4A490809
:1047800002EB0141626A41EA8211084394F82C105D
:1047900040EA0161C9F8001001203866FFF788FC83
:1047A000044606E03EE000BFFFF782FC001B022843
:1047B00009D828688001F7D534E000BFFFF778FCFE
:1047C000001B022802D90320BDE8F88F2868800169
:1047D000F4D427E00128F7D0D9F80000E26900F40A
:1047E000800191421CD1226A00F03F01914217D111
:1047F00047F6C071626A0140B1EB821F10D1A26A14
:104800004FF0FF3300F4403103EB5202B1EB024FA3
:1048100006D194F82C1000F07060B0EB016F01D05D
:104820000120D1E70020CFE70438024000004742D2
:10483000800E4742007000400000FFFF7047704745
:1048400070B590F83C20012A32D0012480F83C4019
:10485000022280F83D2003685A689D6822F07006A5
:104860000A6832435A60134B02689A4214D0B2F17C
:10487000804F11D0104B9A420ED0104B9A420BD061
:104880000F4B9A4208D00F4B9A4205D00E4B9A42DA
:1048900002D00E4B9A4204D1496825F08003194397
:1048A000916080F83D40002180F83C10084670BDC2
:1048B000022070BD000001400004004000080040DC
:1048C000000C00400004014000400140001800407E
:1048D00010B5040003D094F83D0010B107E00120AA
:1048E00010BD002084F83C00204600F01FF8022094
:1048F00084F83D00211D206802F088FA012084F828
:10490000460084F83E0084F83F0084F8400084F8B4
:10491000410084F8420084F8430084F8440084F89D
:10492000450084F83D00002010BD000008B5006877
:104930000649884208D10648016841F00201016039
:10494000006800F00200009008BD00000004004074
:104950004038024090F83D10012901D001207047F5
:10496000022180F83D100168CA6842F00102CA6065
:1049700000681149884214D0B0F1804F11D00F491E
:1049800088420ED00E4988420BD00E49884208D08A
:104990000D49884205D00D49884202D00C49884211
:1049A00004D1816801F00701062903D0016841F0B4
:1049B0000101016000207047000001400004004038
:1049C00000080040000C004000040140004001408D
:1049D0000018004070B5044690F83C0000250128FE
:1049E00017D0012684F83C60022084F83D0020683E
:1049F000826822F0770222F47F42826008685028A1
:104A000038D00DDC20284FD005DC90B3102811D110
:104A10004AE0022070BD302846D040280AD13BE051
:104A200060282FD070280DD0B0F5805F03D0B0F58E
:104A3000005F12D0012584F83D60002084F83C001E
:104A4000284670BDCB68D1E90121206802F04FFAF9
:104A50002068816841F0770109E0CB68D1E9012144
:104A6000206802F044FA2068816841F48041816046
:104A7000E1E719E0CA684968206802F00DFB50219F
:104A8000206806E0CA684968206802F016FB6021C9
:104A9000206802F036FACEE7CA684968206802F05A
:104AA000FBFA40212068F4E7226801461046F0E74F
:104AB0002DE9F0410D46040003D094F83D0018B1F3
:104AC00008E00120BDE8F081002084F83C00204689
:104AD00000F040F8022084F83D002068816844F22C
:104AE000070291438160211D206802F08FF922683E
:104AF00090689169166A2B68AF69034340F20330EE
:104B0000814341EA0721A868EF6908434FF6FC4159
:104B10008843E96840EA0720014328692F6A0001B9
:104B200040EA0730084369686D6926F0AA0646EA3C
:104B30000515294393602268906154F8460B016281
:104B4000012004F81F09E0752076E0762077A07533
:104B50000020B7E710B586B0044614216846FBF77D
:104B6000A8FD13492068884220D11248002102681C
:104B700042F001020260006800F0010005900D485B
:104B80001438026842F010020260006800F0100061
:104B900005904FF420600090122001900120CDE993
:104BA0000201049069460448FFF77CF906B010BD85
:104BB00000000140443802400010024070B590F8F7
:104BC0003E60044690F83F5090F8423090F8432001
:104BD000022021B104290ED0012E1BD114E0012E98
:104BE00018D1012B16D184F83E0084F8420001222E
:104BF0000021206820E0012D0CD1012A0AD184F87F
:104C00003F0084F8430014E0012D03D1012B01D1B2
:104C1000012A01D0012070BD84F83E0084F83F00D5
:104C200084F8420084F8430001220021206802F049
:104C300051F901220421206802F04CF92068016832
:104C400041F001010160002070BD704770B504465D
:104C5000006801694FF00005C943890715D4C16890
:104C6000C943890711D4E91E01610120207720681A
:104C700080698007204602D0FFF7E7FF04E000F0DC
:104C8000C1F8204600F053F9257720680169C9432F
:104C9000490717D4C168C943490713D46FF0040109
:104CA0000161022020772068806910F4407F20464F
:104CB00002D0FFF7CAFF04E000F0A4F8204600F09D
:104CC00036F9257720680169C943090716D4C168F8
:104CD000C943090712D46FF008010161042020774D
:104CE0002068C0698007204602D0FFF7AEFF04E0CD
:104CF00000F088F8204600F01AF92577206801694D
:104D0000C943C90617D4C168C943C90613D46FF093
:104D100010010161082020772068C06910F4407FED
:104D2000204602D0FFF791FF04E000F06BF8204628
:104D300000F0FDF8257720680169C943C90708D14B
:104D4000C168C943C90704D1891E0161204600F02A
:104D500053F920680169C943090609D4C168C943E8
:104D6000090605D46FF0800101612046FFF766FD5A
:104D700020680169C943490609D4C168C943490685
:104D800005D46FF040010161204600F03CF9206835
:104D90000169C94389060BD4C168C943890607D490
:104DA0006FF0200101612046BDE87040FFF747BD6C
:104DB00070BD000010B586B0044614216846FBF7AC
:104DC00078FC0D492068884214D10C480021026803
:104DD00042F001020260006800F001000590C0206E
:104DE00000900220CDE90101CDE903106946044895
:104DF000FFF758F806B010BD0004004030380240FC
:104E000000000240704770B5044690F83C00002650
:104E10000D4601280FD0012084F83C006AB1042A15
:104E20001DD0082A2FD00C2A3FD00126002084F85C
:104E30003C00304670BD022070BD206802F06AF868
:104E40002068816941F0080181612068816921F051
:104E500004018161206881692A69114311E0206899
:104E600002F088F82068816941F40061816120685E
:104E7000816921F480618161206881692A6941EA40
:104E800002218161D2E7206802F0AAF82068C16996
:104E900041F00801C1612068C16921F00401C161CC
:104EA0002068C1692A69114311E0206802F0CCF83A
:104EB0002068C16941F40061C1612068C16921F4C1
:104EC0008061C1612068C1692A6941EA0221C1612A
:104ED000ACE710B5040003D094F83D0010B107E032
:104EE000012010BD002084F83C00204600F01EF890
:104EF000022084F83D00211D206801F087FF012079
:104F000084F8460084F83E0084F83F0084F84000AE
:104F100084F8410084F8420084F8430084F8440097
:104F200084F8450084F83D00002010BD70477047AC
:104F300010B50446022249B104290ED0082913D025
:104F400094F84100012816D0012010BD94F83E00CD
:104F50000128F9D184F83E200FE094F83F000128A1
:104F6000F2D184F83F2008E094F840000128EBD10A
:104F700084F8402001E084F841200122206801F0FB
:104F8000A9FF16492068164A884201D0904203D1F1
:104F9000436C43F4004343642068884213D0B0F16B
:104FA000804F10D00F4988420DD00F4988420AD057
:104FB0000E49884207D0904205D00D49884202D060
:104FC0000C49884204D1816801F00701062903D009
:104FD000016841F001010160002010BD00000140A6
:104FE000000401400004004000080040000C0040A4
:104FF00000400140001800400068B0F1804F01D12E
:10500000FFF790B87047704770477047F8B5016870
:1050100004460868CA684B6910F00F0F4FF000058E
:1050200059D003F0010602F49077374365D0C107E9
:1050300005D0D10503D5216C41F001012164410760
:1050400005D5D90703D0216C41F002012164810705
:1050500005D5D90703D0216C41F004012164010773
:1050600007D502F02001314303D0216C41F0080143
:105070002164216C00293AD0800604D5900602D51F
:10508000204602F0D5F820684069216CC0F38010FA
:10509000090700D460B3204602F095F82068406903
:1050A000400621D52068143050E8001F21F040014F
:1050B00040E80012002AF5D1A06BA8B16C49016547
:1050C000A06BFEF76AFD002811D0A06B016D01B046
:1050D000BDE8F040084783060FD593060DD520465E
:1050E000BDE8F84002F0A4B82046FFF78EFFF8BDF7
:1050F0002046FFF78AFF2564F8BD266B2023012E8A
:1051000079D1C60677D5D60675D508684868009067
:105110004869400640D5A16B086840680004000C4F
:10512000EAD0A28D8242E7D9E085C869B0F5807FD8
:105130002DD020680C3050E8001F21F4807140E829
:105140000012002AF5D12068143050E8001F21F029
:10515000010140E80012002AF5D12068143050E81F
:10516000001F21F0400140E80012002AF5D184F828
:105170003E30256320680C3050E8001F21F01001FC
:1051800040E80012002AF5D1A06BFEF7BDFCA08D0F
:10519000E18D401A81B229E0A08DE18D401A81B2E3
:1051A000E08D0028A8D00029A6D020680C3050E857
:1051B000002F22F4907240E80026002EF5D12068DE
:1051C000143050E8002F22F0010240E80026002EA3
:1051D000F5D184F83E30256320680C3050E8002F6C
:1051E00022F0100240E80023002BF5D12046FFF703
:1051F0000BFFF8BDFFE705062BD5150629D594F85A
:105200003D002128F5D1A068B0F5805F01D120696B
:10521000B0B1206A411C2162216800784860E08CAE
:10522000401E0004000CE084E3D12068C16821F036
:105230008001C1602068C16841F04001C160D8E7C9
:10524000206A0088C0F308004860206A801C206241
:10525000E5E74006CDD55006CBD5CA68204622F0FA
:105260004002CA6084F83D3000F02AFAC1E700002D
:105270002171000870B5040004D094F83D000025A9
:1052800010B106E0012070BD84F83C50204600F0CB
:1052900023F8242084F83D002068C16821F40051DF
:1052A000C160204602F024F82068016921F4904191
:1052B00001612068416921F02A0141612068C168CB
:1052C00041F40051C1602564202084F83D0084F839
:1052D0003E00002070BD00002DE9F04F87B005466C
:1052E00014216846FBF7E5F9C648DFF81483103847
:1052F0000222D5F800C0C34B0321DFF80CB3002411
:10530000960607154FF0080A4FF48079C44553D12B
:10531000D3F800C04CF4002CC3F800C01B6803F4A1
:1053200000230593036843F001030360006800F065
:10533000010005908DE81600CDE9031A694658462C
:10534000FEF7B0FDDFF8C882B0494046C8F800104B
:10535000C0E90164C0E90347C8F81440C0E9064940
:105360004FF40039C8E90894FEF7FAFC08B1FDF7DC
:1053700049FAA74CA548C5F8388060343030C8F8E1
:105380003850C4E900064020A0600020C4E90307AB
:105390006061A061C4E9070960622046FEF7E0FC95
:1053A00008B1FDF72FFA6C63002205213420A563B4
:1053B000FEF750FF34205CE0DFF85882C4455DD131
:1053C000D3F800C04CF4801CC3F800C01B6803F481
:1053D00080130593036843F004030360036803F03C
:1053E00004030593036843F00803036000688846DC
:1053F00000F0080005904FF48050CDE900020DF157
:10540000080C93468CE8100569468348FEF74AFD70
:105410000420CDE9000B0DF1080B69468BE810055F
:105420007E48FEF73FFDDFF8E881784908F1C008C3
:1054300030394046C8F80010C0E90164C0E90347AC
:10544000C8F814404FF44031C8F81840C8E9079133
:10545000C8F82440FEF784FC08B1FDF7D3F9C5F87D
:105460003880002205213520C8F83850FEF7F2FEBA
:105470003520FEF7E1FE07B0BDE8F08FDFF8A08130
:105480004FF0070EC4455CD15E4BA0461B1DD3F800
:1054900000C04CF0100CC3F800C01B6803F01003F0
:1054A0000593036843F0010303600068CDE90241FE
:1054B00000F0010005904FF4C060CDE90002CDF886
:1054C00010E069465846FEF7EDFCDFF85CA155494F
:1054D0005046CAF80010C0E90164C0E90347CAF8A1
:1054E0001440C0E906494FF40039CAE90894FEF7B0
:1054F00037FC08B1FDF786F94B4C4A48C5F838A08F
:1055000060347830CAF83850C4E900064020A06002
:10551000C4E90387C4F81480C4F81880C4E9078973
:105520002046C4F82480FEF71BFC08B1FDF76AF999
:105530006C63002205212520A563FEF78BFE252044
:1055400097E7DFF8E880C44595D1D3F800C04CF464
:10555000003CC3F800C01B6803F4003305930368E4
:1055600043F001030360036803F00103059303683C
:1055700043F0080303600068F04600F0080005905F
:105580000220CDE900A08A46CDE9024A6946584684
:10559000CDF810E0FEF786FC2020009001AA022042
:1055A000CDF8108082E8110469461C48FEF77AFCA9
:1055B000DFF87480154908F1C00848314046C8F842
:1055C0000010C0E90164C0E90347C8F814404FF473
:1055D0004031C8F81840C8E90791C8F82440FEF7E0
:1055E000BFFB08B1FDF70EF9C5F838800022052190
:1055F0002620C8F83850FEF72DFE262039E7000097
:10560000004C004040380240000002404060024030
:105610003C1600200050004000080240000C0240F0
:1056200000100140406402405C170020004400402C
:105630007047000070B5044690F83D00202836D130
:1056400091B38AB394F83C00012830D0012084F84B
:105650003C002162A284E28400252564212084F894
:105660003D00636B1348D863636B13481864636B26
:105670001248D864606B134605652668606B321D5E
:10568000FEF7D8FB21686FF04000086084F83C50BA
:105690002068143050E8001F41F0800140E80012FB
:1056A000002AF5D1002070BDFFE70120FBE70220B2
:1056B000F9E700007B710008BD7100083171000836
:1056C00070477047FEE7000030B5104C10480021CD
:1056D00023681A7B7AB10F4D01226A771973236808
:1056E00093F88D3003F00F04012C0DD11B090BD161
:1056F0008160027008E0826840F6B833521C826014
:105700009A4201DD81600170007830BDB003002055
:1057100038050020FC04002070B50D4C0025C4F8AD
:10572000B4520C48016821F040410160016841F029
:1057300080410160C4F8BC52022004F52D7403F0CE
:1057400055FD01202060022003F050FD256070BD52
:10575000008040420004024070B50D4C0025C4F8A2
:10576000B4520C48016821F040410160016841F0E9
:10577000804101600126C4F8BC62022004F52D744A
:1057800003F034FD2660022003F030FD256070BD7B
:1057900000804042000402402DE9F047814616484F
:1057A0000024016821F04041016001680160134E4E
:1057B000254627464FF00108C6F8B472022003F0D0
:1057C00015FDC6F8B4826006040ED6F83C0208B196
:1057D000641CE4B2012003F009FD6D1CEDB2082D3C
:1057E000EAD3B9F1000F04D0FFF796FF2046BDE8D9
:1057F000F087FFF7B1FFF9E7000402400080404264
:105800002DE9F04106461448016821F0404101604D
:10581000016841F080410160104C0027C4F8B47267
:105820003D464FF00108F009C4F8BC027006060EB0
:10583000022003F0DBFCC4F8B482022003F0D6FCA3
:10584000C4F8B472022003F0D1FC6D1CEDB2082D37
:10585000E9D3BDE8F081000000040240008040422E
:1058600070B50D48016821F040410160016841F0C8
:1058700080410160094C0120C4F8BC02C4F8B402A4
:10588000042004F52D7403F0B1FC0025A56004206C
:1058900003F0ACFC256070BD000402400080404273
:1058A0000E4810B5016821F040410160016841F0E7
:1058B000804101600A4C0020C4F8B402C4F8BC0264
:1058C000042004F52D7403F091FC01202060A060F9
:1058D000BDE81040042003F089BC00000004024031
:1058E0000080404270B512480024016821F0404118
:1058F0000160016801600F4D0126C5F8BC623046A9
:1059000003F074FCC5F8B462012003F06FFC07E0FB
:10591000641CE4B2FA2C03D9FFF7C2FF012070BD6A
:10592000D5F83C020028F3D1C5F8B40270BD0000E0
:105930000004024000804042F0B51E481E49022586
:1059400004684F7F0126B4F852300022A1F1C40050
:105950001FB194F88D4024091CD08C7F4CB1048B6E
:10596000641CA4B2A4F530670483B83F01D102835C
:105970008A774383C48A641CA4B2A4F5A067C48256
:10598000DC3F15D1448AE41AA4B28482642C0BD380
:105990008D770CE04A77448BE41A642C01DB8D7719
:1059A00000E08E770283E4E7322C00D38E77C28248
:1059B0004382F0BDB0030020FC0400209FED0A1AD2
:1059C00080ED001A80ED051A80ED090AC0ED0A0A83
:1059D000B7EE000A80ED070A80ED081A80ED0B0A89
:1059E00080ED011A7047000000000000D0ED071A9A
:1059F000D0ED000A21EEA01A80ED011AD0ED090ABF
:105A000090ED052A41EE820AC0ED030AD0ED0A1A94
:105A100030EEA12AC0EE821A30EE412AB0EE410AE1
:105A2000B7EE001AC0ED061A31EE611A01EE820AD5
:105A300061EE200A80ED020AC0ED040AC0ED050AFD
:105A400080ED000A70470000DFED2D1A00B5F0EE82
:105A5000610AB7EE000A2B48FFF7B0FF2948F0EEC5
:105A6000610AB7EE000A3038FFF7A8FF2548F0EECC
:105A7000080AB7EE000A9038FFF7A0FF2148F0EEC1
:105A8000080AB7EE000A6038FFF798FF1D48F3EEEA
:105A90000E0AB7EE000AF038FFF790FF1948F3EE50
:105AA0000E0AB7EE000AC038FFF788FF1548F0EE7F
:105AB000610AB7EE000AC030FFF780FF1148F0EE30
:105AC000610AB7EE000AF030FFF778FF0D48F0EEFC
:105AD000610AB7EE000A9030FFF770FF0948F0EE58
