:020000040800F2
:10000000080A001065030008D56A00084B63000861
:10001000D16A0008F5190008997300080000000073
:10002000000000000000000000000000A502000821
:100030007D1C00080000000001030008296D000875
:100040007F0300087F0300087F0300087F03000888
:100050007F0300087F0300087F0300087F03000878
:100060007F0300087F0300087F030008151C0008B9
:10007000251C00087F0300087F0300087F03000899
:100080007F0300087F0300087F0300087F03000848
:100090003D1A00087F0300087F0300087F03000863
:1000A0007F0300087F0300087F0300087F03000828
:1000B000F56D00086D6E0008000000007F03000869
:1000C0007F03000800000000000000007F0300081C
:1000D000000000007F0300087F0300087F03000882
:1000E0007F0300087F0300080000000000000000FC
:1000F0000000000000000000000000000000000000
:1001000000000000000000000000000000000000EF
:1001100000000000000000007F0300087F030008CB
:1001200000000000000000000000000000000000CF
:1001300000000000000000000000000000000000BF
:100140007F0300087F030008000000007F03000811
:100150007F0300087F0300087F0300087F03000877
:100160007F0300087F03000800000000000000007B
:10017000000000000000000000000000000000007F
:10018000000000007F03000800F002F800F07AF899
:100190000AA090E8000C82448344AAF10107DA45E2
:1001A00001D100F06FF8AFF2090EBAE80F0013F0BA
:1001B000010F18BFFB1A43F001031847E4BC00000D
:1001C00024BD00000A444FF0000C10F8013B13F06E
:1001D000070408BF10F8014B1D1108BF10F8015BA0
:1001E000641E05D010F8016B641E01F8016BF9D193
:1001F00013F0080F1EBF10F8014BAD1C0C1B09D1EA
:100200006D1E58BF01F801CBFAD505E014F8016B5B
:1002100001F8016B6D1EF9D59142D6D370470000ED
:10022000103A24BF78C878C1FAD8520724BF30C822
:1002300030C144BF04680C607047000000230024F4
:1002400000250026103A28BF78C1FBD8520728BFE6
:1002500030C148BF0B60704766290BF05D8164298F
:1002600000F06681002070471FB50BF050F900F0D8
:10027000A7FD0400002000210BF0BCF8E0601FBDCA
:1002800010B510BD00F09CFE1146FFF7EDFF08F021
:1002900083FB00F0BAFE03B4FFF7F2FF03BC00F0EB
:1002A000FDFE00002C4B19680868B0E8F04F80F3A1
:1002B0000988BFF36F8F4FF0000080F311887047FB
:1002C0000000000008480068006880F308884FF0CC
:1002D000000080F3148862B661B6BFF34F8FBFF39E
:1002E0006F8F00DF00BF00BF08ED00E0DFF80C00FB
:1002F000016841F470010160704700BF88ED00E0C3
:10030000EFF30980BFF36F8F134B1A681EF0100FC5
:1003100008BF20ED108A20E9F04F106009B44FF0BB
:10032000500080F31188BFF34F8FBFF36F8F0AF037
:100330007BF94FF0000080F3118809BC1968086848
:10034000B0E8F04F1EF0100F08BFB0EC108A80F339
:100350000988BFF36F8F704710000010EFF305801E
:10036000704700000948804709480047FEE7FEE75C
:10037000FEE7FEE7FEE7FEE7FEE7FEE7FEE7FEE755
:1003800004480549054A064B70470000E16D000826
:100390008901000808040010080A0010080600106F
:1003A0000806001053EA020C00F069802DE9F04BBA
:1003B0004FF00006002B1FBFB3FA83F503FA05F4D4
:1003C00024FA05F65E4012BF1643B2FA82F502FA2D
:1003D00005F4C5F120051EBF22FA05FC44EA0C0411
:1003E000203556EA044C4FEA144418BF641C4FF001
:1003F00000084FF00009904271EB030C39D300293B
:1004000019BFB1FA81F701FA07F6B0FA80F700FADE
:1004100007F6C7F120071EBF20FA07FC46EA0C06C4
:100420002037B6FBF4FCA7EB0507103F07F01F0BC6
:10043000CBF120060CFA0BFB2CFA06F644BFB346B0
:100440000026202FA4BF5E464FF0000B5BEA060C8F
:1004500008BF4FF0010B19EB0B09ABFB027C48EB1B
:100460000608C01B06FB02CC0BFB03CC71EB0C0196
:10047000C1E70B46024641464846BDE8F08B13B53E
:100480004FF000004FF00001AFF30080BDE81C40CA
:100490007047B2F120030AD5C2F1200320FA02F01E
:1004A00001FA03F321FA02F140EA0300704721FA4E
:1004B00003F04FF0000170470FB41CB5074B06AABC
:1004C0007B4469460090059800F03FFC0020694697
:1004D00000F04EFC1CBC5DF814FB0000AD080000F1
:1004E00070B5044685690068C10601D5302600E074
:1004F0002026C00707D070BDD4E9012130469047BF
:10050000206A401C20626D1EF6D570BD70B5044691
:1005100085690078C00707D170BDD4E9012120208A
:100520009047206A401C20626D1EF6D570BD000009
:100530002DE9F0410646002410687529314616A5BC
:1005400010D0AFF30080002802DA404213A507E084
:1005500031688A0701D512A502E0490704D511A523
:10056000012401E0AFF3008000210A2206F12407F4
:1005700009E0B0FBF2FCB0FBF2F302FB1C003030F0
:1005800078541846491C0028F3D123462A463046A1
:10059000BDE8F04100F06CB9000000002D00000043
:1005A0002B000000200000002DE9F05F8946044682
:1005B0004FF0000ADFF824B1FB44C0F820A0204629
:1005C000E168884700287DD0252806D0D4E901219C
:1005D0009047206A401C2062F1E700255F462046D4
:1005E000E16888472028064607DB312E05D2B81976
:1005F00010F8200C08B10543F1E7A80701D525F054
:100600000405C4F81CA00027C4F818A02A2E09D09D
:10061000304606F05EFF38B304EB8708303EC8F87A
:10062000186019E059F8041B204604EB8702916119
:10063000E1688847012F064618D1E069002820DAD2
:1006400025F020051DE0D8F8180000EB800006EB2F
:1006500040003038C8F818002046E1688847064650
:1006600006F037FF0028EED1012F0AD02E2E08D138
:100670002046E16888477F1C0646022F45F020058A
:10068000C4DBA069002803DA404245F00105A061FF
:10069000E80701D025F01005A6B1A6F14100192800
:1006A00002D8203645F400654A463146204625608A
:1006B0004D46FFF7D1FD60B1012807D0ED1D25F0B3
:1006C000070000E007E000F1080978E705F10409F8
:1006D00075E730467AE7206ABDE8F09F1CB8000055
:1006E00010B5431C02E010F8011B71B18107FAD16B
:1006F0004FF0013202C88C1A8C4314EAC211F9D0AF
:10070000C01A0A0603D0C01E10BDC01A10BD0A04CC
:1007100001D0801E10BD0902FCD0401E10BD032A6E
:1007200040F2308010F0030C00F0158011F8013B0E
:10073000BCF1020F624498BF11F801CB00F8013BF5
:1007400038BF11F8013BA2F1040298BF00F801CBB9
:1007500038BF00F8013B11F0030300F02580083A90
:10076000C0F0088051F8043B083A51F804CBA0E8E7
:100770000810F5E7121D5CBF51F8043B40F8043B3C
:10078000AFF30080D20724BF11F8013B11F801CB71
:1007900048BF11F8012B24BF00F8013B00F801CB42
:1007A00048BF00F8012B704710B5203AC0F00B800D
:1007B000B1E81850203AA0E81850B1E81850A0E865
:1007C0001850BFF4F5AF5FEA027C24BFB1E81850BF
:1007D000A0E8185044BF18C918C0BDE810405FEA2F
:1007E000827C24BF51F8043B40F8043B08BF7047AB
:1007F000D20728BF31F8023B48BF11F8012B28BFB0
:1008000020F8023B48BF00F8012B704702F0FF03BD
:1008100043EA032242EA024200F0B1BA4FF000027A
:1008200000B5134694469646203922BFA0E80C50E6
:10083000A0E80C50B1F12001BFF4F7AF090728BFC1
:10084000A0E80C5048BF0CC05DF804EB890028BF3D
:1008500040F8042B08BF704748BF20F8022B11F066
:10086000804F18BF00F8012B7047704770477047E2
:100870002DE9F0470D4699469246044600F12408BA
:100880000168880604D5E06921F01001216000E0CC
:100890000120A84201DD471B00E00027A1697A1969
:1008A00002EB0900081AA0612078C00602D4204695
:1008B000FFF716FE002608E0D4E901211AF8060029
:1008C0009047206A401C761C20624E45F4DB20785D
:1008D000C0060AD52046FFF703FE06E0D4E9012151
:1008E00030209047206A401C2062381EA7F1010783
:1008F000F4DC07E0D4E9012118F805009047206AEC
:10090000401C2062281EA5F10105F3DC2046FFF7FC
:10091000FDFD2078000602D50220BDE8F087012009
:10092000FBE770472DE9FF4F0C461E464FF0FF379F
:100930008BB0D2E90001DDF860800A908A46C1F3ED
:100940000A5505B93D46002108464FF00000BAF1AE
:10095000000F00F4400005DA00EB80004FF4400186
:1009600001EA50004FEA9059B9F1010F00DDB94694
:100970000A9850EA4A000ED044F61050A5F2FF350E
:1009800045432F14B8F1000F1ED07542291E1EDDFD
:10099000C9F100021CE0B8F1010F4FF0000001D0D6
:1009A000302103E0F24305E02154401CB042FBDB60
:1009B00030460022002121540B99C1F80880C1E97A
:1009C00000200FB0BDE8F08FBD1B6D1CDEE74A466E
:1009D00000DA694206A800F07DFA06AB93E807004A
:1009E00003AB83E8070050460A9900F05EFB8DE8F0
:1009F0000700A0F500501F3800900398002D0ADD75
:100A000042F21F014A460844002303A903906846A6
:100A100000F0C7FD09E0A0F500504A461F3800234A
:100A200003A90390684600F0D1FD8DE8070000049B
:100A3000000C03D04FF0FF30410800E01046B8F141
:100A4000000F03D00022009215461EE0751E05D44B
:100A500000F0BAF9303262556D1EF9D5B346012265
:100A6000084302D000227F1C04E02078302801D106
:100A700000227F1E002A099784D01DE0112D07DA7D
:100A800000F0A2F9303262556D1C50EA0102F5D136
:100A9000084302D00098C8B10EE00021681E05E0AE
:100AA000235C625C63542254401E491C8142F7DB84
:100AB000AB46A81B401E0990002004F80B000B98C1
:100AC000099AC0F80880C0E9002B7AE711264FF098
:100AD000000857E72DE9F04F88460446D21D22F062
:100AE000070191B0D1E90001CDE90A0106F0B4FC9B
:100AF00002460B98C00F01D02D2007E02068810727
:100B000001D52B2002E0202101EAC000032A099030
:100B100001D0072A05DB03464146204600F09AF93A
:100B20000BE12078800601D5E06900E00620B8F1ED
:100B3000650F814606D0B8F1660F18D0B8F1670F7F
:100B400070D131E00020B9F1110F009001DB1123C9
:100B500001E009F101030AAA01A90CA8FFF7E2FECE
:100B6000DDE90C70002609F10105834647E001200C
:100B70004B4600904FF000470AAA01A90CA8FFF7C6
:100B8000D1FEDDE90DB00C995D46002610B909F1E2
:100B900001000D18B9EB050003D4C0F1FF3609F1CF
:100BA0000105A5EB09002BE0B9F1010F01DA4FF0C7
:100BB00001090020B9F1110F0090484601DD112311
:100BC00000E003460AAA01A90CA8FFF7ABFEDDE985
:100BD0000C704D4600268346207800070AD4AB45AA
:100BE00000DA5D4601A8012D04DD411911F8011C50
:100BF000302907D04F4502DA17F1040F04DA01203B
:100C000082460FE06D1EEEE7002F02DCED1B3E4436
:100C100003E0781CA84200DD7D1CB81B00F1010A2E
:100C20004FF000472078000703D4AA4501DB4FF0BE
:100C3000FF3A0021B7F1004F0DF143088DF8431042
:100C400024D002202B23002F01DA7F422D230A21FA
:100C5000021EA0F1010000DC5FB197FBF1FC97FBE5
:100C6000F1F201FB1C7C17460CF1300C08F801CDA9
:100C7000EEE7A8F1010003702188090501D545219F
:100C800000E06521A0F1010800F8011C09980FA9F6
:100C9000A1EB0807FF1D00B10120411901EBEA702B
:100CA000A1693844081A401EA0612078C00602D409
:100CB0002046FFF715FC099828B1D4E90121904797
:100CC000206A401C20622078C00622D52046FFF70B
:100CD00007FC1EE0002E04DBB34502DD01A8805DA9
:100CE00000E03020D4E901219047206A401C2062B6
:100CF000761CAAF101005FEA000A0AD100F060F850
:100D0000C0680168405CD4E901219047206A401C1A
:100D10002062281EA5F10105DCDC07E0D4E90121F1
:100D200018F8010B9047206A401C2062381EA7F17A
:100D30000107F3DC2046FFF7E9FB032011B041E691
:100D400001694A1C02610878704700B58FB0CDE98F
:100D500001310021059105497944CDE9031011467F
:100D60006846FFF721FC0FB000BD0000E5FFFFFF64
:100D70000A6802F8010B0A6070474FF0000204296C
:100D8000C0F0128010F0030C3FF44AADCCF1040C1B
:100D9000BCF1020F18BF00F8012BA8BF20F8022BEE
:100DA000A1EB0C01FFF73CBD5FEAC17C24BF00F85A
:100DB000012B00F8012B48BF00F8012B7047000001
:100DC00000487047C803001030B5B0F10A024FEA7E
:100DD000900E71F100034EEA817EB0EB0E0061EBE4
:100DE00091014FEA101E4EEA017E10EB0E0041EB1E
:100DF00011114FEA102E4EEA016E10EB0E0041EB7E
:100E000011214FEA104E4EEA014E10EB0E0041EB5D
:100E10001141401841F100014FEAD00040EA417011
:100E20004FEAD10110EB80054FEA810444EA907447
:100E300044EB01046D1944EB0404521BA3414FF031
:100E4000000348BF0A3200D530BD401C41F100010B
:100E500030BD00002DE9F0411F460446032601681D
:100E6000072A01F4006004DB08B116A505E016A509
:100E700003E008B115A500E015A521F010002060E1
:100E8000A069C01EA0610FB1401EA0612046FFF7FF
:100E900027FB4FB1D4E9012138469047206A401C16
:100EA0002062C01C206206E0206AFAE7D4E9012132
:100EB00015F8010B9047761EF8D22046FFF726FB67
:100EC000BDE8F0814E414E006E616E00494E460015
:100ED000696E66002DE9F047814616468AB03548AE
:100EE00078440DC88DE80D0032487844801C03AC6E
:100EF0000DC884E80D0041F69B300844372190FB73
:100F0000F1F290FBF1F5A5F1800501FB12041B3C09
:100F100002D56442012000E00020DFF898A080465E
:100F20000027FA44AAF1BE0A0EE0E0070AD03246D2
:100F3000684607EB470101230AEB810100F046FBFD
:100F40008DE8070064107F1C002CEED1194F7F4400
:100F5000AE3F19E0E80715D007EB04100DF1180AB1
:100F600090E80E008AE80E00C068F04201D198199E
:100F700008903246012306A903A800F027FB03AB23
:100F800083E807006D10641C002DE3D14FF00103CE
:100F900032466946B8F1000F03A802D000F001FB09
:100FA00001E000F013FBC9E90001C9F808200AB00C
:100FB000BDE8F08784AF000000487047A803001028
:100FC0007546FFF7F9FFAE4605006946534620F027
:100FD0000700854618B020B5FFF7D2F9BDE82040DC
:100FE0004FF000064FF000074FF000084FF0000BE5
:100FF00021F00701AC46ACE8C009ACE8C009ACE898
:10100000C009ACE8C0098D46704710B50446AFF37F
:1010100000802046BDE81040FFF73DB94FF0013C8D
:1010200050F8042B51F8043B9A4221D1A2EB0C0357
:10103000934313EACC1317D150F8042B51F8043B17
:101040009A4215D1A2EB0C03934313EACC130BD1B4
:1010500050F8042B51F8043B9A4209D1A2EB0C033F
:10106000934313EACC13DBD04FF00000704700BF6E
:10107000D01A01BAB1FA81F101F0180122FA01F097
:10108000CB40C1F12001DBB2C0B2C01A2CFA01F38F
:10109000D11A914311EAC311E6D1704701491820D2
:1010A000ABBEFEE72600020070475FEA400C08BFB7
:1010B00091F0000F4FEA8C234FEAC12243EA5151CD
:1010C0004FEA1C5018BF00F5F0404FEA300018BF3F
:1010D00041F000415FEA6C5C00F02980BCF1FF3F09
:1010E00008BF40F080407047130C06BF12044FF059
:1010F000100C4FF0000C130E04BF12020CF1080C80
:10110000130F04BF12010CF1040C930F04BF9200E3
:101110000CF1020CD30F04BF52000CF1010C11466C
:101120004FF00002A0F11F00A0EB0C00704711F07F
:10113000004F08BF704731F000413FF4D5AF0B0CB2
:1011400006BF09044FF0100C4FF0000C0B0E04BF4B
:1011500009020CF1080C0B0F04BF09010CF1040C7F
:101160008B0F04BF89000CF1020CCB0F04BF4900A8
:101170000CF1010CCCF12003A0EB0C0022FA03F3DC
:1011800002FA0CF241EA030100F10100704720F07D
:101190007F4C80EA030023F07F47ACEB070303F5A5
:1011A0007C5300F0004003F1FF032DE980494FEA32
:1011B000154B09B44FEA144325EA0B4E24EA0348C1
:1011C0000FF2042606EB132749083E785FEA320245
:1011D00003FB0667C7F5000707FB06F64FEA54371F
:1011E0004FEAD64606F1020607FB066CCCF1005C1E
:1011F0004FEA1C472CEA074C07FB06F40CFB06F5EC
:1012000004EB15464FEA961634BF00204FF000401D
:101210004FEAD13706FB07FC4FEA1C4C0CFB0BF7DF
:10122000D21B03FB0CF761EB07010CFB0EF7B0EBD5
:10123000074072EB17420CFB08F734BFA2EB0742E2
:10124000B2EB074261EB17414FEA0C444FEA9107BA
:1012500006FB07FC4FEA1C4C0CFB0BF7B0EBC7403E
:1012600072EB573203FB0CF734BFA2EBC742B2EB71
:10127000C74261EB57310CFB0EF7B0EBC70072EBC6
:1012800057720CFB08F734BFA2EBC702B2EBC702E0
:1012900061EB5771039F4FEA816141EA921104EBC0
:1012A000CC044FEAD1374FEA826206FB07FC42EAE0
:1012B00090124FEA80604FEA1C4C0CFB0BF7D21BDC
:1012C00003FB0CF761EB07010CFB0EF7B0EB0740DB
:1012D00072EB17420CFB08F734BFA2EB0742B2EBEC
:1012E000074261EB17414FEA8C554FEA910704EB37
:1012F0009C2406FB07FC4FEA1C4C0CFB0BF7B0EBE5
:10130000C74072EB573203FB0CF734BFA2EBC74266
:10131000B2EBC74261EB57310CFB0EF7B0EBC700E5
:1013200072EB57720CFB08F734BFA2EBC702B2EBAB
:10133000C70261EB577115EB4C254FEA816141EA19
:1013400092114FEA82624FEAD13742EA901206FBCD
:1013500007FC44F100044FEA80604FEA1C4C0CFB90
:101360000BF7D21B03FB0CF761EB07010CFB0EF72D
:10137000B0EB074072EB17420CFB08F734BFA2EB4F
:101380000742B2EB074261EB174115EB1C154FEA20
:10139000813141EA92414FEA823242EA90424FEA79
:1013A00080304FEA0C7644F1000448EA03434EEAE9
:1013B0000B484FF0000EB2EB080C71EB030724BF93
:1013C000624639464EEB0E0E4FF0000B00185241AC
:1013D00049414BEB0B0BB2EB080C71EB03077BF1B4
:1013E000000B24BF624639464EEB0E0E4FF0000B49
:1013F0000018524149414BEB0B0BB2EB080C71EB5F
:1014000003077BF1000B24BF624639464EEB0E0EFC
:1014100051EA020718BF46F0010616EB0E7655F1A9
:10142000000254F1000103D5BDE88901BDE8008840
:10143000BDE88901BDE80048B619524141EB010100
:10144000A3F10103704780807F7E7D7C7B7A797871
:10145000777676757473727171706F6E6E6D6C6C79
:101460006B6A6A696868676666656464636362611B
:101470006160605F5F5E5E5D5D5C5C5B5B5A5A599C
:101480005958585757565655555554545353525208
:101490005251515050504F4F4F4E4E4D4D4D4C4C60
:1014A0004C4B4B4B4A4A4A494949484848474747A9
:1014B00047464646454545444444444343434342E6
:1014C000424242414141002B9C4630D477002BD010
:1014D0001CB54FEA370703B44FF010004FF010016E
:1014E000BAF1000F06D0BCF1000FDCBF40F00800DD
:1014F00040F008014FF000000FBCBDE810400BF1B8
:10150000010BBBF1010F08BF5FEA170722BF12F101
:10151000010211F101014FF0004143F1000300F01D
:10152000004043EA00007047F9D35708D0E746EA85
:10153000064613F1400F4FEA16461FDD13F1200F48
:10154000DFBF16430A46002120335B42BED0C3F101
:10155000200746EA064602FA07F74FEA164646EA29
:101560000706C3F1200722FA03F201FA07F721FA6E
:1015700003F14FF0000342EA0702A7E746EA02063A
:1015800046EA06464FEA164646EA0106BCBF46EA68
:101590000646360C4FF000034FF000024FF00001FA
:1015A00094E72DE9804C9A46934670B491E8380050
:1015B00007C831EA400C48BF34EA430C03D5FFF7B3
:1015C000E6FDFFF780FFF0BCBDE8008C2DE9804C04
:1015D0009A46934670B491E8380007C810F0804FDF
:1015E00008BF13F0804F03D100F005F8FFF76BFF41
:1015F000F0BCBDE8008C20F07F4780EA030023F0B8
:101600007F4C07EB0C03A3F57C5300F00040A3F1E3
:10161000FE0392F0000F00F0B38095F0000F00F091
:1016200077802DE901494FEA11404FEA144621EA3B
:10163000004800FB06FC24EA064708FB06F607FB09
:1016400008F800FB07F718EB06484CEB164C4FEA7E
:10165000124B18EB07484FEA15464CEB174022EAAD
:101660000B4E0BFB06FC25EA06470EFB06F607FBB6
:101670000EFE0BFB07F71EEB064E4CEB164C4FF025
:1016800000061EEB074E4CEB174B18EB0B0840F116
:10169000000018EB0E0B58EB000840F100008F1A09
:1016A0004FF000013CBFC943661B14BFB5EB040CEF
:1016B00000213CBFC943F61B4FEA17444EEA8E0E89
:1016C00027EA04454FEA1C4704FB07622CEA074C53
:1016D00005FB07F70CFB05F604FB0CFC16EB0746B5
:1016E00042EB174216EB0C4642EB1C421BEB060684
:1016F00058EB0202414146EA9E0601D5BDE8018948
:10170000B619524141EB0101A3F10103BDE8018982
:101710004FEA14454FEA114724EA054621EA074CEF
:1017200005FB07F406FB07F70CFB06F105FB0CFCB9
:1017300011EB074144EB17444FEA124711EB0C4100
:1017400044EB1C4422EA074C05FB07F206FB07F7B3
:101750000CFB06F605FB0CFC16EB074642EB1742AA
:1017600016EB0C4642EB1C456A1854F1000148BFC9
:101770007047B619524141EB0101A3F101037047D3
:1017800095F0000F37D04FEA11424FEA144721EA93
:10179000024624EA074C02FB07F106FB07F70CFBA5
:1017A00006F402FB0CFC14EB074441EB17414FEA33
:1017B000154714EB0C4441EB1C4125EA074C02FB96
:1017C00007F506FB07F70CFB06F602FB0CFC16EB15
:1017D000074645EB174516EB0C4645EB1C42121924
:1017E00051F1000148BF7047B619524141EB010168
:1017F000A3F1010370474FEA14454FEA114724EA69
:10180000054621EA074C05FB07F106FB07F70CFB31
:1018100006F24FF0000605FB0CFC12EB074241EB11
:10182000174112EB0C4251EB1C4148BF7047921814
:1018300041EB0101A3F10103704770B505466C6AE5
:10184000206C00F05000D0B9206C40F4007020648F
:101850002068C06800F4406068B9607E58B9206CA8
:1018600020F480702064206C00F4805018B9206C43
:1018700040F001002064204601F022F803E0A06B54
:10188000016B2846884770BD70B505466C6A206CB0
:1018900040F040002064606C40F00400606420462A
:1018A00001F010F870BD70B50446656A284601F075
:1018B00008F870BD70B5044600252068806800F007
:1018C0000300012806D12068006800F0010008B17B
:1018D000012000E0002000283BD02068806800F054
:1018E0000D00012800D100E0002050B100BF2068A9
:1018F000806840F002002168886003202168086049
:1019000009E0206C40F010002064606C40F00100A1
:101910006064012070BD02F0CBF9054613E002F0CF
:10192000C7F9401B02280ED92068806800F001002A
:1019300048B1206C40F010002064606C40F0010061
:1019400060640120E6E72068806800F0010000285C
:10195000E5D10020DEE7000070B5044600252068D0
:10196000806800F00300012806D12068006800F0BC
:10197000010008B1012000E0002080BB20688068E1
:101980001B49084008B9012000E0002048B9206C3C
:1019900040F010002064606C40F0010060640120A1
:1019A00070BD2068806840F001002168886002F006
:1019B0007FF9054614E002F07BF9401B02280FD99D
:1019C0002068006800F0010050B9206C40F0100061
:1019D0002064606C40F0010060640120E0E705E0F5
:1019E0002068006800F001000028E4D00020D7E75C
:1019F0003F00008000BFFEE7002101604160816080
:101A0000C1600161416181610121C1610162002107
:101A10004162704700B58BB001A8FFF7EDFF01A947
:101A2000054801F0D7FA0221034801F013FA0248F1
:101A300001F04FFE0BB000BD6402002010B502485B
:101A400001F00BFC10BD00006402002030B589B02D
:101A500005460C4600950020029003900820049053
:101A60002088000A8DF8180021788DF819106088F8
:101A7000010A8DF81A10A1788DF81B10A088010AB0
:101A80008DF81C1021798DF81D10E088010A8DF861
:101A90001E10A1798DF81F1008AB06AA69460448EC
:101AA00001F0EDF910B1012009B030BD0020FBE7D5
:101AB0006402002070B52DED028B05460C462E2DDC
:101AC00056D16078217840EA01204B4908800846C9
:101AD00000883C2801DD3C200880E078A17840EABD
:101AE00001204549098988421CD0E078A17840EA64
:101AF0000120414908810846008900EE100AB8EE2D
:101B0000400ADFED3E0A80EE201A3D4890ED0D0AB6
:101B100031EE400AB0EE408A3A4804F077FC38488B
:101B200080ED1B0A6079217940EA01203249498918
:101B300088425AD06079217940EA01202E494881B3
:101B40000846408900EE100AF8EE400A9FED2B1A75
:101B500080EE810A2A48D0ED0E0A30EE600AB0EE1F
:101B6000408A294804F052FC254880ED1C0A3CE0DC
:101B70002F2D3AD125480078032818D06078217895
:101B800040EA01201C494880E078A17840EA012021
:101B900000B2194988806079217940EA012016490C
:101BA000C880E079A17940EA012013498881124870
:101BB0004088782802DD78200F4948800E48B0F927
:101BC0000400B0F5967F05DC0B48B0F9040010F175
:101BD000780F03DA4FF49670074988800648C0886A
:101BE000962802DD96200449C88000200849086133
:101BF000BDEC028B70BD00002406002000007A447A
:101C00006000002038050020080500205100002059
:101C10003C00002010B5024801F091FD10BD00000D
:101C20001401001010B5024801F089FD10BD00003C
:101C300058010010054A0168891A1422B1FBF2F11B
:101C40008900016401490839C163704708000240F6
:101C500030B590F840500124AC40C56B6C6004680E
:101C600063604468102C04D10468A2600468E160D9
:101C700003E00468A1600468E26030BD70470000C2
:101C80001FB501F017FF00200090054801900820C3
:101C9000029003A9684601F053FE01F0A9FE1FBDA2
:101CA00000C000081FB501F005FF002000900B48A0
:101CB0004068401C00EB40000121C1EB8000C00ADD
:101CC000074901EBC02001900120029003A968465A
:101CD00001F036FE01F08CFE1FBD0000BC060020A6
:101CE00000C0000872B600BFFEE7000000200749F0
:101CF000C8610748006940F00400054908610846CA
:101D0000006940F040000861704700007002001058
:101D1000002002400021074AD1610749096941F0CA
:101D20000201054A116111464861096941F040010B
:101D30001161704770020010002002400022054B24
:101D4000DA61054A126942F00102034B1A6101800F
:101D500070470000700200100020024000200F4970
:101D6000C96801F01001102907D10D49C96941F076
:101D700002010B4AD16140F010000849C96801F026
:101D80000401042907D10649C96941F00101044A47
:101D9000D16140F004000149C86070470020024052
:101DA0007002001070B5044601F082FF054609E09C
:101DB000601C38B124B101F07BFF401BA04201D967
:101DC000032070BD0F48C06800F001000028EFD16B
:101DD0000C48C06800F02000202801D10949C860E3
:101DE0000848C06800F01000102805D00548C068F9
:101DF00000F00400042803D1FFF7B0FF0120E0E762
:101E00000020DEE7002002400D48C07A012816D1EC
:101E100000200B49C872C8600BE00948C068094936
:101E2000405CFF2800D009E00548C068401C044918
:101E3000C8600348C068B0F5804FEED300BF70475C
:101E4000BC06002000C0000810B50748407A0128F1
:101E500008D1002004494872FFF712FF0020024910
:101E60000860486010BD0000BC060020002008E0AB
:101E700000EB4001164A12F82110FF2900D104E0BE
:101E8000401C40F255518842F2D300BF40F25551F8
:101E9000884201D2014600E000210E4A516008E06C
:101EA00000EB40010A4A12F82110A52900D104E0F4
:101EB000401C40F255518842F2D300BF40F25551C8
:101EC000884201D2014600E00021024A11607047B9
:101ED00000C00008BC0600200A48007A012810D182
:101EE0000020084908720846006900EB40000649D6
:101EF00001EB8000054902680A6042684A60806818
:101F000088607047BC06002000C00008F90100206E
:101F100070B52148406800EB4000204901EB80008B
:101F200040894FF6FF71884201D0FFF7BBFE1C4885
:101F30001C490A6802604A6842608968816001F051
:101F4000B9FD002413E0164850F8245012484068A8
:101F500000EB4000114A02EB8000042202FB040166
:101F60002A460023022001F04DFD601CC4B2032C60
:101F7000E9DB01F03DFD0848406840F254518842D9
:101F800005D205484068401C0349486002E0002033
:101F90000149486070BD0000BC06002000C0000878
:101FA000D0060020F901002030B52DED028B85B060
:101FB000002001900290039004900090B3480068C4
:101FC000C06900F02000202805D10A2301226946BB
:101FD000AE4803F0B1FEAE48807A012803D09DF8E8
:101FE00000003F287ED10020A94988720090084651
:101FF000046800684968884275D396E004EB4400A1
:10200000A44911F82000A52800D093E004EB440077
:10201000A04901EB800042789FA101A8FEF74CFA8D
:1020200001A8FEF75DFB85B264232A4601A9974803
:1020300003F016FF04EB4400964901EB8000428850
:1020400095A101A8FEF738FA01A8FEF749FB85B271
:1020500064232A4601A98D4803F002FF04EB4400E3
:102060008C4901EB800082888BA101A8FEF724FA3D
:1020700001A8FEF735FB85B264232A4601A98348EF
:1020800003F0EEFE04EB4400824901EB8000C288BD
:1020900081A101A8FEF710FA01A8FEF721FB85B285
:1020A00064232A4601A9794803F0DAFE04EB4400D0
:1020B000784901EB8000B0F9082077A101A8FEF76C
:1020C000FBF901A8FEF70CFB85B264232A4601A99F
:1020D0006E4803F0C5FE04EB44016E4A02EB810139
:1020E000498901E0C5E027E008B2DFED6C0AB3EEF4
:1020F0000E0A6B4A514206F0DFFB10EE105A2846DA
:1021000009F094F941EC180B53EC182B65A101A8C8
:10211000FEF7D2F901A8FEF7E3FA85B264232A4656
:1021200001A95A4803F09CFE641C40F255508442B9
:10213000FFF464AF00BF002493E004EB4400554972
:1021400011F82000A52800D091E004EB440051498B
:1021500001EB8000427850A101A8FEF7ADF901A87B
:10216000FEF7BEFA85B264232A4601A9474803F068
:1021700077FE04EB4400474901EB8000428846A10A
:1021800001A8FEF799F901A8FEF7AAFA85B264231F
:102190002A4601A93D4803F063FE04EB44003D4993
:1021A00001EB800082883CA101A8FEF785F901A817
:1021B000FEF796FA85B264232A4601A9334803F054
:1021C0004FFE04EB4400334901EB8000C28832A18A
:1021D00001A8FEF771F901A8FEF782FA85B264231F
:1021E0002A4601A9294803F03BFE04EB4400294993
:1021F00001EB8000B0F9082027A101A8FEF75CF9E7
:1022000001A8FEF76DFA85B264232A4601A91F488A
:1022100003F026FE04EB44011E4A02EB81014989CA
:1022200008B2DFED1E0AB3EE0E0A1D4A514206F057
:1022300043FB10EE105A284609F0F8F841EC180B51
:1022400053EC182B17A101A8FEF736F901A8FEF7E9
:1022500047FA85B264232A4601A90C4803F000FE20
:10226000641C0B484068401EA0423FF766AF00BFA9
:1022700008E09DF800002F2804D10120044948728D
:102280000020009005B0BDEC028B30BD9C01001019
:10229000BC06002000C000082564200000000000EB
:1022A0000083FFFF252E3166200D0A002DE9F04145
:1022B00004460E46002700BF94F83C00012802D1D6
:1022C0000220BDE8F081012084F83C0000BF2046D8
:1022D000FFF7F0FA074697BB01202064206880686A
:1022E00020F0804021688860012E05D12068806838
:1022F00040F08040216888602068806840F000409D
:102300002168886001F0D4FC054619E001F0D0FC9A
:10231000401B0A2814D92068806800F00040B0F102
:10232000004F0DD1206C20F0020040F0100020641E
:1023300000BF002084F83C0000BF0120C1E70CE092
:102340002068806800F00040B0F1004FDED0206CC3
:1023500020F0020040F00100206400BF002084F85B
:102360003C0000BF3846ACE770B594B002460B465F
:102370000024186800B100BF1068B0F1A04F02D16E
:102380004648009002E04FF0A0400090009810B93D
:10239000012014B070BD00BF92F83C00012801D1AB
:1023A0000220F6E7012082F83C0000BF1068806838
:1023B000C0F38000002864D100988068C0F38000DA
:1023C00000285ED13649186890B392F830005D68F5
:1023D00045EA40308D6825F46045284388601068E0
:1023E000806800F00300012806D11068006800F042
:1023F000010008B1012000E00020002846D100982B
:10240000806800F00300012806D10098006800F001
:10241000010008B1012000E0002088BB9D68186819
:1024200028438D6840F61F76B543284388602DE029
:10243000FFE7886820F4604088601068806800F0DA
:102440000300012806D11068006800F0010008B1FF
:10245000012000E0002098B90098806800F0030097
:10246000012806D10098006800F0010008B10120A1
:1024700000E0002020B9886840F61F75A8438860F6
:1024800004E0106C40F020001064012400BF002024
:1024900082F83C0000BF20467BE7000000010050AE
:1024A00000030050F0B595B00246002500200090D2
:1024B000C868012800D000E000BF00BF92F83C00CF
:1024C000012802D1022015B0F0BD012082F83C00A5
:1024D00000BF10688068C0F38000002879D1486888
:1024E000052812D21068006B0E7906EB46067700BD
:1024F0001F26BE40B0430F7907EB47077F000E68E9
:10250000BE4030431668306343E048680A2814D25E
:102510001068406B0E79761F06EB460677001F2683
:10252000BE40B0430F797F1F07EB47077F000E685F
:10253000BE403043166870632BE048680F2814D201
:102540001068806B0E790A3E06EB460677001F2660
:10255000BE40B0430F790A3F07EB47077F000E6884
:10256000BE4030431668B06313E01068C06B0E794C
:102570000F3E06EB460677001F26BE40B0430F799C
:102580000F3F07EB47077F000E68BE4030431668D9
:10259000F0631068806800F00C0008B1012000E0D2
:1025A0000020002870D108680A2813D310688069B9
:1025B0000E780A3E06EB46070726BE40B0430F786A
:1025C0000A3F07EB47078E68BE4030431668B0618C
:1025D00010E05FE1106840690E7806EB46070726B9
:1025E000BE40B0430F7807EB47078E68BE403043CC
:1025F0001668706148691668F668C6F3C106760009
:1026000000FA06F40869012806D0022812D003282F
:102610001ED0042839D129E01068006EA34E304046
:102620000E784FF0004747EA866626433043166827
:10263000306663E01068406E9C4E30400E784FF07C
:10264000004747EA8666264330431668706655E0C1
:102650001068806E954E30400E784FF0004747EA84
:102660008666264330431668B06647E01068C06E41
:102670008E4E30400E784FF0004747EA866626437C
:1026800030431668F06639E039E01068006E00F0FB
:10269000F8400E78B0EB866F05D11068006E20F020
:1026A0000040166830661068406E00F0F8400E7802
:1026B000B0EB866F05D11068406E20F000401668C0
:1026C00070661068806E00F0F8400E78B0EB866F90
:1026D00005D11068806E20F000401668B066106862
:1026E000C06E00F0F8400E78B0EB866F05D1106830
:1026F000C06E20F000401668F06600BF00BF106892
:10270000806800F00300012806D11068006800F01E
:10271000010008B1012000E0002000287ED1C86837
:1027200001280AD01068D0F8B0000F780126BE400A
:10273000B0431668C6F8B00032E01068D0F8B000B8
:102740000F780126BE4030431668C6F8B00008680E
:102750000A2813D3106886690878093800EB400707
:102760000720B84026EA00000E78093E06EB460630
:102770008F68B74038431668B06111E0106840694F
:102780000E78761C06EB46070726BE40B0430F784E
:102790007F1C07EB47078E68BE40304316687061A8
:1027A000434B0868102803D1986800F4000070B10A
:1027B0000868112803D1986800F0807038B1086863
:1027C00012286CD1986800F48000002867D1106846
:1027D000B0F1A04F02D13748019002E04FF0A04085
:1027E00001901068806800F00300012806D110688D
:1027F000006800F0010008B1012000E0002070BB7B
:10280000019880B10198806800F00300012808D188
:102810000198006800F0010018B100E033E00120E9
:1028200000E00020D8B90868102819D11068B0F16C
:10283000A04F15D1986840F4000098601E480068C9
:102840001E4EB0FBF6F000EB80004000009002E06E
:102850000098401E009000980028F9D11FE013E076
:102860000868112808D11068B0F1A04F04D1986809
:1028700040F08070986012E0086812280FD19868C4
:1028800040F4800098600AE0106C40F02000106472
:10289000012504E0106C40F020001064012500BF09
:1028A000002082F83C0000BF28460CE600F0FF83C1
:1028B00000030050000100500C00002040420F00B7
:1028C0007047704770470000F0B595B00446002689
:1028D00000250020009014B9012015B0F0BD20693A
:1028E00018B12020005D00B100BF206C00F0100086
:1028F000002853D1206C98BB002060640021E16463
:10290000A06484F83C00204600F008F92068806844
:1029100000F0805020BB2046FEF7CCFF0646206C1E
:1029200000F01000E0B9DEB9206C20F4885040F0CF
:10293000020020642068806820F040502168886090
:102940002068806840F08050216888606E48006888
:102950006E49B0FBF1F000EB80004000009003E016
:1029600005E00098401E009000980028F9D12068EA
:10297000806800F0805030B12068806800F000501E
:10298000B0F1005F0AD1206C20F0020040F010008E
:102990002064606C40F0010060640126206C00F04F
:1029A0001000002873D1002EFCD120688068C0F38D
:1029B00080000028F6D1206C20F4807040F00200E6
:1029C0002064534F2068B0F1A04F02D151480190CC
:1029D00002E04FF0A04001902068806800F0030002
:1029E000012806D12068006800F0010008B101202C
:1029F00000E00020B0B9019870B10198806800F043
:102A00000300012806D10198006800F0010008B118
:102A1000012000E0002028B9B86820F44030616847
:102A20000843B860606B012802D04FF4805100E089
:102A30000021607E41EA4030E1680843A168084314
:102A400005432020005D012813D1607E38B9A08C99
:102A5000401E4FF4803141EA4040054309E0206CBC
:102A600020F0020040F020002064606C40F0010083
:102A70006064A06A012803D0D4E90A010843054331
:102A80002068806800F00C0010B1012001E032E005
:102A9000002068B92068C06844F2020188432168B8
:102AA000C860207E810394F8300041EA400005436D
:102AB0002068C0681849084028432168C860206918
:102AC000012809D12068006B20F00F00E169491E40
:102AD00008432168086305E02068006B20F00F00C0
:102AE0002168086300206064206C20F0020040F040
:102AF0000100206406E0206C20F0020040F010008D
:102B0000206401263046E8E60C00002040420F0019
:102B1000000300500001005007C0F0FF10B586B060
:102B20000446142101A8FDF779FE2068B0F1A04FFA
:102B300063D167480068401C654908600846006822
:102B400001280DD100BF6348406940F080506149C1
:102B500048610846406900F08050009000BF00BF07
:102B600000BF5C48406940F400305A49486108465B
:102B7000406900F40030009000BF00BF00BF08466D
:102B8000406940F4802048610846406900F4802094
:102B9000009000BF00BF0820019003200290002099
:102BA000039001A94FF0904000F09CFF42F2010019
:102BB0000190032002900020039001A9464800F0F4
:102BC00091FF46484649086000204860002144487B
:102BD00081608021C160490001618900416120213B
:102BE00081610902C16100F01DFE08B1FFF77AF8AA
:102BF00000BF3B48A063446268E03A4920688842CD
:102C000064D133480068401C3149086008460068B8
:102C100001280DD100BF2F48406940F080502D4958
:102C200048610846406900F08050009000BF00BF36
:102C300000BF2848406940F40030264948610846F2
:102C4000406900F40030009000BF00BF00BF08469C
:102C5000406940F4802048610846406900F48020C3
:102C6000009000BF00BF10200190032002900020C0
:102C7000039001A94FF0904000F034FF41F20400AE
:102C80000190032002900020039001A9124800F057
:102C900029FF1248143014490860002048600021C0
:102CA000114881608021C160490001618900416152
:102CB000202181610902C16100F0B4FD08B1FFF774
:102CC00011F800BF0848A063446200BF06B010BD01
:102CD0000C000010001002400004004808000240F0
:102CE0001401001000010050580100102DE9F041BE
:102CF00004460D461646002720688068C0F3800011
:102D000000287DD100BF94F83C00012802D10220A8
:102D1000BDE8F081012084F83C0000BF484800680D
:102D200000F01F0000286CD12046FEF715FE074674
:102D3000002F76D1206C40F60161884340F480700A
:102D400020643F48006800F01F0018B12068B0F10F
:102D5000A04F0FD1206C20F4801020642068C06840
:102D600000F0007000B3206C20F4005040F480505C
:102D7000206419E0206C40F4801020642068B0F1D9
:102D8000A04F03D02F492068884205D14FF0A040C2
:102D9000C06800F0007000E0002028B1206C20F432
:102DA000005040F480502064206C00F48050B0F556
:102DB000805F04D1606C20F00600606401E00020B8
:102DC000606400BF002084F83C0000BF1E48A16B77
:102DD00088621E48A16BC8621D48A16B08631C2055
:102DE000216808602068406840F010002168486051
:102DF0002068C06840F001002168C860226802E0D5
:102E00001AE013E00DE002F1400133462A46A06BC0
:102E100000F033FD2068806840F00400216888607D
:102E20000BE000BF002084F83C0006E0012700BF53
:102E3000002084F83C0000E00227384668E70000E4
:102E400008030050000100503B180008A7180008B4
:102E50008918000810B5024692F82030012B01D0E5
:102E6000022B06D110684069084314686061002095
:102E700010BD506A40F4802050620120F8E7F0B5A0
:102E800004460D461E4694F8207020688368A868A2
:102E900000B900E000BF012F01D0022F7CD103F068
:102EA000806030B903F0006018B903F0805000284A
:102EB00073D0C3F30161022905D9606A40F40000B0
:102EC00060620120F0BD012088403060A86860B9D0
:102ED000B5F800C0E86840EA4C5C206800F5C070B6
:102EE00000EB0110C0F800C00FE0D5E901C040EAD6
:102EF000CC00D5F80CC040EA0C00D4F800C00CF5AA
:102F0000C07C0CEB011CCCF80000D5F810C0206888
:102F100000F5C07000EB0110C0F804C0287D012846
:102F20000ED1206800F5C07000EB0110406840F43D
:102F3000807C206800F5C07000EB0110C0F804C070
:102F4000D079000692F806C040EA0C4092F805C01D
:102F500040EA0C2C10794CEA000C206800F5C07097
:102F600000EB0110C0F80CC0D078000692F802C047
:102F700040EA0C4092F801C040EA0C2092F800C0F0
:102F800040EA0C00D4F800C00CF5C07C0CEB011C2E
:102F9000CCF80800206801E016E00FE000F5C070F2
:102FA00000EB0110006840F0010C206800F5C070D3
:102FB00000EB0110C0F800C0002083E7606A40F415
:102FC0000010606201207DE7606A40F4802060624A
:102FD000012077E7F0B504460A46216894F82050AE
:102FE000012D01D0022D74D1D1F8000240F0010072
:102FF000C1F80002107D00F01F06012000FA06F360
:10300000D1F81C029843C1F81C02D069C8B9D1F8A4
:103010000C029843C1F80C02908880B2968940EA6D
:10302000064601F51070576940F83760108880B285
:10303000168940EA064601F51070576900EBC70093
:103040004660D069012819D1D1F80C021843C1F8A3
:103050000C02908880B2168840EA064601F510708E
:10306000576940F83760908980B2168940EA064671
:1030700001F51070576900EBC7004660906928B9E8
:10308000D1F804029843C1F8040204E0D1F8040224
:103090001843C1F80402106928B9D1F81402984302
:1030A000C1F8140204E0D1F814021843C1F8140264
:1030B000106A012804D1D1F81C021843C1F81C027F
:1030C000D1F8000220F00100C1F800020020F0BD9C
:1030D000FFE7606A40F4802060620120F7E77047F4
:1030E00070B5044694F82050012D01D0022D7DD1F9
:1030F00051B92068C06800F0030080B9606A40F4EC
:1031000000106062012070BD2068006900F00300BB
:1031100028B9606A40F4001060620120F3E720687B
:1031200000F5D87000EB0110006800F0040090601A
:10313000906840B9206800F5D87000EB0110006875
:10314000400D106007E0206800F5D87000EB01101A
:103150000068C0085060206800F5D87000EB0110CE
:10316000006800F00200D060206800F5D87000EB25
:103170000110406800F00F001061206800F5D87061
:1031800000EB0110406800F47F40000A9061206865
:1031900000F5D87000EB01104068000C5061206809
:1031A00000F5D87000EB011080681870206800F5F9
:1031B000D87000EB0110806800F47F40000A58705E
:1031C000206800F5D87000EB0110806800F47F00E3
:1031D000000C9870206800F5D87000EB0110806832
:1031E000000ED870206800F5D87000E02FE000EBEA
:1031F0000110C0681871206800F5D87000EB01104C
:10320000C06800F47F40000A5871206800F5D8704B
:1032100000EB0110C06800F47F00000C987120687A
:1032200000F5D87000EB0110C068000ED87131B9FC
:103230002068C06840F020002668F06005E0206843
:10324000006940F020002668306100205BE7606A7A
:1032500040F480206062012055E72DE9F05F0446CC
:103260000025206846692068D0F8049020688768A7
:103270002068D0F80CA02068D0F810B02068D0F8F2
:10328000188006F00100002855D007F00100C0B1F9
:1032900001202168886007F0020018B1204600F084
:1032A00048FA0EE007F0040010B145F4006508E0AC
:1032B00007F0080010B145F4805502E0204600F008
:1032C00037FA07F48070C8B14FF4807021688860C5
:1032D00007F4007018B1204600F02DFA0EE007F454
:1032E000806010B145F4005508E007F4006010B1AB
:1032F00045F4804502E0204600F01CFA07F48030D7
:10330000C8B14FF480302168886007F4003018B1EC
:10331000204600F012FA0EE007F4802010B145F4C8
:10332000004508E007F4002010B145F4803502E0C4
:10333000204600F001FA06F0080038B10AF010004B
:1033400020B145F4007510202168C86006F0040023
:1033500040B10AF0080028B108202168C860204662
:1033600000F0A0F906F0020038B12068C06800F053
:10337000030010B1204600F097F906F0400038B184
:103380000BF0100020B145F4806510202168086121
:1033900006F0200040B10BF0080028B10820216899
:1033A0000861204600F092F906F0100038B120685C
:1033B000006900F0030010B1204600F088F906F41F
:1033C000003040B109F0100028B110202168486099
:1033D000204600F07DF906F4803040B109F0080085
:1033E00028B1082021684860204600F0A7F906F4BB
:1033F000004088B309F0040078B306F4807020B16F
:1034000008F0010008B145F0010506F4007020B194
:1034100008F0020008B145F0020506F4806020B112
:1034200008F0040008B145F0040506F40060A0B1FE
:1034300008F0700088B108F07000402817D006DC52
:1034400010280BD020280CD0302819D10CE050289F
:1034500010D0602814D110E01DE019E045F00805F7
:103460000FE045F010050CE045F0200509E045F0BF
:10347000400506E045F0800503E045F4807500E076
:1034800000BF00BF2068806920F07000216888615B
:103490000420216848602DB1606A2843606220469C
:1034A000FFF71DFEBDE8F09F70B504460CB9012082
:1034B00070BD94F8200010B9204600F0AFF82068E5
:1034C000006840F001002168086000F0F1FB05464B
:1034D0000DE000F0EDFB401B0A2808D9606A40F4BB
:1034E00000306062052084F820000120E0E72068B9
:1034F000406800F001000028EBD02068006820F050
:1035000002002168086000F0D3FB05460DE000F0E2
:10351000CFFB401B0A2808D9606A40F40030606283
:10352000052084F820000120C2E72068406800F0F0
:1035300002000028EBD1207E012806D12068006817
:1035400040F080002168086005E02068006820F0F5
:10355000800021680860607E012806D1206800682C
:1035600040F040002168086005E02068006820F015
:10357000400021680860A07E012806D1206800680C
:1035800040F020002168086005E02068006820F015
:10359000200021680860E07E012806D120680068CC
:1035A00020F010002168086005E02068006840F005
:1035B000100021680860207F012806D1206800687B
:1035C00040F008002168086005E02068006820F0ED
:1035D000080021680860607F012806D12068006823
:1035E00040F004002168086005E02068006820F0D1
:1035F000040021680860D4E90201084321690843F6
:10360000616908436168491E08432168C861002058
:103610006062012084F82000002049E710B586B0E0
:103620000446142101A8FDF7F9F81C4920688842D6
:1036300031D100BF1A48C06940F000701849C86114
:103640000846C06900F00070009000BF00BF00BFD6
:103650000846406940F4003048610846406900F47B
:103660000030009000BF00BF4FF4C0500190022016
:10367000029000200390032004900920059001A9E6
:10368000C00600F02FFA00220521142000F04EFFA2
:10369000142000F03BFF06B010BD000000640040A5
:1036A000001002407047000010B50446064BA3F11D
:1036B0001C0200212046FFF713FD03491C3908684E
:1036C0001C31FEF7F7F910BD380200207047704733
:1036D000704770B5044694F82000012822D10220DA
:1036E00084F820002068006820F00100216808604C
:1036F00000F0DEFA05460DE000F0DAFA401B0A2879
:1037000008D9606A40F400306062052084F8200027
:10371000012070BD2068406800F001000028EBD156
:103720006062F6E7606A40F4002060620120F0E722
:10373000704770477047704770477047704770B563
:103740000446E06B05682068066894F84010042081
:1037500088402840D0B106F00400B8B12068006865
:1037600000F0200028B92068006820F004002168DB
:10377000086094F8401004208840E16B4860E06ADB
:1037800000284ED02046E16A88474AE094F840106D
:1037900002208840284008B306F00200F0B12068FB
:1037A000006800F0200040B92068006820F00A009E
:1037B00021680860012084F8210094F8401002205C
:1037C0008840E16B486000BF002084F8200000BF03
:1037D000A06A30B32046A16A884722E094F84010DE
:1037E000082088402840E0B106F00800C8B12068F1
:1037F000006820F00E002168086094F84010012055
:103800008840E16B48600120A06384F8210000BF7C
:10381000002084F8200000BF206B10B12046216BEF
:10382000884770BD70B5044600250CB9012070BDF5
:10383000022084F821002068056843F6F070854373
:10384000D4E901010843E16808432169084361693B
:103850000843A1690843E1690843054320680560FE
:103860002046FEF7E7F90020A063012084F821003C
:10387000002084F8200000BFD9E72DE9F04104467C
:103880000D4616461F464FF0000800BF94F8200072
:10389000012802D10220BDE8F081012084F8200037
:1038A00000BF94F8210001282CD1022084F82100C7
:1038B0000020A0632068006820F0010021680860F3
:1038C0003B46324629462046FEF7C2F9E06A30B14F
:1038D0002068006840F00E00216808600BE0206856
:1038E000006840F00A00216808602068006820F045
:1038F0000400216808602068006840F00100216829
:10390000086006E000BF002084F8200000BF4FF0F0
:1039100002084046BFE7000070B5044600F0C8F951
:1039200006462546681C10B104480078054400BFCF
:1039300000F0BEF9801BA842FAD370BD0800002039
:103940002DE9F04104460E460127002500BF264818
:10395000007E012802D10220BDE8F0810120224929
:10396000087600BF2068012812D14CF25030FEF7D3
:1039700019FA88BBFEF7BAF94CF25030FEF712FA8A
:1039800007461A48006920F004001849086123E03E
:103990004CF25030FEF706FAF0B94FF0FF303060CD
:1039A000656812E02846FEF7B5F94CF25030FEF794
:1039B000F9F907460D48006920F002000B4908613B
:1039C0000FB1356007E005F50065D4E9011001EBA2
:1039D000C020A842E6D800BF00BF002002490876F8
:1039E00000BF3846B8E70000700200100020024017
:1039F0000348006940F080000149086100207047D9
:103A0000002002402DE9FE4F05468B46174698469A
:103A1000012600240020029000BF2448007E0128D7
:103A200002D10220BDE8FE8F01202049087600BFA8
:103A30004CF25030FEF7B6F9064686BB012D02D196
:103A40000120029006E0022D02D10220029001E046
:103A50000420029000241EE02201B946C2464846D6
:103A60005146FCF716FD80B20190022000FB04B025
:103A700000900199FEF762F94CF25030FEF792F98E
:103A800006460B48006920F001000949086106B1AB
:103A900004E0601CC4B202988442DDDB00BF00BFBA
:103AA00000200249087600BF3046BBE770020010D4
:103AB0000020024000200849096901F0800151B14D
:103AC0000649054A5160064951601146096901F0ED
:103AD000800101B1012070470020024023016745A9
:103AE000AB89EFCD78B503460A460021BFE0012639
:103AF0008E40156805EA0604002C73D0157905F090
:103B00000305012D04D0157905F00305022D13D10D
:103B100098684E000325B540A8434E00D568B540CF
:103B200028439860586801258D40A8431579C5F34E
:103B300000158D4028435860157905F00305032DC5
:103B400009D0D8684E000325B540A8434E009568BB
:103B5000B5402843D860157905F00305022D13D12F
:103B6000CE0803F1200555F826004D07EE0E0F256F
:103B7000B540A8434E07F60E1569B5402843CE0858
:103B800003F1200545F8260018684E000325B540CE
:103B9000A843157905F003054E00B5402843186089
:103BA000556805F44035002D60D000BF334DAD6938
:103BB00045F00105314EB5613546AD6905F00105A9
:103BC000009500BF00BF4FEAB6358E0855F82600B5
:103BD0008D072E0F0F25B540A843B3F1904F02D1AA
:103BE000002510E042E0264DAB4201D101250AE05C
:103BF000244DAB4201D1022505E0234DAB4201D15A
:103C0000032500E005258E07360FB54028431F4DDC
:103C10008E0845F826001E4D2868A043556805F417
:103C2000803505B120431A4D28602D1D2868A0431A
:103C3000556805F4003505B12043154D2D1D28604C
:103C40002D1D2868A043556805F4801505B1204353
:103C50000F4D083528602D1D2868A043556805F4D0
:103C6000001505B120430A4D0C352860491C156824
:103C7000CD40002D7FF43BAF78BD00000010024026
:103C80000004004800080048000C004808000140FB
:103C900000040140024613690B400BB1012000E013
:103CA000002070470AB1816100E081627047000026
:103CB000014800687047000000000020024600BF75
:103CC00092F8C000012801D102207047012082F83B
:103CD000C00000BF022082F8C100481C80B91068F3
:103CE000D0F8CC0320F002031068C0F8CC33106881
:103CF000D0F8CC0340F001031068C0F8CC3318E0D2
:103D00001068D0F8CC0340F002031068C0F8CC3340
:103D10001068D0F8CC0320F00C0008431368C3F8F7
:103D2000CC031068D0F8CC0340F001031068C0F851
:103D3000CC33012082F8C1000020C6E730B503462D
:103D40000C4693F8C100022800D130BD00BF93F8A3
:103D5000C000012801D10220F7E7012083F8C0004C
:103D600000BF022083F8C100108800F4E051908861
:103D7000C0F308000143108900F400700143108A69
:103D800000F480400143908900F400400143908A90
:103D9000134D05EA00400143906900F000700143B3
:103DA000106A00F080400143D06900F000400143F8
:103DB0001868803000EBC410806B0A4D284008431F
:103DC0001D68803505EBC415A863012083F8C10088
:103DD00000BF002083F8C00000BF00BFB5E70000AF
:103DE0000000FF010020003CF8B504460CB901209A
:103DF000F8BD0220C43404F8030C00202060606089
:103E0000A060E06020616061C43C207A00F00100A5
:103E100008B33549206888420DD100BF3348806916
:103E200040F00050314988610846806900F0005038
:103E3000009000BF00BF2068066826F44046208A34
:103E400000F44040064326F44056A08A00F4405057
:103E5000064320680660204600F04AF8207A00F009
:103E6000020048B12068066826F44076A08900F474
:103E70004070064320680660012084F8C10000BF3E
:103E8000002084F8C00000BF002529E00021C5EB18
:103E9000C50204F1180040F82210C5EBC50200EB82
:103EA00082004160C5EBC50204F1180000EB8200FE
:103EB0008160C5EBC50204F1180000EB8200C1600F
:103EC000C5EBC50204F1180000EB82000161C5EBEF
:103ED000C50204F1180000EB82008161681CC5B2C4
:103EE000052DD3D9002083E7007401400010024063
:103EF00008B5094A016891420DD100BF0749896997
:103F000041F00051054A91611146896901F0005163
:103F1000009100BF00BF08BD0074014000100240C6
:103F200010B586B00446142101A8FCF777FC20499F
:103F30002068884239D100BF1E48406940F4802083
:103F40001C4948610846406900F48020009000BF89
:103F500000BF00BF0846406940F400304861084691
:103F6000406900F40030009000BF00BF4FF44040B3
:103F700001900220029000200390032004900D2065
:103F8000059001A90C48FFF7ADFD4FF4407001907A
:103F90000220029000200390032004900D20059041
:103FA00001A94FF09040FFF79DFD06B010BD000045
:103FB00000740140001002400004004870B504463F
:103FC0000D46FFF775FE06460CE0681C50B1FFF782
:103FD0006FFE801BA84200D825B9072084F8C100D5
:103FE000032070BD2068D0F88803C0F3004000288B
:103FF000EBD0012084F8C10000BF002084F8C0008D
:1040000000BF00BFEDE770B504460D46164694F8B4
:10401000C100022800D170BD022084F8C100052D26
:1040200004D13146204601F0C4FF04E0324629465F
:10403000204602F079F8012084F8C1000020EAE768
:1040400030B5044694F8C100022800D130BD00BF4D
:1040500094F8C000012801D10220F7E7012084F87C
:10406000C00000BF022084F8C100052928D1012A20
:1040700006D0022A08D0042A0AD0082A10D10BE060
:1040800018682568E86114E018682568686210E01F
:1040900018682568A8620CE018682568E86208E0DE
:1040A000072084F8C10000BF002084F8C00000BFD2
:1040B00000BF00BF94F8C10007287DD10120C5E7EB
:1040C000012A06D0022A0BD0042A4CD0082A74D127
:1040D00050E01D682068803000EBC110C5619AE097
:1040E0001D682068803000EBC1104562586868B3D5
:1040F0002068803000EBC110006820F44055206833
:10410000803000EBC11005602068803000EBC110EA
:1041100000685D6828432568803505EBC115286077
:104120005868B0F5005F06D19D682068803000EBCC
:10413000C110C56116E05868B0F5405F12D19D68A6
:104140002068803000EBC11085620BE02068803071
:1041500000EBC110006820F440502568803505EB65
:10416000C115286057E01D682068803000EBC11041
:10417000856250E01D682068803000EBC110C56288
:10418000586888B32068803000EBC110006820F4C4
:1041900040452068803000EBC11005602068803009
:1041A00000EBC11000685D6840EA8505206880303A
:1041B00000EBC110056001E034E023E05868B0F581
:1041C000005F06D19D682068803000EBC110C5619A
:1041D00017E05868B0F5405F13D19D6820688030C3
:1041E00000EBC11085620CE0FFE72068803000EB37
:1041F000C110006820F440402568803505EBC115EA
:10420000286008E0072084F8C10000BF002084F87F
:10421000C00000BF00BF00BF94F8C100072801D153
:10422000012013E7012084F8C10000BF002084F8BA
:10423000C00000BF00BF09E7024600BF92F8C000FF
:10424000012801D102207047012082F8C00000BF80
:10425000022082F8C10010680068084313681860E3
:10426000012082F8C10000BF002082F8C00000BF1A
:1042700000BFE8E72DE9F04104460D4616461F460B
:1042800094F8C100022801D1BDE8F08100BF94F884
:10429000C000012801D10220F6E7012084F8C00007
:1042A00000BF022084F8C1003B4632462946204622
:1042B00001F0C1FE012084F8C10000BF002084F895
:1042C000C00000BF00BFDFE7024600BF92F8C00099
:1042D000012801D102207047012082F8C00000BFF0
:1042E000022082F8C1001068D0F8940308431368D4
:1042F000C3F89403012082F8C10000BF002082F8B7
:10430000C00000BF00BFE6E7024600BF92F8C00051
:10431000012801D102207047012082F8C00000BFAF
:10432000022082F8C1001068D0F89803084313688F
:10433000C3F89803012082F8C10000BF002082F872
:10434000C00000BF00BFE6E770B504460D46164644
:1043500094F8C100022800D170BD00BF94F8C000DD
:10436000012801D10220F7E7012084F8C00000BF36
:10437000022084F8C100052D04D13146204601F009
:104380002CFE04E032462946204601F0EDFEC5EB46
:10439000C50204F1180000EB820031688160C5EBB2
:1043A000C50204F1180000EB82007168C160C5EB22
:1043B000C50204F1180000EB8200B1680161C5EB91
:1043C000C50204F1180000EB8200F1684161C5EB01
:1043D000C50204F1180000EB8200316981612946B1
:1043E000204601F0A6FD012084F8C10000BF002096
:1043F00084F8C00000BF00BFAEE7000003480068BB
:10440000034909780844014908607047000000200A
:104410000800002010B50848006840F01000064968
:104420000860032000F0C0F80F2000F007F800F04B
:1044300049F8002010BD00000020024070B588B08F
:10444000044600250026002221461D2000F06EF8BB
:104450001D2000F05BF800BF1648C06940F0020064
:104460001449C8610846C06900F00200019000BF0D
:1044700000BF02A903A800F0D5FB00F0FBFB45003C
:104480000D48B5FBF0F0461E0C480D49086040F29F
:10449000E7310B48C160466000210161816001F095
:1044A000C5F920B9064801F019FA08B070BD01201D
:1044B000FBE700000010024040420F0000040040F3
:1044C0002002001008B500BF0F48806940F00100CD
:1044D0000D4988610846806900F00100009000BF26
:1044E00000BF00BF0846C06940F08050C861084660
:1044F000C06900F08050009000BF00BF00220F2173
:10450000901E00F013F808BD001002400146084656
:10451000002809DB00F01F0301229A4043099B0099
:1045200003F1E023C3F8002100BF70472DE9F05FDD
:1045300080460D461646002702F0A6FF074639467C
:104540002A46334601F00700C0F1070ABAF1040F0A
:1045500002D94FF0040A01E0C0F1070AD14600F188
:10456000040ABAF1070F02D24FF0000A01E0A0F1ED
:10457000030AD4464FF0010A0AFA09FAAAF1010A1D
:104580000AEA020A0AFA0CFA4FF0010B0BFA0CFBCA
:10459000ABF1010B0BEA030B4AEA0B042146404640
:1045A00002F07AFFBDE8F09F00BF00F00702064B63
:1045B00019684FF6FF031940044B0B4343EA0221ED
:1045C000014B196000BF70470CED00E00000FA05D8
:1045D00038B5044600250CB9012038BD94F83200E6
:1045E000052801D10120F8E794F83200022801D112
:1045F0000120F2E7606800B900BF2069802802D17D
:10460000606800B900BF6068402800D100BF606AE0
:10461000B0F5802F00D100BF00BF2F48806940F067
:1046200001002D4988610846806900F00100009072
:1046300000BF00BF94F8320010B9002084F83100A8
:10464000204600F04DF86068402802D0606860287D
:104650001BD1E1686068084321690843A1690843E8
:10466000E1690843216A0843616A0843218D40EAF1
:10467000C14194F82C0041EA006021680968174A9A
:1046800011400843216808601EE0D4E90101084395
:10469000E16808432169084361690843A169084347
:1046A000E1690843216A0843616A0843218D40EAB1
:1046B000C14194F82C0041EA006120680068074A73
:1046C000104001432068016094F8320010B90120C5
:1046D00084F83200284680E700100240113800E0DC
:1046E00010B586B00446142101A8FCF797F80F49CD
:1046F0002068884218D100BF0D48406940F400305E
:104700000B4948610846406900F40030009000BF42
:1047100000BFE0200190032002900020039001A937
:104720004FF09040FFF7DEF906B010BD3C000140AD
:10473000001002400146002009B9012014E091F860
:104740003220052A01D101200EE091F83220012A01
:1047500009D10A68126842F001020B681A6004224B
:1047600081F8322000E0012070470000F8B50446CF
:10477000002600250027206800F48030B0F5803F37
:1047800073D17A48C06900F0805070B900BF774893
:10479000C06940F080507549C8610846C06900F0A2
:1047A0008050009000BF00BF01277148006800F4EE
:1047B0008070B0B96E48006840F480706C49086041
:1047C000FFF776FA064606E0FFF772FA801B6428C8
:1047D00001D90320F8BD6648006800F48070002805
:1047E000F2D06248006A00F44075002D6BD0A088BA
:1047F00000F44070A84266D05C48006A20F440751E
:104800000121080490FAA0F0B0FA80F0594A02EBB6
:104810008000C0F800140020090491FAA1F1B1FA57
:1048200081F102EB8101C1F800045048056205F0F6
:104830000100B8B3FFF73CFA064608E0FFF738FA84
:10484000801B41F28831884201D90320C2E7402011
:10485000022191FAA1F1B1FA81F108430121B1EBF2
:10486000601F03D1414800681FE03BE04020022167
:1048700091FAA1F1B1FA81F108430221B1EB601F75
:1048800002D13A48006A10E04020022191FAA1F1D9
:10489000B1FA81F108430421B1EB601F03D1334821
:1048A000406802E00FE03148406A4021022292FA5B
:1048B000A2F2B2FA82F2114301F01F0201219140EB
:1048C00008400028BAD02948006A20F44070616886
:1048D000084326490862012F04D10846C06920F028
:1048E0008050C861207800F0010038B11F48006B8B
:1048F00020F00300A16808431C490863207800F0F9
:104900002000202807D11948006B20F01000E16832
:10491000084316490863207800F08000802807D1FA
:104920001248C06A20F4F870216908430F49C86230
:10493000208800F48050B0F5805F07D10B48006BF1
:1049400020F480706169084308490863208800F4F6
:104950008040B0F5804F07D10448006B20F48050B0
:10496000A169084301490863002033E700100240B1
:10497000007000400000424270B504460D4600261B
:104980000CB9012070BDA248006800F00700A842E1
:104990000ED29F48006820F0070028439C49086019
:1049A0000846006800F00700A84201D00120E9E7AE
:1049B000207800F00200022807D19648406820F0D5
:1049C000F000A168084393494860207800F0010096
:1049D00000287CD0606801283BD12020010391FA97
:1049E000A1F1B1FA81F108430121B1EB601F02D1BD
:1049F000884800681DE02020010391FAA1F1B1FA76
:104A000081F108430221B1EB601F02D18148006AA5
:104A10000FE02020010391FAA1F1B1FA81F10843DE
:104A20000421B1EB601F02D17A48406801E0794867
:104A3000406A20210A0392FAA2F2B2FA82F21143EA
:104A400001F01F0201219140084000287CD1012083
:104A500098E7606802283BD12020010591FAA1F176
:104A6000B1FA81F108430121B1EB601F02D169481D
:104A700000681DE02020010591FAA1F1B1FA81F151
:104A800008430221B1EB601F02D16248006A0FE0C7
:104A90002020010591FAA1F1B1FA81F10843042126
:104AA000B1EB601F02D15B48406801E05948406AA1
:104AB00020210A0592FAA2F2B2FA82F2114301F021
:104AC0001F02012191400840E8BB01205AE758E04D
:104AD0002020022191FAA1F1B1FA81F108430121CC
:104AE000B1EB601F02D14B4800681DE0202002217D
:104AF00091FAA1F1B1FA81F108430221B1EB601FF3
:104B000002D14448006A0FE02020022191FAA1F16D
:104B1000B1FA81F108430421B1EB601F02D13D4895
:104B2000406801E03B48406A2021022292FAA2F24A
:104B3000B2FA82F2114301F01F02012191400840B4
:104B400008B901201EE7FFE73248406820F0030063
:104B5000616808432F494860FFF7AAF8064608E055
:104B6000FFF7A6F8801B41F28831884201D9032063
:104B700008E72848406800F00C006168B0EB810F3E
:104B8000EED12348006800F00700A8420ED9204863
:104B9000006820F0070028431D49086008460068A7
:104BA00000F00700A84201D00120EBE6207800F0D9
:104BB0000400042807D11748406820F4E060E16849
:104BC000084314494860207800F00800082808D1FC
:104BD0001048406820F46050216940EAC1000D4946
:104BE000486000F073F80B49496801F0F001F022C9
:104BF00092FAA2F2B2FA82F2D140074A515CC8405E
:104C00000649086006480068FFF718FC0020B9E66E
:104C10000020024000100240A8B500080C0000204F
:104C2000040000200F2202600D4A526802F00302C5
:104C300042600B4A526802F0F0028260084A5268F1
:104C400002F4E062C260064A526802F46052D2087E
:104C50000261044A126802F007020A60704700000D
:104C60000010024000200240014800687047000028
:104C70000C00002000B5FFF7F7FF0749496801F471
:104C8000E0614FF4E06292FAA2F2B2FA82F2D1400D
:104C9000024A515CC84000BD00100240B8B500088F
:104CA00000B5FFF7E1FF0749496801F460514FF48F
:104CB000605292FAA2F2B2FA82F2D140024A515CF8
:104CC000C84000BD00100240B8B500082DE9F04111
:104CD0000024002500270026A0461F48446804F051
:104CE0000C0078B3042802D008282CD102E0DFF8A9
:104CF0006C802CE004F470104FF4701191FAA1F163
:104D0000B1FA81F1C84016490E5C1348C06A00F040
:104D10000F000F2191FAA1F1B1FA81F1C8401149B8
:104D20000D5C04F4803040B12A4600230B4819463C
:104D3000FBF738FBA0FB067102E00B48A0FB0671F5
:104D4000B84604E000E000BFDFF8108000BF00BFFD
:104D50004046BDE8F08100000010024000127A00D9
:104D600088B5000898B5000800093D00F8B504466C
:104D70000CB90120F8BD207800F0010000287BD09C
:104D8000FA48406800F00C0004280CD0F74840684E
:104D900000F00C00082845D1F448406800F4803049
:104DA000B0F5803F3ED12020010391FAA1F1B1FA84
:104DB00081F108430121B1EB601F02D1EB4800688B
:104DC0001DE02020010391FAA1F1B1FA81F108431D
:104DD0000221B1EB601F02D1E448006A0FE02020FD
:104DE000010391FAA1F1B1FA81F108430421B1EB79
:104DF000601F02D1DD48406801E0DC48406A2021A4
:104E00000A0392FAA2F2B2FA82F2114301F01F02EF
:104E10000121914008400028B1D0606800282BD1C2
:104E20000120A7E700BF6068B0F5803F06D1CF48FA
:104E3000006840F48030CD49086029E0606858B9C6
:104E4000CA48006820F48030C849086008460068F5
:104E500020F4802008601BE06068B0F5A02F0CD122
:104E6000C248006840F48020C049086008460068D5
:104E700040F4803008600BE0A1E0BC48006820F4FA
:104E80008030BA4908600846006820F48020086035
:104E900000BFB648C06A20F00F00A1680843B349BC
:104EA000C8626068A0B3FEF703FF054606E0FEF7A0
:104EB000FFFE401B642801D903205BE7202001038B
:104EC00091FAA1F1B1FA81F108430121B1EB601F20
:104ED00002D1A64800681EE02020010391FAA1F14A
:104EE000B1FA81F108430221B1EB601F02D19F4862
:104EF000006A10E02020010391FAA1F1B1FA81F1DA
:104F000008430421B1EB601F03D19848406802E0D8
:104F100010E09648406A20210A0392FAA2F2B2FAFF
:104F200082F2114301F01F02012191400840002844
:104F3000BDD044E0FEF7BCFE054606E0FEF7B8FE35
:104F4000401B642801D9032014E72020010391FAB3
:104F5000A1F1B1FA81F108430121B1EB601F02D147
:104F6000824800681DE02020010391FAA1F1B1FA06
:104F700081F108430221B1EB601F02D17B48006A36
:104F80000FE02020010391FAA1F1B1FA81F1084369
:104F90000421B1EB601F02D17448406801E07348FE
:104FA000406A20210A0392FAA2F2B2FA82F2114375
:104FB00001F01F020121914008400028BED1207855
:104FC00000F0020002285CD16848406800F00C0044
:104FD00050B16648406800F00C00082852D1634880
:104FE000406800F48030E8BB2020022191FAA1F152
:104FF000B1FA81F108430121B1EB601F02D15B4896
:1050000000681DE02020022191FAA1F1B1FA81F19E
:1050100008430221B1EB601F02D15448006A0FE03F
:105020002020022191FAA1F1B1FA81F10843042173
:10503000B1EB601F02D14D48406801E04B48406A27
:105040002021022292FAA2F2B2FA82F2114301F076
:105050001F0201219140084028B12069012802D097
:10506000012087E60EE04148006820F0F800F822B1
:1050700092FAA2F2B2FA82F26169914008433B4986
:105080000860B1E0206970B3012191FAA1F0B0FA93
:1050900080F0374A42F82010FEF70AFE054606E087
:1050A000FEF706FE401B022801D9032062E62020FD
:1050B000022191FAA1F1B1FA81F108430121B1EB8A
:1050C000601F02D1294800681EE02020022191FAC9
:1050D000A1F1B1FA81F108430221B1EB601F03D1C4
:1050E0002248006A10E02CE02020022191FAA1F170
:1050F000B1FA81F108430421B1EB601F02D11B48D2
:10510000406801E01948406A2021022292FAA2F286
:10511000B2FA82F2114301F01F02012191400840CE
:105120000028BDD01148006820F0F800F82292FA5B
:10513000A2F2B2FA82F26169914008430B49086019
:1051400052E00020012191FAA1F1B1FA81F1084A5F
:1051500042F82100FEF7ACFD05460BE0FEF7A8FD86
:10516000401B022806D9032004E60000001002407C
:10517000000042422020022191FAA1F1B1FA81F10E
:1051800008430121B1EB601F02D1FB4800681DE01C
:105190002020022191FAA1F1B1FA81F10843022104
:1051A000B1EB601F02D1F448006A0FE02020022119
:1051B00091FAA1F1B1FA81F108430421B1EB601F2A
:1051C00002D1ED48406801E0EB48406A202102220C
:1051D00092FAA2F2B2FA82F2114301F01F02012107
:1051E000914008400028B9D1207800F00800082834
:1051F00051D1A06980B3012191FAA1F0B0FA80F0F9
:10520000DE4A02EB8000C0F88014FEF751FD05462F
:1052100006E0FEF74DFD401B022801D90320A9E559
:105220006020022191FAA1F1B1FA81F10843012134
:10523000B1EB601F02D1D04800681EE0602002215F
:1052400091FAA1F1B1FA81F108430221B1EB601F9B
:1052500003D1C948006A10E01EE06020022191FAE3
:10526000A1F1B1FA81F108430421B1EB601F02D131
:10527000C148406801E0C048406A6021022292FAB9
:10528000A2F2B2FA82F2114301F01F020121914011
:1052900008400028BDD04FE00020012191FAA1F183
:1052A000B1FA81F1B54A02EB8101C1F88004FEF741
:1052B000FFFC054606E0FEF7FBFC401B022801D977
:1052C000032057E56020022191FAA1F1B1FA81F1A2
:1052D00008430121B1EB601F02D1A74800681DE01F
:1052E0006020022191FAA1F1B1FA81F10843022173
:1052F000B1EB601F02D1A048006A0FE060200221DC
:1053000091FAA1F1B1FA81F108430421B1EB601FD8
:1053100002D19948406801E09748406A6021022222
:1053200092FAA2F2B2FA82F2114301F01F020121B5
:10533000914008400028BED1207800F004000428E5
:1053400073D100278C48C06900F0805070B900BF4D
:105350008948C06940F080508749C8610846C069E3
:1053600000F08050009000BF00BF01278448006813
:1053700000F48070B0B98248006840F480708049C1
:105380000860FEF795FC054606E0FEF791FC401B21
:10539000642801D90320EDE47948006800F48070A6
:1053A0000028F2D000BFE068012806D17248006AE8
:1053B00040F001007049086227E0E06858B96E4883
:1053C000006A20F001006C4908620846006A20F07B
:1053D0000400086219E0E06805280BD16648006AFD
:1053E00040F00400644908620846006A40F0010089
:1053F00008620AE06048006A20F001005E49086225
:105400000846006A20F00400086200BFE068B8B3F4
:10541000FEF74EFC054609E0FEF74AFC401B41F250
:105420008831884202D90320A4E48BE04020022185
:1054300091FAA1F1B1FA81F108430121B1EB601FAA
:1054400002D14D4800681EE04020022191FAA1F1EE
:10545000B1FA81F108430221B1EB601F02D1464845
:10546000006A10E04020022191FAA1F1B1FA81F125
:1054700008430421B1EB601F03D13F48406802E0BC
:1054800010E03D48406A4021022292FAA2F2B2FAAC
:1054900082F2114301F01F020121914008400028CF
:1054A000BAD046E0FEF704FC054608E0FEF700FC33
:1054B000401B41F28831884201D903205AE4402040
:1054C000022191FAA1F1B1FA81F108430121B1EB76
:1054D000601F02D1284800681DE04020022191FA97
:1054E000A1F1B1FA81F108430221B1EB601F02D1B1
:1054F0002148006A0FE04020022191FAA1F1B1FA9F
:1055000081F108430421B1EB601F02D11A484068C1
:1055100001E01948406A4021022292FAA2F2B2FA4E
:1055200082F2114301F01F0201219140084000283E
:10553000BCD1012F05D11048C06920F080500E4920
:10554000C86100BFE069002874D00B48406800F0D3
:105550000C0008286FD0E06902286DD100204FF0C0
:10556000807191FAA1F1B1FA81F1044A42F8210067
:10557000FEF79EFB05460CE0001002400000424290
:1055800000700040FEF794FB401B022801D9032065
:1055900047E42020010591FAA1F1B1FA81F1084315
:1055A0000121B1EB601F02D1774800681DE0202087
:1055B000010591FAA1F1B1FA81F108430221B1EBA1
:1055C000601F02D17048006A0FE02020010591FAA7
:1055D000A1F1B1FA81F108430421B1EB601F02D1BE
:1055E0006948406801E06848406A20210A0592FA4B
:1055F000A2F2B2FA82F2114301F01F02012191409E
:1056000008400028BED1D4E9081008435E49496823
:1056100021F4741108435C4948600120010691FAA5
:10562000A1F1B1FA81F1594A42F82100FEF740FB9D
:10563000054609E0A5E092E041E0FEF739FB401B9A
:10564000022801D9032038E42020010591FAA1F1B4
:10565000B1FA81F108430121B1EB601F02D14A4840
:1056600000681DE02020010591FAA1F1B1FA81F155
:1056700008430221B1EB601F02D14348006A0FE0EA
:105680002020010591FAA1F1B1FA81F1084304212A
:10569000B1EB601F02D13C48406801E03A48406AE3
:1056A00020210A0592FAA2F2B2FA82F2114301F025
:1056B0001F020121914008400028BED061E0002077
:1056C0004FF0807191FAA1F1B1FA81F12F4A42F8BD
:1056D0002100FEF7EDFA054606E0FEF7E9FA401B69
:1056E000022801D903202FE42020010591FAA1F11D
:1056F000B1FA81F108430121B1EB601F02D12248C8
:1057000000681DE02020010591FAA1F1B1FA81F1B4
:1057100008430221B1EB601F02D11B48006A0FE071
:105720002020010591FAA1F1B1FA81F10843042189
:10573000B1EB601F02D11448406801E01248406A92
:1057400020210A0592FAA2F2B2FA82F2114301F084
:105750001F020121914008400028BED111E0E069FC
:10576000012800D17DE40848466806F48031206AAB
:10577000814204D106F47011606A814201D0012097
:105780006FE400206DE4000000100240000042427F
:10579000704770477047000030B502460B4600BFA7
:1057A00092F83C00012801D1022030BD012082F88E
:1057B0003C0000BF022082F83D001068416810687C
:1057C0008468174D1068A84203D121F4700158680D
:1057D000014321F070011868014310684160104DC9
:1057E0001068A8420BD01068B0F1804F07D00D4D63
:1057F0001068A84203D00C4D1068A84205D124F0CF
:1058000080049868044310688460012082F83D0099
:1058100000BF002082F83C0000BF00BFC5E70000C9
:10582000002C0140000400400040014010B5044637
:105830000CB9012010BD94F83D0028B9002084F86F
:105840003C00204600F02AF8022084F83D00211D8B
:10585000206801F013FB012084F8480000BF84F8A1
:105860003E0001213F2001554020015541200155B6
:10587000422001554320015500BF00BF012084F89C
:10588000440045200155462001554720015500BFE1
:10589000012084F83D000020CCE7000038B5044624
:1058A0002068B0F1804F15D100BF0B48C06940F0AF
:1058B00001000949C8610846C06900F00100009074
:1058C00000BF00BF002205211C20FEF72FFE1C2078
:1058D000FEF71CFE38BD000000100240014691F8A2
:1058E0003D00012801D001207047022081F83D00D1
:1058F0000868C06840F001000B68D860144B086865
:1059000098420BD00868B0F1804F07D0114B08685F
:10591000984203D0104B0868984210D108688068FC
:105920000E4B00EA0302062A0FD0B2F5803F0CD0DE
:105930000868006840F001000B68186005E008681E
:10594000006840F001000B6818600020CCE7000000
:10595000002C01400004004000400140070001000D
:105960002DE9F04104460D46002700BF94F83C00A5
:10597000012802D10220BDE8F081012084F83C001A
:1059800000BF022084F83D00206886683748064042
:1059900026F47F46206886602868502833D00CDCC7
:1059A000202850D004DC00284BD0102851D149E0E9
:1059B000302849D040284CD139E060282DD07028BB
:1059C00007D0B0F5805F03D0B0F5005F41D10DE0A6
:1059D00041E0D5E902136A68206801F099FA20686D
:1059E000866846F077062068866034E0D5E90213C1
:1059F0006A68206801F08CFA2068806840F4804072
:105A00002168886027E0EA686968206801F094FAF4
:105A10005021206801F087FA1DE0EA686968206873
:105A200001F09DFA6021206801F07DFA13E0EA6838
:105A30006968206801F080FA4021206801F073FA5B
:105A400009E000BF00BF00BF2968206801F06BFAC1
:105A500001E0012700BF00BF012084F83D0000BF26
:105A6000002084F83C0000BF384684E788FFFEFF32
:105A7000704710B5044620680069C0F34000D8B1F3
:105A80002068C068C0F34000B0B16FF00200216828
:105A90000861012020772068806900F0030018B1B8
:105AA0002046FFF7E5FF05E0204600F0BEF820465F
:105AB00000F0BCF80020207720680069C0F3800067
:105AC000D8B12068C068C0F38000B0B16FF00400A6
:105AD00021680861022020772068806900F4407006
