:020000040800F2
:10000000089D002031030008554600083B420008C7
:1000100051460008A10800088550000800000000B3
:100020000000000000000000000000007102000855
:100030003911000800000000CD02000899460008B0
:100040004B0300084B0300084B0300084B03000858
:100050004B0300084B0300084B0300084B03000848
:100060004B0300084B0300084B030008D50B0008A6
:100070004B0300084B0300084B0300084B03000828
:10008000E50B00084B0300084B0300084B03000876
:10009000CD0800084B0300084B0300084B03000881
:1000A0004B0300084B0300084B0300084B030008F8
:1000B000814700084B0300084B0300084B0300086E
:1000C0004B0300084B0300084B0300084B030008D8
:1000D0004B0300084B030008894F00084B0300083E
:1000E0004B0300084B0300084B0300084B030008B8
:1000F0004B0300084B0300084B030008F50B0008F6
:100100004B0300084B0300084B0300084B03000897
:100110004B030008BD4A00084B0300084B030008CE
:100120004B0300084B0300084B0300084B03000877
:100130004B0300084B0300084B0300084B03000867
:10014000D50900084B0300084B0300084B030008C7
:100150004B0300084B0300084B0300084B03000847
:100160004B0300084B0300084B0300084B03000837
:100170004B0300084B0300084B030008000000007D
:100180004B0300084B03000800F002F800F061F890
:100190000AA090E8000C82448344AAF10107DA45E2
:1001A00001D100F056F8AFF2090EBAE80F0013F0D3
:1001B000010F18BFFB1A43F001031847B49C00005D
:1001C000D49C00000A444FF0000C10F8013B13F0DF
:1001D000070408BF10F8014B1D1108BF10F8015BA0
:1001E000641E05D010F8016B641E01F8016BF9D193
:1001F00013F0080F1EBF10F8014BAD1C0C1B09D1EA
:100200006D1E58BF01F801CBFAD505E014F8016B5B
:1002100001F8016B6D1EF9D59142D6D370470000ED
:100220000023002400250026103A28BF78C1FBD8FF
:10023000520728BF30C148BF0B607047642900F0E7
:100240005781002070471FB509F01EFC1FBD10B577
:1002500010BD00F0F0FA1146FFF7F5FF06F046FC7E
:1002600000F00EFB03B4FFF7F2FF03BC00F012FB3B
:100270002C4B19680868B0E8F04F80F30988BFF389
:100280006F8F4FF0000080F311887047000000006E
:1002900008480068006880F308884FF0000080F389
:1002A000148862B661B6BFF34F8FBFF36F8F00DF64
:1002B00000BF00BF08ED00E0DFF80C00016841F46A
:1002C00070010160704700BF88ED00E0EFF3098026
:1002D000BFF36F8F134B1A681EF0100F08BF20ED8D
:1002E000108A20E9F04F106009B44FF0500080F3FD
:1002F0001188BFF34F8FBFF36F8F08F0C1FC4FF031
:10030000000080F3118809BC19680868B0E8F04F54
:100310001EF0100F08BFB0EC108A80F30988BFF3FD
:100320006F8F704724000020EFF3058070470000B6
:100330000948804709480047FEE7FEE7FEE7FEE779
:10034000FEE7FEE7FEE7FEE7FEE7FEE704480549B5
:10035000054A064B70470000654700088901000800
:1003600008970020089D0020089900200899002087
:1003700053EA020C00F069802DE9F04B4FF00006C3
:10038000002B1FBFB3FA83F503FA05F424FA05F630
:100390005E4012BF1643B2FA82F502FA05F4C5F1C7
:1003A00020051EBF22FA05FC44EA0C04203556EA5B
:1003B000044C4FEA144418BF641C4FF000084FF07F
:1003C0000009904271EB030C39D3002919BFB1FA2F
:1003D00081F701FA07F6B0FA80F700FA07F6C7F1DD
:1003E00020071EBF20FA07FC46EA0C062037B6FBA2
:1003F000F4FCA7EB0507103F07F01F0BCBF120061D
:100400000CFA0BFB2CFA06F644BFB3460026202F4D
:10041000A4BF5E464FF0000B5BEA060C08BF4FF02E
:10042000010B19EB0B09ABFB027C48EB0608C01B68
:1004300006FB02CC0BFB03CC71EB0C01C1E70B46B6
:10044000024641464846BDE8F08B13B54FF0000028
:100450004FF00001AFF30080BDE81C407047000082
:100460000FB41CB5074B06AA7B446946009005985B
:1004700000F06FF90020694600F07EF91CBC5DF8C1
:1004800014FB00000D0300002DE9F0410E46044668
:10049000002020622046E168884730B3252805D037
:1004A000D4E901219047206A401CF2E7E168204628
:1004B00000278847050018D0A5F14100192802D867
:1004C00020354FF400673246294620462760FFF763
:1004D000B5FE40B1012804D0F61D26F00706083607
:1004E000D8E7361DD6E72846DAE7206ABDE8F0816E
:1004F0002DE9F0410646002410687529314616A5FD
:1005000010D0AFF30080002802DA404213A507E0C4
:1005100031688A0701D512A502E0490704D511A563
:10052000012401E0AFF3008000210A2206F1240734
:1005300009E0B0FBF2FCB0FBF2F302FB1C00303030
:1005400078541846491C0028F3D123462A463046E1
:10055000BDE8F04100F09EB8000000002D00000052
:100560002B0000002000000010B5431C02E010F832
:10057000011B71B18107FAD14FF0013202C88C1A08
:100580008C4314EAC211F9D0C01A0A0603D0C01E67
:1005900010BDC01A10BD0A0401D0801E10BD090292
:1005A000FCD0401E10BD032A40F2308010F0030C36
:1005B00000F0158011F8013BBCF1020F624498BFB6
:1005C00011F801CB00F8013B38BF11F8013BA2F153
:1005D000040298BF00F801CB38BF00F8013B11F0CE
:1005E000030300F0CE80083AC0F0088051F8043BC5
:1005F000083A51F804CBA0E80810F5E7121D5CBFDB
:1006000051F8043B40F8043BAFF30080D20724BF0D
:1006100011F8013B11F801CB48BF11F8012B24BFA1
:1006200000F8013B00F801CB48BF00F8012B7047F0
:1006300002F0FF0343EA032242EA024200F0D5B887
:100640004FF0000200B5134694469646203922BF6B
:10065000A0E80C50A0E80C50B1F12001BFF4F7AFB6
:10066000090728BFA0E80C5048BF0CC05DF804EB98
:10067000890028BF40F8042B08BF704748BF20F806
:10068000022B11F0804F18BF00F8012B7047704704
:10069000704770472DE9F0470D469946924604464B
:1006A00000F124080168880604D5E06921F01001F2
:1006B000216000E00120A84201DD471B00E0002787
:1006C000A1697A1902EB0900081AA0612078C00616
:1006D00002D42046AFF30080002608E0D4E90121CF
:1006E0001AF806009047206A401C761C20624E458E
:1006F000F4DB2078C0060AD52046AFF3008006E080
:10070000D4E9012130209047206A401C2062381E25
:10071000A7F10107F4DC07E0D4E9012118F805008E
:100720009047206A401C2062281EA5F10105F3DCD9
:100730002046AFF300802078000602D50220BDE8F5
:10074000F0870120FBE7000001694A1C026108787C
:10075000704700B58FB0CDE9013100210591054901
:100760007944CDE9031011466846FFF78DFE0FB0BE
:1007700000BD0000E5FFFFFF0A6802F8010B0A60F8
:10078000704710B5203AC0F00B80B1E81850203AFD
:10079000A0E81850B1E81850A0E81850BFF4F5AF21
:1007A0005FEA027C24BFB1E81850A0E8185044BFAB
:1007B00018C918C0BDE810405FEA827C24BF51F818
:1007C000043B40F8043B08BF7047D20728BF31F80C
:1007D000023B48BF11F8012B28BF20F8023B48BF5D
:1007E00000F8012B70474FF000020429C0F012807E
:1007F00010F0030C3FF426AFCCF1040CBCF1020F57
:1008000018BF00F8012BA8BF20F8022BA1EB0C01A8
:10081000FFF718BF5FEAC17C24BF00F8012B00F886
:10082000012B48BF00F8012B7047000000487047BB
:10083000A896002070477546FFF7F8FFAE46050002
:100840006946534620F00700854618B020B5FFF7EB
:100850007DFDBDE820404FF000064FF000074FF04F
:1008600000084FF0000B21F00701AC46ACE8C009CE
:10087000ACE8C009ACE8C009ACE8C0098D467047D7
:1008800010B50446AFF300802046BDE81040FFF7E6
:10089000E9BC000001491820ABBEFEE726000200BB
:1008A00000BFFEE700B58BB001A800F0EBF801A98E
:1008B000054801F003F80221034800F03FFF024819
:1008C00001F0F9FB0BB000BDBC08002010B50248D8
:1008D00001F044F910BD0000BC08002070B50446CA
:1008E0000D462A462146024800F01CF970BD000062
:1008F000BC08002070B504460D4640F20120844239
:1009000011D129482946C26890472748016988477C
:1009100025480068B0F90200C01C002843D12249D4
:10092000096848803FE040F20220844209D11E4815
:100930002946826B2C3090471B48C16B2C3088476E
:1009400031E040F20320844213D117482946426E19
:10095000583090471448816E583088471248806D4F
:10096000B0F90200001DF0B900200F49896D4880E0
:1009700019E0B4F5017F16D10B482946D0F8902034
:10098000843090470848D0F894108430884706484F
:10099000D0F88400B0F90200C01C20B90020024940
:1009A000D1F88410488070BD6C06002000B58BB073
:1009B00001A800F067F801A9054800F07FFF0221B7
:1009C000034800F0BBFE024801F075FB0BB000BD10
:1009D000E408002010B5024801F0C0F810BD000086
:1009E000E408002070B504460D462A462146024818
:1009F00000F098F870BD0000E408002070B50446CF
:100A00000D4640F20520844217D11D482946D0F8F2
:100A1000BC20B03090471A48D0F8C010B03088479A
:100A20001748D0F8B000B0F90200C01C30BB00205D
:100A30001349D1F8B010488020E040F206208442EB
:100A40000BD10F482946D0F8E820DC3090470C48FD
:100A5000D0F8EC10DC30884710E040F207208442E8
:100A60000CD107482946D0F8142100F5847090472E
:100A70000348D0F8181100F58470884770BD000055
:100A80006C0600200021016041608160C16001614D
:100A9000416181610121C1610162002141627047B0
:100AA00001464A780B7842EA0320704701464A79AA
:100AB0000B7942EA032210B270470146CA788B785C
:100AC00042EA032210B2704710B50446114920686B
:100AD00088420DD1104BA3F11C020021204600F0EA
:100AE00080FF0D491C3908681C31FFF703FF10E037
:100AF0000A49206888420CD1094BA3F11C0200214D
:100B0000204600F06EFF06491C3908681C31FFF7CB
:100B100075FF10BD006400405008002000680040D0
:100B200074080020F8B506460F4615461949306886
:100B3000884201D1184C07E018493068884201D139
:100B4000174C01E00120F8BD27600020A060E060A4
:100B5000082020612888000A207629786176688834
:100B6000010AA176A978E176A888010A2177297976
:100B70006177E888010AA177A979E1776B4604F1EA
:100B800018022146304600F0EEFD08B10120DAE7F8
:100B90000020D8E7006400407C0800200068004086
:100BA0009C0800207CB504460D4600200090019072
:100BB000207B2DF81050207820B96946A068FFF7F7
:100BC0008DFE06E02078012803D16946A068FFF772
:100BD00009FF7CBD10B5024801F00EFB10BD0000FE
:100BE000180B002010B5024801F006FB10BD0000F4
:100BF000D80B002010B5024801F0FEFA10BD00002D
:100C0000780B0020F0B50446059D0026A0688028DA
:100C100003D1400060650120F0BDE648E063E6488E
:100C20006064E06B08B1606C18B940206065012019
:100C3000F2E700BF94F83400012801D10220EBE76D
:100C4000012084F8340000BF94F83500012875D1E4
:100C5000022084F83500002060652068006840F4B8
:100C60008020276838602068036120684560A0689C
:100C7000402804D1206882602068C16003E02068B9
:100C800081602068C260CD4F2068B8425DD9CC4FEA
:100C90002068B84201D1202053E0C84F483F206867
:100CA000B84201D120204CE0C54F60372068B842DF
:100CB00001D1202045E0C14F18372068B84201D14A
:100CC00020203EE0BE4F18372068B84201D1C01442
:100CD00037E0BA4F303F2068B84201D1C01430E04D
:100CE000B74F78372068B84201D1C01429E0B34F1C
:100CF00030372068B84201D1C01422E0B04F3037FD
:100D00002068B84202D14FF400101AE0AB4F183FF0
:100D10002068B84202D14FF4001012E0A84F90377B
:100D20002068B84202D14FF400100AE0A34F4837C0
:100D30002068B84203D14FF4001002E02CE14FF0DC
:100D400000609E4F4C3F38601FE19D4FA8372068E0
:100D5000B8425CD99A4F2068B84201D1202052E0B5
:100D6000964F483F2068B84201D120204BE0944F75
:100D700060372068B84201D1202044E08F4F1837F7
:100D80002068B84201D120203DE08D4F18372068FF
:100D9000B84201D1C01436E0884F303F2068B842D5
:100DA00001D1C0142FE0864F78372068B84201D1B6
:100DB000C01428E0814F30372068B84201D1C014F8
:100DC00021E07F4F30372068B84202D14FF4001045
:100DD00019E07A4F183F2068B84202D14FF4001052
:100DE00011E0774F90372068B84202D14FF40010DD
:100DF00009E0724F48372068B84202D14FF4001022
:100E000001E04FF000606D4F503F3860BDE06C4F27
:100E100048372068B8425CD9694F2068B84201D190
:100E2000202052E0654F483F2068B84201D1202081
:100E30004BE0634F60372068B84201D1202044E086
:100E40005E4F18372068B84201D120203DE05C4F4A
:100E500018372068B84201D1C01436E0574F303FF0
:100E60002068B84201D1C0142FE0554F7837206870
:100E7000B84201D1C01428E0504F30372068B84242
:100E800001D1C01421E04E4F30372068B84202D162
:100E90004FF4001019E0494F183F2068B84202D1C2
:100EA0004FF4001011E0464F90372068B84202D14D
:100EB0004FF4001009E0414F48372068B84202D192
:100EC0004FF4001001E04FF000603D4F103FF8601C
:100ED0005BE03B4F2068B84201D1202052E0374F01
:100EE000483F2068B84201D120204BE0344F6037A2
:100EF0002068B84201D1202044E0304F18372068E4
:100F0000B84201D120203DE02D4F18372068B8426B
:100F100001D1C01436E0294F303F2068B84201D1DA
:100F2000C0142FE0264F78372068B84201D1C01492
:100F300028E0224F30372068B84201D1C01421E0A8
:100F40001F4F30372068B84202D14FF4001019E02B
:100F50001A4F183F2068B84202D14FF4001011E038
:100F6000174F90372068B84202D14FF4001009E0C3
:100F7000124F48372068B84202D14FF4001001E008
:100F80004FF000600E4F103FB8602068006840F0DE
:100F900001002768386005E000BF002084F83400B5
:100FA00000BF022600BF002084F8340000BF304696
:100FB00032E60000296400084564000858640240D5
:100FC000106002400146087810381823B0FBF3F295
:100FD0000848805CC865032A05D908686FF30900D2
:100FE000001D886503E008686FF309008865886D57
:100FF00070470000249B0008014600208A6A8B6924
:10100000CBB932B1012A0DD0022A03D0032A10D164
:101010000EE000BFCB6A03F08073B3F1807F00D194
:10102000012007E0CB6AB3F1C07F00D1012001E0CD
:1010300000E000BF34E08B69B3F5005F1AD132B134
:10104000012A07D0022A03D0032A11D10AE000BFE7
:1010500001200EE0CB6A03F08073B3F1807F00D1F2
:10106000012006E0CB6AB3F1C07F00D1012000E08F
:1010700000BF15E032B1012A05D0022A04D0032AAC
:101080000CD103E000BF00BF012008E0CB6A03F0F1
:101090008073B3F1807F00D1012000E000BF00BF6A
:1010A000704770B50446002500BF94F8340001284D
:1010B00001D1022070BD012084F8340000BF94F8F3
:1010C000350001281FD1022084F83500002060651A
:1010D0002068006820F48020266830602068436023
:1010E000A068402804D1206882602068C16003E0C5
:1010F000206881602068C2602068006840F00100BC
:101100002668306005E000BF002084F8340000BF8E
:1011100002252846CEE710B504462068006800F096
:101120001000102807D12068C06800F0100010B12E
:10113000204607F0E3FA10BD7047000000B587B005
:1011400001F0B0FA31200949086000200190012027
:1011500002900B2003900120049006A901A801F041
:10116000F5F901F049FA07B000BD00000C3C02405F
:101170007047000010B5002201B909E0012901D132
:101180000A0205E0022901D10A0201E04FF440728F
:101190000E4B1B6823F440730C4C236023461B68E2
:1011A0001343236023461B6823F0F8032360234680
:1011B0001B68022444EAC0042343044C23602346F2
:1011C0001B6843F48033236010BD0000103C0240D4
:1011D0001C48006800F40070B0B11A48006820F4A0
:1011E00000701849086000BF0846006840F40060BD
:1011F00008600846006820F40060086000BF0846E8
:10120000006840F4007008600E48006800F48060D8
:10121000B0B10C48006820F480600A49086000BF43
:101220000846006840F4805008600846006820F4D2
:101230008050086000BF0846006840F48060086085
:1012400070470000003C02400A4A126822F44072D3
:10125000084B1A601A46126842F004021A601A46D5
:1012600012684FF4803343EA00231A43014B1A609B
:1012700070470000103C0240074A126822F4407296
:10128000054B1A601A4612681A601A46126842F034
:1012900001021A6001707047103C024010B50D4900
:1012A000096821F440710B4C21602146096841F422
:1012B000407121602146096841F00101216002600E
:1012C00000BF00BF00BFBFF36F8F00BF00BF00BFF4
:1012D000436010BD103C0240084A126822F440727C
:1012E000064B1A601A46126842F480721A601A4657
:1012F000126842F001021A6001807047103C0240FF
:10130000084A126822F44072064B1A601A461268A4
:1013100042F400721A601A46126842F001021A6022
:1013200001607047103C02402348006800F0100044
:1013300040B12248C06940F010002049C861102027
:101340001D4908601C48006800F0200040B11B489F
:10135000C06940F008001949C8612020164908609A
:101360001548006800F0400040B11448C06940F0E2
:1013700004001249C86140200F4908600E48006807
:1013800000F0800040B10D48C06940F002000B49F8
:10139000C8618020084908600748006800F0020022
:1013A00040B10648C06940F020000449C8610220ED
:1013B00001490860704700000C3C0240800C00208E
:1013C00070B50446002500201449C86101F08CFA6C
:1013D000054609E0601C38B124B101F085FA401BD4
:1013E000A04201D9032070BD0D48006800F4803090
:1013F0000028EFD10A48006800F0010010B1012078
:10140000074908600648006800F0F20018B1FFF7CD
:101410008BFF0120E7E70020E5E70000800C0020BB
:101420000C3C02400D48C079012816D100200B4920
:10143000C87188600BE0094880680949405CFF2852
:1014400000D009E005488068401C044988600348D2
:101450008068B0F5003FEED300BF7047889600204B
:1014600000000E0810B505484079012804D100207D
:1014700002494871FFF762FE10BD00008896002007
:10148000002009E0174A02EB00110978FF2902D178
:101490001549086003E0401CB0F5005FF2D300BFBF
:1014A00011480068401E0F4901EB001041680F48C9
:1014B000D0F8CC00C1600C480068401E094901EB1F
:1014C000001081680948D0F8F800C160064800683B
:1014D000401E044901EB0010C1680448D0F8240103
:1014E000C160704700000E08889600206C0600203E
:1014F00010B50848007901280BD100200549087172
:101500000846C068044A02EB001110220348FFF7A6
:101510004AF810BD8896002000000E08A0070020A1
:1015200070B51648006841F6FF71884200D370BD5F
:10153000102213491348FFF736F801F0B3F80024DE
:1015400011E0104850F824500C4800680E4A02EB95
:101550000010042202FB04012A460023022001F0AD
:1015600055F8601CC4B2042CEBDB01F045F80348CD
:101570000068401C0149086000BFD8E78896002039
:10158000A00700209896002000000E0830B585B016
:101590000020019002900390049000904B48006856
:1015A000006800F02000202805D10A2301226946A6
:1015B000464802F069FD46488079012803D09DF82D
:1015C00000003F2878D10020414988710090002414
:1015D00076E0404901EB04100078A5286ED108465A
:1015E00000EB041042783CA101A8FEF739FF01A8E6
:1015F000FEF7BAFF85B264232A4601A9334802F0F8
:10160000B2FD344800EB0410827833A101A8FEF744
:1016100027FF01A8FEF7A8FF85B264232A4601A987
:101620002A4802F0A0FD2B4800EB0410C2782AA142
:1016300001A8FEF715FF01A8FEF796FF85B2642307
:101640002A4601A9214802F08EFD224800EB041031
:1016500021A1426801A8FEF703FF01A8FEF784FF5D
:1016600085B264232A4601A9184802F07CFD194876
:1016700000EB041018A1826801A8FEF7F1FE01A892
:10168000FEF772FF85B264232A4601A90F4802F0D3
:101690006AFD104800EB041010A1C26801A8FEF713
:1016A000DFFE01A8FEF760FF85B264232A4601A988
:1016B000064802F058FD02E006E0FFE703E0641C84
:1016C000B4F5005F85D300BF05B030BDD40A00205B
:1016D0008896002000000E082564200025640D0A6D
:1016E0000000000030B5034613B94FF6FF7030BD5F
:1016F00009E013F8014B82EA0400C0B2054D35F849
:10170000100080EA2222081EA1F10101F1D1104649
:10171000EDE70000469C000830B5034605E013F8ED
:10172000010B80EA02040448025D081EA1F10105D4
:10173000A9B2F4D1104630BD459B000810B5024651
:1017400092F82030012B01D0022B06D1106840699D
:10175000084314686061002010BD506A40F4802086
:1017600050620120F8E7F0B504460D461E4694F895
:10177000207020688368A86800B900E000BF012FCE
:1017800001D0022F7CD103F0806030B903F00060FB
:1017900018B903F08050002873D0C3F30161022907
:1017A00005D9606A40F4000060620120F0BD0120AC
:1017B00088403060A86860B9B5F800C0E86840EAC1
:1017C0004C5C206800F5C07000EB0110C0F800C050
:1017D0000FE0D5E901C040EACC00D5F80CC040EAE2
:1017E0000C00D4F800C00CF5C07C0CEB011CCCF84C
:1017F0000000D5F810C0206800F5C07000EB0110A3
:10180000C0F804C0287D01280ED1206800F5C07002
:1018100000EB0110406840F4807C206800F5C07047
:1018200000EB0110C0F804C0D079000692F806C0A1
:1018300040EA0C4092F805C040EA0C2C10794CEAC2
:10184000000C206800F5C07000EB0110C0F80CC05F
:10185000D078000692F802C040EA0C4092F801C02D
:1018600040EA0C2092F800C040EA0C00D4F800C016
:101870000CF5C07C0CEB011CCCF80800206801E0E2
:1018800016E00FE000F5C07000EB0110006840F0BA
:10189000010C206800F5C07000EB0110C0F800C01A
:1018A000002083E7606A40F40010606201207DE759
:1018B000606A40F480206062012077E7F0B504465A
:1018C0000A46216894F82050012D01D0022D7ED1C6
:1018D000424901F50071086840F00100086008689D
:1018E00020F47C5008600868566A40EA06200860C8
:1018F000107D00F01F06012000FA06F3C869984326
:10190000C861A1F50071D069C8B9D1F80C0298433B
:10191000C1F80C02908880B2968940EA064601F52B
:101920001070576940F83760108880B2168940EA15
:10193000064601F51070576900EBC7004660D06994
:10194000012819D1D1F80C021843C1F80C02908873
:1019500080B2168840EA064601F51070576940F8D3
:101960003760908980B2168940EA064601F510700A
:10197000576900EBC7004660906928B9D1F80402A6
:101980009843C1F8040204E0D1F804021843C1F8F6
:101990000402106928B9D1F814029843C1F814025E
:1019A00004E0D1F814021843C1F81402106A0128A7
:1019B00004D1D1F81C021843C1F81C02D1F800026E
:1019C00020F00100C1F800020020F0BDFFE7606ACE
:1019D00040F4802060620120F7E7000000640040CE
:1019E000704770B5044694F82050012D01D0022DA7
:1019F0007DD151B92068C06800F0030080B9606AE9
:101A000040F400106062012070BD2068006900F0A1
:101A1000030028B9606A40F4001060620120F3E717
:101A2000206800F5D87000EB0110006800F0040099
:101A30009060906840B9206800F5D87000EB011004
:101A40000068400D106007E0206800F5D87000EBDA
:101A500001100068C0085060206800F5D87000EBE5
:101A60000110006800F00200D060206800F5D87016
:101A700000EB0110406800F00F001061206800F5D5
:101A8000D87000EB0110406800F47F40000A9061BC
:101A9000206800F5D87000EB01104068000C506120
:101AA000206800F5D87000EB01108068187020687D
:101AB00000F5D87000EB0110806800F47F40000A48
:101AC0005870206800F5D87000EB0110806800F4B1
:101AD0007F00000C9870206800F5D87000EB0110B2
:101AE0008068000ED870206800F5D87000E02FE004
:101AF00000EB0110C0681871206800F5D87000EB89
:101B00000110C06800F47F40000A5871206800F599
:101B1000D87000EB0110C06800F47F00000C9871D1
:101B2000206800F5D87000EB0110C068000ED87175
:101B300031B92068C06840F020002668F06005E0F8
:101B40002068006940F020002668306100205BE7D3
:101B5000606A40F480206062012055E72DE9F05F63
:101B600004460025206846692068D0F80490206863
:101B700087682068D0F80CA02068D0F810B02068E2
:101B8000D0F8188006F00100002855D007F00100B9
:101B9000C0B101202168886007F0020018B120461A
:101BA00000F0B9FA0EE007F0040010B145F400654A
:101BB00008E007F0080010B145F4805502E0204627
:101BC00000F0A8FA07F48070C8B14FF48070216863
:101BD000886007F4007018B1204600F09EFA0EE00D
:101BE00007F4806010B145F4005508E007F4006088
:101BF00010B145F4804502E0204600F08DFA07F46C
:101C00008030C8B14FF480302168886007F400301C
:101C100018B1204600F083FA0EE007F4802010B1DE
:101C200045F4004508E007F4002010B145F4803584
:101C300002E0204600F072FA06F0080038B10AF01F
:101C4000100020B145F4007510202168C86006F02E
:101C5000040040B10AF0080028B108202168C860DB
:101C6000204600F00DFA06F0020038B12068C06886
:101C700000F0030010B1204600F004FA06F0400026
:101C800038B10BF0100020B145F4806510202168B8
:101C9000086106F0200040B10BF0080028B10820D0
:101CA00021680861204600F003FA06F0100038B100
:101CB0002068006900F0030010B1204600F0F9F937
:101CC00006F4003040B109F0100028B1102021685E
:101CD0004860204600F0EEF906F4803040B109F08B
:101CE000080028B1082021684860204600F018FA52
:101CF00006F4004088B309F0040078B306F480705D
:101D000020B108F0010008B145F0010506F40070AB
:101D100020B108F0020008B145F0020506F4806029
:101D200020B108F0040008B145F0040506F4006095
:101D3000A0B108F0700088B108F07000402817D0FA
:101D400006DC10280BD020280CD0302819D10CE04C
:101D5000502810D0602814D110E01DE019E045F0A3
:101D600008050FE045F010050CE045F0200509E0FE
:101D700045F0400506E045F0800503E045F4807538
:101D800000E000BF00BF2068806920F0700021687B
:101D900088610420216848602DB1606A2843606230
:101DA0002046FFF71DFEBDE8F09F70B504460CB954
:101DB000012070BD94F8200010B9204600F0B0F862
:101DC0002068006840F001002168086000F08CFD88
:101DD00005460DE000F088FD401B0A2808D9606A1E
:101DE00040F400306062052084F820000120E0E724
:101DF0002068406800F001000028EBD020680068EF
:101E000020F002002168086000F06EFD05460DE03C
:101E100000F06AFD401B0A2808D9606A40F40030CF
:101E20006062052084F820000120C2E72068406835
:101E300000F002000028EBD1207E012806D12068A6
:101E4000006840F080002168086005E020680068B4
:101E500020F0800021680860607E012806D120689B
:101E6000006840F040002168086005E020680068D4
:101E700020F0400021680860A07E012806D120687B
:101E8000006840F020002168086005E020680068D4
:101E900020F0200021680860E07E012806D120683B
:101EA000006820F010002168086005E020680068E4
:101EB00040F0100021680860207F012806D12068CA
:101EC000006840F008002168086005E020680068AC
:101ED00020F0080021680860607F012806D1206892
:101EE000006840F004002168086005E02068006890
:101EF00020F0040021680860D4E902010843216948
:101F00000843616908436168491E08432168C86144
:101F100000206062012084F82000002049E70000D2
:101F200010B586B00446142101A8FEF789FB4E497E
:101F30002068884241D14D480068401C4B490860E8
:101F40000846006801280FD100BF002000904848D3
:101F5000006840F00070464908600846006800F0DC
:101F60000070009000BF00BF00BF002000904048FC
:101F70001038006840F008003D49103908600846F4
:101F8000006800F00800009000BF00BF032001902F
:101F90000220029000200390032004900920059065
:101FA00001A9344800F098FB00220521142000F01C
:101FB00049FD142000F036FD54E02F492068884286
:101FC00050D100BF002000902948006840F0806098
:101FD000274908600846006800F08060009000BF54
:101FE00000BF22480068401C20490860084600687D
:101FF00001280FD100BF002000901D48006840F06C
:1020000000701B4908600846006800F000700090EE
:1020100000BF00BF00BF00200090154810380068C6
:1020200040F002001249103908600846006800F0CC
:102030000200009000BF00BF6020019002200290CB
:1020400000200390032004900920059001A90B486B
:1020500000F042FB00220521402000F0F3FC40206C
:1020600000F0E0FC06B010BD00640040100000204D
:1020700040380240000C024000680040000402406A
:102080007047000010B5044607492068884203D114
:102090002046FEF719FD06E004492068884202D177
:1020A0002046FEF711FD10BD0064004000680040AE
:1020B00070477047704770B5044694F820000128B7
:1020C00022D1022084F820002068006820F001005E
:1020D0002168086000F008FC05460DE000F004FCF3
:1020E000401B0A2808D9606A40F40030606205206D
:1020F00084F82000012070BD2068406800F00100D5
:102100000028EBD16062F6E7606A40F4002060626C
:102110000120F0E77047704770477047704770477D
:10212000704770B50446A56D00F0DEFB064694F8D6
:102130003500022808D08020606500BF002084F8A8
:10214000340000BF012070BD2068006820F0160038
:10215000216808602068406920F08000216848619B
:10216000206C08B9A06C28B12068006820F0080035
:10217000216808602068006820F00100216808607C
:1021800010E000F0B1FB801B05280BD92020606512
:10219000032084F8350000BF002084F8340000BF1D
:1021A0000320D0E72068006800F001000028E8D193
:1021B00094F85C103F208840A860012084F8350026
:1021C00000BF002084F8340000BF00BFBBE7014619
:1021D00091F83500022803D080204865012070471F
:1021E000052081F835000868006820F001000A68C1
:1021F00010600020F3E70000F8B5044600200090CE
:102200008C4800684FF41651B0FBF1F7A56D2E68AD
:1022100094F85C1008208840304098B1206800682D
:1022200000F0040070B12068006820F0040021680C
:10223000086094F85C1008208840A860606D40F049
:102240000100606594F85C1001208840304068B15E
:102250002068406900F0800040B194F85C100120D3
:102260008840A860606D40F00200606594F85C10E2
:1022700004208840304068B12068006800F0020007
:1022800040B194F85C1004208840A860606D40F074
:102290000400606594F85C1010208840304078B3EA
:1022A0002068006800F0080050B394F85C1010201B
:1022B0008840A8602068006800F4802080B1206811
:1022C000006800F4002028B9206CC8B12046216CB9
:1022D000884715E0A06C98B12046A16C88470FE0B4
:1022E0002068006800F4807028B92068006820F039
:1022F000080021680860206C10B12046216C8847D6
:1023000094F85C10202088403040002865D0206878
:10231000006800F0100000285FD094F85C102020C6
:102320008840A86094F83500052828D12068006806
:1023300020F01600216808602068406920F08000C5
:1023400021684861206C08B9A06C28B12068006839
:1023500020F008002168086094F85C103F20884055
:10236000A860012084F8350000BF002084F8340004
:1023700000BF206D10B12046216D8847F8BD206850
:10238000006800F4802080B12068006800F400201C
:1023900028B9606C10B12046616C88471DE0E06B85
:1023A000D8B12046E16B884717E02068006800F448
:1023B000807068B92068006820F01000216808600B
:1023C000012084F8350000BF002084F8340000BFED
:1023D000E06B10B12046E16B8847606D38B3606DEB
:1023E00000F00100F0B1052084F835002068006895
:1023F00020F001002168086000BF0098401C009098
:10240000B84200D905E02068006800F0010000280B
:10241000F3D100BF012084F8350000BF002084F80C
:10242000340000BFE06C10B12046E16C884700BF6B
:10243000A4E70000200000202DE9F041044600251B
:1024400000F052FA074614B90120BDE8F081606A35
:1024500000B100BF022084F8350000BF002084F8DE
:10246000340000BF2068006820F001002168086087
:102470000AE000F039FAC01B052805D92020606564
:10248000032084F83500E0E72068006800F00100D0
:102490000028EED12068056821480540D4E90101F3
:1024A0000843E16808432169084361690843A16959
:1024B0000843E1690843216A08430543606A042828
:1024C00003D1D4E90B010843054320680560206867
:1024D000456925F00705606A0543606A04280DD147
:1024E000A06A0543E06A48B12046FEF785FD28B1A1
:1024F00040206065012084F83500A6E7206845612A
:102500002046FEF75FFD064694F85C103F208840A9
:10251000B06000206065012084F83500002094E759
:102520003F8010F070B5044600F0DEF906462546FF
:10253000681C10B104480078054400BF00F0D4F9CD
:10254000801BA842FAD370BD1C0000202DE9F04189
:1025500004460E460127002500BF2548007E0128BD
:1025600002D10220BDE8F08101202149087600BF98
:102570004CF25030FEF724FF0746002F31D1401EA9
:102580003060206801280FD1207C6168FEF75CFE76
:102590004CF25030FEF714FF07461648006820F052
:1025A0000400144908601AE0A56812E0217C28465E
:1025B000FEF7E0FD4CF25030FEF702FF07460D48F3
:1025C000006820F0FA000B4908600FB1356005E0A3
:1025D0006D1CD4E902100844A842E7D800BFFEF7FA
:1025E000F7FD00BF00200249087600BF3846B9E772
:1025F000800C0020103C02400348006840F000407E
:102600000149086000207047103C02402DE9F0416C
:1026100006460F4614461D464FF0010800BF1F48EE
:10262000007E012802D10220BDE8F08101201B4973
:10263000087600BF4CF25030FEF7C2FE8046B8F17B
:10264000000F23D126B9E1B23846FEF715FE12E09D
:10265000012E04D1A1B23846FEF73EFE0BE0022E59
:1026600004D121463846FEF74BFE04E022462B46B5
:102670003846FEF713FE4CF25030FEF7A1FE8046BE
:102680000748006820F001000549086000BF0020ED
:102690000249087600BF4046C6E70000800C0020D3
:1026A000103C024000200949096801F0004159B17D
:1026B0000749064A0C3A1160064911600349096846
:1026C00001F0004101B1012070470000103C0240C0
:1026D00023016745AB89EFCDF8B502460B460025CF
:1026E000002400200021D5E0012606FA01F51E682D
:1026F00006EA0504AC4274D11E7906F00306012EE9
:1027000004D01E7906F00306022E13D190684F0004
:102710000326BE40B0434F00DE68BE4030439060A9
:10272000506801268E40B0431E79C6F300168E40D5
:10273000304350601E7906F00306032E09D0D0689E
:102740004F000326BE40B0434F009E68BE4030435A
:10275000D0601E7906F00306022E13D1CF0802F1D5
:10276000200656F827004E07F70E0F26BE40B0434E
:102770004F07FF0E1E69BE403043CF0802F120060E
:1027800046F8270010684F000326BE40B0431E796C
:1027900006F003064F00BE40304310605E6806F44A
:1027A0004036002E75D000BF002600963B4E36689E
:1027B00046F48046394F3E603E46366806F4804611
:1027C000009600BF00BF364E8F0856F827008E07D0
:1027D000370F0F26BE40B043324EB24202D1002620
:1027E00024E056E0304EB24201D101261EE02F4EC9
:1027F000B24201D1022619E02D4EB24201D1032688
:1028000014E02C4EB24201D104260FE02A4EB2420F
:1028100001D105260AE0294EB24201D1062605E083
:10282000274EB24201D1072600E008268F073F0F4E
:10283000BE4030431A4E8F0846F82700214E3068BC
:10284000A0435E6806F4803606B120431D4E30601A
:10285000361D3068A0435E6806F4003606B120439A
:10286000184E361D3060361D3068A0435E6806F491
:10287000801606B12043134E08363060361D30688E
:10288000A0435E6806F4001606B120430D4E0C36D8
:102890003060491C1029FFF427AFF8BD44380240CE
:1028A00008380140000002400004024000080240D5
:1028B000000C0240001002400014024000180240C8
:1028C000001C0240003C014010B5426921EA0203AD
:1028D00002EA010443EA0443836110BD0AB1816145
:1028E00001E00B04836170470148006870470000F5
:1028F000140000200348006803490978084401498E
:1029000008607047140000201C00002010B50D481E
:10291000006840F400700B4908600846006840F405
:10292000806008600846006840F4807008600320FA
:1029300000F0C6F8002000F007F800F049F8002089
:1029400010BD0000003C024070B588B00446002570
:102950000026002221461C2000F074F81C2000F004
:1029600061F800BF002001901648006840F00100A7
:10297000144908600846006800F00100019000BF9B
:1029800000BF02A903A800F071F900F097F9450013
:102990000D48B5FBF0F0461E4FF080400B49086033
:1029A00040F2E7310948C160466000210161816061
:1029B00000F0E0FC20B9054800F02AFD08B070BD29
:1029C0000120FBE74038024040420F00380C002055
:1029D00008B500BF002000901148006840F4804016
:1029E0000F4908600846006800F48040009000BF6E
:1029F00000BF00BF00200090081F006840F080501A
:102A0000091F08600846006800F08050009000BF71
:102A100000BF00220F21901E00F014F808BD000036
:102A20004438024001460846002809DB00F01F0335
:102A300001229A4043099B0003F1E023C3F80021DF
:102A400000BF70472DE9F05F80460D46164600270F
:102A500002F052FB074639462A46334601F007008A
:102A6000C0F1070ABAF1040F02D94FF0040A01E0DD
:102A7000C0F1070AD14600F1040ABAF1070F02D2E9
:102A80004FF0000A01E0A0F1030AD4464FF0010A1A
:102A90000AFA09FAAAF1010A0AEA020A0AFA0CFA7F
:102AA0004FF0010B0BFA0CFBABF1010B0BEA030B24
:102AB0004AEA0B042146404602F026FBBDE8F09F9F
:102AC00000BF00F00702064B19684FF6FF031940DC
:102AD000044B0B4343EA0221014B196000BF7047CE
:102AE0000CED00E00000FA0570B504460D460CB987
:102AF000012070BD5848006800F00700A84209D2C4
:102B000055490D700846006800F00700A84201D042
:102B10000120EEE7207800F0020002281DD1207885
:102B200000F00400042805D14C48006840F4E0504F
:102B30004A490860207800F00800082805D1474875
:102B4000006840F46040454908604448006820F04F
:102B5000F000A168084341490860207800F00100B6
:102B6000A8B36068012807D13C4808380068C0F362
:102B70004040B8B90120BCE76068022802D0606814
:102B8000032807D1354808380068C0F3406048B9C9
:102B90000120AEE7314808380068C0F3400008B9AA
:102BA0000120A6E72D48006820F003006168084373
:102BB0002A490860FFF798FE064609E0FFF794FEF1
:102BC000801B41F28831884202D9032091E707E057
:102BD0002248006800F00C006168B0EB810FEDD175
:102BE0001D48006800F00700A84209D91A490D7075
:102BF0000846006800F00700A84201D0012078E7ED
:102C0000207800F00400042807D11448006820F45C
:102C1000E050E168084311490860207800F008009E
:102C2000082808D10D48006820F46040216940EA76
:102C3000C1000A49086000F061F808490968C1F359
:102C40000311074A515CC8400649086006480068FD
:102C5000FFF77AFE00204CE7003C024008380240B3
:102C60002C9B000820000020180000200F2202608A
:102C70000D4A126802F0030242600B4A126802F029
:102C8000F0028260084A126802F4E052C260064A0A
:102C9000126802F46042D2080261044A126802F02B
:102CA00007020A607047000008380240003C0240FA
:102CB00001480068704700002000002000B5FFF7C1
:102CC000F7FF04490968C1F38221034A515CC840F7
:102CD00000BD0000083802403C9B000800B5FFF72B
:102CE000E7FF04490968C1F34231034A515CC84017
:102CF00000BD0000083802403C9B00082DE9F04769
:102D0000002400250026A1462548006800F00C009C
:102D100020B1042805D008283AD105E0DFF88490D6
:102D200039E0DFF8849036E01D48001F006800F0AD
:102D30003F041B48001F006800F4800078B11A4867
:102D40001749091F0968C1F38811A0FB01700146EA
:102D5000224600233846FDF70BFB05460EE01148DE
:102D60000F49091F0968C1F38811A0FB01700146D2
:102D7000224600233846FDF7FBFA05460848001FA7
:102D80000068C0F30140401C4600B5FBF6F902E0C4
:102D9000DFF8109000BF00BF4846BDE8F087000094
:102DA000083802400024F40040787D01F8B504465C
:102DB0000CB90120F8BD207800F00100002874D083
:102DC000F948006800F00C0004280DD0F6480068AF
:102DD00000F00C00082813D1F348001F006800F42D
:102DE0008000B0F5800F0BD1EF4808380068C0F3C1
:102DF0004040002859D06068002856D10120D9E70A
:102E000000BF6068B0F5803F08D1E7480838006827
:102E100040F48030E449083908601EE06068B0F58D
:102E2000A02F0DD1E0480838006840F48020DE492A
:102E3000083908600846006840F4803008600CE0FB
:102E4000D9480838006820F48030D749083908602C
:102E50000846006820F48020086000BF606890B1D8
:102E6000FFF742FD054606E0FFF73EFD401B6428E4
:102E700001D903209EE7CC4808380068C0F34040E1
:102E80000028F1D011E0FFF72FFD054606E0FFF71F
:102E90002BFD401B642801D903208BE7C24808386A
:102EA0000068C0F340400028F1D1207800F0020013
:102EB00002285FD1BC48006800F00C0058B1BA4845
:102EC000006800F00C0008281CD1B748001F0068FB
:102ED00000F48000B0B9B44808380068C0F340007E
:102EE00020B1E068012801D0012063E7AE4808382E
:102EF000006820F0F800216940EAC100AA490839B9
:102F0000086037E0E06800B30120A8490860FFF7D7
:102F1000EBFC054606E0FFF7E7FC401B022801D961
:102F2000032047E7A04808380068C0F340000028A5
:102F3000F1D09D480838006820F0F800216940EA87
:102F4000C10099490839086014E0002097490860D9
:102F5000FFF7CAFC054606E0FFF7C6FC401B022847
:102F600001D9032026E7904808380068C0F34000E4
:102F70000028F1D1207800F0080008282CD16069E1
:102F8000A8B101208A490860FFF7AEFC054606E0BB
:102F9000FFF7AAFC401B022801D903200AE7824858
:102FA0006C300068C0F340000028F1D014E000202D
:102FB0007F490860FFF798FC054606E0FFF794FCA0
:102FC000401B022801D90320F4E677486C300068E2
:102FD000C0F340000028F1D1207800F0040004285C
:102FE00070D1002770483830006800F0805090B9E8
:102FF00000BF002000906C483830006840F08050DE
:103000006949383108600846006800F08050009037
:1030100000BF00BF01276748006800F48070B0B9A6
:103020006448006840F4807062490860FFF75CFC07
:10303000054606E0FFF758FC401B022801D9032093
:10304000B8E65C48006800F480700028F2D000BF49
:10305000A068012808D154486830006840F0010099
:103060005149683108601DE0A06805280DD14E481F
:103070006830006840F004004B4968310860084639
:10308000006840F0010008600CE0474868300068C4
:1030900020F001004449683108600846006820F0CB
:1030A0000400086000BFA068A8B1FFF71DFC05463A
:1030B00009E0FFF719FC401B41F28831884202D930
:1030C000032077E626E0384868300068C0F3400007
:1030D0000028EED013E0FFF707FC054608E0FFF7F5
:1030E00003FC401B41F28831884201D9032061E68C
:1030F0002D4868300068C0F340000028EFD1012F50
:1031000007D129483830006820F0805026493831EE
:10311000086000BFA069002845D02348006800F07F
:103120000C0008285DD0A069022845D100201F4965
:103130000866FFF7D9FB054606E0FFF7D5FB401B05
:10314000022801D9032035E6174808380068C0F383
:1031500040600028F1D1D4E907010843616A40EAE0
:1031600081110122A06AC2EB500041EA00412C20EB
:10317000005D41EA00600C49091F086001200B490D
:103180000866FFF7B1FB054606E0FFF7ADFB401B05
:10319000022801D903200DE6034808380068C0F36F
:1031A00040600028F1D049E0083802400000474262
:1031B000800E474200700040002021490866FFF75A
:1031C00093FB054606E0FFF78FFB401B022801D961
:1031D0000320EFE51B480068C0F340600028F2D1EF
:1031E0002CE0A069012800D1E4E51648001D06681E
:1031F000A069012820D006F48001E06981421BD13A
:1032000006F03F01206A814216D147F6C070304077
:10321000616AB0EB811F0FD106F440310122A06A30
:10322000C2EB5000B1EB004F06D106F070612C20CC
:10323000005DB1EB006F01D00120BBE50020B9E5D6
:1032400000004742003802407047704710B50346FF
:10325000002200BF93F83C00012801D1022010BDDC
:10326000012083F83C0000BF22F0FF00CC6840EA58
:10327000040222F440708C6840EA040222F4806068
:103280004C6840EA040222F400600C6840EA040240
:1032900022F480500C6940EA040222F400504C6988
:1032A00040EA040222F48040CC6940EA0402186833
:1032B000426400BF002083F83C0000BF00BFCEE79F
:1032C00030B502460B4600BF92F83C00012801D100
:1032D000022030BD012082F83C0000BF022082F8AD
:1032E0003D00106844681068816824F07004186814
:1032F000044310684460184D1068A8421BD0106841
:10330000B0F1804F17D0154D1068A84213D0144D5E
:103310001068A8420FD0134D1068A8420BD0124D70
:103320001068A84207D0114D1068A84203D0104D74
:103330001068A84205D121F0800158680143106847
:103340008160012082F83D0000BF002082F83C002F
:1033500000BF00BFBDE700000000014000040040C6
:1033600000080040000C0040000401400040014003
:103370000018004010B504460CB9012010BD94F8A7
:103380003D0028B9002084F83C00204600F026F8D3
:10339000022084F83D00211D206801F0F9F9012088
:1033A00084F8460000BF84F83E0001213F2001550B
:1033B000402001554120015500BF00BF012084F885
:1033C000420043200155442001554520015500BFCE
:1033D000012084F83D000020D0E7000008B50A4A2B
:1033E000016891420FD100BF00210091074909688F
:1033F00041F00101054A11601146096801F001011F
:10340000009100BF00BF08BD0000014044380240E9
:10341000014691F83D00012801D0012070470220AB
:1034200081F83D000868C06840F001000B68D86072
:103430001A4B086898421BD00868B0F1804F17D02B
:10344000174B0868984213D0164B086898420FD063
:10345000154B086898420BD0144B0868984207D067
:10346000134B0868984203D0124B086898420CD15D
:103470000868806800F00702062A0CD00868006817
:1034800040F001000B68186005E00868006840F033
:1034900001000B6818600020C0E700000000014038
:1034A0000004004000080040000C004000040140FF
:1034B00000400140001800402DE9F04104460D464F
:1034C000002700BF94F83C00012802D10220BDE88B
:1034D000F081012084F83C0000BF022084F83D0008
:1034E0002068866826F0770626F47F462068866086
:1034F0002868502833D00CDC202850D004DC002869
:103500004BD0102851D149E0302849D040284CD127
:1035100039E060282DD0702807D0B0F5805F03D047
:10352000B0F5005F41D10DE041E0D5E902136A68D2
:10353000206801F0AAF92068866846F077062068BE
:10354000866034E0D5E902136A68206801F09DF9CD
:103550002068806840F480402168886027E0EA683D
:103560006968206801F082FA5021206801F098F91A
:103570001DE0EA686968206801F08BFA6021206824
:1035800001F08EF913E0EA686968206801F06EFACC
:103590004021206801F084F909E000BF00BF00BFAE
:1035A0002968206801F07CF901E0012700BF00BF15
:1035B000012084F83D0000BF002084F83C0000BFDB
:1035C000384684E7704710B5044620680069C0F3A8
:1035D0004000D8B12068C068C0F34000B0B16FF0BF
:1035E000020021680861012020772068806900F0CE
:1035F000030018B12046FFF7E5FF05E0204600F084
:10360000DDF8204600F091F900202077206800695D
:10361000C0F38000D8B12068C068C0F38000B0B1AA
:103620006FF004002168086102202077206880691B
:1036300000F4407018B12046FFF7C4FF05E02046B3
:1036400000F0BCF8204600F070F9002020772068D8
:103650000069C0F3C000D8B12068C068C0F3C000E2
:10366000B0B16FF00800216808610420207720685D
:10367000C06900F0030018B12046FFF7A3FF05E082
:10368000204600F09BF8204600F04FF900202077FC
:1036900020680069C0F30010D8B12068C068C0F38A
:1036A0000010B0B16FF01000216808610820207789
:1036B0002068C06900F4407018B12046FFF782FF0F
:1036C00005E0204600F07AF8204600F02EF90020B0
:1036D00020772068006900F0010058B12068C068B8
:1036E00000F0010030B16FF0010021680861204650
:1036F00000F0A2F920680069C0F3C01058B120683A
:10370000C068C0F3C01030B16FF08000216808615C
:103710002046FFF799FD20680069C0F3801058B17A
:103720002068C068C0F3801030B16FF0400021689D
:103730000861204600F089F920680069C0F3401054
:1037400058B12068C068C0F3401030B16FF020005D
:10375000216808612046FFF778FD10BD10B586B0DE
:103760000446142101A8FCF76BFF11492068884228
:103770001CD100BF002000900E48006840F01000EF
:103780000C4908600846006800F01000009000BF77
:1037900000BFC81401900220029000200390049002
:1037A0000120059001A90448FEF796FF06B010BD60
:1037B00000000140303802400010024070472DE9FF
:1037C000F04104460D461646002700BF94F83C0021
:1037D000012802D10220BDE8F081012084F83C00DC
:1037E00000BF36B1042E1BD0082E31D00C2E5ED176
:1037F00045E02946206801F05DF82068806940F0C6
:103800000800216888612068806920F00400216830
:10381000886120688069296908432168886148E0D7
:103820002946206801F07EF82068806940F4006035
:10383000216888612068806920F48060216888613F
:1038400020688069296940EA01202168886130E0A8
:103850002946206801F0A4F82068C06940F00800FB
:103860002168C8612068C06920F004002168C8612F
:103870002068C069296908432168C86119E02946A0
:10388000206801F0C9F82068C06940F40060216830
:10389000C8612068C06920F480602168C861206820
:1038A000C069296940EA01202168C86101E0012757
:1038B00000BF00BF00BF002084F83C0000BF3846B6
:1038C00089E710B504460CB9012010BD94F83D00FD
:1038D00028B9002084F83C00204600F025F802209A
:1038E00084F83D00211D206800F052FF012084F87B
:1038F000460000BF84F83E0001213F2001554020D2
:1039000001554120015500BF00BF012084F842004D
:1039100043200155442001554520015500BF012099
:1039200084F83D000020D0E77047704770B504462A
:103930000D4615B994F83E000BE0042D02D13F204E
:10394000005D06E0082D02D14020005D01E041202D
:10395000005D012801D0012070BD1DB9022084F84E
:103960003E000EE0042D03D102213F20015508E066
:10397000082D03D102214020015502E002214120FF
:10398000015501222946206800F06EFF2349206876
:10399000884203D022492068884201D1012000E0FA
:1039A000002028B12068406C40F400402168486441
:1039B0001A49206888421BD02068B0F1804F17D088
:1039C00018492068884213D01749206888420FD0D0
:1039D0001649206888420BD011492068884207D0D8
:1039E00013492068884203D01249206888420CD1CC
:1039F0002068806800F00706062E0CD0206800685A
:103A000040F001002168086005E02068006840F08F
:103A100001002168086000209EE7000000000140CE
:103A2000000401400004004000080040000C004079
:103A3000004001400018004010B504462068B0F175
:103A4000804F01D1FEF756FF10BD70477047704799
:103A50002DE9F84F0446206805682068C66820688C
:103A600047694FF00009CA4605F00F09B9F1000F88
:103A70000AD105F0200038B106F0200020B1204620
:103A800001F076F8BDE8F88FB9F1000F7CD007F0AF
:103A9000010018B906F49070002875D005F00100F7
:103AA00030B106F4807018B1206C40F00100206441
:103AB00005F0040030B107F0010018B1206C40F0AF
:103AC0000200206405F0020030B107F0010018B1D7
:103AD000206C40F00400206405F0080048B106F0B6
:103AE000200010B907F0010018B1206C40F0080068
:103AF0002064206C002846D005F0200028B106F094
:103B0000200010B1204601F033F820684069C0F36E
:103B1000801A206C00F0080010B9BAF1000F2DD007
:103B2000204600F0DFFF2068406900F04000402898
:103B300020D100BF00BF2168143151E8001F21F0DF
:103B400040002168143141E80002002AF3D100BF8F
:103B5000A06B50B17548A16B0865A06BFEF737FBF1
:103B600088B1A06B016D88470DE02046FFF76FFF1D
:103B700009E009E02046FFF76AFF04E02046FFF76E
:103B800066FF002020647DE7206B012876D105F0D8
:103B90001000002872D006F010000028FAD000BFF4
:103BA0000020009020680068009020684068009025
:103BB00000BF00BF2068406900F0400040285ED18F
:103BC000A06B006840681FFA80F8B8F1000F54D06D
:103BD000A08D404551DDA4F82E80A06BC069B0F5E2
:103BE000807F43D000BF00BF21680C3151E8001F27
:103BF00021F4807021680C3141E80002002AF3D1E1
:103C000000BF00BF00BF2168143151E8001F21F040
:103C100001002168143141E80002002AF3D100BFFD
:103C200000BF00BF2168143151E8001F21F040009F
:103C30002168143141E80002002AF3D100BF20209E
:103C400084F83E000020206300BF00BF21680C31D3
:103C500051E8001F21F0100021680C3141E80002FA
:103C6000002AF3D100BFA06BFEF75BFAA08DE28DB6
:103C7000801A81B22046FFF7E9FE03E740E0A08DFD
:103C8000E18D401A1FFA80F8E08DC0B3B8F1000F43
:103C900035D000BF00BF21680C3151E8001F21F46E
:103CA000907021680C3141E80002002AF3D100BF76
:103CB00000BF00BF2168143151E8001F21F001004E
:103CC0002168143141E80002002AF3D100BF20200E
:103CD00084F83E000020206300BF00BF21680C3143
:103CE00051E8001F21F0100021680C3141E800026A
:103CF000002AF3D100BF41462046FFF7A7FEC1E6E8
:103D000005F0800030B106F0800018B1204601F0C7
:103D1000C1F8B7E605F0400030B106F0400018B138
:103D2000204600F015FFADE600BFABE6D14A000823
:103D300010B504460CB9012010BDA06900B100E027
:103D400000BF94F83D0028B9002084F83C002046CC
:103D500000F028F8242084F83D002068C06820F492
:103D600000502168C860204600F07EFF206800698E
:103D700020F49040216808612068406920F02A0002
:103D8000216848612068C06840F400502168C8601C
:103D900000202064202084F83D0084F83E000020AC
:103DA000CAE7000010B586B00446142101A8FCF74C
:103DB00047FCA949206888427ED100BF00200090BE
:103DC000A648006840F48010A449086008460068CE
:103DD00000F48010009000BF00BF00BF00200090E2
:103DE0009E481038006840F004009C491039086073
:103DF0000846006800F00400009000BF00BF00BF4C
:103E0000002000900846006840F00800086008465E
:103E1000006800F00800009000BF00BF8814019007
:103E200002200290002003900320049008200590B7
:103E300001A98B48FEF750FC04200190022002905B
:103E400000200390032004900820059001A98548D4
:103E5000FEF742FC844885490860C005486000219F
:103E600082488160C1604FF480610161002141613D
:103E700081614FF48071C161002101624162FEF7EE
:103E8000DBFA08B1FDF774F900BF7848A0638463DA
:103E900000BF7548A830764908604FF00060486060
:103EA0004021734881600021C1604FF4806101614D
:103EB00000214161816100E018E04FF48071C1612F
:103EC000002101624162FEF7B7FA08B1FDF750F92F
:103ED00000BF67486063846300BF0022052135206E
:103EE000FEF7B0FD3520FEF79DFDB2E06149206888
:103EF000884279D100BF002000905848006840F403
:103F00000030564908600846006800F40030009010
:103F100000BF00BF00BF002000905048103800686C
:103F200040F001004D49103908600846006800F073
:103F30000100009000BF00BF00BF002000900846B5
:103F4000006840F0080008600846006800F00800BB
:103F5000009000BF00BF08200190022002900020C6
:103F60000390032004900720059001A94248FEF722
:103F7000B3FB202001900220029000200390032038
:103F800004900720059001A93648FEF7A5FB3648A6
:103F900078303A4908604FF00060486000213748A7
:103FA0008160C1604FF480610161002141618161E4
:103FB0004FF48071C1614FF44031016200214162D0
:103FC000FEF73AFA08B1FDF7D3F800BF2B48A0631B
:103FD000846300BF002205212620FEF733FD262042
:103FE000FEF720FD35E0FFE725492068884230D103
:103FF00000BF002000901948006840F48020174955
:1040000008600846006800F48020009000BF00BFF0
:1040100000BF0020009011481038006840F00200F6
:104020000E49103908600846006800F00200009050
:1040300000BF00BF4FF440600190022002900020BA
:104040000390032004900720059001A90D48FEF776
:1040500043FB06B010BD0000005000404038024055
:1040600000080240000C024010600240180B0020C3
:10407000780B00200044004000000240D80B0020D4
:1040800000480040000402402DE9F84F04460E4667
:10409000174699464FF0000A94F83E0020285FD159
:1040A00006B117B90120BDE8F88F00BF94F83C00B5
:1040B000012801D10220F6E7012084F83C0000BF6E
:1040C00000202064222084F83E0000202063FEF7B8
:1040D0000BFC8246A785E785A068B0F5805F04D118
:1040E000206910B90025B04602E035464FF00008BF
:1040F00000BF002084F83C0000BF29E053460022A6
:1041000020212046CDF8009000F0F4FE08B10320F5
:10411000C9E745B920684068C0F30800A8F8000066
:1041200008F1020811E0A068B0F5805F03D0A06834
:1041300028B9206918B920684068287004E0206810
:10414000406800F07F0028706D1CE08D401EE08507
:10415000E08D0028D2D1202084F83E000020A2E784
:104160000220A0E770472DE9F84F04460E46174697
:1041700099464FF0000A94F83D0020285AD106B124
:1041800017B90120BDE8F88F00BF94F83C00012862
:1041900001D10220F6E7012084F83C0000BF002096
:1041A0002064212084F83D00FEF79EFB8246A78410
:1041B000E784A068B0F5805F04D1206910B90025BC
:1041C000B04602E035464FF0000800BF002084F8FA
:1041D0003C0000BF1BE05346002280212046CDF862
:1041E000009000F087FE08B10320CBE745B9B8F88E
:1041F0000000C0F308002168486008F1020803E0ED
:104200002878216848606D1CE08C401EE084E08CBA
:104210000028E0D15346002240212046CDF80090EE
:1042200000F068FE08B10320ACE7202084F83D00D0
:104230000020A7E70220A5E7704700BFFEE700BF08
:1042400002F046FC012002F07EFEF9E710B50E48B0
:104250000E4908600320486000210C488160C1605D
:104260004FF4002101614FF44011416100210176BA
:1042700041768176C176017701214177FDF795FD81
:1042800008B1FCF775FF10BD00640040BC080020B9
:1042900010B50E480E4908600320486000210C4804
:1042A0008160C1604FF4002101614FF44011416110
:1042B0000021017641768176C1760177012141772F
:1042C000FDF773FD08B1FCF753FF10BD0068004017
:1042D000E408002008B500BF0020009012480068E4
:1042E00040F40010104908600846006800F400100F
:1042F000009000BF00BF002205210B20FEF7A2FBAB
:104300000B20FEF78FFB002205211020FEF79AFB01
:104310001020FEF787FB002205212F20FEF792FBDD
:104320002F20FEF77FFB08BD3038024010B50E4A43
:1043300000210E4802F05CFE0D4908600D4A002184
:104340000D4802F055FE0D4908600D4A00210D4848
:1043500002F04EFE0C4908600C4A00210C4802F0A5
:1043600047FE0C49086010BD949A00088F4600086B
:1043700000000020B89A00083F4200080400002016
:10438000DC9A00080968000808000020009B00086B
:10439000698300080C00002000B587B0142102A832
:1043A000FCF74EF900BF002001904648006840F03D
:1043B0000400444908600846006800F004000190C9
:1043C00000BF00BF00BF002001900846006840F019
:1043D000800008600846006800F08000019000BF7F
:1043E00000BF00BF002001900846006840F00100B7
:1043F00008600846006800F00100019000BF00BF9F
:1044000000BF002001900846006840F010000860DE
:104410000846006800F01000019000BF00BF00BF18
:10442000002001900846006840F00200086008463D
:10443000006800F00200019000BF00BF00BF002034
:1044400001900846006840F00800086008460068CF
:1044500000F00800019000BF00BF01224FF4D841D6
:104460001948FEF73BFA01224FF420411748FEF7A6
:1044700035FA4FF4C84002900120039000200490C8
:10448000059002A91048FEF727F94FF4204002904A
:1044900001200390002004900320059002A90B48FE
:1044A000FEF71AF94FF400600290012003900020FB
:1044B00004900320059002A90348FEF70DF907B008
:1044C00000BD0000303802400008024000040240F5
:1044D00000B595B0002011901290139014900F9099
:1044E00010901C2108A8FCF7ABF820216846FCF7C7
:1044F000A7F82B482B490860A720486000212948CD
:10450000816044F61F61C160002101614161802129
:104510008161FEF72FFF08B1FCF72AFE4FF48050AF
:10452000119011A91F48FEF7C7FF08B1FCF720FE44
:104530001C48FFF7C6F908B1FCF71AFE00200F90DF
:1045400010900FA91748FEF7BBFE08B1FCF710FE4C
:1045500060200890002009900A900B900C900D901C
:104560000E90042208A90F48FFF729F908B1FCF7BB
:10457000FFFD0020009001900290039004904FF402
:10458000005005900020079069460648FEF75EFE41
:1045900008B1FCF7EDFD0348FFF7E0F815B000BDEA
:1045A000000001400C09002010B50B480B490860C1
:1045B0004FF4E1304860002108488160C16001612A
:1045C0000C21416100218161C161FFF7B1FB08B19C
:1045D000FCF7CEFD10BD0000005000404C0A00204A
:1045E00010B50A480A4908600A484860002108488E
:1045F0008160C16001610C21416100218161C16163
:10460000FFF796FB08B1FCF7B3FD10BD0044004076
:10461000900A0020A086010010B50B480B490860E5
:104620004FF4E1304860002108488160C1600161B9
:104630000C21416100218161C161FFF779FB08B163
:10464000FCF796FD10BD000000480040D40A002091
:1046500000BFFEE7704700210268118002685180A8
:10466000026891800268D1800268117202685172FA
:1046700002685181026891810268D18102681174D7
:10468000026851740268118302685182704700BF4A
:10469000012002F058FCFBE710B54FF0E020006964
:1046A00004F09CFF012801D004F0E6FB10BD0000DF
:1046B00000B593B0302107A8FBF7C2FF142102A870
:1046C000FBF7BEFF00BF002001902448006840F0C7
:1046D0008050224908600846006800F08050019030
:1046E00000BF00BF00BF002001901D48006840F4DB
:1046F00080401B4908600846006800F48040019033
:1047000000BF00BF012007900004089002200D9018
:1047100041050E9119210F914FF4A87110910221BA
:1047200011910421129107A8FEF740FB08B1FCF794
:104730001FFD0F20029002200390002004904FF4F0
:10474000A05005904FF480500690052102A8FEF776
:10475000CBF908B1FCF70CFD13B000BD40380240A6
:10476000007000400548006840F47000034908608C
:104770004FF00060014980390860704788ED00E023
:1047800010B50248FEF71FFF10BD0000380C0020D6
:1047900010B50268294B98420ED0B0F1804F0BD073
:1047A000274B984208D0274B984205D0264B984279
:1047B00002D0264B984203D122F070024B681A4374
:1047C0001E4B984220D0B0F1804F1DD01C4B984218
:1047D0001AD01C4B984217D01B4B984214D01B4B3D
:1047E000984211D01A4B98420ED01A4B98420BD0D7
:1047F000194B984208D0194B984205D0184B984253
:1048000002D0184B984203D122F44072CB681A436D
:1048100022F080034C6943EA040202608B68C362A1
:104820000B688362054B984202D0084B984201D135
:104830000B6903630123436110BD000000000140C8
:104840000004004000080040000C0040000401404B
:104850000040014000440140004801400018004071
:10486000001C00400020004030B501F01F0501246D
:1048700004FA05F3046A9C430462046A01F01F050C
:1048800002FA05F52C43046230BD30B50C46816850
:1048900021F47F4142EA032525432943816030BD4D
:1048A0000A46816821F0700142F0070319438160D4
:1048B0007047000030B5056A25F001050562026AFF
:1048C0004368846924F0700424F003040D682C43C9
:1048D00022F002028D682A43104DA84200D103E065
:1048E0000F4DA84206D100BF22F00802CD682A432E
:1048F00022F00402094DA84202D0094DA84207D176
:1049000023F4807323F400734D692B438D692B438B
:10491000436084614D684563026230BD0000014020
:104920000004014030B5056A25F010050562026AF1
:104930004368846924F4E04424F440740D6844EA34
:10494000052422F020028D6842EA0512124DA84289
:1049500000D103E0114DA84207D100BF22F0800230
:10496000CD6842EA051222F040020B4DA84202D067
:104970000A4DA84209D123F4806323F400634D69F2
:1049800043EA85038D6943EA8503436084614D688A
:104990008563026230BD0000000001400004014058
:1049A00030B5056A25F480750562026A4368C469FA
:1049B00024F0700424F003040D682C4322F40072E8
:1049C0008D6842EA0522124DA84200D103E0114D44
:1049D000A84207D100BF22F40062CD6842EA052256
:1049E00022F480620A4DA84202D00A4DA84209D1A1
:1049F00023F4805323F400534D6943EA05138D6972
:104A000043EA05134360C4614D68C563026230BD6B
:104A1000000001400004014030B5056A25F48055CE
:104A20000562036A4468C26922F4E04222F44072DB
:104A30000D6842EA052223F400538D6843EA0533EA
:104A4000084DA84202D0084DA84204D124F4804465
:104A50004D6944EA85144460C2614D68056403628F
:104A600030BD0000000001400004014030B50B469D
:104A70001446026A056A25F001050562816921F084
:104A8000F00141EA041122F00A021A438161026234
:104A900030BD30B50B461446056A25F01005056299
:104AA0008169026A21F4704141EA043122F0A002D6
:104AB00042EA03128161026230BD000010B5034872
:104AC000FCF729FB0148FEF7C3FF10BD4C0A00208C
:104AD00070B50546AC6B0020E085E0842046FEF70B
:104AE000B6FF70BD00BF00BF02680C3252E8002F55
:104AF00022F4907102680C3242E80013002BF3D1CB
:104B000000BF00BF00BF0268143252E8002F22F03D
:104B100001010268143242E80013002BF3D100BFF8
:104B2000016B01290ED100BF00BF02680C3252E8B0
:104B3000002F22F0100102680C3242E80013002B13
:104B4000F3D100BF202180F83E100021016370479F
:104B500010B504462068C06820F040002168C86095
:104B6000202084F83D002046FFF766FB002010BDA2
:104B7000F8B5044694F83E00222873D1A068B0F539
:104B8000805F0CD1206950B90025A66A2068406872
:104B9000C0F308003080A06A801CA06215E0A56AFE
:104BA0000026A068B0F5805F03D0A06828B920690E
:104BB00018B920684068287004E02068406800F058
:104BC0007F002870A06A401CA062E08D401E80B269
:104BD000E085002844D12068C06820F020002168CA
:104BE000C8602068C06820F480702168C8602068B0
:104BF000406920F0010021684861202084F83E00CF
:104C0000206B012826D10020206300BF00BF21684F
:104C10000C3151E8001F21F0100021680C3141E8EF
:104C20000002002AF3D100BF2068006800F01000E5
:104C300010280AD100BF0020009020680068009072
:104C400020684068009000BF00BFA18D2046FEF79D
:104C5000FDFE02E02046FFF785FA0020F8BD01E0E6
:104C60000020FBE70220F9E72DE9F84F0446206811
:104C7000006920F44050E168084321680861216917
:104C8000A068084361690843E1690843009020680F
:104C9000C06849F20C618843009908432168C860E4
:104CA0002068406920F44070A16908432168486188
:104CB00076492068884203D075492068884203D12C
:104CC000FEF70CF8814602E0FDF7F8FF8146E06947
:104CD000B0F5004F6CD102206168A0FB0150034683
:104CE0001920A9FB007001462A463846FBF740FB15
:104CF0006421B0FBF1F04FEA001A02206168A0FBCA
:104D000001510B461920A9FB00712A463846FBF7D2
:104D10002FFB834602206168A0FB01500346192047
:104D2000A9FB00712A463846FBF722FB6421B0FB41
:104D3000F1F000EBC00101EB0010ABEB8000322181
:104D400001EBC0006421B0FBF1F000F0F8000AEBC9
:104D5000400A02206168A0FB015003461920A9FB0C
:104D6000007001462A463846FBF702FB83460220C4
:104D70006168A0FB015003461920A9FB00712A4677
:104D80003846FBF7F5FA6421B0FBF1F000EBC00107
:104D900001EB0010ABEB8000322101EBC00064217D
:104DA000B0FBF1F000F007005044216888606AE031
:104DB00004206168A0FB015003461920A9FB007084
:104DC00001462A463846FBF7D3FA8246042061683A
:104DD000A0FB015003461920A9FB007001462A469A
:104DE0003846FBF7C5FA6421B0FBF1F000EBC001D7
:104DF00001EB0010AAEB8000322101EB00106421CE
:104E0000B0FBF1F000F0F00A04206168A0FB017033
:104E100003461920A9FB00513A462846FBF7A8FA99
:104E20006421B0FBF1F00AEB001A04206168A0FBDA
:104E300001510B461920A9FB00712A463846FBF7A1
:104E400097FA834604206168A0FB015003461920AD
:104E5000A9FB007001462A463846FBF789FA64210F
:104E6000B0FBF1F000EBC00101EB0010ABEB8000F8
:104E7000322101EB00106421B0FBF1F000F00F00D3
:104E8000504421688860BDE8F88F000000100140A0
:104E900000140140014691F83D00212828D188687E
:104EA000B0F5805F0BD1086948B90A6A1088C0F371
:104EB00008000B685860086A801C086205E00B6AED
:104EC000581C086218780B685860C88C401E80B265
:104ED000C88458B90868C06820F080000B68D860A2
:104EE0000868C06840F040000B68D8600020704738
:104EF0000220FCE72DE9F04104460D46174698468E
:104F0000069E34E0701C88B32EB1FDF7EDFCA0EBDB
:104F10000800B0422BD900BF00BF21680C3151E816
:104F2000001F21F4D07021680C3141E80002002AF2
:104F3000F3D100BF00BF00BF2168143151E8001F4A
:104F400021F001002168143141E80002002AF3D168
:104F500000BF202084F83D0084F83E0000BF002000
:104F600084F83C0000BF0320BDE8F081FFE7206823
:104F700000682840A84201D1012000E00020B8428A
:104F8000C0D00020F0E7000010B50348FEF760FD38
:104F90000148FCF7C0F810BD900A002008B500BF1A
:104FA00000200090134800680068009011480068D5
:104FB0004068009000BF00BF0E480068C06840F025
:104FC00010000C490968C8600A480068406940F050
:104FD00040000849096848611220064A009012689A
:104FE000111D044A044B906BA3F11802FBF70AFE53
:104FF00008BD0000900A00206C09002010B504468E
:1050000003482146C268904701480169884710BD9E
:105010009404002008B500BF0020009011480068EB
:10502000006800900F4800684068009000BF00BF13
:105030000C480068C06840F010000A490968C86060
:1050400008480068406940F0400006490968486126
:10505000044A1268111D034AC823906B024AFCF7E8
:1050600020F808BD4C0A00208409002010B5044631
:1050700003482146C268904701480169884710BD2E
:105080001008002000BFFEE770B505460C4600265C
:105090000DB1022C01D8002070BDA11E0948028864
:1050A0002846FCF71FFB0646F1B2A01E285C814291
:1050B00006D1601E285CB0EB162F01D10120EBE772
:1050C0000020E9E7B007002070B505460C46002631
:1050D0000DB1022C01DC002070BD601E81B2FF22E8
:1050E0002846FCF719FB0646601E285CB04201D139
:1050F0000120F1E70020EFE702480068C0F302203A
:10510000704700000CED00E010B5002804DB0A0732
:10511000130E054A135406E00A07140E034A00F062
:105120000F031B1FD45410BD00E400E018ED00E095
:10513000EFF3058070470000FE48007E012814D17F
:105140000020FD49886008460078072803D00846FB
:105150000078082805D19FEDF90AF948C06C80ED68
:105160000D0A0020F4490870A7E1F248007E0028EB
:10517000FAD1F148007800282EDDEF4800780928A0
:105180002ADAED48C068401CEB49C8600846C06890
:1051900042F6E061884225D90020E74908700120E5
:1051A0000861002015E0002100EB400202EBC00284
:1051B000E34B03EB8202526A82F8381000EB4002A4
:1051C00002EBC00203EB8202126A82F83810411C23
:1051D000C8B20728E7DB05E0D748007810B90020FF
:1051E000D549C860D7480079012830D10020D2497C
:1051F000086100BF29E0012100EB400202EBC00280
:10520000CF4B03EB8202126A82F8381000EB4002A7
:1052100002EBC00203EB8202526A82F8381000EB04
:10522000400101EBC0011A4652F8211091ED020A2B
:10523000B8EEC00A00EB400101EBC00102EB8101B6
:10524000496A81ED000A411CC8B20728D3DBBA487D
:10525000007848B90020B84988609FEDBB0AB8487B
:10526000406A80ED0D0A7FE7B3480078012876D1C7
:10527000B148C078032803D00020AF4908707047B8
:105280000120AF49496A81F83800AD49096A81F8BF
:105290003800A94890ED070AB8EEC00AA848406A4D
:1052A00080ED000A0121A648006D80F83810A4485E
:1052B000C06C80F83810A04890ED0B0AB8EEC00A18
:1052C0009F48006D80ED000A9B48407801285CDC17
:1052D0009B49496AD1ED010A974991ED060AB8EE5A
:1052E000C00A30EEC00ABDEEC00A10EE100A002857
:1052F00003DD052190FBF1F105E04142322291FBF3
:10530000F2F101F5FA7141F2883291420CDA00288B
:1053100003DD052190FBF1F108E04142322291FBCF
:10532000F2F101F5FA7101E041F28831B1F5FA7F4D
:1053300020DD002803DD052190FBF1F105E041426D
:10534000322291FBF2F101F5FA7141F28832914279
:105350000DDA002804DD052190FBF1F10CE04DE0B1
:105360004142322291FBF2F101F5FA7104E041F27F
:10537000883101E04FF4FA7100EE101AB8EEC00A5D
:105380006F49496A81ED0D0A00BF6D48006D90EDCF
:10539000020AB5EEC00AF1EE10FA04DD6848006DAD
:1053A00090ED020A05E06648006D90ED020AB1EE4C
:1053B000400ADFED660AB4EEE00AF1EE10FA05D21B
:1053C0005D488068401C5C49886000E000205A49C4
:1053D00088600846806832286FDD002088600220DF
:1053E000087008464078042804DA08464078401CD3
:1053F0004870B9E6012050494870B5E64E4800783B
:10540000022877D101214E48D0F8A80080F8381042
:105410004B48D0F8A40080F83810474881783C30D9
:1054200050F8210000EE100AB8EEC00A4448D0F847
:10543000A80080ED000A01214148C06F80F83810B3
:105440003F48806F80F838103B4890ED160AB8EE60
:10545000C00A3B48C06F80ED000A374840780128F9
:105460005EDC3749496AD1ED010A334991ED060AFC
:10547000B8EEC00A30EEC00ABDEEC00A10EE100A47
:10548000002803DD052190FBF1F105E041421E22D9
:1054900091FBF2F101F2DC5141F2883291420DDAD6
:1054A000002803DD052190FBF1F109E041421E22B5
:1054B00091FBF2F101F2DC5102E0FAE041F28831B5
:1054C00040F2DC52914220DD002803DD052190FBF3
:1054D000F1F105E041421E2291FBF2F101F2DC51B3
:1054E00041F2883291420DDA002804DD052190FB5B
:1054F000F1F10CE06EE041421E2291FBF2F101F26B
:10550000DC5104E041F2883101E040F2DC5100EE70
:10551000101AB8EEC00A0A49496A81ED0D0A00BFA7
:105520000748D0F8A80090ED020AB5EEC00AF1EEE7
:1055300010FA0DE094040020F00300200080BB4529
:105540006C060020B404002000409C450000484345
:1055500005DDFE48D0F8A80090ED020A06E0FB4801
:10556000D0F8A80090ED020AB1EE400A5FED090AFA
:10557000B4EEE00AF1EE10FA20D2F448C06F90EDDC
:10558000020AB5EEC00AF1EE10FA04DDEF48C06F72
:1055900090ED020A05E0ED48C06F90ED020AB1EE11
:1055A000400A5FED160AB4EEE00AF1EE10FA05D2F9
:1055B000E7488068401CE649886000E00020E44934
:1055C000886008468068322873DD002088600320E8
:1055D0000870C9E5DE48007803286BD10120DB495B
:1055E000496A81F83800D949096A81F83800D848F1
:1055F00090ED090AB8EEC00AD448406A80ED000A6E
:10560000D348B0F86200D34909688863D04840782D
:1056100001285EDCCD49496AD1ED010ACC4991ED02
:10562000060AB8EEC00A30EEC00ABDEEC00A10EE9F
:10563000100A002803DD052190FBF1F105E041424D
:105640001E2291FBF2F101F2DC5141F288329142CB
:105650000CDA002803DD052190FBF1F108E041425E
:105660001E2291FBF2F101F2DC5101E041F288319E
:1056700040F2DC52914221DD002803DD052190FB40
:10568000F1F105E041421E2291FBF2F101F2DC5101
:1056900041F2883291420EDA002803DD052190FBA9
:1056A000F1F10DE041421E2291FBF2F101F2DC51D9
:1056B00006E03AE03AE041F2883101E040F2DC51A4
:1056C00000EE101AB8EEC00AA049496A81ED0D0A31
:1056D00000BF9E48406A90ED020AB5EEC00AF1EEA6
:1056E00010FA04DD9948406A90ED020A05E09748F7
:1056F000406A90ED020AB1EE400ADFED970AB4EE7F
:10570000E00AF1EE10FA05D291488068401C9049F9
:10571000886000E000208E49886008468068322852
:1057200003DD0020886004200870CEE088480078FF
:1057300004281CD18648B0F860008649096888634F
:1057400083488068401C8249886008468068B0F5BC
:10575000C87FEADD0020886008464078012802D131
:1057600006200870B1E0052079490870ADE078485E
:10577000007805287ED101207449496A81F83800F3
:105780007249096A81F838009FED730A6F48406AD0
:1057900080ED0D0A6E4890ED050AB8EEC00A6B4820
:1057A000406A80ED000A6948406A90ED0D0A5FED9D
:1057B0009A0AB4EEE00AF1EE10FA0BD26348406A9E
:1057C00090ED0D0AF2EE040A30EE200A5F48406ABE
:1057D00080ED0D0A01215D48D0F8A80080F838104E
:1057E0005A48D0F8A40080F83810594881784C30D5
:1057F00050F8210000EE100AB8EEC00A5348D0F865
:10580000A80080ED000A01215048C06F80F83810D0
:105810004E48806F80F838104D4890ED170AB8EE6A
:10582000C00A4A48C06F80ED000A4848D0F8A80076
:1058300090ED020AB5EEC00AF1EE10FA05DD43481C
:10584000D0F8A80090ED020A06E04048D0F8A80081
:1058500090ED020AB1EE400A5FEDC40AB4EEE00A30
:10586000F1EE10FA22D23948C06F90ED020AB5EE7F
:10587000C00A00E02AE0F1EE10FA04DD3348C06F00
:1058800090ED020A05E03148C06F90ED020AB1EEDA
:10589000400A5FEDD20AB4EEE00AF1EE10FA05D24A
:1058A0002B488068401C2A49886000E00020284975
:1058B000886008468068322807DD0020886007205D
:1058C000087008468078401C8870DAE32048007829
:1058D000062877D101201D49496A81F838001B4903
:1058E000096A81F838009FED1C0A1848406A80ED6B
:1058F0000D0A174890ED050AB8EEC00A1348406A31
:1059000080ED000A1148406A90ED0D0A5FEDF20A41
:10591000B4EEE00AF1EE10FA0BD20C48406A90EDBA
:105920000D0AF2EE040A30EE200A0848406A80EDC3
:105930000D0A01210548C06F80F838100348806FB8
:1059400080F83810024890ED170A07E06C06002036
:10595000F00300200C0900200000FA43B8EEC00A52
:10596000FE48C06F80ED000AFC48C06F90ED020A4F
:10597000B5EEC00AF1EE10FA04DDF848C06F90ED04
:10598000020A05E0F548C06F90ED020AB1EE400A48
:10599000DFEDF30AB4EEE00AF1EE10FA05D2F148B9
:1059A0008068401CEF49886000E00020ED49886075
:1059B00008468068322888DD00208860072008704B
:1059C0005FE3FFE7E7480078072873D10120E34948
:1059D000496A81F83800E149096A81F83800DF48EE
:1059E000406A90ED0D0ADFEDE00AB4EEE00AF1EE58
:1059F00010FA0BD2D948406A90ED0D0AF2EE040A73
:105A000030EE200AD548406A80ED0D0AD54890ED69
:105A1000050AB8EEC00AD148406A80ED000A0121AB
:105A2000CE48006D80F83810CC48C06C80F8381033
:105A3000CC4890ED0D0AB8EEC00AC848006D80ED64
:105A4000000AC648C06A8068C649096B8842B7DA4E
:105A5000C44890ED0A0AB8EEC00AC048C06C80ED98
:105A60000D0A0121BD48D0F8A80080F83810BB48C5
:105A7000D0F8A40080F83810BA4881783C3050F84B
:105A8000210000EE100AB8EEC00AB448D0F8A80011
:105A900080ED000AB148D0F8A80090ED020AB5EEFA
:105AA000C00AF1EE10FA06DDAC48D0F8A80090ED7F
:105AB000020A07E04FE0A948D0F8A80090ED020ADA
:105AC000B1EE400ADFEDA60AB4EEE00AF1EE10FAFC
:105AD00034D2A248C06C90ED010AF3EE040AB4EE91
